{
  "_format": "hh-sol-artifact-1",
  "contractName": "Boii",
  "sourceName": "contracts/Boii.sol",
  "abi": [
    {
      "inputs": [
        {
          "internalType": "address",
          "name": "_summoner",
          "type": "address"
        },
        {
          "internalType": "address",
          "name": "_depositToken",
          "type": "address"
        },
        {
          "internalType": "uint256",
          "name": "_periodDuration",
          "type": "uint256"
        },
        {
          "internalType": "uint256",
          "name": "_votingPeriodLength",
          "type": "uint256"
        },
        {
          "internalType": "uint256",
          "name": "_gracePeriodLength",
          "type": "uint256"
        },
        {
          "internalType": "uint256",
          "name": "_proposalDeposit",
          "type": "uint256"
        },
        {
          "internalType": "uint256",
          "name": "_dilutionBound",
          "type": "uint256"
        }
      ],
      "stateMutability": "nonpayable",
      "type": "constructor"
    },
    {
      "anonymous": false,
      "inputs": [
        {
          "indexed": true,
          "internalType": "uint256",
          "name": "proposalId",
          "type": "uint256"
        },
        {
          "indexed": false,
          "internalType": "address",
          "name": "proposer",
          "type": "address"
        },
        {
          "indexed": false,
          "internalType": "string",
          "name": "projectHash",
          "type": "string"
        },
        {
          "indexed": false,
          "internalType": "uint256[]",
          "name": "paymentRequest",
          "type": "uint256[]"
        },
        {
          "indexed": false,
          "internalType": "bool[6]",
          "name": "flags",
          "type": "bool[6]"
        },
        {
          "indexed": false,
          "internalType": "uint256",
          "name": "yesVoted",
          "type": "uint256"
        },
        {
          "indexed": false,
          "internalType": "uint256",
          "name": "noVoted",
          "type": "uint256"
        },
        {
          "indexed": false,
          "internalType": "uint256",
          "name": "milestoneIndex",
          "type": "uint256"
        }
      ],
      "name": "UpdateProposal",
      "type": "event"
    },
    {
      "inputs": [],
      "name": "ESCROW",
      "outputs": [
        {
          "internalType": "address",
          "name": "",
          "type": "address"
        }
      ],
      "stateMutability": "view",
      "type": "function"
    },
    {
      "inputs": [],
      "name": "GUILD",
      "outputs": [
        {
          "internalType": "address",
          "name": "",
          "type": "address"
        }
      ],
      "stateMutability": "view",
      "type": "function"
    },
    {
      "inputs": [],
      "name": "TOTAL",
      "outputs": [
        {
          "internalType": "address",
          "name": "",
          "type": "address"
        }
      ],
      "stateMutability": "view",
      "type": "function"
    },
    {
      "inputs": [],
      "name": "a_test_prepare_for_vote",
      "outputs": [],
      "stateMutability": "nonpayable",
      "type": "function"
    },
    {
      "inputs": [
        {
          "internalType": "uint256",
          "name": "proposalId",
          "type": "uint256"
        }
      ],
      "name": "cancelProposal",
      "outputs": [],
      "stateMutability": "nonpayable",
      "type": "function"
    },
    {
      "inputs": [],
      "name": "depositToken",
      "outputs": [
        {
          "internalType": "address",
          "name": "",
          "type": "address"
        }
      ],
      "stateMutability": "view",
      "type": "function"
    },
    {
      "inputs": [],
      "name": "dilutionBound",
      "outputs": [
        {
          "internalType": "uint256",
          "name": "",
          "type": "uint256"
        }
      ],
      "stateMutability": "view",
      "type": "function"
    },
    {
      "inputs": [],
      "name": "getCurrentPeriod",
      "outputs": [
        {
          "internalType": "uint256",
          "name": "",
          "type": "uint256"
        }
      ],
      "stateMutability": "view",
      "type": "function"
    },
    {
      "inputs": [
        {
          "internalType": "address",
          "name": "memberAddress",
          "type": "address"
        },
        {
          "internalType": "uint256",
          "name": "proposalId",
          "type": "uint256"
        },
        {
          "internalType": "uint256",
          "name": "milestone",
          "type": "uint256"
        }
      ],
      "name": "getMemberProposalVoteByMilestone",
      "outputs": [
        {
          "internalType": "enum Boii.Vote",
          "name": "",
          "type": "uint8"
        }
      ],
      "stateMutability": "view",
      "type": "function"
    },
    {
      "inputs": [
        {
          "internalType": "uint256",
          "name": "proposalId",
          "type": "uint256"
        }
      ],
      "name": "getPaymentRequested",
      "outputs": [
        {
          "internalType": "uint256[]",
          "name": "",
          "type": "uint256[]"
        }
      ],
      "stateMutability": "view",
      "type": "function"
    },
    {
      "inputs": [
        {
          "internalType": "uint256",
          "name": "proposalId",
          "type": "uint256"
        }
      ],
      "name": "getProposalFlags",
      "outputs": [
        {
          "internalType": "bool[6]",
          "name": "",
          "type": "bool[6]"
        }
      ],
      "stateMutability": "view",
      "type": "function"
    },
    {
      "inputs": [
        {
          "internalType": "uint256",
          "name": "proposalId",
          "type": "uint256"
        }
      ],
      "name": "getStartPeriod",
      "outputs": [
        {
          "internalType": "uint256[]",
          "name": "",
          "type": "uint256[]"
        }
      ],
      "stateMutability": "view",
      "type": "function"
    },
    {
      "inputs": [
        {
          "internalType": "address",
          "name": "user",
          "type": "address"
        },
        {
          "internalType": "address",
          "name": "token",
          "type": "address"
        }
      ],
      "name": "getUserTokenBalance",
      "outputs": [
        {
          "internalType": "uint256",
          "name": "",
          "type": "uint256"
        }
      ],
      "stateMutability": "view",
      "type": "function"
    },
    {
      "inputs": [],
      "name": "gracePeriodLength",
      "outputs": [
        {
          "internalType": "uint256",
          "name": "",
          "type": "uint256"
        }
      ],
      "stateMutability": "view",
      "type": "function"
    },
    {
      "inputs": [
        {
          "internalType": "uint256",
          "name": "startingPeriod",
          "type": "uint256"
        }
      ],
      "name": "hasVotingPeriodExpired",
      "outputs": [
        {
          "internalType": "bool",
          "name": "",
          "type": "bool"
        }
      ],
      "stateMutability": "view",
      "type": "function"
    },
    {
      "inputs": [
        {
          "internalType": "address",
          "name": "",
          "type": "address"
        }
      ],
      "name": "members",
      "outputs": [
        {
          "internalType": "uint256",
          "name": "shares",
          "type": "uint256"
        },
        {
          "internalType": "bool",
          "name": "exists",
          "type": "bool"
        },
        {
          "internalType": "bool",
          "name": "jailed",
          "type": "bool"
        }
      ],
      "stateMutability": "view",
      "type": "function"
    },
    {
      "inputs": [],
      "name": "periodDuration",
      "outputs": [
        {
          "internalType": "uint256",
          "name": "",
          "type": "uint256"
        }
      ],
      "stateMutability": "view",
      "type": "function"
    },
    {
      "inputs": [
        {
          "internalType": "uint256",
          "name": "proposalId",
          "type": "uint256"
        }
      ],
      "name": "preProcessProposal",
      "outputs": [],
      "stateMutability": "nonpayable",
      "type": "function"
    },
    {
      "inputs": [
        {
          "internalType": "uint256",
          "name": "proposalId",
          "type": "uint256"
        }
      ],
      "name": "processProposal",
      "outputs": [],
      "stateMutability": "nonpayable",
      "type": "function"
    },
    {
      "inputs": [],
      "name": "proposalCount",
      "outputs": [
        {
          "internalType": "uint256",
          "name": "",
          "type": "uint256"
        }
      ],
      "stateMutability": "view",
      "type": "function"
    },
    {
      "inputs": [],
      "name": "proposalDeposit",
      "outputs": [
        {
          "internalType": "uint256",
          "name": "",
          "type": "uint256"
        }
      ],
      "stateMutability": "view",
      "type": "function"
    },
    {
      "inputs": [
        {
          "internalType": "uint256",
          "name": "",
          "type": "uint256"
        }
      ],
      "name": "proposals",
      "outputs": [
        {
          "internalType": "address",
          "name": "applicant",
          "type": "address"
        },
        {
          "internalType": "address",
          "name": "proposer",
          "type": "address"
        },
        {
          "internalType": "address",
          "name": "sponsor",
          "type": "address"
        },
        {
          "internalType": "uint256",
          "name": "sharesRequested",
          "type": "uint256"
        },
        {
          "internalType": "uint256",
          "name": "tributeOffered",
          "type": "uint256"
        },
        {
          "internalType": "uint256",
          "name": "activePeriod",
          "type": "uint256"
        },
        {
          "internalType": "uint256",
          "name": "milestoneIndex",
          "type": "uint256"
        },
        {
          "internalType": "uint256",
          "name": "yesVoted",
          "type": "uint256"
        },
        {
          "internalType": "uint256",
          "name": "noVoted",
          "type": "uint256"
        },
        {
          "internalType": "string",
          "name": "projectHash",
          "type": "string"
        },
        {
          "internalType": "uint256",
          "name": "maxTotalSharesAtYesVote",
          "type": "uint256"
        }
      ],
      "stateMutability": "view",
      "type": "function"
    },
    {
      "inputs": [
        {
          "internalType": "address",
          "name": "",
          "type": "address"
        }
      ],
      "name": "proposedToKick",
      "outputs": [
        {
          "internalType": "bool",
          "name": "",
          "type": "bool"
        }
      ],
      "stateMutability": "view",
      "type": "function"
    },
    {
      "inputs": [
        {
          "internalType": "uint256",
          "name": "sharesToBurn",
          "type": "uint256"
        },
        {
          "internalType": "uint256",
          "name": "proposalId",
          "type": "uint256"
        }
      ],
      "name": "ragequit",
      "outputs": [],
      "stateMutability": "nonpayable",
      "type": "function"
    },
    {
      "inputs": [
        {
          "internalType": "uint256",
          "name": "proposalId",
          "type": "uint256"
        }
      ],
      "name": "sponsorProposal",
      "outputs": [],
      "stateMutability": "nonpayable",
      "type": "function"
    },
    {
      "inputs": [
        {
          "internalType": "address",
          "name": "memberToKick",
          "type": "address"
        },
        {
          "internalType": "string",
          "name": "details",
          "type": "string"
        }
      ],
      "name": "submitGuildKickProposal",
      "outputs": [
        {
          "internalType": "uint256",
          "name": "proposalId",
          "type": "uint256"
        }
      ],
      "stateMutability": "nonpayable",
      "type": "function"
    },
    {
      "inputs": [
        {
          "internalType": "address",
          "name": "applicant",
          "type": "address"
        },
        {
          "internalType": "uint256",
          "name": "sharesRequested",
          "type": "uint256"
        },
        {
          "internalType": "uint256",
          "name": "tributeOffered",
          "type": "uint256"
        },
        {
          "internalType": "string",
          "name": "details",
          "type": "string"
        }
      ],
      "name": "submitJoinProposal",
      "outputs": [
        {
          "internalType": "uint256",
          "name": "proposalId",
          "type": "uint256"
        }
      ],
      "stateMutability": "nonpayable",
      "type": "function"
    },
    {
      "inputs": [
        {
          "internalType": "address",
          "name": "applicant",
          "type": "address"
        },
        {
          "internalType": "uint256[]",
          "name": "paymentRequested",
          "type": "uint256[]"
        },
        {
          "internalType": "uint256[]",
          "name": "startPeriod",
          "type": "uint256[]"
        },
        {
          "internalType": "string",
          "name": "details",
          "type": "string"
        }
      ],
      "name": "submitProjectProposal",
      "outputs": [
        {
          "internalType": "uint256",
          "name": "proposalId",
          "type": "uint256"
        }
      ],
      "stateMutability": "nonpayable",
      "type": "function"
    },
    {
      "inputs": [
        {
          "internalType": "uint256",
          "name": "proposalIndex",
          "type": "uint256"
        },
        {
          "internalType": "uint8",
          "name": "uintVote",
          "type": "uint8"
        }
      ],
      "name": "submitVote",
      "outputs": [],
      "stateMutability": "nonpayable",
      "type": "function"
    },
    {
      "inputs": [],
      "name": "summoningTime",
      "outputs": [
        {
          "internalType": "uint256",
          "name": "",
          "type": "uint256"
        }
      ],
      "stateMutability": "view",
      "type": "function"
    },
    {
      "inputs": [
        {
          "internalType": "address",
          "name": "jailedOne",
          "type": "address"
        }
      ],
      "name": "testAddJailedMember",
      "outputs": [],
      "stateMutability": "nonpayable",
      "type": "function"
    },
    {
      "inputs": [
        {
          "internalType": "address",
          "name": "member",
          "type": "address"
        }
      ],
      "name": "testAddMember",
      "outputs": [],
      "stateMutability": "nonpayable",
      "type": "function"
    },
    {
      "inputs": [
        {
          "internalType": "address",
          "name": "noSharesMember",
          "type": "address"
        }
      ],
      "name": "testAddNoSharesMember",
      "outputs": [],
      "stateMutability": "nonpayable",
      "type": "function"
    },
    {
      "inputs": [
        {
          "internalType": "uint256",
          "name": "proposalId",
          "type": "uint256"
        }
      ],
      "name": "testCancelFlag",
      "outputs": [],
      "stateMutability": "nonpayable",
      "type": "function"
    },
    {
      "inputs": [
        {
          "internalType": "uint256",
          "name": "amount",
          "type": "uint256"
        }
      ],
      "name": "testDeposit",
      "outputs": [],
      "stateMutability": "nonpayable",
      "type": "function"
    },
    {
      "inputs": [
        {
          "internalType": "uint256",
          "name": "proposalId",
          "type": "uint256"
        }
      ],
      "name": "testExceedDilutionBound",
      "outputs": [],
      "stateMutability": "nonpayable",
      "type": "function"
    },
    {
      "inputs": [
        {
          "internalType": "uint256",
          "name": "proposalId",
          "type": "uint256"
        }
      ],
      "name": "testPreProcessFlag",
      "outputs": [],
      "stateMutability": "nonpayable",
      "type": "function"
    },
    {
      "inputs": [
        {
          "internalType": "uint256",
          "name": "proposalId",
          "type": "uint256"
        }
      ],
      "name": "testProcessFlag",
      "outputs": [],
      "stateMutability": "nonpayable",
      "type": "function"
    },
    {
      "inputs": [
        {
          "internalType": "uint256",
          "name": "proposalId",
          "type": "uint256"
        }
      ],
      "name": "testSetMoreYesVote",
      "outputs": [],
      "stateMutability": "nonpayable",
      "type": "function"
    },
    {
      "inputs": [
        {
          "internalType": "uint256",
          "name": "proposalId",
          "type": "uint256"
        }
      ],
      "name": "testSetSponsorFlag",
      "outputs": [],
      "stateMutability": "nonpayable",
      "type": "function"
    },
    {
      "inputs": [],
      "name": "totalShares",
      "outputs": [
        {
          "internalType": "uint256",
          "name": "",
          "type": "uint256"
        }
      ],
      "stateMutability": "view",
      "type": "function"
    },
    {
      "inputs": [
        {
          "internalType": "address",
          "name": "",
          "type": "address"
        },
        {
          "internalType": "address",
          "name": "",
          "type": "address"
        }
      ],
      "name": "userTokenBalances",
      "outputs": [
        {
          "internalType": "uint256",
          "name": "",
          "type": "uint256"
        }
      ],
      "stateMutability": "view",
      "type": "function"
    },
    {
      "inputs": [],
      "name": "votingPeriodLength",
      "outputs": [
        {
          "internalType": "uint256",
          "name": "",
          "type": "uint256"
        }
      ],
      "stateMutability": "view",
      "type": "function"
    },
    {
      "inputs": [
        {
          "internalType": "uint256",
          "name": "amount",
          "type": "uint256"
        }
      ],
      "name": "withdrawBalance",
      "outputs": [],
      "stateMutability": "nonpayable",
      "type": "function"
    }
  ],
  "bytecode": "0x60806040523480156200001157600080fd5b50604051620041c2380380620041c283398101604081905262000034916200044d565b6000805460ff191660011790556001600160a01b0387166200009d5760405162461bcd60e51b815260206004820152601460248201527f73756d6d6f6e65722063616e6e6f74206265203000000000000000000000000060448201526064015b60405180910390fd5b60008511620000fa5760405162461bcd60e51b815260206004820152602260248201527f706572696f644475726174696f6e206d7573742067726561746572207468616e604482015261020360f41b606482015260840162000094565b600084116200015b5760405162461bcd60e51b815260206004820152602660248201527f766f74696e67506572696f644c656e677468206d75737420677265617465722060448201526507468616e20360d41b606482015260840162000094565b670de0b6b3a7640000841115620001c15760405162461bcd60e51b8152602060048201526024808201527f766f74696e67506572696f644c656e677468206578636565647320746865206c6044820152631a5b5a5d60e21b606482015260840162000094565b60008311620002215760405162461bcd60e51b815260206004820152602560248201527f6772616365506572696f644c656e677468206d75737420677265617465722074604482015264068616e20360dc1b606482015260840162000094565b670de0b6b3a7640000831115620002875760405162461bcd60e51b815260206004820152602360248201527f6772616365506572696f644c656e677468206578636565647320746865206c696044820152621b5a5d60ea1b606482015260840162000094565b60008111620002e35760405162461bcd60e51b815260206004820152602160248201527f64696c7574696f6e426f756e64206d7573742067726561746572207468616e206044820152600360fc1b606482015260840162000094565b670de0b6b3a76400008111156200033d5760405162461bcd60e51b815260206004820152601f60248201527f64696c7574696f6e426f756e64206578636565647320746865206c696d697400604482015260640162000094565b6001600160a01b038616620003955760405162461bcd60e51b815260206004820152601860248201527f6465706f736974546f6b656e2063616e6e6f7420626520300000000000000000604482015260640162000094565b600780546001600160a01b0319166001600160a01b039788161790556001948555600293909355600391909155600455600555426006556040805160608101825282815260208082018481526000838501818152979096168652600c9091529190932092518355519181018054935161ffff1990941692151561ff0019169290921761010093151593909302929092179055600955620004b4565b80516001600160a01b03811681146200044857600080fd5b919050565b600080600080600080600060e0888a0312156200046957600080fd5b620004748862000430565b9650620004846020890162000430565b604089015160608a015160808b015160a08c015160c0909c01519a9d939c50919a90999198509650945092505050565b613cfe80620004c46000396000f3fe608060405234801561001057600080fd5b50600436106102745760003560e01c806387dfc82511610151578063bcc77f7a116100c3578063e0a8f6f511610087578063e0a8f6f51461065b578063e63bc62d1461066e578063e681c4aa14610681578063f5d54c771461068a578063f8a562ee14610693578063fad0bd9b146106a657600080fd5b8063bcc77f7a146105e8578063c49b1685146105fb578063c89039c51461062c578063da35c6641461063f578063da76d5cd1461064857600080fd5b806399653fbe1161011557806399653fbe146105205780639cc7c3fd14610533578063ab92d8d714610546578063afe5475f146105b6578063b2643aab146105bf578063b470aade146105df57600080fd5b806387dfc825146104be5780638b15a605146104d15780638b6cb9e5146104da5780639425a476146104fa5780639746d9401461050d57600080fd5b806345e00ef4116101ea57806363858f2d116101ae57806363858f2d1461046a5780636d82244b1461047357806373f8fd4b146104865780637d5b6c72146104995780638340bbce146104a2578063878fc813146104ab57600080fd5b806345e00ef4146103e657806345f2d105146103f95780634c10563114610424578063571ed9c514610437578063623125241461045757600080fd5b806315eb349e1161023c57806315eb349e1461035057806316df1f521461036357806327efc086146103765780632aec35d5146103975780633a98ef39146103aa5780633fc24bba146103b357600080fd5b8063013cf08b14610279578063023b2cd4146102ac578063086146d2146102d757806308ae4b0c146102ed578063115b2d181461033d575b600080fd5b61028c61028736600461327f565b6106d1565b6040516102a39b9a999897969594939291906132de565b60405180910390f35b6102d56102ba36600461327f565b6000908152600d6020526040812060646009820155600a0155565b005b6102df6107c2565b6040519081526020016102a3565b6103206102fb36600461336e565b600c602052600090815260409020805460019091015460ff8082169161010090041683565b6040805193845291151560208401521515908201526060016102a3565b6102df61034b366004613440565b6107e4565b6102d561035e36600461348e565b6109c3565b6102d561037136600461336e565b610a36565b61037f61babe81565b6040516001600160a01b0390911681526020016102a3565b6102d56103a536600461327f565b610ab1565b6102df60095481565b6103d66103c136600461336e565b600b6020526000908152604090205460ff1681565b60405190151581526020016102a3565b6102d56103f436600461327f565b610aeb565b6102df6104073660046134b0565b600a60209081526000928352604080842090915290825290205481565b6102df6104323660046134e3565b610bca565b61044a61044536600461327f565b610eb9565b6040516102a3919061357f565b61044a61046536600461327f565b610f1e565b6102df60035481565b6102d561048136600461327f565b610f81565b6102df6104943660046134b0565b610f9d565b6102df60065481565b6102df60025481565b6102df6104b9366004613612565b610fca565b6102d56104cc36600461327f565b611148565b6102df60045481565b6104ed6104e836600461369f565b611323565b6040516102a391906136e8565b6103d661050836600461327f565b6113c1565b6102d561051b36600461327f565b6113e1565b6102d561052e366004613710565b6118cd565b6102d561054136600461336e565b611d06565b6102d561055436600461336e565b604080516060810182526000808252600160208084018281528486018481526001600160a01b039097168452600c9091529390912091518255915191018054925115156101000261ff00199215159290921661ffff1990931692909217179055565b6102df60055481565b6105d26105cd36600461327f565b611d7b565b6040516102a39190613746565b6102df60015481565b6102d56105f636600461327f565b611de5565b6102d56000808052600d6020527f81955a0a11e65eac625c29e8882660bae4e165a75d72780094acae8ece9a29f555565b60075461037f906001600160a01b031681565b6102df60085481565b6102d561065636600461327f565b611dff565b6102d561066936600461327f565b611e44565b6102d561067c36600461327f565b611fed565b61037f61beef81565b61037f61dead81565b6102d56106a136600461327f565b6120b5565b6102d56106b436600461327f565b6000908152600d60208190526040909120655af3107a4000910155565b600d60205260009081526040902080546001820154600283015460038401546004850154600786015460088701546009880154600a890154600c8a0180546001600160a01b039a8b169b998b169a909816989697959694959394929391929161073990613779565b80601f016020809104026020016040519081016040528092919081815260200182805461076590613779565b80156107b25780601f10610787576101008083540402835291602001916107b2565b820191906000526020600020905b81548152906001019060200180831161079557829003601f168201915b50505050509080600d015490508b565b6000600154600654426107d591906137c3565b6107df91906137d6565b905090565b6000805460ff166108105760405162461bcd60e51b8152600401610807906137f8565b60405180910390fd5b6000805460ff191681556001600160a01b0384168152600c6020908152604091829020825160608101845281548082526001929092015460ff8181161515948301949094526101009004909216151592820192909252906108bf5760405162461bcd60e51b815260206004820152602360248201527f6d656d626572206d7573742068617665206174206c65617374206f6e6520736860448201526261726560e81b6064820152608401610807565b6001600160a01b0384166000908152600c6020526040902060010154610100900460ff161561093a5760405162461bcd60e51b815260206004820152602160248201527f6d656d626572206d757374206e6f7420616c7265616479206265206a61696c656044820152601960fa1b6064820152608401610807565b610942613178565b60016080820181905260408051828152808201909152600091602080830190803683370190505090506000816000815181106109805761098061382f565b60200260200101818152505061099c8660008084858a886120d0565b60016008546109ab91906137c3565b93505050506000805460ff1916600117905592915050565b60005460ff166109e55760405162461bcd60e51b8152600401610807906137f8565b6000805460ff19168155338152600c6020526040902054610a185760405162461bcd60e51b815260040161080790613845565b610a2533838360006121fd565b50506000805460ff19166001179055565b604080516060810182526001808252602080830182815260008486018181526001600160a01b0388168252600c90935294852093518455519282018054915161ffff1990921693151561ff0019169390931761010091151591909102179091556009805491929091610aa990849061386b565b909155505050565b6000818152600d602052604090206001600b820160055b602091828204019190066101000a81548160ff0219169083151502179055505050565b6007546040516323b872dd60e01b8152336004820152306024820152604481018390526001600160a01b03909116906323b872dd906064016020604051808303816000875af1158015610b42573d6000803e3d6000fd5b505050506040513d601f19601f82011682018060405250810190610b66919061387e565b610bbd5760405162461bcd60e51b815260206004820152602260248201527f74657374206465706f73697420746f6b656e207472616e73666572206661696c604482015261195960f21b6064820152608401610807565b610bc733826125bc565b50565b6000805460ff16610bed5760405162461bcd60e51b8152600401610807906137f8565b6000805460ff191690556064610c03858061386b565b1115610c515760405162461bcd60e51b815260206004820152601960248201527f746f6f206d616e792073686172657320726571756573746564000000000000006044820152606401610807565b6001600160a01b038516610c9f5760405162461bcd60e51b815260206004820152601560248201527406170706c6963616e742063616e6e6f74206265203605c1b6044820152606401610807565b6001600160a01b03851661dead14801590610cc557506001600160a01b03851661beef14155b8015610cdc57506001600160a01b03851661babe14155b610cf85760405162461bcd60e51b8152600401610807906138a0565b6001600160a01b0385166000908152600c6020526040902060010154610100900460ff1615610d395760405162461bcd60e51b8152600401610807906138e4565b6007546040516323b872dd60e01b8152336004820152306024820152604481018590526001600160a01b03909116906323b872dd906064016020604051808303816000875af1158015610d90573d6000803e3d6000fd5b505050506040513d601f19601f82011682018060405250810190610db4919061387e565b610e005760405162461bcd60e51b815260206004820152601d60248201527f7472696275746520746f6b656e207472616e73666572206661696c65640000006044820152606401610807565b610e0c61beef846125bc565b6040805160c081018252600080825260208201819052818301819052606082018190526080820181905260a08201819052825160018082528185019094529192909190816020016020820280368337019050509050600081600081518110610e7657610e7661382f565b602002602001018181525050610e91878787848589886120d0565b6001600854610ea091906137c3565b925050506000805460ff19166001179055949350505050565b6000818152600d6020908152604091829020600601805483518184028101840190945280845260609392830182828015610f1257602002820191906000526020600020905b815481526020019060010190808311610efe575b50505050509050919050565b6000818152600d6020908152604091829020600501805483518184028101840190945280845260609392830182828015610f125760200282019190600052602060002090815481526020019060010190808311610efe5750505050509050919050565b6000818152600d6020526040812090600190600b830190610ac8565b6001600160a01b038083166000908152600a60209081526040808320938516835292905220545b92915050565b6000805460ff16610fed5760405162461bcd60e51b8152600401610807906137f8565b6000805460ff191690556001600160a01b0385166110455760405162461bcd60e51b815260206004820152601560248201527406170706c6963616e742063616e6e6f74206265203605c1b6044820152606401610807565b6001600160a01b03851661dead1480159061106b57506001600160a01b03851661beef14155b801561108257506001600160a01b03851661babe14155b61109e5760405162461bcd60e51b8152600401610807906138a0565b6001600160a01b0385166000908152600c6020526040902060010154610100900460ff16156110df5760405162461bcd60e51b8152600401610807906138e4565b6040805160c081018252600080825260208201819052918101829052606081018290526080810182905260a081018290529061112190879080888888876120d0565b600160085461113091906137c3565b9150506000805460ff19166001179055949350505050565b60005460ff1661116a5760405162461bcd60e51b8152600401610807906137f8565b6000805460ff1916905561117d8161264d565b600061118882612786565b6000838152600d60205260409020600b8101805465ff0000000000191665010000000000179081905591925090640100000000900460ff1615156001146112a157806005016000815481106111df576111df61382f565b906000526020600020015460000361123c5760648160030154600954611205919061386b565b111561121057600091505b81600b820160025b602091828204019190066101000a81548160ff0219169083151502179055506112b9565b6007546001600160a01b03166000908152600080516020613ca98339815191526020526040902054600882015460058301805490919081106112805761128061382f565b90600052602060002001541115611210576000915081600b82016002611218565b600b8101805462ff0000191662010000841515021790555b60018101546009820154600a83015460088401546040518794600080516020613c8983398151915294611309946001600160a01b0390921693600c89019360058a0193600b8b01939290916139b0565b60405180910390a250506000805460ff1916600117905550565b6001600160a01b0383166000908152600c602052604081206001015460ff166113875760405162461bcd60e51b81526020600482015260166024820152751b595b58995c88191bd95cdb881b9bdd08195e1a5cdd60521b6044820152606401610807565b506000828152600d60209081526040808320848452600e0182528083206001600160a01b038716845290915290205460ff165b9392505050565b6000600254826113d1919061386b565b6113d96107c2565b101592915050565b60005460ff166114035760405162461bcd60e51b8152600401610807906137f8565b6000805460ff19168155338152600c60205260409020546114365760405162461bcd60e51b815260040161080790613845565b600754600480546040516323b872dd60e01b8152339281019290925230602483015260448201526001600160a01b03909116906323b872dd906064016020604051808303816000875af1158015611491573d6000803e3d6000fd5b505050506040513d601f19601f820116820180604052508101906114b5919061387e565b6115105760405162461bcd60e51b815260206004820152602660248201527f70726f706f73616c206465706f73697420746f6b656e207472616e736665722060448201526519985a5b195960d21b6064820152608401610807565b61151e61beef6004546125bc565b6000818152600d6020526040902060018101546001600160a01b03166115865760405162461bcd60e51b815260206004820181905260248201527f70726f706f73616c206d7573742068617665206265656e2070726f706f7365646044820152606401610807565b600b81015460ff16156115ab5760405162461bcd60e51b815260040161080790613a87565b600b8101546301000000900460ff16156116075760405162461bcd60e51b815260206004820152601b60248201527f70726f706f73616c20686173206265656e2063616e63656c6c656400000000006044820152606401610807565b600b810154610100900460ff16156116615760405162461bcd60e51b815260206004820152601b60248201527f70726f706f73616c20686173206265656e2070726f63657373656400000000006044820152606401610807565b80546001600160a01b03166000908152600c6020526040902060010154610100900460ff16156116a35760405162461bcd60e51b8152600401610807906138e4565b600b810154640100000000900460ff16156117475780546001600160a01b03166000908152600b602052604090205460ff16156117225760405162461bcd60e51b815260206004820152601860248201527f616c72656164792070726f706f73656420746f206b69636b00000000000000006044820152606401610807565b80546001600160a01b03166000908152600b60205260409020805460ff191660011790555b80600801546000036118225761175b6107c2565b61176690600161386b565b8160060160008154811061177c5761177c61382f565b60009182526020909120015560015b6006820154811015611820578160060181815481106117ac576117ac61382f565b9060005260206000200154826006016001836117c891906137c3565b815481106117d8576117d861382f565b90600052602060002001546117ed919061386b565b8260060182815481106118025761180261382f565b6000918252602090912001558061181881613aca565b91505061178b565b505b806006016000815481106118385761183861382f565b60009182526020909120015460078201556002810180546001600160a01b03191633179055600b8101805460ff1916600190811782558201546009830154600a84015460088501546040518795600080516020613c89833981519152956118b4956001600160a01b0390911694600c8a019460058b01946139b0565b60405180910390a250506000805460ff19166001179055565b60005460ff166118ef5760405162461bcd60e51b8152600401610807906137f8565b6000805460ff19168155338152600c60205260409020546119225760405162461bcd60e51b815260040161080790613845565b336000908152600c6020526040902060085483106119525760405162461bcd60e51b815260040161080790613ae3565b6000838152600d60205260409020600b81015460ff1615156001146119b95760405162461bcd60e51b815260206004820152601960248201527f70726f706f73616c20646f6573206e6f742073706f6e736f72000000000000006044820152606401610807565b60038360ff1610611a025760405162461bcd60e51b81526020600482015260136024820152726d757374206265206c657373207468616e203360681b6044820152606401610807565b60008360ff166002811115611a1957611a196136d2565b90508160070154611a286107c2565b1015611a765760405162461bcd60e51b815260206004820152601d60248201527f766f74696e6720706572696f6420686173206e6f7420737461727465640000006044820152606401610807565b611a8382600701546113c1565b15611adb5760405162461bcd60e51b815260206004820152602260248201527f70726f706f73616c20766f74696e6720706572696f6420686173206578706972604482015261195960f21b6064820152608401610807565b60088201546000908152600e83016020908152604080832033845290915281205460ff166002811115611b1057611b106136d2565b14611b5d5760405162461bcd60e51b815260206004820152601860248201527f6d656d6265722068617320616c726561647920766f74656400000000000000006044820152606401610807565b6001816002811115611b7157611b716136d2565b1480611b8e57506002816002811115611b8c57611b8c6136d2565b145b611bda5760405162461bcd60e51b815260206004820152601d60248201527f766f7465206d7573742062652065697468657220596573206f72204e6f0000006044820152606401610807565b60088201546000908152600e8301602090815260408083203384529091529020805482919060ff19166001836002811115611c1757611c176136d2565b02179055506001816002811115611c3057611c306136d2565b03611c6a5782546009830154611c46919061386b565b826009018190555081600d01546009541115611c6557600954600d8301555b611c9a565b6002816002811115611c7e57611c7e6136d2565b03611c9a578254600a830154611c94919061386b565b600a8301555b60018201546009830154600a84015460088501546040518994600080516020613c8983398151915294611cea946001600160a01b0390921693600c8a019360058b0193600b8c01939290916139b0565b60405180910390a250506000805460ff19166001179055505050565b60408051606081018252600180825260208083018281528385018381526001600160a01b0387166000908152600c90935294822093518455519282018054945115156101000261ff00199415159490941661ffff19909516949094179290921790925560098054909190610aa990849061386b565b611d83613178565b6000828152600d6020526040808220815160c081019283905292600b909101916006918390855b825461010083900a900460ff161515815260206001928301818104948501949093039092029101808411611daa575094979650505050505050565b6000818152600d602052604090206001600b820181610ac8565b60005460ff16611e215760405162461bcd60e51b8152600401610807906137f8565b6000805460ff19169055611e34816127fb565b506000805460ff19166001179055565b60005460ff16611e665760405162461bcd60e51b8152600401610807906137f8565b6000805460ff19168155818152600d60205260409020600b81015460ff1615611ea15760405162461bcd60e51b815260040161080790613a87565b600b8101546301000000900460ff1615611f095760405162461bcd60e51b815260206004820152602360248201527f70726f706f73616c2068617320616c7265616479206265656e2063616e63656c6044820152621b195960ea1b6064820152608401610807565b60018101546001600160a01b03163314611f655760405162461bcd60e51b815260206004820152601e60248201527f736f6c656c79207468652070726f706f7365722063616e2063616e63656c00006044820152606401610807565b600b8101805463ff0000001916630100000017815560018201546009830154600a84015460088501546040518795600080516020613c8983398151915295611fc2956001600160a01b0390911694600c8a019460058b01946139b0565b60405180910390a260018101546004820154610a259161beef916001600160a01b0390911690612924565b60005460ff1661200f5760405162461bcd60e51b8152600401610807906137f8565b6000805460ff191690556120228161293d565b600061202d82612786565b6000838152600d60205260409020600b81015491925090640100000000900460ff161515600114612099578060050160008154811061206e5761206e61382f565b906000526020600020015460000361208f5761208a8383612a55565b6120a3565b61208a8383612c56565b6120a38383612e34565b50506000805460ff1916600117905550565b6000818152600d602052604090206001600b82016003610ac8565b6008546000908152600d6020908152604090912080546001600160a01b038a166001600160a01b03199182161782556001820180549091163317905560038101889055600481018790558551909161212f916005840191880190613196565b5083516121459060068301906020870190613196565b506000600782018190556008820181905560098201819055600a820155612171600b82018360066131e1565b50600c81016121808482613b68565b506000600d8201556008805460018301546009840154600a850154938501546040519394600080516020613c89833981519152946121d3946001600160a01b0316938a938d93600b8b0193909190613c28565b60405180910390a26001600860008282546121ee919061386b565b90915550505050505050505050565b6009546001600160a01b0385166000908152600c60205260409020805485111561225f5760405162461bcd60e51b8152602060048201526013602482015272696e73756666696369656e742073686172657360681b6044820152606401610807565b826124dc576000848152600d60205260409020600b015465010000000000900460ff166122ce5760405162461bcd60e51b815260206004820152601d60248201527f70726f706f73616c206d7573742062652070726570726f6365737365640000006044820152606401610807565b6003546002546000868152600d60205260409020600701546122f0919061386b565b6122fa919061386b565b6123026107c2565b1061234f5760405162461bcd60e51b815260206004820181905260248201527f70726f706f73616c206d75737420626520696e20677261636520706572696f646044820152606401610807565b6000848152600d6020908152604080832060088101548452600e0182528083206001600160a01b038a16845290915281205460ff166002811115612395576123956136d2565b036123e25760405162461bcd60e51b815260206004820181905260248201527f6d656d626572206469646e277420766f7465206f6e20612070726f706f73616c6044820152606401610807565b6000848152600d60205260409020600b015462010000900460ff1661240857600261240b565b60015b60ff16600281111561241f5761241f6136d2565b6002811115612430576124306136d2565b6000858152600d6020908152604080832060088101548452600e0182528083206001600160a01b038b16845290915290205460ff166002811115612476576124766136d2565b036124dc5760405162461bcd60e51b815260206004820152603060248201527f6d656d6265722077686f20766f746564207468652073616d6520726573756c7460448201526f0818d85b9b9bdd081c9859d95c5d5a5d60821b6064820152608401610807565b80546124e99086906137c3565b81556009546124f99086906137c3565b6009556007546001600160a01b03166000908152600080516020613ca9833981519152602052604081205461252f908785612fa3565b905080156125b3576007546001600160a01b03166000908152600080516020613ca983398151915260205260408120805483929061256e9084906137c3565b90915550506001600160a01b038088166000908152600a60209081526040808320600754909416835292905290812080548392906125ad90849061386b565b90915550505b50505050505050565b6001600160a01b038083166000908152600a60209081526040808320600754909416835292905290812080548392906125f690849061386b565b90915550506007546001600160a01b031660009081527fed762ddb65dfeab933eda5256eb347e1bf2b4e76044bdc8baf0a70d22dc0c37460205260408120805483929061264490849061386b565b90915550505050565b600854811061266e5760405162461bcd60e51b815260040161080790613ae3565b6000818152600d60205260409020600254600782015461268e919061386b565b6126966107c2565b10156126f55760405162461bcd60e51b815260206004820152602860248201527f70726f706f73616c206973206e6f7420726561647920746f20626520707265706044820152671c9bd8d95cdcd95960c21b6064820152608401610807565b600b810154610100900460ff1615801561271d5750600b81015465010000000000900460ff16155b6127825760405162461bcd60e51b815260206004820152603060248201527f70726f706f73616c2068617320616c7265616479206265656e2070726570726f60448201526f18d95cdcd9590bdc1c9bd8d95cdcd95960821b6064820152608401610807565b5050565b6000818152600d60208190526040909120600a8101546009808301549383015460055491549290941193916127bb9190613c71565b10156127c657600091505b80546001600160a01b03166000908152600c6020526040902060010154610100900460ff16156127f557600091505b50919050565b336000908152600a602090815260408083206007546001600160a01b031684529091529020548111156128675760405162461bcd60e51b8152602060048201526014602482015273696e73756666696369656e742062616c616e636560601b6044820152606401610807565b6128713382613010565b60075460405163a9059cbb60e01b8152336004820152602481018390526001600160a01b039091169063a9059cbb906044016020604051808303816000875af11580156128c2573d6000803e3d6000fd5b505050506040513d601f19601f820116820180604052508101906128e6919061387e565b610bc75760405162461bcd60e51b815260206004820152600f60248201526e1d1c985b9cd9995c8819985a5b1959608a1b6044820152606401610807565b61292e8382613010565b61293882826125bc565b505050565b600854811061295e5760405162461bcd60e51b815260040161080790613ae3565b6000818152600d602052604090206003546002546007830154612981919061386b565b61298b919061386b565b6129936107c2565b10156129ef5760405162461bcd60e51b815260206004820152602560248201527f70726f706f73616c206973206e6f7420726561647920746f2062652070726f63604482015264195cdcd95960da1b6064820152608401610807565b600b810154610100900460ff16156127825760405162461bcd60e51b815260206004820152602360248201527f70726f706f73616c2068617320616c7265616479206265656e2070726f6365736044820152621cd95960ea1b6064820152608401610807565b6000828152600d60205260409020600b8101805461ff00191661010017905560038101546009548391606491612a8b919061386b565b1115612a95575060005b8015612bb057600b8201805462ff000019166201000017905581546001600160a01b03166000908152600c602052604090206001015460ff1615612b1b57600382015482546001600160a01b03166000908152600c6020526040902054612afc919061386b565b82546001600160a01b03166000908152600c6020526040902055612b80565b604080516060810182526003840154815260016020808301828152600084860181815288546001600160a01b03168252600c9093529490942092518355925191018054925115156101000261ff00199215159290921661ffff19909316929092171790555b8160030154600954612b92919061386b565b600981905550612bab61beef61dead8460040154612924565b612be1565b600b8201805462ff00001916905560018201546004830154612be19161beef916001600160a01b0390911690612924565b60018201546009830154600a84015460088501546040518894600080516020613c8983398151915294612c31946001600160a01b0390921693600c8a019360058b0193600b8c01939290916139b0565b60405180910390a26002820154612c50906001600160a01b0316613098565b50505050565b6000828152600d60209081526040808320600b8101805461ff0019166101001790556007546001600160a01b03168452600080516020613ca9833981519152909252909120546008820154600583018054859392908110612cb957612cb961382f565b90600052602060002001541115612cce575060005b8015612daa57600b8201805462ff000019166201000017905581546008830154600584018054612d279361dead936001600160a01b0390911692918110612d1757612d1761382f565b9060005260206000200154612924565b6008820154612d3790600161386b565b60068301541115612da5576001826008016000828254612d57919061386b565b9250508190555081600601826008015481548110612d7757612d7761382f565b60009182526020822001546007840155600b8301805465ff000000ff001916905560098301819055600a8301555b612db9565b600b8201805462ff0000191690555b60018201546009830154600a84015460088501546040518894600080516020613c8983398151915294612e09946001600160a01b0390921693600c8a019360058b0193600b8c01939290916139b0565b60405180910390a28160080154600003612c50576002820154612c50906001600160a01b0316613098565b6000828152600d60205260409020600b8101548290640100000000900460ff16612ea05760405162461bcd60e51b815260206004820152601d60248201527f6d7573742062652061206775696c64206b69636b2070726f706f73616c0000006044820152606401610807565b600b8201805461ff0019166101001790558015612f0a57600b8201805462ff000019166201000017905581546001600160a01b039081166000908152600c6020526040902060018101805461ff00191661010017905583549091612f0491166130a7565b50612f19565b600b8201805462ff0000191690555b60018201546009830154600a84015460088501546040518894600080516020613c8983398151915294612f69946001600160a01b0390921693600c8a019360058b0193600b8c01939290916139b0565b60405180910390a281546001600160a01b039081166000908152600b60205260409020805460ff191690556002830154612c509116613098565b600081600003612fb257600080fd5b83600003612fc2575060006113ba565b6000612fce8486613c71565b905083612fdb86836137d6565b03612ff257612fea83826137d6565b9150506113ba565b83612ffd84876137d6565b6130079190613c71565b95945050505050565b6001600160a01b038083166000908152600a602090815260408083206007549094168352929052908120805483929061304a9084906137c3565b90915550506007546001600160a01b031660009081527fed762ddb65dfeab933eda5256eb347e1bf2b4e76044bdc8baf0a70d22dc0c3746020526040812080548392906126449084906137c3565b610bc761beef82600454612924565b6001600160a01b0381166000908152600c602052604081206001810154909161010090910460ff16151590036131185760405162461bcd60e51b81526020600482015260166024820152751b595b58995c881b5d5cdd081899481a5b881a985a5b60521b6044820152606401610807565b80546131665760405162461bcd60e51b815260206004820152601b60248201527f6d656d626572206d757374206861766520736f6d6520736861726500000000006044820152606401610807565b612782828260000154600060016121fd565b6040518060c001604052806006906020820280368337509192915050565b8280548282559060005260206000209081019282156131d1579160200282015b828111156131d15782518255916020019190600101906131b6565b506131dd92915061326a565b5090565b6001830191839082156131d15791602002820160005b8382111561323457835183826101000a81548160ff02191690831515021790555092602001926001016020816000010492830192600103026131f7565b80156132615782816101000a81549060ff0219169055600101602081600001049283019260010302613234565b50506131dd9291505b5b808211156131dd576000815560010161326b565b60006020828403121561329157600080fd5b5035919050565b6000815180845260005b818110156132be576020818501810151868301820152016132a2565b506000602082860101526020601f19601f83011685010191505092915050565b600061016060018060a01b03808f168452808e166020850152808d166040850152508a60608401528960808401528860a08401528760c08401528660e0840152856101008401528061012084015261333881840186613298565b915050826101408301529c9b505050505050505050505050565b80356001600160a01b038116811461336957600080fd5b919050565b60006020828403121561338057600080fd5b6113ba82613352565b634e487b7160e01b600052604160045260246000fd5b604051601f8201601f1916810167ffffffffffffffff811182821017156133c8576133c8613389565b604052919050565b600082601f8301126133e157600080fd5b813567ffffffffffffffff8111156133fb576133fb613389565b61340e601f8201601f191660200161339f565b81815284602083860101111561342357600080fd5b816020850160208301376000918101602001919091529392505050565b6000806040838503121561345357600080fd5b61345c83613352565b9150602083013567ffffffffffffffff81111561347857600080fd5b613484858286016133d0565b9150509250929050565b600080604083850312156134a157600080fd5b50508035926020909101359150565b600080604083850312156134c357600080fd5b6134cc83613352565b91506134da60208401613352565b90509250929050565b600080600080608085870312156134f957600080fd5b61350285613352565b93506020850135925060408501359150606085013567ffffffffffffffff81111561352c57600080fd5b613538878288016133d0565b91505092959194509250565b600081518084526020808501945080840160005b8381101561357457815187529582019590820190600101613558565b509495945050505050565b6020815260006113ba6020830184613544565b600082601f8301126135a357600080fd5b8135602067ffffffffffffffff8211156135bf576135bf613389565b8160051b6135ce82820161339f565b92835284810182019282810190878511156135e857600080fd5b83870192505b84831015613607578235825291830191908301906135ee565b979650505050505050565b6000806000806080858703121561362857600080fd5b61363185613352565b9350602085013567ffffffffffffffff8082111561364e57600080fd5b61365a88838901613592565b9450604087013591508082111561367057600080fd5b61367c88838901613592565b9350606087013591508082111561369257600080fd5b50613538878288016133d0565b6000806000606084860312156136b457600080fd5b6136bd84613352565b95602085013595506040909401359392505050565b634e487b7160e01b600052602160045260246000fd5b602081016003831061370a57634e487b7160e01b600052602160045260246000fd5b91905290565b6000806040838503121561372357600080fd5b82359150602083013560ff8116811461373b57600080fd5b809150509250929050565b60c08101818360005b6006811015613770578151151583526020928301929091019060010161374f565b50505092915050565b600181811c9082168061378d57607f821691505b6020821081036127f557634e487b7160e01b600052602260045260246000fd5b634e487b7160e01b600052601160045260246000fd5b81810381811115610fc457610fc46137ad565b6000826137f357634e487b7160e01b600052601260045260246000fd5b500490565b6020808252601f908201527f5265656e7472616e637947756172643a207265656e7472616e742063616c6c00604082015260600190565b634e487b7160e01b600052603260045260246000fd5b6020808252600c908201526b3737ba10309036b2b6b132b960a11b604082015260600190565b80820180821115610fc457610fc46137ad565b60006020828403121561389057600080fd5b815180151581146113ba57600080fd5b60208082526024908201527f6170706c6963616e7420616464726573732063616e6e6f7420626520726573656040820152631c9d995960e21b606082015260800190565b60208082526025908201527f70726f706f73616c206170706c6963616e74206d757374206e6f74206265206a604082015264185a5b195960da1b606082015260800190565b6000815480845260208085019450836000528060002060005b8381101561357457815487529582019560019182019101613942565b805460ff80821615158452808260081c1615156020850152808260101c1615156040850152808260181c1615156060850152808260201c1615156080850152808260281c16151560a085015250505050565b600061018060018060a01b038a1683526020818185015260008a546139d481613779565b9386018490526101a093600182811680156139f65760018114613a1057613a3e565b60ff1984168988015282151560051b890187019450613a3e565b8e6000528560002060005b84811015613a365781548b82018a0152908301908701613a1b565b8a0188019550505b505050508481036040860152613a54818b613929565b9350505050613a66606083018761395e565b84610120830152836101408301528261016083015298975050505050505050565b60208082526023908201527f70726f706f73616c2068617320616c7265616479206265656e2073706f6e736f6040820152621c995960ea1b606082015260800190565b600060018201613adc57613adc6137ad565b5060010190565b60208082526017908201527f70726f706f73616c20646f6573206e6f74206578697374000000000000000000604082015260600190565b601f82111561293857600081815260208120601f850160051c81016020861015613b415750805b601f850160051c820191505b81811015613b6057828155600101613b4d565b505050505050565b815167ffffffffffffffff811115613b8257613b82613389565b613b9681613b908454613779565b84613b1a565b602080601f831160018114613bcb5760008415613bb35750858301515b600019600386901b1c1916600185901b178555613b60565b600085815260208120601f198616915b82811015613bfa57888601518255948401946001909101908401613bdb565b5085821015613c185787850151600019600388901b60f8161c191681555b5050505050600190811b01905550565b6001600160a01b038816815261018060208201819052600090613c4d8382018a613298565b90508281036040840152613c618189613544565b915050613a66606083018761395e565b8082028115828204841417610fc457610fc46137ad56fe8c09f1f93a70888c4f771b66728ad738408cba6bf23c2c51fadc873ffaf9a9ba20677881080440a9b3c87e826370bb5d9c2f74efd4dede686d52d77a6a09f8bba26469706673582212204e8445eba1708ab0a4471290916cc73037f2c57a48c9cb4f83f1a34bf050c9aa64736f6c63430008110033",
  "linkReferences": {},
  "deployedLinkReferences": {}
}