{
  "_format": "hh-sol-artifact-1",
  "contractName": "Boii",
  "sourceName": "contracts/Boii.sol",
  "abi": [
    {
      "inputs": [
        {
          "internalType": "address",
          "name": "_summoner",
          "type": "address"
        },
        {
          "internalType": "address",
          "name": "_depositToken",
          "type": "address"
        },
        {
          "internalType": "uint256",
          "name": "_periodDuration",
          "type": "uint256"
        },
        {
          "internalType": "uint256",
          "name": "_votingPeriodLength",
          "type": "uint256"
        },
        {
          "internalType": "uint256",
          "name": "_gracePeriodLength",
          "type": "uint256"
        },
        {
          "internalType": "uint256",
          "name": "_proposalDeposit",
          "type": "uint256"
        },
        {
          "internalType": "uint256",
          "name": "_dilutionBound",
          "type": "uint256"
        }
      ],
      "stateMutability": "nonpayable",
      "type": "constructor"
    },
    {
      "anonymous": false,
      "inputs": [
        {
          "indexed": true,
          "internalType": "uint256",
          "name": "proposalId",
          "type": "uint256"
        },
        {
          "indexed": false,
          "internalType": "address",
          "name": "proposer",
          "type": "address"
        },
        {
          "indexed": false,
          "internalType": "string",
          "name": "projectHash",
          "type": "string"
        },
        {
          "indexed": false,
          "internalType": "uint256[]",
          "name": "paymentRequest",
          "type": "uint256[]"
        },
        {
          "indexed": false,
          "internalType": "bool[6]",
          "name": "flags",
          "type": "bool[6]"
        },
        {
          "indexed": false,
          "internalType": "uint256",
          "name": "yesVoted",
          "type": "uint256"
        },
        {
          "indexed": false,
          "internalType": "uint256",
          "name": "noVoted",
          "type": "uint256"
        },
        {
          "indexed": false,
          "internalType": "uint256",
          "name": "milestoneIndex",
          "type": "uint256"
        }
      ],
      "name": "UpdateProposal",
      "type": "event"
    },
    {
      "inputs": [],
      "name": "ESCROW",
      "outputs": [
        {
          "internalType": "address",
          "name": "",
          "type": "address"
        }
      ],
      "stateMutability": "view",
      "type": "function"
    },
    {
      "inputs": [],
      "name": "GUILD",
      "outputs": [
        {
          "internalType": "address",
          "name": "",
          "type": "address"
        }
      ],
      "stateMutability": "view",
      "type": "function"
    },
    {
      "inputs": [],
      "name": "TOTAL",
      "outputs": [
        {
          "internalType": "address",
          "name": "",
          "type": "address"
        }
      ],
      "stateMutability": "view",
      "type": "function"
    },
    {
      "inputs": [],
      "name": "a_test_prepare_for_vote",
      "outputs": [],
      "stateMutability": "nonpayable",
      "type": "function"
    },
    {
      "inputs": [
        {
          "internalType": "uint256",
          "name": "proposalId",
          "type": "uint256"
        }
      ],
      "name": "cancelProposal",
      "outputs": [],
      "stateMutability": "nonpayable",
      "type": "function"
    },
    {
      "inputs": [],
      "name": "depositToken",
      "outputs": [
        {
          "internalType": "address",
          "name": "",
          "type": "address"
        }
      ],
      "stateMutability": "view",
      "type": "function"
    },
    {
      "inputs": [],
      "name": "dilutionBound",
      "outputs": [
        {
          "internalType": "uint256",
          "name": "",
          "type": "uint256"
        }
      ],
      "stateMutability": "view",
      "type": "function"
    },
    {
      "inputs": [],
      "name": "getCurrentPeriod",
      "outputs": [
        {
          "internalType": "uint256",
          "name": "",
          "type": "uint256"
        }
      ],
      "stateMutability": "view",
      "type": "function"
    },
    {
      "inputs": [
        {
          "internalType": "address",
          "name": "memberAddress",
          "type": "address"
        },
        {
          "internalType": "uint256",
          "name": "proposalId",
          "type": "uint256"
        },
        {
          "internalType": "uint256",
          "name": "milestone",
          "type": "uint256"
        }
      ],
      "name": "getMemberProposalVoteByMilestone",
      "outputs": [
        {
          "internalType": "enum Boii.Vote",
          "name": "",
          "type": "uint8"
        }
      ],
      "stateMutability": "view",
      "type": "function"
    },
    {
      "inputs": [
        {
          "internalType": "uint256",
          "name": "proposalId",
          "type": "uint256"
        }
      ],
      "name": "getPaymentRequested",
      "outputs": [
        {
          "internalType": "uint256[]",
          "name": "",
          "type": "uint256[]"
        }
      ],
      "stateMutability": "view",
      "type": "function"
    },
    {
      "inputs": [
        {
          "internalType": "uint256",
          "name": "proposalId",
          "type": "uint256"
        }
      ],
      "name": "getProposalFlags",
      "outputs": [
        {
          "internalType": "bool[6]",
          "name": "",
          "type": "bool[6]"
        }
      ],
      "stateMutability": "view",
      "type": "function"
    },
    {
      "inputs": [
        {
          "internalType": "uint256",
          "name": "proposalId",
          "type": "uint256"
        }
      ],
      "name": "getStartPeriod",
      "outputs": [
        {
          "internalType": "uint256[]",
          "name": "",
          "type": "uint256[]"
        }
      ],
      "stateMutability": "view",
      "type": "function"
    },
    {
      "inputs": [
        {
          "internalType": "address",
          "name": "user",
          "type": "address"
        },
        {
          "internalType": "address",
          "name": "token",
          "type": "address"
        }
      ],
      "name": "getUserTokenBalance",
      "outputs": [
        {
          "internalType": "uint256",
          "name": "",
          "type": "uint256"
        }
      ],
      "stateMutability": "view",
      "type": "function"
    },
    {
      "inputs": [],
      "name": "gracePeriodLength",
      "outputs": [
        {
          "internalType": "uint256",
          "name": "",
          "type": "uint256"
        }
      ],
      "stateMutability": "view",
      "type": "function"
    },
    {
      "inputs": [
        {
          "internalType": "uint256",
          "name": "startingPeriod",
          "type": "uint256"
        }
      ],
      "name": "hasVotingPeriodExpired",
      "outputs": [
        {
          "internalType": "bool",
          "name": "",
          "type": "bool"
        }
      ],
      "stateMutability": "view",
      "type": "function"
    },
    {
      "inputs": [
        {
          "internalType": "address",
          "name": "",
          "type": "address"
        }
      ],
      "name": "members",
      "outputs": [
        {
          "internalType": "uint256",
          "name": "shares",
          "type": "uint256"
        },
        {
          "internalType": "bool",
          "name": "exists",
          "type": "bool"
        },
        {
          "internalType": "bool",
          "name": "jailed",
          "type": "bool"
        }
      ],
      "stateMutability": "view",
      "type": "function"
    },
    {
      "inputs": [],
      "name": "periodDuration",
      "outputs": [
        {
          "internalType": "uint256",
          "name": "",
          "type": "uint256"
        }
      ],
      "stateMutability": "view",
      "type": "function"
    },
    {
      "inputs": [
        {
          "internalType": "uint256",
          "name": "proposalId",
          "type": "uint256"
        }
      ],
      "name": "preProcessProposal",
      "outputs": [],
      "stateMutability": "nonpayable",
      "type": "function"
    },
    {
      "inputs": [
        {
          "internalType": "uint256",
          "name": "proposalId",
          "type": "uint256"
        }
      ],
      "name": "processProposal",
      "outputs": [],
      "stateMutability": "nonpayable",
      "type": "function"
    },
    {
      "inputs": [],
      "name": "proposalCount",
      "outputs": [
        {
          "internalType": "uint256",
          "name": "",
          "type": "uint256"
        }
      ],
      "stateMutability": "view",
      "type": "function"
    },
    {
      "inputs": [],
      "name": "proposalDeposit",
      "outputs": [
        {
          "internalType": "uint256",
          "name": "",
          "type": "uint256"
        }
      ],
      "stateMutability": "view",
      "type": "function"
    },
    {
      "inputs": [
        {
          "internalType": "uint256",
          "name": "",
          "type": "uint256"
        }
      ],
      "name": "proposals",
      "outputs": [
        {
          "internalType": "address",
          "name": "applicant",
          "type": "address"
        },
        {
          "internalType": "address",
          "name": "proposer",
          "type": "address"
        },
        {
          "internalType": "address",
          "name": "sponsor",
          "type": "address"
        },
        {
          "internalType": "uint256",
          "name": "sharesRequested",
          "type": "uint256"
        },
        {
          "internalType": "uint256",
          "name": "tributeOffered",
          "type": "uint256"
        },
        {
          "internalType": "uint256",
          "name": "activePeriod",
          "type": "uint256"
        },
        {
          "internalType": "uint256",
          "name": "milestoneIndex",
          "type": "uint256"
        },
        {
          "internalType": "uint256",
          "name": "yesVoted",
          "type": "uint256"
        },
        {
          "internalType": "uint256",
          "name": "noVoted",
          "type": "uint256"
        },
        {
          "internalType": "string",
          "name": "projectHash",
          "type": "string"
        },
        {
          "internalType": "uint256",
          "name": "maxTotalSharesAtYesVote",
          "type": "uint256"
        }
      ],
      "stateMutability": "view",
      "type": "function"
    },
    {
      "inputs": [
        {
          "internalType": "address",
          "name": "",
          "type": "address"
        }
      ],
      "name": "proposedToKick",
      "outputs": [
        {
          "internalType": "bool",
          "name": "",
          "type": "bool"
        }
      ],
      "stateMutability": "view",
      "type": "function"
    },
    {
      "inputs": [
        {
          "internalType": "address",
          "name": "memberToKick",
          "type": "address"
        }
      ],
      "name": "ragekick",
      "outputs": [],
      "stateMutability": "nonpayable",
      "type": "function"
    },
    {
      "inputs": [
        {
          "internalType": "uint256",
          "name": "sharesToBurn",
          "type": "uint256"
        },
        {
          "internalType": "uint256",
          "name": "proposalId",
          "type": "uint256"
        }
      ],
      "name": "ragequit",
      "outputs": [],
      "stateMutability": "nonpayable",
      "type": "function"
    },
    {
      "inputs": [
        {
          "internalType": "uint256",
          "name": "proposalId",
          "type": "uint256"
        }
      ],
      "name": "sponsorProposal",
      "outputs": [],
      "stateMutability": "nonpayable",
      "type": "function"
    },
    {
      "inputs": [
        {
          "internalType": "address",
          "name": "memberToKick",
          "type": "address"
        },
        {
          "internalType": "string",
          "name": "details",
          "type": "string"
        }
      ],
      "name": "submitGuildKickProposal",
      "outputs": [
        {
          "internalType": "uint256",
          "name": "proposalId",
          "type": "uint256"
        }
      ],
      "stateMutability": "nonpayable",
      "type": "function"
    },
    {
      "inputs": [
        {
          "internalType": "address",
          "name": "applicant",
          "type": "address"
        },
        {
          "internalType": "uint256",
          "name": "sharesRequested",
          "type": "uint256"
        },
        {
          "internalType": "uint256",
          "name": "tributeOffered",
          "type": "uint256"
        },
        {
          "internalType": "string",
          "name": "details",
          "type": "string"
        }
      ],
      "name": "submitJoinProposal",
      "outputs": [
        {
          "internalType": "uint256",
          "name": "proposalId",
          "type": "uint256"
        }
      ],
      "stateMutability": "nonpayable",
      "type": "function"
    },
    {
      "inputs": [
        {
          "internalType": "address",
          "name": "applicant",
          "type": "address"
        },
        {
          "internalType": "uint256[]",
          "name": "paymentRequested",
          "type": "uint256[]"
        },
        {
          "internalType": "uint256[]",
          "name": "startPeriod",
          "type": "uint256[]"
        },
        {
          "internalType": "string",
          "name": "details",
          "type": "string"
        }
      ],
      "name": "submitProjectProposal",
      "outputs": [
        {
          "internalType": "uint256",
          "name": "proposalId",
          "type": "uint256"
        }
      ],
      "stateMutability": "nonpayable",
      "type": "function"
    },
    {
      "inputs": [
        {
          "internalType": "uint256",
          "name": "proposalIndex",
          "type": "uint256"
        },
        {
          "internalType": "uint8",
          "name": "uintVote",
          "type": "uint8"
        }
      ],
      "name": "submitVote",
      "outputs": [],
      "stateMutability": "nonpayable",
      "type": "function"
    },
    {
      "inputs": [],
      "name": "summoningTime",
      "outputs": [
        {
          "internalType": "uint256",
          "name": "",
          "type": "uint256"
        }
      ],
      "stateMutability": "view",
      "type": "function"
    },
    {
      "inputs": [
        {
          "internalType": "uint256",
          "name": "amount",
          "type": "uint256"
        }
      ],
      "name": "testDeposit",
      "outputs": [],
      "stateMutability": "nonpayable",
      "type": "function"
    },
    {
      "inputs": [],
      "name": "totalShares",
      "outputs": [
        {
          "internalType": "uint256",
          "name": "",
          "type": "uint256"
        }
      ],
      "stateMutability": "view",
      "type": "function"
    },
    {
      "inputs": [
        {
          "internalType": "address",
          "name": "",
          "type": "address"
        },
        {
          "internalType": "address",
          "name": "",
          "type": "address"
        }
      ],
      "name": "userTokenBalances",
      "outputs": [
        {
          "internalType": "uint256",
          "name": "",
          "type": "uint256"
        }
      ],
      "stateMutability": "view",
      "type": "function"
    },
    {
      "inputs": [],
      "name": "votingPeriodLength",
      "outputs": [
        {
          "internalType": "uint256",
          "name": "",
          "type": "uint256"
        }
      ],
      "stateMutability": "view",
      "type": "function"
    },
    {
      "inputs": [
        {
          "internalType": "uint256",
          "name": "amount",
          "type": "uint256"
        }
      ],
      "name": "withdrawBalance",
      "outputs": [],
      "stateMutability": "nonpayable",
      "type": "function"
    }
  ],
  "bytecode": "0x60806040523480156200001157600080fd5b5060405162003ecd38038062003ecd83398101604081905262000034916200044d565b6000805460ff191660011790556001600160a01b0387166200009d5760405162461bcd60e51b815260206004820152601460248201527f73756d6d6f6e65722063616e6e6f74206265203000000000000000000000000060448201526064015b60405180910390fd5b60008511620000fa5760405162461bcd60e51b815260206004820152602260248201527f706572696f644475726174696f6e206d7573742067726561746572207468616e604482015261020360f41b606482015260840162000094565b600084116200015b5760405162461bcd60e51b815260206004820152602660248201527f766f74696e67506572696f644c656e677468206d75737420677265617465722060448201526507468616e20360d41b606482015260840162000094565b670de0b6b3a7640000841115620001c15760405162461bcd60e51b8152602060048201526024808201527f766f74696e67506572696f644c656e677468206578636565647320746865206c6044820152631a5b5a5d60e21b606482015260840162000094565b60008311620002215760405162461bcd60e51b815260206004820152602560248201527f6772616365506572696f644c656e677468206d75737420677265617465722074604482015264068616e20360dc1b606482015260840162000094565b670de0b6b3a7640000831115620002875760405162461bcd60e51b815260206004820152602360248201527f6772616365506572696f644c656e677468206578636565647320746865206c696044820152621b5a5d60ea1b606482015260840162000094565b60008111620002e35760405162461bcd60e51b815260206004820152602160248201527f64696c7574696f6e426f756e64206d7573742067726561746572207468616e206044820152600360fc1b606482015260840162000094565b670de0b6b3a76400008111156200033d5760405162461bcd60e51b815260206004820152601f60248201527f64696c7574696f6e426f756e64206578636565647320746865206c696d697400604482015260640162000094565b6001600160a01b038616620003955760405162461bcd60e51b815260206004820152601860248201527f6465706f736974546f6b656e2063616e6e6f7420626520300000000000000000604482015260640162000094565b600780546001600160a01b0319166001600160a01b039788161790556001948555600293909355600391909155600455600555426006556040805160608101825282815260208082018481526000838501818152979096168652600c9091529190932092518355519181018054935161ffff1990941692151561ff0019169290921761010093151593909302929092179055600955620004b4565b80516001600160a01b03811681146200044857600080fd5b919050565b600080600080600080600060e0888a0312156200046957600080fd5b620004748862000430565b9650620004846020890162000430565b604089015160608a015160808b015160a08c015160c0909c01519a9d939c50919a90999198509650945092505050565b613a0980620004c46000396000f3fe608060405234801561001057600080fd5b506004361061021c5760003560e01c806387dfc82511610125578063c49b1685116100ad578063dfdd369e1161007c578063dfdd369e1461050b578063e0a8f6f51461051e578063e63bc62d14610531578063e681c4aa14610544578063f5d54c771461054d57600080fd5b8063c49b1685146104ab578063c89039c5146104dc578063da35c664146104ef578063da76d5cd146104f857600080fd5b80639746d940116100f45780639746d9401461045357806399653fbe14610466578063afe5475f14610479578063b2643aab14610482578063b470aade146104a257600080fd5b806387dfc825146104045780638b15a605146104175780638b6cb9e5146104205780639425a4761461044057600080fd5b806345f2d105116101a857806363858f2d1161017757806363858f2d146103c357806373f8fd4b146103cc5780637d5b6c72146103df5780638340bbce146103e8578063878fc813146103f157600080fd5b806345f2d105146103525780634c1056311461037d578063571ed9c51461039057806362312524146103b057600080fd5b806315eb349e116101ef57806315eb349e146102cd57806327efc086146102e25780633a98ef39146103035780633fc24bba1461030c57806345e00ef41461033f57600080fd5b8063013cf08b14610221578063086146d21461025457806308ae4b0c1461026a578063115b2d18146102ba575b600080fd5b61023461022f366004612f8a565b610556565b60405161024b9b9a99989796959493929190612fe9565b60405180910390f35b61025c610647565b60405190815260200161024b565b61029d610278366004613079565b600c602052600090815260409020805460019091015460ff8082169161010090041683565b60408051938452911515602084015215159082015260600161024b565b61025c6102c836600461314b565b610669565b6102e06102db366004613199565b610848565b005b6102eb61babe81565b6040516001600160a01b03909116815260200161024b565b61025c60095481565b61032f61031a366004613079565b600b6020526000908152604090205460ff1681565b604051901515815260200161024b565b6102e061034d366004612f8a565b6108bb565b61025c6103603660046131bb565b600a60209081526000928352604080842090915290825290205481565b61025c61038b3660046131ee565b61099a565b6103a361039e366004612f8a565b610c90565b60405161024b919061328a565b6103a36103be366004612f8a565b610cf5565b61025c60035481565b61025c6103da3660046131bb565b610d58565b61025c60065481565b61025c60025481565b61025c6103ff36600461331d565b610d85565b6102e0610412366004612f8a565b610f03565b61025c60045481565b61043361042e3660046133aa565b6110e5565b60405161024b91906133f3565b61032f61044e366004612f8a565b611183565b6102e0610461366004612f8a565b6111a3565b6102e061047436600461341b565b61168f565b61025c60055481565b610495610490366004612f8a565b611ac8565b60405161024b9190613451565b61025c60015481565b6102e06000808052600d6020527f81955a0a11e65eac625c29e8882660bae4e165a75d72780094acae8ece9a29f555565b6007546102eb906001600160a01b031681565b61025c60085481565b6102e0610506366004612f8a565b611b32565b6102e0610519366004613079565b611b77565b6102e061052c366004612f8a565b611c71565b6102e061053f366004612f8a565b611e1a565b6102eb61beef81565b6102eb61dead81565b600d60205260009081526040902080546001820154600283015460038401546004850154600786015460088701546009880154600a890154600c8a0180546001600160a01b039a8b169b998b169a90981698969795969495939492939192916105be90613484565b80601f01602080910402602001604051908101604052809291908181526020018280546105ea90613484565b80156106375780601f1061060c57610100808354040283529160200191610637565b820191906000526020600020905b81548152906001019060200180831161061a57829003601f168201915b50505050509080600d015490508b565b60006001546006544261065a91906134ce565b61066491906134e1565b905090565b6000805460ff166106955760405162461bcd60e51b815260040161068c90613503565b60405180910390fd5b6000805460ff191681556001600160a01b0384168152600c6020908152604091829020825160608101845281548082526001929092015460ff8181161515948301949094526101009004909216151592820192909252906107445760405162461bcd60e51b815260206004820152602360248201527f6d656d626572206d7573742068617665206174206c65617374206f6e6520736860448201526261726560e81b606482015260840161068c565b6001600160a01b0384166000908152600c6020526040902060010154610100900460ff16156107bf5760405162461bcd60e51b815260206004820152602160248201527f6d656d626572206d757374206e6f7420616c7265616479206265206a61696c656044820152601960fa1b606482015260840161068c565b6107c7612e83565b60016080820181905260408051828152808201909152600091602080830190803683370190505090506000816000815181106108055761080561353a565b6020026020010181815250506108218660008084858a88611ee2565b600160085461083091906134ce565b93505050506000805460ff1916600117905592915050565b60005460ff1661086a5760405162461bcd60e51b815260040161068c90613503565b6000805460ff19168155338152600c602052604090205461089d5760405162461bcd60e51b815260040161068c90613550565b6108aa338383600061200f565b50506000805460ff19166001179055565b6007546040516323b872dd60e01b8152336004820152306024820152604481018390526001600160a01b03909116906323b872dd906064016020604051808303816000875af1158015610912573d6000803e3d6000fd5b505050506040513d601f19601f820116820180604052508101906109369190613576565b61098d5760405162461bcd60e51b815260206004820152602260248201527f74657374206465706f73697420746f6b656e207472616e73666572206661696c604482015261195960f21b606482015260840161068c565b61099733826123ce565b50565b6000805460ff166109bd5760405162461bcd60e51b815260040161068c90613503565b6000805460ff19169055670de0b6b3a76400006109da8580613598565b1115610a285760405162461bcd60e51b815260206004820152601960248201527f746f6f206d616e79207368617265732072657175657374656400000000000000604482015260640161068c565b6001600160a01b038516610a765760405162461bcd60e51b815260206004820152601560248201527406170706c6963616e742063616e6e6f74206265203605c1b604482015260640161068c565b6001600160a01b03851661dead14801590610a9c57506001600160a01b03851661beef14155b8015610ab357506001600160a01b03851661babe14155b610acf5760405162461bcd60e51b815260040161068c906135ab565b6001600160a01b0385166000908152600c6020526040902060010154610100900460ff1615610b105760405162461bcd60e51b815260040161068c906135ef565b6007546040516323b872dd60e01b8152336004820152306024820152604481018590526001600160a01b03909116906323b872dd906064016020604051808303816000875af1158015610b67573d6000803e3d6000fd5b505050506040513d601f19601f82011682018060405250810190610b8b9190613576565b610bd75760405162461bcd60e51b815260206004820152601d60248201527f7472696275746520746f6b656e207472616e73666572206661696c6564000000604482015260640161068c565b610be361beef846123ce565b6040805160c081018252600080825260208201819052818301819052606082018190526080820181905260a08201819052825160018082528185019094529192909190816020016020820280368337019050509050600081600081518110610c4d57610c4d61353a565b602002602001018181525050610c6887878784858988611ee2565b6001600854610c7791906134ce565b925050506000805460ff19166001179055949350505050565b6000818152600d6020908152604091829020600601805483518184028101840190945280845260609392830182828015610ce957602002820191906000526020600020905b815481526020019060010190808311610cd5575b50505050509050919050565b6000818152600d6020908152604091829020600501805483518184028101840190945280845260609392830182828015610ce95760200282019190600052602060002090815481526020019060010190808311610cd55750505050509050919050565b6001600160a01b038083166000908152600a60209081526040808320938516835292905220545b92915050565b6000805460ff16610da85760405162461bcd60e51b815260040161068c90613503565b6000805460ff191690556001600160a01b038516610e005760405162461bcd60e51b815260206004820152601560248201527406170706c6963616e742063616e6e6f74206265203605c1b604482015260640161068c565b6001600160a01b03851661dead14801590610e2657506001600160a01b03851661beef14155b8015610e3d57506001600160a01b03851661babe14155b610e595760405162461bcd60e51b815260040161068c906135ab565b6001600160a01b0385166000908152600c6020526040902060010154610100900460ff1615610e9a5760405162461bcd60e51b815260040161068c906135ef565b6040805160c081018252600080825260208201819052918101829052606081018290526080810182905260a0810182905290610edc9087908088888887611ee2565b6001600854610eeb91906134ce565b9150506000805460ff19166001179055949350505050565b60005460ff16610f255760405162461bcd60e51b815260040161068c90613503565b6000805460ff19169055610f388161245f565b6000610f4382612598565b6000838152600d60205260409020600b8101805465ff0000000000191665010000000000179081905591925090640100000000900460ff1615156001146110635780600501600081548110610f9a57610f9a61353a565b9060005260206000200154600003610ffe57670de0b6b3a76400008160030154600954610fc79190613598565b1115610fd257600091505b81600b820160025b602091828204019190066101000a81548160ff02191690831515021790555061107b565b6007546001600160a01b031660009081526000805160206139b48339815191526020526040902054600882015460058301805490919081106110425761104261353a565b90600052602060002001541115610fd2576000915081600b82016002610fda565b600b8101805462ff0000191662010000841515021790555b60018101546009820154600a83015460088401546040518794600080516020613994833981519152946110cb946001600160a01b0390921693600c89019360058a0193600b8b01939290916136bb565b60405180910390a250506000805460ff1916600117905550565b6001600160a01b0383166000908152600c602052604081206001015460ff166111495760405162461bcd60e51b81526020600482015260166024820152751b595b58995c88191bd95cdb881b9bdd08195e1a5cdd60521b604482015260640161068c565b506000828152600d60209081526040808320848452600e0182528083206001600160a01b038716845290915290205460ff165b9392505050565b6000600254826111939190613598565b61119b610647565b101592915050565b60005460ff166111c55760405162461bcd60e51b815260040161068c90613503565b6000805460ff19168155338152600c60205260409020546111f85760405162461bcd60e51b815260040161068c90613550565b600754600480546040516323b872dd60e01b8152339281019290925230602483015260448201526001600160a01b03909116906323b872dd906064016020604051808303816000875af1158015611253573d6000803e3d6000fd5b505050506040513d601f19601f820116820180604052508101906112779190613576565b6112d25760405162461bcd60e51b815260206004820152602660248201527f70726f706f73616c206465706f73697420746f6b656e207472616e736665722060448201526519985a5b195960d21b606482015260840161068c565b6112e061beef6004546123ce565b6000818152600d6020526040902060018101546001600160a01b03166113485760405162461bcd60e51b815260206004820181905260248201527f70726f706f73616c206d7573742068617665206265656e2070726f706f736564604482015260640161068c565b600b81015460ff161561136d5760405162461bcd60e51b815260040161068c90613792565b600b8101546301000000900460ff16156113c95760405162461bcd60e51b815260206004820152601b60248201527f70726f706f73616c20686173206265656e2063616e63656c6c65640000000000604482015260640161068c565b600b810154610100900460ff16156114235760405162461bcd60e51b815260206004820152601b60248201527f70726f706f73616c20686173206265656e2070726f6365737365640000000000604482015260640161068c565b80546001600160a01b03166000908152600c6020526040902060010154610100900460ff16156114655760405162461bcd60e51b815260040161068c906135ef565b600b810154640100000000900460ff16156115095780546001600160a01b03166000908152600b602052604090205460ff16156114e45760405162461bcd60e51b815260206004820152601860248201527f616c72656164792070726f706f73656420746f206b69636b0000000000000000604482015260640161068c565b80546001600160a01b03166000908152600b60205260409020805460ff191660011790555b80600801546000036115e45761151d610647565b611528906001613598565b8160060160008154811061153e5761153e61353a565b60009182526020909120015560015b60068201548110156115e25781600601818154811061156e5761156e61353a565b90600052602060002001548260060160018361158a91906134ce565b8154811061159a5761159a61353a565b90600052602060002001546115af9190613598565b8260060182815481106115c4576115c461353a565b600091825260209091200155806115da816137d5565b91505061154d565b505b806006016000815481106115fa576115fa61353a565b60009182526020909120015460078201556002810180546001600160a01b03191633179055600b8101805460ff1916600190811782558201546009830154600a8401546008850154604051879560008051602061399483398151915295611676956001600160a01b0390911694600c8a019460058b01946136bb565b60405180910390a250506000805460ff19166001179055565b60005460ff166116b15760405162461bcd60e51b815260040161068c90613503565b6000805460ff19168155338152600c60205260409020546116e45760405162461bcd60e51b815260040161068c90613550565b336000908152600c6020526040902060085483106117145760405162461bcd60e51b815260040161068c906137ee565b6000838152600d60205260409020600b81015460ff16151560011461177b5760405162461bcd60e51b815260206004820152601960248201527f70726f706f73616c20646f6573206e6f742073706f6e736f7200000000000000604482015260640161068c565b60038360ff16106117c45760405162461bcd60e51b81526020600482015260136024820152726d757374206265206c657373207468616e203360681b604482015260640161068c565b60008360ff1660028111156117db576117db6133dd565b905081600701546117ea610647565b10156118385760405162461bcd60e51b815260206004820152601d60248201527f766f74696e6720706572696f6420686173206e6f742073746172746564000000604482015260640161068c565b6118458260070154611183565b1561189d5760405162461bcd60e51b815260206004820152602260248201527f70726f706f73616c20766f74696e6720706572696f6420686173206578706972604482015261195960f21b606482015260840161068c565b60088201546000908152600e83016020908152604080832033845290915281205460ff1660028111156118d2576118d26133dd565b1461191f5760405162461bcd60e51b815260206004820152601860248201527f6d656d6265722068617320616c726561647920766f7465640000000000000000604482015260640161068c565b6001816002811115611933576119336133dd565b14806119505750600281600281111561194e5761194e6133dd565b145b61199c5760405162461bcd60e51b815260206004820152601d60248201527f766f7465206d7573742062652065697468657220596573206f72204e6f000000604482015260640161068c565b60088201546000908152600e8301602090815260408083203384529091529020805482919060ff191660018360028111156119d9576119d96133dd565b021790555060018160028111156119f2576119f26133dd565b03611a2c5782546009830154611a089190613598565b826009018190555081600d01546009541115611a2757600954600d8301555b611a5c565b6002816002811115611a4057611a406133dd565b03611a5c578254600a830154611a569190613598565b600a8301555b60018201546009830154600a8401546008850154604051899460008051602061399483398151915294611aac946001600160a01b0390921693600c8a019360058b0193600b8c01939290916136bb565b60405180910390a250506000805460ff19166001179055505050565b611ad0612e83565b6000828152600d6020526040808220815160c081019283905292600b909101916006918390855b825461010083900a900460ff161515815260206001928301818104948501949093039092029101808411611af7575094979650505050505050565b60005460ff16611b545760405162461bcd60e51b815260040161068c90613503565b6000805460ff19169055611b678161260d565b506000805460ff19166001179055565b60005460ff16611b995760405162461bcd60e51b815260040161068c90613503565b6000805460ff191681556001600160a01b0382168152600c602052604081206001810154909161010090910460ff1615159003611c115760405162461bcd60e51b81526020600482015260166024820152751b595b58995c881b5d5cdd081899481a5b881a985a5b60521b604482015260640161068c565b8054611c5f5760405162461bcd60e51b815260206004820152601b60248201527f6d656d626572206d757374206861766520736f6d652073686172650000000000604482015260640161068c565b6108aa8282600001546000600161200f565b60005460ff16611c935760405162461bcd60e51b815260040161068c90613503565b6000805460ff19168155818152600d60205260409020600b81015460ff1615611cce5760405162461bcd60e51b815260040161068c90613792565b600b8101546301000000900460ff1615611d365760405162461bcd60e51b815260206004820152602360248201527f70726f706f73616c2068617320616c7265616479206265656e2063616e63656c6044820152621b195960ea1b606482015260840161068c565b60018101546001600160a01b03163314611d925760405162461bcd60e51b815260206004820152601e60248201527f736f6c656c79207468652070726f706f7365722063616e2063616e63656c0000604482015260640161068c565b600b8101805463ff0000001916630100000017815560018201546009830154600a8401546008850154604051879560008051602061399483398151915295611def956001600160a01b0390911694600c8a019460058b01946136bb565b60405180910390a2600181015460048201546108aa9161beef916001600160a01b0390911690612736565b60005460ff16611e3c5760405162461bcd60e51b815260040161068c90613503565b6000805460ff19169055611e4f8161274f565b6000611e5a82612598565b6000838152600d60205260409020600b81015491925090640100000000900460ff161515600114611ec65780600501600081548110611e9b57611e9b61353a565b9060005260206000200154600003611ebc57611eb78383612867565b611ed0565b611eb78383612a61565b611ed08383612c20565b50506000805460ff1916600117905550565b6008546000908152600d6020908152604090912080546001600160a01b038a166001600160a01b031991821617825560018201805490911633179055600381018890556004810187905585519091611f41916005840191880190612ea1565b508351611f579060068301906020870190612ea1565b506000600782018190556008820181905560098201819055600a820155611f83600b8201836006612eec565b50600c8101611f928482613873565b506000600d8201556008805460018301546009840154600a85015493850154604051939460008051602061399483398151915294611fe5946001600160a01b0316938a938d93600b8b0193909190613933565b60405180910390a26001600860008282546120009190613598565b90915550505050505050505050565b6009546001600160a01b0385166000908152600c6020526040902080548511156120715760405162461bcd60e51b8152602060048201526013602482015272696e73756666696369656e742073686172657360681b604482015260640161068c565b826122ee576000848152600d60205260409020600b015465010000000000900460ff166120e05760405162461bcd60e51b815260206004820152601d60248201527f70726f706f73616c206d7573742062652070726570726f636573736564000000604482015260640161068c565b6003546002546000868152600d60205260409020600701546121029190613598565b61210c9190613598565b612114610647565b106121615760405162461bcd60e51b815260206004820181905260248201527f70726f706f73616c206d75737420626520696e20677261636520706572696f64604482015260640161068c565b6000848152600d6020908152604080832060088101548452600e0182528083206001600160a01b038a16845290915281205460ff1660028111156121a7576121a76133dd565b036121f45760405162461bcd60e51b815260206004820181905260248201527f6d656d626572206469646e277420766f7465206f6e20612070726f706f73616c604482015260640161068c565b6000848152600d60205260409020600b015462010000900460ff1661221a57600261221d565b60015b60ff166002811115612231576122316133dd565b6002811115612242576122426133dd565b6000858152600d6020908152604080832060088101548452600e0182528083206001600160a01b038b16845290915290205460ff166002811115612288576122886133dd565b036122ee5760405162461bcd60e51b815260206004820152603060248201527f6d656d6265722077686f20766f746564207468652073616d6520726573756c7460448201526f0818d85b9b9bdd081c9859d95c5d5a5d60821b606482015260840161068c565b80546122fb9086906134ce565b815560095461230b9086906134ce565b6009556007546001600160a01b031660009081526000805160206139b48339815191526020526040812054612341908785612d7f565b905080156123c5576007546001600160a01b031660009081526000805160206139b48339815191526020526040812080548392906123809084906134ce565b90915550506001600160a01b038088166000908152600a60209081526040808320600754909416835292905290812080548392906123bf908490613598565b90915550505b50505050505050565b6001600160a01b038083166000908152600a6020908152604080832060075490941683529290529081208054839290612408908490613598565b90915550506007546001600160a01b031660009081527fed762ddb65dfeab933eda5256eb347e1bf2b4e76044bdc8baf0a70d22dc0c374602052604081208054839290612456908490613598565b90915550505050565b60085481106124805760405162461bcd60e51b815260040161068c906137ee565b6000818152600d6020526040902060025460078201546124a09190613598565b6124a8610647565b10156125075760405162461bcd60e51b815260206004820152602860248201527f70726f706f73616c206973206e6f7420726561647920746f20626520707265706044820152671c9bd8d95cdcd95960c21b606482015260840161068c565b600b810154610100900460ff1615801561252f5750600b81015465010000000000900460ff16155b6125945760405162461bcd60e51b815260206004820152603060248201527f70726f706f73616c2068617320616c7265616479206265656e2070726570726f60448201526f18d95cdcd9590bdc1c9bd8d95cdcd95960821b606482015260840161068c565b5050565b6000818152600d60208190526040909120600a8101546009808301549383015460055491549290941193916125cd919061397c565b10156125d857600091505b80546001600160a01b03166000908152600c6020526040902060010154610100900460ff161561260757600091505b50919050565b336000908152600a602090815260408083206007546001600160a01b031684529091529020548111156126795760405162461bcd60e51b8152602060048201526014602482015273696e73756666696369656e742062616c616e636560601b604482015260640161068c565b6126833382612dec565b60075460405163a9059cbb60e01b8152336004820152602481018390526001600160a01b039091169063a9059cbb906044016020604051808303816000875af11580156126d4573d6000803e3d6000fd5b505050506040513d601f19601f820116820180604052508101906126f89190613576565b6109975760405162461bcd60e51b815260206004820152600f60248201526e1d1c985b9cd9995c8819985a5b1959608a1b604482015260640161068c565b6127408382612dec565b61274a82826123ce565b505050565b60085481106127705760405162461bcd60e51b815260040161068c906137ee565b6000818152600d6020526040902060035460025460078301546127939190613598565b61279d9190613598565b6127a5610647565b10156128015760405162461bcd60e51b815260206004820152602560248201527f70726f706f73616c206973206e6f7420726561647920746f2062652070726f63604482015264195cdcd95960da1b606482015260840161068c565b600b810154610100900460ff16156125945760405162461bcd60e51b815260206004820152602360248201527f70726f706f73616c2068617320616c7265616479206265656e2070726f6365736044820152621cd95960ea1b606482015260840161068c565b6000828152600d60205260409020600b8101805461ff00191661010017905560038101546009548391670de0b6b3a7640000916128a49190613598565b11156128ae575060005b80156129c957600b8201805462ff000019166201000017905581546001600160a01b03166000908152600c602052604090206001015460ff161561293457600382015482546001600160a01b03166000908152600c60205260409020546129159190613598565b82546001600160a01b03166000908152600c6020526040902055612999565b604080516060810182526003840154815260016020808301828152600084860181815288546001600160a01b03168252600c9093529490942092518355925191018054925115156101000261ff00199215159290921661ffff19909316929092171790555b81600301546009546129ab9190613598565b6009819055506129c461beef61dead8460040154612736565b6129ec565b600182015460048301546129ec9161beef916001600160a01b0390911690612736565b60018201546009830154600a8401546008850154604051889460008051602061399483398151915294612a3c946001600160a01b0390921693600c8a019360058b0193600b8c01939290916136bb565b60405180910390a26002820154612a5b906001600160a01b0316612e74565b50505050565b6000828152600d60209081526040808320600b8101805461ff0019166101001790556007546001600160a01b031684526000805160206139b4833981519152909252909120546008820154600583018054859392908110612ac457612ac461353a565b90600052602060002001541115612ad9575060005b8015612ba557600b8201805462ff000019166201000017905581546008830154600584018054612b329361dead936001600160a01b0390911692918110612b2257612b2261353a565b9060005260206000200154612736565b6008820154612b42906001613598565b60068301541115612ba5576001826008016000828254612b629190613598565b9250508190555081600601826008015481548110612b8257612b8261353a565b6000918252602090912001546007830155600b8201805465ff000000ff00191690555b60018201546009830154600a8401546008850154604051889460008051602061399483398151915294612bf5946001600160a01b0390921693600c8a019360058b0193600b8c01939290916136bb565b60405180910390a28160080154600003612a5b576002820154612a5b906001600160a01b0316612e74565b6000828152600d60205260409020600b8101548290640100000000900460ff16612c8c5760405162461bcd60e51b815260206004820152601d60248201527f6d7573742062652061206775696c64206b69636b2070726f706f73616c000000604482015260640161068c565b600b8201805461ff0019166101001790558015612cf557600b8201805462ff000019166201000017905581546001600160a01b03166000908152600c602090815260409182902082516060810184528154815260019182015460ff161515928101929092529101525b60018201546009830154600a8401546008850154604051889460008051602061399483398151915294612d45946001600160a01b0390921693600c8a019360058b0193600b8c01939290916136bb565b60405180910390a281546001600160a01b039081166000908152600b60205260409020805460ff191690556002830154612a5b9116612e74565b600081600003612d8e57600080fd5b83600003612d9e5750600061117c565b6000612daa848661397c565b905083612db786836134e1565b03612dce57612dc683826134e1565b91505061117c565b83612dd984876134e1565b612de3919061397c565b95945050505050565b6001600160a01b038083166000908152600a6020908152604080832060075490941683529290529081208054839290612e269084906134ce565b90915550506007546001600160a01b031660009081527fed762ddb65dfeab933eda5256eb347e1bf2b4e76044bdc8baf0a70d22dc0c3746020526040812080548392906124569084906134ce565b61099761beef82600454612736565b6040518060c001604052806006906020820280368337509192915050565b828054828255906000526020600020908101928215612edc579160200282015b82811115612edc578251825591602001919060010190612ec1565b50612ee8929150612f75565b5090565b600183019183908215612edc5791602002820160005b83821115612f3f57835183826101000a81548160ff0219169083151502179055509260200192600101602081600001049283019260010302612f02565b8015612f6c5782816101000a81549060ff0219169055600101602081600001049283019260010302612f3f565b5050612ee89291505b5b80821115612ee85760008155600101612f76565b600060208284031215612f9c57600080fd5b5035919050565b6000815180845260005b81811015612fc957602081850181015186830182015201612fad565b506000602082860101526020601f19601f83011685010191505092915050565b600061016060018060a01b03808f168452808e166020850152808d166040850152508a60608401528960808401528860a08401528760c08401528660e0840152856101008401528061012084015261304381840186612fa3565b915050826101408301529c9b505050505050505050505050565b80356001600160a01b038116811461307457600080fd5b919050565b60006020828403121561308b57600080fd5b61117c8261305d565b634e487b7160e01b600052604160045260246000fd5b604051601f8201601f1916810167ffffffffffffffff811182821017156130d3576130d3613094565b604052919050565b600082601f8301126130ec57600080fd5b813567ffffffffffffffff81111561310657613106613094565b613119601f8201601f19166020016130aa565b81815284602083860101111561312e57600080fd5b816020850160208301376000918101602001919091529392505050565b6000806040838503121561315e57600080fd5b6131678361305d565b9150602083013567ffffffffffffffff81111561318357600080fd5b61318f858286016130db565b9150509250929050565b600080604083850312156131ac57600080fd5b50508035926020909101359150565b600080604083850312156131ce57600080fd5b6131d78361305d565b91506131e56020840161305d565b90509250929050565b6000806000806080858703121561320457600080fd5b61320d8561305d565b93506020850135925060408501359150606085013567ffffffffffffffff81111561323757600080fd5b613243878288016130db565b91505092959194509250565b600081518084526020808501945080840160005b8381101561327f57815187529582019590820190600101613263565b509495945050505050565b60208152600061117c602083018461324f565b600082601f8301126132ae57600080fd5b8135602067ffffffffffffffff8211156132ca576132ca613094565b8160051b6132d98282016130aa565b92835284810182019282810190878511156132f357600080fd5b83870192505b84831015613312578235825291830191908301906132f9565b979650505050505050565b6000806000806080858703121561333357600080fd5b61333c8561305d565b9350602085013567ffffffffffffffff8082111561335957600080fd5b6133658883890161329d565b9450604087013591508082111561337b57600080fd5b6133878883890161329d565b9350606087013591508082111561339d57600080fd5b50613243878288016130db565b6000806000606084860312156133bf57600080fd5b6133c88461305d565b95602085013595506040909401359392505050565b634e487b7160e01b600052602160045260246000fd5b602081016003831061341557634e487b7160e01b600052602160045260246000fd5b91905290565b6000806040838503121561342e57600080fd5b82359150602083013560ff8116811461344657600080fd5b809150509250929050565b60c08101818360005b600681101561347b578151151583526020928301929091019060010161345a565b50505092915050565b600181811c9082168061349857607f821691505b60208210810361260757634e487b7160e01b600052602260045260246000fd5b634e487b7160e01b600052601160045260246000fd5b81810381811115610d7f57610d7f6134b8565b6000826134fe57634e487b7160e01b600052601260045260246000fd5b500490565b6020808252601f908201527f5265656e7472616e637947756172643a207265656e7472616e742063616c6c00604082015260600190565b634e487b7160e01b600052603260045260246000fd5b6020808252600c908201526b3737ba10309036b2b6b132b960a11b604082015260600190565b60006020828403121561358857600080fd5b8151801515811461117c57600080fd5b80820180821115610d7f57610d7f6134b8565b60208082526024908201527f6170706c6963616e7420616464726573732063616e6e6f7420626520726573656040820152631c9d995960e21b606082015260800190565b60208082526025908201527f70726f706f73616c206170706c6963616e74206d757374206e6f74206265206a604082015264185a5b195960da1b606082015260800190565b6000815480845260208085019450836000528060002060005b8381101561327f5781548752958201956001918201910161364d565b805460ff80821615158452808260081c1615156020850152808260101c1615156040850152808260181c1615156060850152808260201c1615156080850152808260281c16151560a085015250505050565b600061018060018060a01b038a1683526020818185015260008a546136df81613484565b9386018490526101a09360018281168015613701576001811461371b57613749565b60ff1984168988015282151560051b890187019450613749565b8e6000528560002060005b848110156137415781548b82018a0152908301908701613726565b8a0188019550505b50505050848103604086015261375f818b613634565b93505050506137716060830187613669565b84610120830152836101408301528261016083015298975050505050505050565b60208082526023908201527f70726f706f73616c2068617320616c7265616479206265656e2073706f6e736f6040820152621c995960ea1b606082015260800190565b6000600182016137e7576137e76134b8565b5060010190565b60208082526017908201527f70726f706f73616c20646f6573206e6f74206578697374000000000000000000604082015260600190565b601f82111561274a57600081815260208120601f850160051c8101602086101561384c5750805b601f850160051c820191505b8181101561386b57828155600101613858565b505050505050565b815167ffffffffffffffff81111561388d5761388d613094565b6138a18161389b8454613484565b84613825565b602080601f8311600181146138d657600084156138be5750858301515b600019600386901b1c1916600185901b17855561386b565b600085815260208120601f198616915b82811015613905578886015182559484019460019091019084016138e6565b50858210156139235787850151600019600388901b60f8161c191681555b5050505050600190811b01905550565b6001600160a01b0388168152610180602082018190526000906139588382018a612fa3565b9050828103604084015261396c818961324f565b9150506137716060830187613669565b8082028115828204841417610d7f57610d7f6134b856fe8c09f1f93a70888c4f771b66728ad738408cba6bf23c2c51fadc873ffaf9a9ba20677881080440a9b3c87e826370bb5d9c2f74efd4dede686d52d77a6a09f8bba2646970667358221220bbd1eb34483325615c7a915b7252eb6919f1a1e8758cdea66803bfbc100a823c64736f6c63430008110033",
  "linkReferences": {},
  "deployedLinkReferences": {}
}