{
  "_format": "hh-sol-artifact-1",
  "contractName": "Boii",
  "sourceName": "contracts/Boii.sol",
  "abi": [
    {
      "inputs": [
        {
          "internalType": "address",
          "name": "_summoner",
          "type": "address"
        },
        {
          "internalType": "address",
          "name": "_depositToken",
          "type": "address"
        },
        {
          "internalType": "uint256",
          "name": "_periodDuration",
          "type": "uint256"
        },
        {
          "internalType": "uint256",
          "name": "_votingPeriodLength",
          "type": "uint256"
        },
        {
          "internalType": "uint256",
          "name": "_gracePeriodLength",
          "type": "uint256"
        },
        {
          "internalType": "uint256",
          "name": "_proposalDeposit",
          "type": "uint256"
        },
        {
          "internalType": "uint256",
          "name": "_dilutionBound",
          "type": "uint256"
        }
      ],
      "stateMutability": "nonpayable",
      "type": "constructor"
    },
    {
      "inputs": [],
      "name": "ESCROW",
      "outputs": [
        {
          "internalType": "address",
          "name": "",
          "type": "address"
        }
      ],
      "stateMutability": "view",
      "type": "function"
    },
    {
      "inputs": [],
      "name": "GUILD",
      "outputs": [
        {
          "internalType": "address",
          "name": "",
          "type": "address"
        }
      ],
      "stateMutability": "view",
      "type": "function"
    },
    {
      "inputs": [],
      "name": "TOTAL",
      "outputs": [
        {
          "internalType": "address",
          "name": "",
          "type": "address"
        }
      ],
      "stateMutability": "view",
      "type": "function"
    },
    {
      "inputs": [
        {
          "internalType": "uint256",
          "name": "proposalId",
          "type": "uint256"
        }
      ],
      "name": "cancelProposal",
      "outputs": [],
      "stateMutability": "nonpayable",
      "type": "function"
    },
    {
      "inputs": [],
      "name": "depositToken",
      "outputs": [
        {
          "internalType": "address",
          "name": "",
          "type": "address"
        }
      ],
      "stateMutability": "view",
      "type": "function"
    },
    {
      "inputs": [],
      "name": "dilutionBound",
      "outputs": [
        {
          "internalType": "uint256",
          "name": "",
          "type": "uint256"
        }
      ],
      "stateMutability": "view",
      "type": "function"
    },
    {
      "inputs": [],
      "name": "getCurrentPeriod",
      "outputs": [
        {
          "internalType": "uint256",
          "name": "",
          "type": "uint256"
        }
      ],
      "stateMutability": "view",
      "type": "function"
    },
    {
      "inputs": [
        {
          "internalType": "address",
          "name": "memberAddress",
          "type": "address"
        },
        {
          "internalType": "uint256",
          "name": "proposalId",
          "type": "uint256"
        }
      ],
      "name": "getMemberProposalVote",
      "outputs": [
        {
          "internalType": "enum Boii.Vote",
          "name": "",
          "type": "uint8"
        }
      ],
      "stateMutability": "view",
      "type": "function"
    },
    {
      "inputs": [
        {
          "internalType": "uint256",
          "name": "proposalId",
          "type": "uint256"
        }
      ],
      "name": "getPaymentRequested",
      "outputs": [
        {
          "internalType": "uint256[]",
          "name": "",
          "type": "uint256[]"
        }
      ],
      "stateMutability": "view",
      "type": "function"
    },
    {
      "inputs": [
        {
          "internalType": "uint256",
          "name": "proposalId",
          "type": "uint256"
        }
      ],
      "name": "getProposalFlags",
      "outputs": [
        {
          "internalType": "bool[6]",
          "name": "",
          "type": "bool[6]"
        }
      ],
      "stateMutability": "view",
      "type": "function"
    },
    {
      "inputs": [
        {
          "internalType": "uint256",
          "name": "proposalId",
          "type": "uint256"
        }
      ],
      "name": "getStartPeriod",
      "outputs": [
        {
          "internalType": "uint256[]",
          "name": "",
          "type": "uint256[]"
        }
      ],
      "stateMutability": "view",
      "type": "function"
    },
    {
      "inputs": [
        {
          "internalType": "address",
          "name": "user",
          "type": "address"
        },
        {
          "internalType": "address",
          "name": "token",
          "type": "address"
        }
      ],
      "name": "getUserTokenBalance",
      "outputs": [
        {
          "internalType": "uint256",
          "name": "",
          "type": "uint256"
        }
      ],
      "stateMutability": "view",
      "type": "function"
    },
    {
      "inputs": [],
      "name": "gracePeriodLength",
      "outputs": [
        {
          "internalType": "uint256",
          "name": "",
          "type": "uint256"
        }
      ],
      "stateMutability": "view",
      "type": "function"
    },
    {
      "inputs": [
        {
          "internalType": "uint256",
          "name": "startingPeriod",
          "type": "uint256"
        }
      ],
      "name": "hasVotingPeriodExpired",
      "outputs": [
        {
          "internalType": "bool",
          "name": "",
          "type": "bool"
        }
      ],
      "stateMutability": "view",
      "type": "function"
    },
    {
      "inputs": [
        {
          "internalType": "address",
          "name": "",
          "type": "address"
        }
      ],
      "name": "members",
      "outputs": [
        {
          "internalType": "uint256",
          "name": "shares",
          "type": "uint256"
        },
        {
          "internalType": "bool",
          "name": "exists",
          "type": "bool"
        },
        {
          "internalType": "uint256",
          "name": "highestIndexVote",
          "type": "uint256"
        },
        {
          "internalType": "bool",
          "name": "jailed",
          "type": "bool"
        }
      ],
      "stateMutability": "view",
      "type": "function"
    },
    {
      "inputs": [],
      "name": "periodDuration",
      "outputs": [
        {
          "internalType": "uint256",
          "name": "",
          "type": "uint256"
        }
      ],
      "stateMutability": "view",
      "type": "function"
    },
    {
      "inputs": [
        {
          "internalType": "uint256",
          "name": "proposalId",
          "type": "uint256"
        }
      ],
      "name": "preProcessProposal",
      "outputs": [],
      "stateMutability": "nonpayable",
      "type": "function"
    },
    {
      "inputs": [
        {
          "internalType": "uint256",
          "name": "proposalId",
          "type": "uint256"
        }
      ],
      "name": "processProposal",
      "outputs": [],
      "stateMutability": "nonpayable",
      "type": "function"
    },
    {
      "inputs": [],
      "name": "proposalCount",
      "outputs": [
        {
          "internalType": "uint256",
          "name": "",
          "type": "uint256"
        }
      ],
      "stateMutability": "view",
      "type": "function"
    },
    {
      "inputs": [],
      "name": "proposalDeposit",
      "outputs": [
        {
          "internalType": "uint256",
          "name": "",
          "type": "uint256"
        }
      ],
      "stateMutability": "view",
      "type": "function"
    },
    {
      "inputs": [
        {
          "internalType": "uint256",
          "name": "",
          "type": "uint256"
        }
      ],
      "name": "proposals",
      "outputs": [
        {
          "internalType": "address",
          "name": "applicant",
          "type": "address"
        },
        {
          "internalType": "address",
          "name": "proposer",
          "type": "address"
        },
        {
          "internalType": "address",
          "name": "sponsor",
          "type": "address"
        },
        {
          "internalType": "uint256",
          "name": "sharesRequested",
          "type": "uint256"
        },
        {
          "internalType": "uint256",
          "name": "tributeOffered",
          "type": "uint256"
        },
        {
          "internalType": "uint256",
          "name": "activePeriod",
          "type": "uint256"
        },
        {
          "internalType": "uint256",
          "name": "milestoneIndex",
          "type": "uint256"
        },
        {
          "internalType": "uint256",
          "name": "yesVoted",
          "type": "uint256"
        },
        {
          "internalType": "uint256",
          "name": "noVoted",
          "type": "uint256"
        },
        {
          "internalType": "string",
          "name": "projectHash",
          "type": "string"
        },
        {
          "internalType": "uint256",
          "name": "maxTotalSharesAtYesVote",
          "type": "uint256"
        }
      ],
      "stateMutability": "view",
      "type": "function"
    },
    {
      "inputs": [
        {
          "internalType": "address",
          "name": "",
          "type": "address"
        }
      ],
      "name": "proposedToKick",
      "outputs": [
        {
          "internalType": "bool",
          "name": "",
          "type": "bool"
        }
      ],
      "stateMutability": "view",
      "type": "function"
    },
    {
      "inputs": [
        {
          "internalType": "address",
          "name": "memberToKick",
          "type": "address"
        }
      ],
      "name": "ragekick",
      "outputs": [],
      "stateMutability": "nonpayable",
      "type": "function"
    },
    {
      "inputs": [
        {
          "internalType": "uint256",
          "name": "sharesToBurn",
          "type": "uint256"
        },
        {
          "internalType": "uint256",
          "name": "proposalId",
          "type": "uint256"
        }
      ],
      "name": "ragequit",
      "outputs": [],
      "stateMutability": "nonpayable",
      "type": "function"
    },
    {
      "inputs": [
        {
          "internalType": "uint256",
          "name": "proposalId",
          "type": "uint256"
        }
      ],
      "name": "sponsorProposal",
      "outputs": [],
      "stateMutability": "nonpayable",
      "type": "function"
    },
    {
      "inputs": [
        {
          "internalType": "address",
          "name": "memberToKick",
          "type": "address"
        },
        {
          "internalType": "string",
          "name": "details",
          "type": "string"
        }
      ],
      "name": "submitGuildKickProposal",
      "outputs": [
        {
          "internalType": "uint256",
          "name": "proposalId",
          "type": "uint256"
        }
      ],
      "stateMutability": "nonpayable",
      "type": "function"
    },
    {
      "inputs": [
        {
          "internalType": "address",
          "name": "applicant",
          "type": "address"
        },
        {
          "internalType": "uint256",
          "name": "sharesRequested",
          "type": "uint256"
        },
        {
          "internalType": "uint256",
          "name": "tributeOffered",
          "type": "uint256"
        },
        {
          "internalType": "string",
          "name": "details",
          "type": "string"
        }
      ],
      "name": "submitJoinProposal",
      "outputs": [
        {
          "internalType": "uint256",
          "name": "proposalId",
          "type": "uint256"
        }
      ],
      "stateMutability": "nonpayable",
      "type": "function"
    },
    {
      "inputs": [
        {
          "internalType": "address",
          "name": "applicant",
          "type": "address"
        },
        {
          "internalType": "uint256[]",
          "name": "paymentRequested",
          "type": "uint256[]"
        },
        {
          "internalType": "uint256[]",
          "name": "startPeriod",
          "type": "uint256[]"
        },
        {
          "internalType": "string",
          "name": "details",
          "type": "string"
        }
      ],
      "name": "submitProjectProposal",
      "outputs": [
        {
          "internalType": "uint256",
          "name": "proposalId",
          "type": "uint256"
        }
      ],
      "stateMutability": "nonpayable",
      "type": "function"
    },
    {
      "inputs": [
        {
          "internalType": "uint256",
          "name": "proposalIndex",
          "type": "uint256"
        },
        {
          "internalType": "uint8",
          "name": "uintVote",
          "type": "uint8"
        }
      ],
      "name": "submitVote",
      "outputs": [],
      "stateMutability": "nonpayable",
      "type": "function"
    },
    {
      "inputs": [],
      "name": "summoningTime",
      "outputs": [
        {
          "internalType": "uint256",
          "name": "",
          "type": "uint256"
        }
      ],
      "stateMutability": "view",
      "type": "function"
    },
    {
      "inputs": [],
      "name": "totalShares",
      "outputs": [
        {
          "internalType": "uint256",
          "name": "",
          "type": "uint256"
        }
      ],
      "stateMutability": "view",
      "type": "function"
    },
    {
      "inputs": [
        {
          "internalType": "address",
          "name": "",
          "type": "address"
        },
        {
          "internalType": "address",
          "name": "",
          "type": "address"
        }
      ],
      "name": "userTokenBalances",
      "outputs": [
        {
          "internalType": "uint256",
          "name": "",
          "type": "uint256"
        }
      ],
      "stateMutability": "view",
      "type": "function"
    },
    {
      "inputs": [],
      "name": "votingPeriodLength",
      "outputs": [
        {
          "internalType": "uint256",
          "name": "",
          "type": "uint256"
        }
      ],
      "stateMutability": "view",
      "type": "function"
    },
    {
      "inputs": [
        {
          "internalType": "uint256",
          "name": "amount",
          "type": "uint256"
        }
      ],
      "name": "withdrawBalance",
      "outputs": [],
      "stateMutability": "nonpayable",
      "type": "function"
    }
  ],
  "bytecode": "0x60806040523480156200001157600080fd5b50604051620038213803806200382183398101604081905262000034916200045a565b6000805460ff191660011790556001600160a01b0387166200009d5760405162461bcd60e51b815260206004820152601460248201527f73756d6d6f6e65722063616e6e6f74206265203000000000000000000000000060448201526064015b60405180910390fd5b60008511620000fa5760405162461bcd60e51b815260206004820152602260248201527f706572696f644475726174696f6e206d7573742067726561746572207468616e604482015261020360f41b606482015260840162000094565b600084116200015b5760405162461bcd60e51b815260206004820152602660248201527f766f74696e67506572696f644c656e677468206d75737420677265617465722060448201526507468616e20360d41b606482015260840162000094565b670de0b6b3a7640000841115620001c15760405162461bcd60e51b8152602060048201526024808201527f766f74696e67506572696f644c656e677468206578636565647320746865206c6044820152631a5b5a5d60e21b606482015260840162000094565b60008311620002215760405162461bcd60e51b815260206004820152602560248201527f6772616365506572696f644c656e677468206d75737420677265617465722074604482015264068616e20360dc1b606482015260840162000094565b670de0b6b3a7640000831115620002875760405162461bcd60e51b815260206004820152602360248201527f6772616365506572696f644c656e677468206578636565647320746865206c696044820152621b5a5d60ea1b606482015260840162000094565b60008111620002e35760405162461bcd60e51b815260206004820152602160248201527f64696c7574696f6e426f756e64206d7573742067726561746572207468616e206044820152600360fc1b606482015260840162000094565b670de0b6b3a76400008111156200033d5760405162461bcd60e51b815260206004820152601f60248201527f64696c7574696f6e426f756e64206578636565647320746865206c696d697400604482015260640162000094565b6001600160a01b038616620003955760405162461bcd60e51b815260206004820152601860248201527f6465706f736974546f6b656e2063616e6e6f7420626520300000000000000000604482015260640162000094565b600780546001600160a01b039788166001600160a01b0319909116179055600194855560029384556003928355600491909155600555426006556040805160808101825284815260208082018681526000838501818152606085018281529a9099168152600c909252929020905181559051818501805491151560ff1992831617905594519281019290925593519301805493151593909216929092179055600955620004c1565b80516001600160a01b03811681146200045557600080fd5b919050565b600080600080600080600060e0888a0312156200047657600080fd5b62000481886200043d565b965062000491602089016200043d565b604089015160608a015160808b015160a08c015160c0909c01519a9d939c50919a90999198509650945092505050565b61335080620004d16000396000f3fe608060405234801561001057600080fd5b50600436106102065760003560e01c8063878fc8131161011a578063b470aade116100ad578063dfdd369e1161007c578063dfdd369e146104e5578063e0a8f6f5146104f8578063e63bc62d1461050b578063e681c4aa1461051e578063f5d54c771461052757600080fd5b8063b470aade146104ad578063c89039c5146104b6578063da35c664146104c9578063da76d5cd146104d257600080fd5b80639746d940116100e95780639746d9401461045e57806399653fbe14610471578063afe5475f14610484578063b2643aab1461048d57600080fd5b8063878fc8131461041c57806387dfc8251461042f5780638b15a605146104425780639425a4761461044b57600080fd5b80633fc24bba1161019d578063623125241161016c57806362312524146103b557806363858f2d146103c857806373f8fd4b146103d15780637d5b6c721461040a5780638340bbce1461041357600080fd5b80633fc24bba1461032457806345f2d105146103575780634c10563114610382578063571ed9c51461039557600080fd5b8063115b2d18116101d9578063115b2d18146102d257806315eb349e146102e557806327efc086146102fa5780633a98ef391461031b57600080fd5b8063013cf08b1461020b578063044a0ca81461023e578063086146d21461025e57806308ae4b0c14610274575b600080fd5b61021e610219366004612adb565b610530565b6040516102359b9a99989796959493929190612af4565b60405180910390f35b61025161024c366004612bc0565b610621565b6040516102359190612c00565b6102666106ba565b604051908152602001610235565b6102b0610282366004612c28565b600c602052600090815260409020805460018201546002830154600390930154919260ff9182169290911684565b6040805194855292151560208501529183015215156060820152608001610235565b6102666102e0366004612cfa565b6106dc565b6102f86102f3366004612d48565b6108b6565b005b61030361babe81565b6040516001600160a01b039091168152602001610235565b61026660095481565b610347610332366004612c28565b600b6020526000908152604090205460ff1681565b6040519015158152602001610235565b610266610365366004612d6a565b600a60209081526000928352604080842090915290825290205481565b610266610390366004612d9d565b610902565b6103a86103a3366004612adb565b610bf3565b6040516102359190612dfe565b6103a86103c3366004612adb565b610c58565b61026660035481565b6102666103df366004612d6a565b6001600160a01b039182166000908152600a6020908152604080832093909416825291909152205490565b61026660065481565b61026660025481565b61026661042a366004612ec2565b610cbb565b6102f861043d366004612adb565b610e34565b61026660045481565b610347610459366004612adb565b610fbe565b6102f861046c366004612adb565b610fde565b6102f861047f366004612f4f565b611469565b61026660055481565b6104a061049b366004612adb565b611800565b6040516102359190612f85565b61026660015481565b600754610303906001600160a01b031681565b61026660085481565b6102f86104e0366004612adb565b61186a565b6102f86104f3366004612c28565b6118af565b6102f8610506366004612adb565b6119a5565b6102f8610519366004612adb565b611ad3565b61030361beef81565b61030361dead81565b600d60205260009081526040902080546001820154600283015460038401546004850154600786015460088701546009880154600a890154600c8a0180546001600160a01b039a8b169b998b169a909816989697959694959394929391929161059890612fb8565b80601f01602080910402602001604051908101604052809291908181526020018280546105c490612fb8565b80156106115780601f106105e657610100808354040283529160200191610611565b820191906000526020600020905b8154815290600101906020018083116105f457829003601f168201915b50505050509080600d015490508b565b6001600160a01b0382166000908152600c602052604081206001015460ff166106895760405162461bcd60e51b81526020600482015260156024820152741b595b58995c88191bd95cc81b9bdd08195e1a5cdd605a1b60448201526064015b60405180910390fd5b506000818152600d602090815260408083206001600160a01b0386168452600e0190915290205460ff165b92915050565b6000600154600654426106cd9190613002565b6106d79190613015565b905090565b6000805460ff166106ff5760405162461bcd60e51b815260040161068090613037565b6000805460ff191681556001600160a01b0384168152600c602090815260409182902082516080810184528154808252600183015460ff90811615159483019490945260028301549482019490945260039091015490911615156060820152906107b75760405162461bcd60e51b815260206004820152602360248201527f6d656d626572206d7573742068617665206174206c65617374206f6e6520736860448201526261726560e81b6064820152608401610680565b6001600160a01b0384166000908152600c602052604090206003015460ff161561082d5760405162461bcd60e51b815260206004820152602160248201527f6d656d626572206d757374206e6f7420616c7265616479206265206a61696c656044820152601960fa1b6064820152608401610680565b6108356129d4565b60016080820181905260408051828152808201909152600091602080830190803683370190505090506000816000815181106108735761087361306e565b60200260200101818152505061088f8660008084858a88611b89565b600160085461089e9190613002565b93505050506000805460ff1916600117905592915050565b60005460ff166108d85760405162461bcd60e51b815260040161068090613037565b6000805460ff191681556108f190339084908490611c66565b50506000805460ff19166001179055565b6000805460ff166109255760405162461bcd60e51b815260040161068090613037565b6000805460ff19169055670de0b6b3a76400006109428580613084565b11156109905760405162461bcd60e51b815260206004820152601960248201527f746f6f206d616e792073686172657320726571756573746564000000000000006044820152606401610680565b6001600160a01b0385166109de5760405162461bcd60e51b815260206004820152601560248201527406170706c6963616e742063616e6e6f74206265203605c1b6044820152606401610680565b6001600160a01b03851661dead14801590610a0457506001600160a01b03851661beef14155b8015610a1b57506001600160a01b03851661babe14155b610a375760405162461bcd60e51b815260040161068090613097565b6001600160a01b0385166000908152600c602052604090206003015460ff1615610a735760405162461bcd60e51b8152600401610680906130db565b6007546040516323b872dd60e01b8152336004820152306024820152604481018590526001600160a01b03909116906323b872dd906064016020604051808303816000875af1158015610aca573d6000803e3d6000fd5b505050506040513d601f19601f82011682018060405250810190610aee9190613120565b610b3a5760405162461bcd60e51b815260206004820152601d60248201527f7472696275746520746f6b656e207472616e73666572206661696c65640000006044820152606401610680565b610b4661beef8461200d565b6040805160c081018252600080825260208201819052818301819052606082018190526080820181905260a08201819052825160018082528185019094529192909190816020016020820280368337019050509050600081600081518110610bb057610bb061306e565b602002602001018181525050610bcb87878784858988611b89565b6001600854610bda9190613002565b925050506000805460ff19166001179055949350505050565b6000818152600d6020908152604091829020600601805483518184028101840190945280845260609392830182828015610c4c57602002820191906000526020600020905b815481526020019060010190808311610c38575b50505050509050919050565b6000818152600d6020908152604091829020600501805483518184028101840190945280845260609392830182828015610c4c5760200282019190600052602060002090815481526020019060010190808311610c385750505050509050919050565b6000805460ff16610cde5760405162461bcd60e51b815260040161068090613037565b6000805460ff191690556001600160a01b038516610d365760405162461bcd60e51b815260206004820152601560248201527406170706c6963616e742063616e6e6f74206265203605c1b6044820152606401610680565b6001600160a01b03851661dead14801590610d5c57506001600160a01b03851661beef14155b8015610d7357506001600160a01b03851661babe14155b610d8f5760405162461bcd60e51b815260040161068090613097565b6001600160a01b0385166000908152600c602052604090206003015460ff1615610dcb5760405162461bcd60e51b8152600401610680906130db565b6040805160c081018252600080825260208201819052918101829052606081018290526080810182905260a0810182905290610e0d9087908088888887611b89565b6001600854610e1c9190613002565b9150506000805460ff19166001179055949350505050565b60005460ff16610e565760405162461bcd60e51b815260040161068090613037565b6000805460ff19169055610e698161209e565b6000610e74826121d7565b6000838152600d60205260409020600b8101805465ff0000000000191665010000000000179081905591925090640100000000900460ff161515600114610f945780600501600081548110610ecb57610ecb61306e565b9060005260206000200154600003610f2f57670de0b6b3a76400008160030154600954610ef89190613084565b1115610f0357600091505b81600b820160025b602091828204019190066101000a81548160ff021916908315150217905550610fac565b6007546001600160a01b031660009081526000805160206132fb833981519152602052604090205460088201546005830180549091908110610f7357610f7361306e565b90600052602060002001541115610f03576000915081600b82016002610f0b565b600b8101805462ff0000191662010000841515021790555b50506000805460ff1916600117905550565b600060025482610fce9190613084565b610fd66106ba565b101592915050565b60005460ff166110005760405162461bcd60e51b815260040161068090613037565b6000805460ff19169055600754600480546040516323b872dd60e01b8152339281019290925230602483015260448201526001600160a01b03909116906323b872dd906064016020604051808303816000875af1158015611065573d6000803e3d6000fd5b505050506040513d601f19601f820116820180604052508101906110899190613120565b6110e45760405162461bcd60e51b815260206004820152602660248201527f70726f706f73616c206465706f73697420746f6b656e207472616e736665722060448201526519985a5b195960d21b6064820152608401610680565b6110f261beef60045461200d565b6000818152600d6020526040902060018101546001600160a01b031661115a5760405162461bcd60e51b815260206004820181905260248201527f70726f706f73616c206d7573742068617665206265656e2070726f706f7365646044820152606401610680565b600b81015460ff161561117f5760405162461bcd60e51b815260040161068090613142565b600b8101546301000000900460ff16156111db5760405162461bcd60e51b815260206004820152601b60248201527f70726f706f73616c20686173206265656e2063616e63656c6c656400000000006044820152606401610680565b600b810154610100900460ff16156112355760405162461bcd60e51b815260206004820152601b60248201527f70726f706f73616c20686173206265656e2070726f63657373656400000000006044820152606401610680565b80546001600160a01b03166000908152600c602052604090206003015460ff16156112725760405162461bcd60e51b8152600401610680906130db565b600b810154640100000000900460ff16156113165780546001600160a01b03166000908152600b602052604090205460ff16156112f15760405162461bcd60e51b815260206004820152601860248201527f616c72656164792070726f706f73656420746f206b69636b00000000000000006044820152606401610680565b80546001600160a01b03166000908152600b60205260409020805460ff191660011790555b80600801546000036113f15761132a6106ba565b611335906001613084565b8160060160008154811061134b5761134b61306e565b60009182526020909120015560015b60068201548110156113ef5781600601818154811061137b5761137b61306e565b9060005260206000200154826006016001836113979190613002565b815481106113a7576113a761306e565b90600052602060002001546113bc9190613084565b8260060182815481106113d1576113d161306e565b600091825260209091200155806113e781613185565b91505061135a565b505b806006016000815481106114075761140761306e565b600091825260208220015460078301556002820180546001600160a01b03191633179055600190600b8301905b602081049091018054921515601f9092166101000a91820260ff9092021990921617905550506000805460ff19166001179055565b60005460ff1661148b5760405162461bcd60e51b815260040161068090613037565b6000805460ff19168155338152600c6020526040902060085483106114c25760405162461bcd60e51b81526004016106809061319e565b6000838152600d60205260409020600b81015460ff1615156001146115295760405162461bcd60e51b815260206004820152601960248201527f70726f706f73616c20646f6573206e6f742073706f6e736f72000000000000006044820152606401610680565b60038360ff16106115725760405162461bcd60e51b81526020600482015260136024820152726d757374206265206c657373207468616e203360681b6044820152606401610680565b60008360ff16600281111561158957611589612bea565b905081600701546115986106ba565b10156115e65760405162461bcd60e51b815260206004820152601d60248201527f766f74696e6720706572696f6420686173206e6f7420737461727465640000006044820152606401610680565b6115f38260070154610fbe565b1561164b5760405162461bcd60e51b815260206004820152602260248201527f70726f706f73616c20766f74696e6720706572696f6420686173206578706972604482015261195960f21b6064820152608401610680565b336000908152600e8301602052604081205460ff16600281111561167157611671612bea565b146116be5760405162461bcd60e51b815260206004820152601860248201527f6d656d6265722068617320616c726561647920766f74656400000000000000006044820152606401610680565b60018160028111156116d2576116d2612bea565b14806116ef575060028160028111156116ed576116ed612bea565b145b61173b5760405162461bcd60e51b815260206004820152601d60248201527f766f7465206d7573742062652065697468657220596573206f72204e6f0000006044820152606401610680565b336000908152600e830160205260409020805482919060ff1916600183600281111561176957611769612bea565b0217905550600181600281111561178257611782612bea565b036117bc57825460098301546117989190613084565b826009018190555081600d015460095411156117b757600954600d8301555b6117ec565b60028160028111156117d0576117d0612bea565b036117ec578254600a8301546117e69190613084565b600a8301555b50506000805460ff19166001179055505050565b6118086129d4565b6000828152600d6020526040808220815160c081019283905292600b909101916006918390855b825461010083900a900460ff16151581526020600192830181810494850194909303909202910180841161182f575094979650505050505050565b60005460ff1661188c5760405162461bcd60e51b815260040161068090613037565b6000805460ff1916905561189f81612247565b506000805460ff19166001179055565b60005460ff166118d15760405162461bcd60e51b815260040161068090613037565b6000805460ff191681556001600160a01b0382168152600c602052604081206003810154909160ff909116151590036119455760405162461bcd60e51b81526020600482015260166024820152751b595b58995c881b5d5cdd081899481a5b881a985a5b60521b6044820152606401610680565b80546119935760405162461bcd60e51b815260206004820152601b60248201527f6d656d626572206d757374206861766520736f6d6520736861726500000000006044820152606401610680565b6108f182826000015460006001611c66565b60005460ff166119c75760405162461bcd60e51b815260040161068090613037565b6000805460ff19168155818152600d60205260409020600b81015460ff1615611a025760405162461bcd60e51b815260040161068090613142565b600b8101546301000000900460ff1615611a6a5760405162461bcd60e51b815260206004820152602360248201527f70726f706f73616c2068617320616c7265616479206265656e2063616e63656c6044820152621b195960ea1b6064820152608401610680565b60018101546001600160a01b03163314611ac65760405162461bcd60e51b815260206004820152601e60248201527f736f6c656c79207468652070726f706f7365722063616e2063616e63656c00006044820152606401610680565b6001600b82016003611434565b60005460ff16611af55760405162461bcd60e51b815260040161068090613037565b6000805460ff19169055611b0881612373565b6000611b13826121d7565b6000838152600d60205260409020600b81015491925090640100000000900460ff161515600114611b7f5780600501600081548110611b5457611b5461306e565b9060005260206000200154600003611b7557611b70838361248b565b610fac565b611b708383612636565b610fac838361279d565b6008546000908152600d6020908152604090912080546001600160a01b038a166001600160a01b031991821617825560018201805490911633179055600381018890556004810187905585519091611be89160058401918801906129f2565b508351611bfe90600683019060208701906129f2565b506000600782018190556008820181905560098201819055600a820155611c2a600b8201836006612a3d565b50600c8101611c398482613223565b50600081600d0181905550600160086000828254611c579190613084565b90915550505050505050505050565b6009546001600160a01b0385166000908152600c602052604090208054851115611cc85760405162461bcd60e51b8152602060048201526013602482015272696e73756666696369656e742073686172657360681b6044820152606401610680565b82611f2d576000848152600d60205260409020600b015465010000000000900460ff16611d375760405162461bcd60e51b815260206004820152601d60248201527f70726f706f73616c206d7573742062652070726570726f6365737365640000006044820152606401610680565b6003546002546000868152600d6020526040902060070154611d599190613084565b611d639190613084565b611d6b6106ba565b10611db85760405162461bcd60e51b815260206004820181905260248201527f70726f706f73616c206d75737420626520696e20677261636520706572696f646044820152606401610680565b6000848152600d602090815260408083206001600160a01b038a168452600e0190915281205460ff166002811115611df257611df2612bea565b03611e3f5760405162461bcd60e51b815260206004820181905260248201527f6d656d626572206469646e277420766f7465206f6e20612070726f706f73616c6044820152606401610680565b6000848152600d60205260409020600b015462010000900460ff16611e65576002611e68565b60015b60ff166002811115611e7c57611e7c612bea565b6002811115611e8d57611e8d612bea565b6000858152600d602090815260408083206001600160a01b038b168452600e0190915290205460ff166002811115611ec757611ec7612bea565b03611f2d5760405162461bcd60e51b815260206004820152603060248201527f6d656d6265722077686f20766f746564207468652073616d6520726573756c7460448201526f0818d85b9b9bdd081c9859d95c5d5a5d60821b6064820152608401610680565b8054611f3a908690613002565b8155600954611f4a908690613002565b6009556007546001600160a01b031660009081526000805160206132fb8339815191526020526040812054611f809087856128b5565b90508015612004576007546001600160a01b031660009081526000805160206132fb833981519152602052604081208054839290611fbf908490613002565b90915550506001600160a01b038088166000908152600a6020908152604080832060075490941683529290529081208054839290611ffe908490613084565b90915550505b50505050505050565b6001600160a01b038083166000908152600a6020908152604080832060075490941683529290529081208054839290612047908490613084565b90915550506007546001600160a01b031660009081527fed762ddb65dfeab933eda5256eb347e1bf2b4e76044bdc8baf0a70d22dc0c374602052604081208054839290612095908490613084565b90915550505050565b60085481106120bf5760405162461bcd60e51b81526004016106809061319e565b6000818152600d6020526040902060025460078201546120df9190613084565b6120e76106ba565b10156121465760405162461bcd60e51b815260206004820152602860248201527f70726f706f73616c206973206e6f7420726561647920746f20626520707265706044820152671c9bd8d95cdcd95960c21b6064820152608401610680565b600b810154610100900460ff1615801561216e5750600b81015465010000000000900460ff16155b6121d35760405162461bcd60e51b815260206004820152603060248201527f70726f706f73616c2068617320616c7265616479206265656e2070726570726f60448201526f18d95cdcd9590bdc1c9bd8d95cdcd95960821b6064820152608401610680565b5050565b6000818152600d60208190526040909120600a81015460098083015493830154600554915492909411939161220c91906132e3565b101561221757600091505b80546001600160a01b03166000908152600c602052604090206003015460ff161561224157600091505b50919050565b336000908152600a602090815260408083206007546001600160a01b031684529091529020548111156122b35760405162461bcd60e51b8152602060048201526014602482015273696e73756666696369656e742062616c616e636560601b6044820152606401610680565b6122bd3382612924565b60075460405163a9059cbb60e01b8152336004820152602481018390526001600160a01b039091169063a9059cbb906044016020604051808303816000875af115801561230e573d6000803e3d6000fd5b505050506040513d601f19601f820116820180604052508101906123329190613120565b6123705760405162461bcd60e51b815260206004820152600f60248201526e1d1c985b9cd9995c8819985a5b1959608a1b6044820152606401610680565b50565b60085481106123945760405162461bcd60e51b81526004016106809061319e565b6000818152600d6020526040902060035460025460078301546123b79190613084565b6123c19190613084565b6123c96106ba565b10156124255760405162461bcd60e51b815260206004820152602560248201527f70726f706f73616c206973206e6f7420726561647920746f2062652070726f63604482015264195cdcd95960da1b6064820152608401610680565b600b810154610100900460ff16156121d35760405162461bcd60e51b815260206004820152602360248201527f70726f706f73616c2068617320616c7265616479206265656e2070726f6365736044820152621cd95960ea1b6064820152608401610680565b6000828152600d60205260409020600b8101805461ff00191661010017905560038101546009548391670de0b6b3a7640000916124c89190613084565b11156124d2575060005b80156125f657600b8201805462ff000019166201000017905581546001600160a01b03166000908152600c602052604090206001015460ff161561255857600382015482546001600160a01b03166000908152600c60205260409020546125399190613084565b82546001600160a01b03166000908152600c60205260409020556125c6565b604080516080810182526003808501548252600160208084018281526000858701818152606087018281528a546001600160a01b03168352600c9094529690209451855551918401805492151560ff1993841617905593516002840155925191018054911515919092161790555b81600301546009546125d89190613084565b6009819055506125f161beef61dead84600401546129ac565b612619565b600182015460048301546126199161beef916001600160a01b03909116906129ac565b6002820154612630906001600160a01b03166129c5565b50505050565b6000828152600d60209081526040808320600b8101805461ff0019166101001790556007546001600160a01b031684526000805160206132fb8339815191529092529091205460088201546005830180548593929081106126995761269961306e565b906000526020600020015411156126ae575060005b801561277a57600b8201805462ff0000191662010000179055815460088301546005840180546127079361dead936001600160a01b03909116929181106126f7576126f761306e565b90600052602060002001546129ac565b6008820154612717906001613084565b6006830154111561277a5760018260080160008282546127379190613084565b92505081905550816006018260080154815481106127575761275761306e565b6000918252602090912001546007830155600b8201805465ff000000ff00191690555b8160080154600003612630576002820154612630906001600160a01b03166129c5565b6000828152600d60205260409020600b8101548290640100000000900460ff166128095760405162461bcd60e51b815260206004820152601d60248201527f6d7573742062652061206775696c64206b69636b2070726f706f73616c0000006044820152606401610680565b600b8201805461ff001916610100179055801561288357600b8201805462ff000019166201000017905581546001600160a01b03166000908152600c602090815260409182902082516080810184528154815260018281015460ff1615159382019390935260029190910154928101929092526060909101525b81546001600160a01b039081166000908152600b60205260409020805460ff19169055600283015461263091166129c5565b6000816000036128c457600080fd5b836000036128d45750600061291d565b60006128e084866132e3565b9050836128ed8683613015565b03612904576128fc8382613015565b91505061291d565b8361290f8487613015565b61291991906132e3565b9150505b9392505050565b6001600160a01b038083166000908152600a602090815260408083206007549094168352929052908120805483929061295e908490613002565b90915550506007546001600160a01b031660009081527fed762ddb65dfeab933eda5256eb347e1bf2b4e76044bdc8baf0a70d22dc0c374602052604081208054839290612095908490613002565b6129b68382612924565b6129c0828261200d565b505050565b61237061beef826004546129ac565b6040518060c001604052806006906020820280368337509192915050565b828054828255906000526020600020908101928215612a2d579160200282015b82811115612a2d578251825591602001919060010190612a12565b50612a39929150612ac6565b5090565b600183019183908215612a2d5791602002820160005b83821115612a9057835183826101000a81548160ff0219169083151502179055509260200192600101602081600001049283019260010302612a53565b8015612abd5782816101000a81549060ff0219169055600101602081600001049283019260010302612a90565b5050612a399291505b5b80821115612a395760008155600101612ac7565b600060208284031215612aed57600080fd5b5035919050565b600061016060018060a01b03808f1684526020818f1681860152818e1660408601528c60608601528b60808601528a60a08601528960c08601528860e08601528761010086015282610120860152865191508183860152600092505b81831015612b6f57868301810151858401610180015291820191612b50565b506101809150600082828601015281601f19601f83011685010192505050826101408301529c9b505050505050505050505050565b80356001600160a01b0381168114612bbb57600080fd5b919050565b60008060408385031215612bd357600080fd5b612bdc83612ba4565b946020939093013593505050565b634e487b7160e01b600052602160045260246000fd5b6020810160038310612c2257634e487b7160e01b600052602160045260246000fd5b91905290565b600060208284031215612c3a57600080fd5b61291d82612ba4565b634e487b7160e01b600052604160045260246000fd5b604051601f8201601f1916810167ffffffffffffffff81118282101715612c8257612c82612c43565b604052919050565b600082601f830112612c9b57600080fd5b813567ffffffffffffffff811115612cb557612cb5612c43565b612cc8601f8201601f1916602001612c59565b818152846020838601011115612cdd57600080fd5b816020850160208301376000918101602001919091529392505050565b60008060408385031215612d0d57600080fd5b612d1683612ba4565b9150602083013567ffffffffffffffff811115612d3257600080fd5b612d3e85828601612c8a565b9150509250929050565b60008060408385031215612d5b57600080fd5b50508035926020909101359150565b60008060408385031215612d7d57600080fd5b612d8683612ba4565b9150612d9460208401612ba4565b90509250929050565b60008060008060808587031215612db357600080fd5b612dbc85612ba4565b93506020850135925060408501359150606085013567ffffffffffffffff811115612de657600080fd5b612df287828801612c8a565b91505092959194509250565b6020808252825182820181905260009190848201906040850190845b81811015612e3657835183529284019291840191600101612e1a565b50909695505050505050565b600082601f830112612e5357600080fd5b8135602067ffffffffffffffff821115612e6f57612e6f612c43565b8160051b612e7e828201612c59565b9283528481018201928281019087851115612e9857600080fd5b83870192505b84831015612eb757823582529183019190830190612e9e565b979650505050505050565b60008060008060808587031215612ed857600080fd5b612ee185612ba4565b9350602085013567ffffffffffffffff80821115612efe57600080fd5b612f0a88838901612e42565b94506040870135915080821115612f2057600080fd5b612f2c88838901612e42565b93506060870135915080821115612f4257600080fd5b50612df287828801612c8a565b60008060408385031215612f6257600080fd5b82359150602083013560ff81168114612f7a57600080fd5b809150509250929050565b60c08101818360005b6006811015612faf5781511515835260209283019290910190600101612f8e565b50505092915050565b600181811c90821680612fcc57607f821691505b60208210810361224157634e487b7160e01b600052602260045260246000fd5b634e487b7160e01b600052601160045260246000fd5b818103818111156106b4576106b4612fec565b60008261303257634e487b7160e01b600052601260045260246000fd5b500490565b6020808252601f908201527f5265656e7472616e637947756172643a207265656e7472616e742063616c6c00604082015260600190565b634e487b7160e01b600052603260045260246000fd5b808201808211156106b4576106b4612fec565b60208082526024908201527f6170706c6963616e7420616464726573732063616e6e6f7420626520726573656040820152631c9d995960e21b606082015260800190565b60208082526025908201527f70726f706f73616c206170706c6963616e74206d757374206e6f74206265206a604082015264185a5b195960da1b606082015260800190565b60006020828403121561313257600080fd5b8151801515811461291d57600080fd5b60208082526023908201527f70726f706f73616c2068617320616c7265616479206265656e2073706f6e736f6040820152621c995960ea1b606082015260800190565b60006001820161319757613197612fec565b5060010190565b60208082526017908201527f70726f706f73616c20646f6573206e6f74206578697374000000000000000000604082015260600190565b601f8211156129c057600081815260208120601f850160051c810160208610156131fc5750805b601f850160051c820191505b8181101561321b57828155600101613208565b505050505050565b815167ffffffffffffffff81111561323d5761323d612c43565b6132518161324b8454612fb8565b846131d5565b602080601f831160018114613286576000841561326e5750858301515b600019600386901b1c1916600185901b17855561321b565b600085815260208120601f198616915b828110156132b557888601518255948401946001909101908401613296565b50858210156132d35787850151600019600388901b60f8161c191681555b5050505050600190811b01905550565b80820281158282048414176106b4576106b4612fec56fe20677881080440a9b3c87e826370bb5d9c2f74efd4dede686d52d77a6a09f8bba2646970667358221220f700a3b460b8bee96bbce25b3ccc392bd20004e131b7cb0866da18850a73117c64736f6c63430008110033",
  "linkReferences": {},
  "deployedLinkReferences": {}
}