{
  "_format": "hh-sol-artifact-1",
  "contractName": "Boii",
  "sourceName": "contracts/Boii.sol",
  "abi": [
    {
      "inputs": [
        {
          "internalType": "address",
          "name": "_summoner",
          "type": "address"
        },
        {
          "internalType": "address",
          "name": "_depositToken",
          "type": "address"
        },
        {
          "internalType": "uint256",
          "name": "_periodDuration",
          "type": "uint256"
        },
        {
          "internalType": "uint256",
          "name": "_votingPeriodLength",
          "type": "uint256"
        },
        {
          "internalType": "uint256",
          "name": "_gracePeriodLength",
          "type": "uint256"
        },
        {
          "internalType": "uint256",
          "name": "_proposalDeposit",
          "type": "uint256"
        },
        {
          "internalType": "uint256",
          "name": "_dilutionBound",
          "type": "uint256"
        }
      ],
      "stateMutability": "nonpayable",
      "type": "constructor"
    },
    {
      "anonymous": false,
      "inputs": [
        {
          "indexed": true,
          "internalType": "uint256",
          "name": "proposalId",
          "type": "uint256"
        },
        {
          "indexed": false,
          "internalType": "address",
          "name": "proposer",
          "type": "address"
        },
        {
          "indexed": false,
          "internalType": "string",
          "name": "projectHash",
          "type": "string"
        },
        {
          "indexed": false,
          "internalType": "uint256[]",
          "name": "paymentRequest",
          "type": "uint256[]"
        },
        {
          "indexed": false,
          "internalType": "bool[6]",
          "name": "flags",
          "type": "bool[6]"
        },
        {
          "indexed": false,
          "internalType": "uint256",
          "name": "yesVoted",
          "type": "uint256"
        },
        {
          "indexed": false,
          "internalType": "uint256",
          "name": "noVoted",
          "type": "uint256"
        },
        {
          "indexed": false,
          "internalType": "uint256",
          "name": "milestoneIndex",
          "type": "uint256"
        }
      ],
      "name": "UpdateProposal",
      "type": "event"
    },
    {
      "inputs": [],
      "name": "ESCROW",
      "outputs": [
        {
          "internalType": "address",
          "name": "",
          "type": "address"
        }
      ],
      "stateMutability": "view",
      "type": "function"
    },
    {
      "inputs": [],
      "name": "GUILD",
      "outputs": [
        {
          "internalType": "address",
          "name": "",
          "type": "address"
        }
      ],
      "stateMutability": "view",
      "type": "function"
    },
    {
      "inputs": [],
      "name": "TOTAL",
      "outputs": [
        {
          "internalType": "address",
          "name": "",
          "type": "address"
        }
      ],
      "stateMutability": "view",
      "type": "function"
    },
    {
      "inputs": [
        {
          "internalType": "uint256",
          "name": "proposalId",
          "type": "uint256"
        }
      ],
      "name": "cancelProposal",
      "outputs": [],
      "stateMutability": "nonpayable",
      "type": "function"
    },
    {
      "inputs": [],
      "name": "depositToken",
      "outputs": [
        {
          "internalType": "address",
          "name": "",
          "type": "address"
        }
      ],
      "stateMutability": "view",
      "type": "function"
    },
    {
      "inputs": [],
      "name": "dilutionBound",
      "outputs": [
        {
          "internalType": "uint256",
          "name": "",
          "type": "uint256"
        }
      ],
      "stateMutability": "view",
      "type": "function"
    },
    {
      "inputs": [],
      "name": "getCurrentPeriod",
      "outputs": [
        {
          "internalType": "uint256",
          "name": "",
          "type": "uint256"
        }
      ],
      "stateMutability": "view",
      "type": "function"
    },
    {
      "inputs": [
        {
          "internalType": "address",
          "name": "memberAddress",
          "type": "address"
        },
        {
          "internalType": "uint256",
          "name": "proposalId",
          "type": "uint256"
        },
        {
          "internalType": "uint256",
          "name": "milestone",
          "type": "uint256"
        }
      ],
      "name": "getMemberProposalVoteByMilestone",
      "outputs": [
        {
          "internalType": "enum Boii.Vote",
          "name": "",
          "type": "uint8"
        }
      ],
      "stateMutability": "view",
      "type": "function"
    },
    {
      "inputs": [
        {
          "internalType": "uint256",
          "name": "proposalId",
          "type": "uint256"
        }
      ],
      "name": "getPaymentRequested",
      "outputs": [
        {
          "internalType": "uint256[]",
          "name": "",
          "type": "uint256[]"
        }
      ],
      "stateMutability": "view",
      "type": "function"
    },
    {
      "inputs": [
        {
          "internalType": "uint256",
          "name": "proposalId",
          "type": "uint256"
        }
      ],
      "name": "getProposalFlags",
      "outputs": [
        {
          "internalType": "bool[6]",
          "name": "",
          "type": "bool[6]"
        }
      ],
      "stateMutability": "view",
      "type": "function"
    },
    {
      "inputs": [
        {
          "internalType": "uint256",
          "name": "proposalId",
          "type": "uint256"
        }
      ],
      "name": "getStartPeriod",
      "outputs": [
        {
          "internalType": "uint256[]",
          "name": "",
          "type": "uint256[]"
        }
      ],
      "stateMutability": "view",
      "type": "function"
    },
    {
      "inputs": [
        {
          "internalType": "address",
          "name": "user",
          "type": "address"
        },
        {
          "internalType": "address",
          "name": "token",
          "type": "address"
        }
      ],
      "name": "getUserTokenBalance",
      "outputs": [
        {
          "internalType": "uint256",
          "name": "",
          "type": "uint256"
        }
      ],
      "stateMutability": "view",
      "type": "function"
    },
    {
      "inputs": [],
      "name": "gracePeriodLength",
      "outputs": [
        {
          "internalType": "uint256",
          "name": "",
          "type": "uint256"
        }
      ],
      "stateMutability": "view",
      "type": "function"
    },
    {
      "inputs": [
        {
          "internalType": "uint256",
          "name": "startingPeriod",
          "type": "uint256"
        }
      ],
      "name": "hasVotingPeriodExpired",
      "outputs": [
        {
          "internalType": "bool",
          "name": "",
          "type": "bool"
        }
      ],
      "stateMutability": "view",
      "type": "function"
    },
    {
      "inputs": [
        {
          "internalType": "address",
          "name": "",
          "type": "address"
        }
      ],
      "name": "members",
      "outputs": [
        {
          "internalType": "uint256",
          "name": "shares",
          "type": "uint256"
        },
        {
          "internalType": "bool",
          "name": "exists",
          "type": "bool"
        },
        {
          "internalType": "bool",
          "name": "jailed",
          "type": "bool"
        }
      ],
      "stateMutability": "view",
      "type": "function"
    },
    {
      "inputs": [],
      "name": "periodDuration",
      "outputs": [
        {
          "internalType": "uint256",
          "name": "",
          "type": "uint256"
        }
      ],
      "stateMutability": "view",
      "type": "function"
    },
    {
      "inputs": [
        {
          "internalType": "uint256",
          "name": "proposalId",
          "type": "uint256"
        }
      ],
      "name": "preProcessProposal",
      "outputs": [],
      "stateMutability": "nonpayable",
      "type": "function"
    },
    {
      "inputs": [
        {
          "internalType": "uint256",
          "name": "proposalId",
          "type": "uint256"
        }
      ],
      "name": "processProposal",
      "outputs": [],
      "stateMutability": "nonpayable",
      "type": "function"
    },
    {
      "inputs": [],
      "name": "proposalCount",
      "outputs": [
        {
          "internalType": "uint256",
          "name": "",
          "type": "uint256"
        }
      ],
      "stateMutability": "view",
      "type": "function"
    },
    {
      "inputs": [],
      "name": "proposalDeposit",
      "outputs": [
        {
          "internalType": "uint256",
          "name": "",
          "type": "uint256"
        }
      ],
      "stateMutability": "view",
      "type": "function"
    },
    {
      "inputs": [
        {
          "internalType": "uint256",
          "name": "",
          "type": "uint256"
        }
      ],
      "name": "proposals",
      "outputs": [
        {
          "internalType": "address",
          "name": "applicant",
          "type": "address"
        },
        {
          "internalType": "address",
          "name": "proposer",
          "type": "address"
        },
        {
          "internalType": "address",
          "name": "sponsor",
          "type": "address"
        },
        {
          "internalType": "uint256",
          "name": "sharesRequested",
          "type": "uint256"
        },
        {
          "internalType": "uint256",
          "name": "tributeOffered",
          "type": "uint256"
        },
        {
          "internalType": "uint256",
          "name": "activePeriod",
          "type": "uint256"
        },
        {
          "internalType": "uint256",
          "name": "milestoneIndex",
          "type": "uint256"
        },
        {
          "internalType": "uint256",
          "name": "yesVoted",
          "type": "uint256"
        },
        {
          "internalType": "uint256",
          "name": "noVoted",
          "type": "uint256"
        },
        {
          "internalType": "string",
          "name": "projectHash",
          "type": "string"
        },
        {
          "internalType": "uint256",
          "name": "maxTotalSharesAtYesVote",
          "type": "uint256"
        }
      ],
      "stateMutability": "view",
      "type": "function"
    },
    {
      "inputs": [
        {
          "internalType": "address",
          "name": "",
          "type": "address"
        }
      ],
      "name": "proposedToKick",
      "outputs": [
        {
          "internalType": "bool",
          "name": "",
          "type": "bool"
        }
      ],
      "stateMutability": "view",
      "type": "function"
    },
    {
      "inputs": [
        {
          "internalType": "uint256",
          "name": "sharesToBurn",
          "type": "uint256"
        },
        {
          "internalType": "uint256",
          "name": "proposalId",
          "type": "uint256"
        }
      ],
      "name": "ragequit",
      "outputs": [],
      "stateMutability": "nonpayable",
      "type": "function"
    },
    {
      "inputs": [
        {
          "internalType": "uint256",
          "name": "proposalId",
          "type": "uint256"
        }
      ],
      "name": "sponsorProposal",
      "outputs": [],
      "stateMutability": "nonpayable",
      "type": "function"
    },
    {
      "inputs": [
        {
          "internalType": "address",
          "name": "memberToKick",
          "type": "address"
        },
        {
          "internalType": "string",
          "name": "details",
          "type": "string"
        }
      ],
      "name": "submitGuildKickProposal",
      "outputs": [
        {
          "internalType": "uint256",
          "name": "proposalId",
          "type": "uint256"
        }
      ],
      "stateMutability": "nonpayable",
      "type": "function"
    },
    {
      "inputs": [
        {
          "internalType": "address",
          "name": "applicant",
          "type": "address"
        },
        {
          "internalType": "uint256",
          "name": "sharesRequested",
          "type": "uint256"
        },
        {
          "internalType": "uint256",
          "name": "tributeOffered",
          "type": "uint256"
        },
        {
          "internalType": "string",
          "name": "details",
          "type": "string"
        }
      ],
      "name": "submitJoinProposal",
      "outputs": [
        {
          "internalType": "uint256",
          "name": "proposalId",
          "type": "uint256"
        }
      ],
      "stateMutability": "nonpayable",
      "type": "function"
    },
    {
      "inputs": [
        {
          "internalType": "address",
          "name": "applicant",
          "type": "address"
        },
        {
          "internalType": "uint256[]",
          "name": "paymentRequested",
          "type": "uint256[]"
        },
        {
          "internalType": "uint256[]",
          "name": "startPeriod",
          "type": "uint256[]"
        },
        {
          "internalType": "string",
          "name": "details",
          "type": "string"
        }
      ],
      "name": "submitProjectProposal",
      "outputs": [
        {
          "internalType": "uint256",
          "name": "proposalId",
          "type": "uint256"
        }
      ],
      "stateMutability": "nonpayable",
      "type": "function"
    },
    {
      "inputs": [
        {
          "internalType": "uint256",
          "name": "proposalIndex",
          "type": "uint256"
        },
        {
          "internalType": "uint8",
          "name": "uintVote",
          "type": "uint8"
        }
      ],
      "name": "submitVote",
      "outputs": [],
      "stateMutability": "nonpayable",
      "type": "function"
    },
    {
      "inputs": [],
      "name": "summoningTime",
      "outputs": [
        {
          "internalType": "uint256",
          "name": "",
          "type": "uint256"
        }
      ],
      "stateMutability": "view",
      "type": "function"
    },
    {
      "inputs": [
        {
          "internalType": "address",
          "name": "",
          "type": "address"
        }
      ],
      "name": "totalMemberShares",
      "outputs": [
        {
          "internalType": "uint256",
          "name": "",
          "type": "uint256"
        }
      ],
      "stateMutability": "view",
      "type": "function"
    },
    {
      "inputs": [],
      "name": "totalShares",
      "outputs": [
        {
          "internalType": "uint256",
          "name": "",
          "type": "uint256"
        }
      ],
      "stateMutability": "view",
      "type": "function"
    },
    {
      "inputs": [
        {
          "internalType": "address",
          "name": "",
          "type": "address"
        },
        {
          "internalType": "address",
          "name": "",
          "type": "address"
        }
      ],
      "name": "userTokenBalances",
      "outputs": [
        {
          "internalType": "uint256",
          "name": "",
          "type": "uint256"
        }
      ],
      "stateMutability": "view",
      "type": "function"
    },
    {
      "inputs": [],
      "name": "votingPeriodLength",
      "outputs": [
        {
          "internalType": "uint256",
          "name": "",
          "type": "uint256"
        }
      ],
      "stateMutability": "view",
      "type": "function"
    },
    {
      "inputs": [
        {
          "internalType": "uint256",
          "name": "amount",
          "type": "uint256"
        }
      ],
      "name": "withdrawBalance",
      "outputs": [],
      "stateMutability": "nonpayable",
      "type": "function"
    }
  ],
  "bytecode": "0x60806040523480156200001157600080fd5b5060405162003f0738038062003f07833981016040819052620000349162000456565b6000805460ff191660011790556001600160a01b0387166200009d5760405162461bcd60e51b815260206004820152601460248201527f73756d6d6f6e65722063616e6e6f74206265203000000000000000000000000060448201526064015b60405180910390fd5b60008511620000fa5760405162461bcd60e51b815260206004820152602260248201527f706572696f644475726174696f6e206d7573742067726561746572207468616e604482015261020360f41b606482015260840162000094565b600084116200015b5760405162461bcd60e51b815260206004820152602660248201527f766f74696e67506572696f644c656e677468206d75737420677265617465722060448201526507468616e20360d41b606482015260840162000094565b670de0b6b3a7640000841115620001c15760405162461bcd60e51b8152602060048201526024808201527f766f74696e67506572696f644c656e677468206578636565647320746865206c6044820152631a5b5a5d60e21b606482015260840162000094565b60008311620002215760405162461bcd60e51b815260206004820152602560248201527f6772616365506572696f644c656e677468206d75737420677265617465722074604482015264068616e20360dc1b606482015260840162000094565b670de0b6b3a7640000831115620002875760405162461bcd60e51b815260206004820152602360248201527f6772616365506572696f644c656e677468206578636565647320746865206c696044820152621b5a5d60ea1b606482015260840162000094565b60008111620002e35760405162461bcd60e51b815260206004820152602160248201527f64696c7574696f6e426f756e64206d7573742067726561746572207468616e206044820152600360fc1b606482015260840162000094565b670de0b6b3a76400008111156200033d5760405162461bcd60e51b815260206004820152601f60248201527f64696c7574696f6e426f756e64206578636565647320746865206c696d697400604482015260640162000094565b6001600160a01b038616620003955760405162461bcd60e51b815260206004820152601860248201527f6465706f736974546f6b656e2063616e6e6f7420626520300000000000000000604482015260640162000094565b600780546001600160a01b0319166001600160a01b039788161790556001948555600293909355600391909155600455600555426006556040805160608101825282815260208082018481526000838501818152979096168652600c825283862092518355519184018054965161ffff1990971692151561ff0019169290921761010096151596909602959095179055600e909352919020819055600955620004bd565b80516001600160a01b03811681146200045157600080fd5b919050565b600080600080600080600060e0888a0312156200047257600080fd5b6200047d8862000439565b96506200048d6020890162000439565b604089015160608a015160808b015160a08c015160c0909c01519a9d939c50919a90999198509650945092505050565b613a3a80620004cd6000396000f3fe608060405234801561001057600080fd5b50600436106102065760003560e01c806387dfc8251161011a578063b470aade116100ad578063da76d5cd1161007c578063da76d5cd146104be578063e0a8f6f5146104d1578063e63bc62d146104e4578063e681c4aa146104f7578063f5d54c771461050057600080fd5b8063b470aade14610479578063c89039c514610482578063d4480a9314610495578063da35c664146104b557600080fd5b80639746d940116100e95780639746d9401461042a57806399653fbe1461043d578063afe5475f14610450578063b2643aab1461045957600080fd5b806387dfc825146103db5780638b15a605146103ee5780638b6cb9e5146103f75780639425a4761461041757600080fd5b806345f2d1051161019d57806363858f2d1161016c57806363858f2d1461039a57806373f8fd4b146103a35780637d5b6c72146103b65780638340bbce146103bf578063878fc813146103c857600080fd5b806345f2d105146103295780634c10563114610354578063571ed9c514610367578063623125241461038757600080fd5b806315eb349e116101d957806315eb349e146102b757806327efc086146102cc5780633a98ef39146102ed5780633fc24bba146102f657600080fd5b8063013cf08b1461020b578063086146d21461023e57806308ae4b0c14610254578063115b2d18146102a4575b600080fd5b61021e610219366004612fbb565b610509565b6040516102359b9a9998979695949392919061301a565b60405180910390f35b6102466105fa565b604051908152602001610235565b6102876102623660046130aa565b600c602052600090815260409020805460019091015460ff8082169161010090041683565b604080519384529115156020840152151590820152606001610235565b6102466102b236600461317c565b61061c565b6102ca6102c53660046131ca565b6107fb565b005b6102d561babe81565b6040516001600160a01b039091168152602001610235565b61024660095481565b6103196103043660046130aa565b600b6020526000908152604090205460ff1681565b6040519015158152602001610235565b6102466103373660046131ec565b600a60209081526000928352604080842090915290825290205481565b61024661036236600461321f565b61086e565b61037a610375366004612fbb565b610c1d565b60405161023591906132bb565b61037a610395366004612fbb565b610c82565b61024660035481565b6102466103b13660046131ec565b610ce5565b61024660065481565b61024660025481565b6102466103d636600461334e565b610d12565b6102ca6103e9366004612fbb565b610e90565b61024660045481565b61040a6104053660046133db565b61106b565b6040516102359190613424565b610319610425366004612fbb565b611109565b6102ca610438366004612fbb565b611129565b6102ca61044b36600461344c565b611615565b61024660055481565b61046c610467366004612fbb565b611a4e565b6040516102359190613482565b61024660015481565b6007546102d5906001600160a01b031681565b6102466104a33660046130aa565b600e6020526000908152604090205481565b61024660085481565b6102ca6104cc366004612fbb565b611ab8565b6102ca6104df366004612fbb565b611afd565b6102ca6104f2366004612fbb565b611ce1565b6102d561beef81565b6102d561dead81565b600d60205260009081526040902080546001820154600283015460038401546004850154600786015460088701546009880154600a890154600c8a0180546001600160a01b039a8b169b998b169a9098169896979596949593949293919291610571906134b5565b80601f016020809104026020016040519081016040528092919081815260200182805461059d906134b5565b80156105ea5780601f106105bf576101008083540402835291602001916105ea565b820191906000526020600020905b8154815290600101906020018083116105cd57829003601f168201915b50505050509080600d015490508b565b60006001546006544261060d91906134ff565b6106179190613512565b905090565b6000805460ff166106485760405162461bcd60e51b815260040161063f90613534565b60405180910390fd5b6000805460ff191681556001600160a01b0384168152600c6020908152604091829020825160608101845281548082526001929092015460ff8181161515948301949094526101009004909216151592820192909252906106f75760405162461bcd60e51b815260206004820152602360248201527f6d656d626572206d7573742068617665206174206c65617374206f6e6520736860448201526261726560e81b606482015260840161063f565b6001600160a01b0384166000908152600c6020526040902060010154610100900460ff16156107725760405162461bcd60e51b815260206004820152602160248201527f6d656d626572206d757374206e6f7420616c7265616479206265206a61696c656044820152601960fa1b606482015260840161063f565b61077a612eb4565b60016080820181905260408051828152808201909152600091602080830190803683370190505090506000816000815181106107b8576107b861356b565b6020026020010181815250506107d48660008084858a88611da9565b60016008546107e391906134ff565b93505050506000805460ff1916600117905592915050565b60005460ff1661081d5760405162461bcd60e51b815260040161063f90613534565b6000805460ff19168155338152600c60205260409020546108505760405162461bcd60e51b815260040161063f90613581565b61085d3383836000611ed6565b50506000805460ff19166001179055565b6000805460ff166108915760405162461bcd60e51b815260040161063f90613534565b6000805460ff1916905560646108a785806135a7565b11156108f55760405162461bcd60e51b815260206004820152601960248201527f746f6f206d616e79207368617265732072657175657374656400000000000000604482015260640161063f565b6001600160a01b0385166109435760405162461bcd60e51b815260206004820152601560248201527406170706c6963616e742063616e6e6f74206265203605c1b604482015260640161063f565b6001600160a01b03851661dead1480159061096957506001600160a01b03851661beef14155b801561098057506001600160a01b03851661babe14155b61099c5760405162461bcd60e51b815260040161063f906135ba565b6001600160a01b0385166000908152600c6020526040902060010154610100900460ff16156109dd5760405162461bcd60e51b815260040161063f906135fe565b6001600160a01b0385166000908152600e6020526040902054600990610a049086906135a7565b1115610a625760405162461bcd60e51b815260206004820152602760248201527f6d656d626572206d757374206e6f742068617665206d6f7265207468616e20396044820152662073686172657360c81b606482015260840161063f565b6007546040516323b872dd60e01b8152336004820152306024820152604481018590526001600160a01b03909116906323b872dd906064016020604051808303816000875af1158015610ab9573d6000803e3d6000fd5b505050506040513d601f19601f82011682018060405250810190610add9190613643565b610b295760405162461bcd60e51b815260206004820152601d60248201527f7472696275746520746f6b656e207472616e73666572206661696c6564000000604482015260640161063f565b610b3561beef846122c2565b6040805160c081018252600080825260208201819052818301819052606082018190526080820181905260a08201819052825160018082528185019094529192909190816020016020820280368337019050509050600081600081518110610b9f57610b9f61356b565b60200260200101818152505085600e6000896001600160a01b03166001600160a01b031681526020019081526020016000206000828254610be091906135a7565b90915550610bf5905087878784808988611da9565b6001600854610c0491906134ff565b925050506000805460ff19166001179055949350505050565b6000818152600d6020908152604091829020600601805483518184028101840190945280845260609392830182828015610c7657602002820191906000526020600020905b815481526020019060010190808311610c62575b50505050509050919050565b6000818152600d6020908152604091829020600501805483518184028101840190945280845260609392830182828015610c765760200282019190600052602060002090815481526020019060010190808311610c625750505050509050919050565b6001600160a01b038083166000908152600a60209081526040808320938516835292905220545b92915050565b6000805460ff16610d355760405162461bcd60e51b815260040161063f90613534565b6000805460ff191690556001600160a01b038516610d8d5760405162461bcd60e51b815260206004820152601560248201527406170706c6963616e742063616e6e6f74206265203605c1b604482015260640161063f565b6001600160a01b03851661dead14801590610db357506001600160a01b03851661beef14155b8015610dca57506001600160a01b03851661babe14155b610de65760405162461bcd60e51b815260040161063f906135ba565b6001600160a01b0385166000908152600c6020526040902060010154610100900460ff1615610e275760405162461bcd60e51b815260040161063f906135fe565b6040805160c081018252600080825260208201819052918101829052606081018290526080810182905260a0810182905290610e699087908088888887611da9565b6001600854610e7891906134ff565b9150506000805460ff19166001179055949350505050565b60005460ff16610eb25760405162461bcd60e51b815260040161063f90613534565b6000805460ff19169055610ec581612353565b6000610ed08261248c565b6000838152600d60205260409020600b8101805465ff0000000000191665010000000000179081905591925090640100000000900460ff161515600114610fe95780600501600081548110610f2757610f2761356b565b9060005260206000200154600003610f845760648160030154600954610f4d91906135a7565b1115610f5857600091505b81600b820160025b602091828204019190066101000a81548160ff021916908315150217905550611001565b6007546001600160a01b031660009081526000805160206139e5833981519152602052604090205460088201546005830180549091908110610fc857610fc861356b565b90600052602060002001541115610f58576000915081600b82016002610f60565b600b8101805462ff0000191662010000841515021790555b60018101546009820154600a830154600884015460405187946000805160206139c583398151915294611051946001600160a01b0390921693600c89019360058a0193600b8b01939290916136ec565b60405180910390a250506000805460ff1916600117905550565b6001600160a01b0383166000908152600c602052604081206001015460ff166110cf5760405162461bcd60e51b81526020600482015260166024820152751b595b58995c88191bd95cdb881b9bdd08195e1a5cdd60521b604482015260640161063f565b506000828152600d60209081526040808320848452600e0182528083206001600160a01b038716845290915290205460ff165b9392505050565b60006002548261111991906135a7565b6111216105fa565b101592915050565b60005460ff1661114b5760405162461bcd60e51b815260040161063f90613534565b6000805460ff19168155338152600c602052604090205461117e5760405162461bcd60e51b815260040161063f90613581565b600754600480546040516323b872dd60e01b8152339281019290925230602483015260448201526001600160a01b03909116906323b872dd906064016020604051808303816000875af11580156111d9573d6000803e3d6000fd5b505050506040513d601f19601f820116820180604052508101906111fd9190613643565b6112585760405162461bcd60e51b815260206004820152602660248201527f70726f706f73616c206465706f73697420746f6b656e207472616e736665722060448201526519985a5b195960d21b606482015260840161063f565b61126661beef6004546122c2565b6000818152600d6020526040902060018101546001600160a01b03166112ce5760405162461bcd60e51b815260206004820181905260248201527f70726f706f73616c206d7573742068617665206265656e2070726f706f736564604482015260640161063f565b600b81015460ff16156112f35760405162461bcd60e51b815260040161063f906137c3565b600b8101546301000000900460ff161561134f5760405162461bcd60e51b815260206004820152601b60248201527f70726f706f73616c20686173206265656e2063616e63656c6c65640000000000604482015260640161063f565b600b810154610100900460ff16156113a95760405162461bcd60e51b815260206004820152601b60248201527f70726f706f73616c20686173206265656e2070726f6365737365640000000000604482015260640161063f565b80546001600160a01b03166000908152600c6020526040902060010154610100900460ff16156113eb5760405162461bcd60e51b815260040161063f906135fe565b600b810154640100000000900460ff161561148f5780546001600160a01b03166000908152600b602052604090205460ff161561146a5760405162461bcd60e51b815260206004820152601860248201527f616c72656164792070726f706f73656420746f206b69636b0000000000000000604482015260640161063f565b80546001600160a01b03166000908152600b60205260409020805460ff191660011790555b806008015460000361156a576114a36105fa565b6114ae9060016135a7565b816006016000815481106114c4576114c461356b565b60009182526020909120015560015b6006820154811015611568578160060181815481106114f4576114f461356b565b90600052602060002001548260060160018361151091906134ff565b815481106115205761152061356b565b906000526020600020015461153591906135a7565b82600601828154811061154a5761154a61356b565b6000918252602090912001558061156081613806565b9150506114d3565b505b806006016000815481106115805761158061356b565b60009182526020909120015460078201556002810180546001600160a01b03191633179055600b8101805460ff1916600190811782558201546009830154600a840154600885015460405187956000805160206139c5833981519152956115fc956001600160a01b0390911694600c8a019460058b01946136ec565b60405180910390a250506000805460ff19166001179055565b60005460ff166116375760405162461bcd60e51b815260040161063f90613534565b6000805460ff19168155338152600c602052604090205461166a5760405162461bcd60e51b815260040161063f90613581565b336000908152600c60205260409020600854831061169a5760405162461bcd60e51b815260040161063f9061381f565b6000838152600d60205260409020600b81015460ff1615156001146117015760405162461bcd60e51b815260206004820152601960248201527f70726f706f73616c20646f6573206e6f742073706f6e736f7200000000000000604482015260640161063f565b60038360ff161061174a5760405162461bcd60e51b81526020600482015260136024820152726d757374206265206c657373207468616e203360681b604482015260640161063f565b60008360ff1660028111156117615761176161340e565b905081600701546117706105fa565b10156117be5760405162461bcd60e51b815260206004820152601d60248201527f766f74696e6720706572696f6420686173206e6f742073746172746564000000604482015260640161063f565b6117cb8260070154611109565b156118235760405162461bcd60e51b815260206004820152602260248201527f70726f706f73616c20766f74696e6720706572696f6420686173206578706972604482015261195960f21b606482015260840161063f565b60088201546000908152600e83016020908152604080832033845290915281205460ff1660028111156118585761185861340e565b146118a55760405162461bcd60e51b815260206004820152601860248201527f6d656d6265722068617320616c726561647920766f7465640000000000000000604482015260640161063f565b60018160028111156118b9576118b961340e565b14806118d6575060028160028111156118d4576118d461340e565b145b6119225760405162461bcd60e51b815260206004820152601d60248201527f766f7465206d7573742062652065697468657220596573206f72204e6f000000604482015260640161063f565b60088201546000908152600e8301602090815260408083203384529091529020805482919060ff1916600183600281111561195f5761195f61340e565b021790555060018160028111156119785761197861340e565b036119b2578254600983015461198e91906135a7565b826009018190555081600d015460095411156119ad57600954600d8301555b6119e2565b60028160028111156119c6576119c661340e565b036119e2578254600a8301546119dc91906135a7565b600a8301555b60018201546009830154600a840154600885015460405189946000805160206139c583398151915294611a32946001600160a01b0390921693600c8a019360058b0193600b8c01939290916136ec565b60405180910390a250506000805460ff19166001179055505050565b611a56612eb4565b6000828152600d6020526040808220815160c081019283905292600b909101916006918390855b825461010083900a900460ff161515815260206001928301818104948501949093039092029101808411611a7d575094979650505050505050565b60005460ff16611ada5760405162461bcd60e51b815260040161063f90613534565b6000805460ff19169055611aed81612501565b506000805460ff19166001179055565b60005460ff16611b1f5760405162461bcd60e51b815260040161063f90613534565b6000805460ff19168155818152600d60205260409020600b81015460ff1615611b5a5760405162461bcd60e51b815260040161063f906137c3565b600b8101546301000000900460ff1615611bc25760405162461bcd60e51b815260206004820152602360248201527f70726f706f73616c2068617320616c7265616479206265656e2063616e63656c6044820152621b195960ea1b606482015260840161063f565b60018101546001600160a01b03163314611c1e5760405162461bcd60e51b815260206004820152601e60248201527f736f6c656c79207468652070726f706f7365722063616e2063616e63656c0000604482015260640161063f565b600b8101805463ff00000019166301000000179055600381015481546001600160a01b03166000908152600e602052604081208054909190611c619084906134ff565b909155505060018101546009820154600a830154600884015460405186946000805160206139c583398151915294611cb6946001600160a01b0390921693600c89019360058a0193600b8b01939290916136ec565b60405180910390a26001810154600482015461085d9161beef916001600160a01b039091169061262d565b60005460ff16611d035760405162461bcd60e51b815260040161063f90613534565b6000805460ff19169055611d1681612646565b6000611d218261248c565b6000838152600d60205260409020600b81015491925090640100000000900460ff161515600114611d8d5780600501600081548110611d6257611d6261356b565b9060005260206000200154600003611d8357611d7e838361275e565b611d97565b611d7e8383612992565b611d978383612b70565b50506000805460ff1916600117905550565b6008546000908152600d6020908152604090912080546001600160a01b038a166001600160a01b031991821617825560018201805490911633179055600381018890556004810187905585519091611e08916005840191880190612ed2565b508351611e1e9060068301906020870190612ed2565b506000600782018190556008820181905560098201819055600a820155611e4a600b8201836006612f1d565b50600c8101611e5984826138a4565b506000600d8201556008805460018301546009840154600a8501549385015460405193946000805160206139c583398151915294611eac946001600160a01b0316938a938d93600b8b0193909190613964565b60405180910390a2600160086000828254611ec791906135a7565b90915550505050505050505050565b6009546001600160a01b0385166000908152600c602052604090208054851115611f385760405162461bcd60e51b8152602060048201526013602482015272696e73756666696369656e742073686172657360681b604482015260640161063f565b826121b5576000848152600d60205260409020600b015465010000000000900460ff16611fa75760405162461bcd60e51b815260206004820152601d60248201527f70726f706f73616c206d7573742062652070726570726f636573736564000000604482015260640161063f565b6003546002546000868152600d6020526040902060070154611fc991906135a7565b611fd391906135a7565b611fdb6105fa565b106120285760405162461bcd60e51b815260206004820181905260248201527f70726f706f73616c206d75737420626520696e20677261636520706572696f64604482015260640161063f565b6000848152600d6020908152604080832060088101548452600e0182528083206001600160a01b038a16845290915281205460ff16600281111561206e5761206e61340e565b036120bb5760405162461bcd60e51b815260206004820181905260248201527f6d656d626572206469646e277420766f7465206f6e20612070726f706f73616c604482015260640161063f565b6000848152600d60205260409020600b015462010000900460ff166120e15760026120e4565b60015b60ff1660028111156120f8576120f861340e565b60028111156121095761210961340e565b6000858152600d6020908152604080832060088101548452600e0182528083206001600160a01b038b16845290915290205460ff16600281111561214f5761214f61340e565b036121b55760405162461bcd60e51b815260206004820152603060248201527f6d656d6265722077686f20766f746564207468652073616d6520726573756c7460448201526f0818d85b9b9bdd081c9859d95c5d5a5d60821b606482015260840161063f565b80546121c29086906134ff565b81556001600160a01b0386166000908152600e6020526040812080548792906121ec9084906134ff565b90915550506009546121ff9086906134ff565b6009556007546001600160a01b031660009081526000805160206139e58339815191526020526040812054612235908785612cdf565b905080156122b9576007546001600160a01b031660009081526000805160206139e58339815191526020526040812080548392906122749084906134ff565b90915550506001600160a01b038088166000908152600a60209081526040808320600754909416835292905290812080548392906122b39084906135a7565b90915550505b50505050505050565b6001600160a01b038083166000908152600a60209081526040808320600754909416835292905290812080548392906122fc9084906135a7565b90915550506007546001600160a01b031660009081527fed762ddb65dfeab933eda5256eb347e1bf2b4e76044bdc8baf0a70d22dc0c37460205260408120805483929061234a9084906135a7565b90915550505050565b60085481106123745760405162461bcd60e51b815260040161063f9061381f565b6000818152600d60205260409020600254600782015461239491906135a7565b61239c6105fa565b10156123fb5760405162461bcd60e51b815260206004820152602860248201527f70726f706f73616c206973206e6f7420726561647920746f20626520707265706044820152671c9bd8d95cdcd95960c21b606482015260840161063f565b600b810154610100900460ff161580156124235750600b81015465010000000000900460ff16155b6124885760405162461bcd60e51b815260206004820152603060248201527f70726f706f73616c2068617320616c7265616479206265656e2070726570726f60448201526f18d95cdcd9590bdc1c9bd8d95cdcd95960821b606482015260840161063f565b5050565b6000818152600d60208190526040909120600a8101546009808301549383015460055491549290941193916124c191906139ad565b10156124cc57600091505b80546001600160a01b03166000908152600c6020526040902060010154610100900460ff16156124fb57600091505b50919050565b336000908152600a602090815260408083206007546001600160a01b0316845290915290205481111561256d5760405162461bcd60e51b8152602060048201526014602482015273696e73756666696369656e742062616c616e636560601b604482015260640161063f565b6125773382612d4c565b60075460405163a9059cbb60e01b8152336004820152602481018390526001600160a01b039091169063a9059cbb906044016020604051808303816000875af11580156125c8573d6000803e3d6000fd5b505050506040513d601f19601f820116820180604052508101906125ec9190613643565b61262a5760405162461bcd60e51b815260206004820152600f60248201526e1d1c985b9cd9995c8819985a5b1959608a1b604482015260640161063f565b50565b6126378382612d4c565b61264182826122c2565b505050565b60085481106126675760405162461bcd60e51b815260040161063f9061381f565b6000818152600d60205260409020600354600254600783015461268a91906135a7565b61269491906135a7565b61269c6105fa565b10156126f85760405162461bcd60e51b815260206004820152602560248201527f70726f706f73616c206973206e6f7420726561647920746f2062652070726f63604482015264195cdcd95960da1b606482015260840161063f565b600b810154610100900460ff16156124885760405162461bcd60e51b815260206004820152602360248201527f70726f706f73616c2068617320616c7265616479206265656e2070726f6365736044820152621cd95960ea1b606482015260840161063f565b6000828152600d60205260409020600b8101805461ff0019166101001790556003810154600954839160649161279491906135a7565b111561279e575060005b80156128b957600b8201805462ff000019166201000017905581546001600160a01b03166000908152600c602052604090206001015460ff161561282457600382015482546001600160a01b03166000908152600c602052604090205461280591906135a7565b82546001600160a01b03166000908152600c6020526040902055612889565b604080516060810182526003840154815260016020808301828152600084860181815288546001600160a01b03168252600c9093529490942092518355925191018054925115156101000261ff00199215159290921661ffff19909316929092171790555b816003015460095461289b91906135a7565b6009819055506128b461beef61dead846004015461262d565b61291d565b600b8201805462ff000019169055600382015482546001600160a01b03166000908152600e6020526040812080549091906128f59084906134ff565b90915550506001820154600483015461291d9161beef916001600160a01b039091169061262d565b60018201546009830154600a840154600885015460405188946000805160206139c58339815191529461296d946001600160a01b0390921693600c8a019360058b0193600b8c01939290916136ec565b60405180910390a2600282015461298c906001600160a01b0316612dd4565b50505050565b6000828152600d60209081526040808320600b8101805461ff0019166101001790556007546001600160a01b031684526000805160206139e58339815191529092529091205460088201546005830180548593929081106129f5576129f561356b565b90600052602060002001541115612a0a575060005b8015612ae657600b8201805462ff000019166201000017905581546008830154600584018054612a639361dead936001600160a01b0390911692918110612a5357612a5361356b565b906000526020600020015461262d565b6008820154612a739060016135a7565b60068301541115612ae1576001826008016000828254612a9391906135a7565b9250508190555081600601826008015481548110612ab357612ab361356b565b60009182526020822001546007840155600b8301805465ff000000ff001916905560098301819055600a8301555b612af5565b600b8201805462ff0000191690555b60018201546009830154600a840154600885015460405188946000805160206139c583398151915294612b45946001600160a01b0390921693600c8a019360058b0193600b8c01939290916136ec565b60405180910390a2816008015460000361298c57600282015461298c906001600160a01b0316612dd4565b6000828152600d60205260409020600b8101548290640100000000900460ff16612bdc5760405162461bcd60e51b815260206004820152601d60248201527f6d7573742062652061206775696c64206b69636b2070726f706f73616c000000604482015260640161063f565b600b8201805461ff0019166101001790558015612c4657600b8201805462ff000019166201000017905581546001600160a01b039081166000908152600c6020526040902060018101805461ff00191661010017905583549091612c409116612de3565b50612c55565b600b8201805462ff0000191690555b60018201546009830154600a840154600885015460405188946000805160206139c583398151915294612ca5946001600160a01b0390921693600c8a019360058b0193600b8c01939290916136ec565b60405180910390a281546001600160a01b039081166000908152600b60205260409020805460ff19169055600283015461298c9116612dd4565b600081600003612cee57600080fd5b83600003612cfe57506000611102565b6000612d0a84866139ad565b905083612d178683613512565b03612d2e57612d268382613512565b915050611102565b83612d398487613512565b612d4391906139ad565b95945050505050565b6001600160a01b038083166000908152600a6020908152604080832060075490941683529290529081208054839290612d869084906134ff565b90915550506007546001600160a01b031660009081527fed762ddb65dfeab933eda5256eb347e1bf2b4e76044bdc8baf0a70d22dc0c37460205260408120805483929061234a9084906134ff565b61262a61beef8260045461262d565b6001600160a01b0381166000908152600c602052604081206001810154909161010090910460ff1615159003612e545760405162461bcd60e51b81526020600482015260166024820152751b595b58995c881b5d5cdd081899481a5b881a985a5b60521b604482015260640161063f565b8054612ea25760405162461bcd60e51b815260206004820152601b60248201527f6d656d626572206d757374206861766520736f6d652073686172650000000000604482015260640161063f565b61248882826000015460006001611ed6565b6040518060c001604052806006906020820280368337509192915050565b828054828255906000526020600020908101928215612f0d579160200282015b82811115612f0d578251825591602001919060010190612ef2565b50612f19929150612fa6565b5090565b600183019183908215612f0d5791602002820160005b83821115612f7057835183826101000a81548160ff0219169083151502179055509260200192600101602081600001049283019260010302612f33565b8015612f9d5782816101000a81549060ff0219169055600101602081600001049283019260010302612f70565b5050612f199291505b5b80821115612f195760008155600101612fa7565b600060208284031215612fcd57600080fd5b5035919050565b6000815180845260005b81811015612ffa57602081850181015186830182015201612fde565b506000602082860101526020601f19601f83011685010191505092915050565b600061016060018060a01b03808f168452808e166020850152808d166040850152508a60608401528960808401528860a08401528760c08401528660e0840152856101008401528061012084015261307481840186612fd4565b915050826101408301529c9b505050505050505050505050565b80356001600160a01b03811681146130a557600080fd5b919050565b6000602082840312156130bc57600080fd5b6111028261308e565b634e487b7160e01b600052604160045260246000fd5b604051601f8201601f1916810167ffffffffffffffff81118282101715613104576131046130c5565b604052919050565b600082601f83011261311d57600080fd5b813567ffffffffffffffff811115613137576131376130c5565b61314a601f8201601f19166020016130db565b81815284602083860101111561315f57600080fd5b816020850160208301376000918101602001919091529392505050565b6000806040838503121561318f57600080fd5b6131988361308e565b9150602083013567ffffffffffffffff8111156131b457600080fd5b6131c08582860161310c565b9150509250929050565b600080604083850312156131dd57600080fd5b50508035926020909101359150565b600080604083850312156131ff57600080fd5b6132088361308e565b91506132166020840161308e565b90509250929050565b6000806000806080858703121561323557600080fd5b61323e8561308e565b93506020850135925060408501359150606085013567ffffffffffffffff81111561326857600080fd5b6132748782880161310c565b91505092959194509250565b600081518084526020808501945080840160005b838110156132b057815187529582019590820190600101613294565b509495945050505050565b6020815260006111026020830184613280565b600082601f8301126132df57600080fd5b8135602067ffffffffffffffff8211156132fb576132fb6130c5565b8160051b61330a8282016130db565b928352848101820192828101908785111561332457600080fd5b83870192505b848310156133435782358252918301919083019061332a565b979650505050505050565b6000806000806080858703121561336457600080fd5b61336d8561308e565b9350602085013567ffffffffffffffff8082111561338a57600080fd5b613396888389016132ce565b945060408701359150808211156133ac57600080fd5b6133b8888389016132ce565b935060608701359150808211156133ce57600080fd5b506132748782880161310c565b6000806000606084860312156133f057600080fd5b6133f98461308e565b95602085013595506040909401359392505050565b634e487b7160e01b600052602160045260246000fd5b602081016003831061344657634e487b7160e01b600052602160045260246000fd5b91905290565b6000806040838503121561345f57600080fd5b82359150602083013560ff8116811461347757600080fd5b809150509250929050565b60c08101818360005b60068110156134ac578151151583526020928301929091019060010161348b565b50505092915050565b600181811c908216806134c957607f821691505b6020821081036124fb57634e487b7160e01b600052602260045260246000fd5b634e487b7160e01b600052601160045260246000fd5b81810381811115610d0c57610d0c6134e9565b60008261352f57634e487b7160e01b600052601260045260246000fd5b500490565b6020808252601f908201527f5265656e7472616e637947756172643a207265656e7472616e742063616c6c00604082015260600190565b634e487b7160e01b600052603260045260246000fd5b6020808252600c908201526b3737ba10309036b2b6b132b960a11b604082015260600190565b80820180821115610d0c57610d0c6134e9565b60208082526024908201527f6170706c6963616e7420616464726573732063616e6e6f7420626520726573656040820152631c9d995960e21b606082015260800190565b60208082526025908201527f70726f706f73616c206170706c6963616e74206d757374206e6f74206265206a604082015264185a5b195960da1b606082015260800190565b60006020828403121561365557600080fd5b8151801515811461110257600080fd5b6000815480845260208085019450836000528060002060005b838110156132b05781548752958201956001918201910161367e565b805460ff80821615158452808260081c1615156020850152808260101c1615156040850152808260181c1615156060850152808260201c1615156080850152808260281c16151560a085015250505050565b600061018060018060a01b038a1683526020818185015260008a54613710816134b5565b9386018490526101a09360018281168015613732576001811461374c5761377a565b60ff1984168988015282151560051b89018701945061377a565b8e6000528560002060005b848110156137725781548b82018a0152908301908701613757565b8a0188019550505b505050508481036040860152613790818b613665565b93505050506137a2606083018761369a565b84610120830152836101408301528261016083015298975050505050505050565b60208082526023908201527f70726f706f73616c2068617320616c7265616479206265656e2073706f6e736f6040820152621c995960ea1b606082015260800190565b600060018201613818576138186134e9565b5060010190565b60208082526017908201527f70726f706f73616c20646f6573206e6f74206578697374000000000000000000604082015260600190565b601f82111561264157600081815260208120601f850160051c8101602086101561387d5750805b601f850160051c820191505b8181101561389c57828155600101613889565b505050505050565b815167ffffffffffffffff8111156138be576138be6130c5565b6138d2816138cc84546134b5565b84613856565b602080601f83116001811461390757600084156138ef5750858301515b600019600386901b1c1916600185901b17855561389c565b600085815260208120601f198616915b8281101561393657888601518255948401946001909101908401613917565b50858210156139545787850151600019600388901b60f8161c191681555b5050505050600190811b01905550565b6001600160a01b0388168152610180602082018190526000906139898382018a612fd4565b9050828103604084015261399d8189613280565b9150506137a2606083018761369a565b8082028115828204841417610d0c57610d0c6134e956fe8c09f1f93a70888c4f771b66728ad738408cba6bf23c2c51fadc873ffaf9a9ba20677881080440a9b3c87e826370bb5d9c2f74efd4dede686d52d77a6a09f8bba26469706673582212205cdbcbcb9078654c04a3d8c12bfbbe609e7f12afbb3af3b3739a08a18165d54c64736f6c63430008110033",
  "linkReferences": {},
  "deployedLinkReferences": {}
}