{
  "_format": "hh-sol-artifact-1",
  "contractName": "Boii",
  "sourceName": "contracts/Boii.sol",
  "abi": [
    {
      "inputs": [
        {
          "internalType": "address",
          "name": "_summoner",
          "type": "address"
        },
        {
          "internalType": "address",
          "name": "_depositToken",
          "type": "address"
        },
        {
          "internalType": "uint256",
          "name": "_periodDuration",
          "type": "uint256"
        },
        {
          "internalType": "uint256",
          "name": "_votingPeriodLength",
          "type": "uint256"
        },
        {
          "internalType": "uint256",
          "name": "_gracePeriodLength",
          "type": "uint256"
        },
        {
          "internalType": "uint256",
          "name": "_proposalDeposit",
          "type": "uint256"
        },
        {
          "internalType": "uint256",
          "name": "_dilutionBound",
          "type": "uint256"
        }
      ],
      "stateMutability": "nonpayable",
      "type": "constructor"
    },
    {
      "anonymous": false,
      "inputs": [
        {
          "indexed": true,
          "internalType": "uint256",
          "name": "proposalId",
          "type": "uint256"
        },
        {
          "indexed": false,
          "internalType": "string",
          "name": "projectHash",
          "type": "string"
        },
        {
          "indexed": false,
          "internalType": "uint256[]",
          "name": "paymentRequest",
          "type": "uint256[]"
        },
        {
          "indexed": false,
          "internalType": "bool[6]",
          "name": "flags",
          "type": "bool[6]"
        },
        {
          "indexed": false,
          "internalType": "uint256",
          "name": "yesVoted",
          "type": "uint256"
        },
        {
          "indexed": false,
          "internalType": "uint256",
          "name": "noVoted",
          "type": "uint256"
        },
        {
          "indexed": false,
          "internalType": "uint256",
          "name": "milestoneIndex",
          "type": "uint256"
        }
      ],
      "name": "UpdateProposal",
      "type": "event"
    },
    {
      "inputs": [],
      "name": "ESCROW",
      "outputs": [
        {
          "internalType": "address",
          "name": "",
          "type": "address"
        }
      ],
      "stateMutability": "view",
      "type": "function"
    },
    {
      "inputs": [],
      "name": "GUILD",
      "outputs": [
        {
          "internalType": "address",
          "name": "",
          "type": "address"
        }
      ],
      "stateMutability": "view",
      "type": "function"
    },
    {
      "inputs": [],
      "name": "TOTAL",
      "outputs": [
        {
          "internalType": "address",
          "name": "",
          "type": "address"
        }
      ],
      "stateMutability": "view",
      "type": "function"
    },
    {
      "inputs": [],
      "name": "a_test_prepare_for_vote",
      "outputs": [],
      "stateMutability": "nonpayable",
      "type": "function"
    },
    {
      "inputs": [
        {
          "internalType": "uint256",
          "name": "proposalId",
          "type": "uint256"
        }
      ],
      "name": "cancelProposal",
      "outputs": [],
      "stateMutability": "nonpayable",
      "type": "function"
    },
    {
      "inputs": [],
      "name": "depositToken",
      "outputs": [
        {
          "internalType": "address",
          "name": "",
          "type": "address"
        }
      ],
      "stateMutability": "view",
      "type": "function"
    },
    {
      "inputs": [],
      "name": "dilutionBound",
      "outputs": [
        {
          "internalType": "uint256",
          "name": "",
          "type": "uint256"
        }
      ],
      "stateMutability": "view",
      "type": "function"
    },
    {
      "inputs": [],
      "name": "getCurrentPeriod",
      "outputs": [
        {
          "internalType": "uint256",
          "name": "",
          "type": "uint256"
        }
      ],
      "stateMutability": "view",
      "type": "function"
    },
    {
      "inputs": [
        {
          "internalType": "address",
          "name": "memberAddress",
          "type": "address"
        },
        {
          "internalType": "uint256",
          "name": "proposalId",
          "type": "uint256"
        },
        {
          "internalType": "uint256",
          "name": "milestone",
          "type": "uint256"
        }
      ],
      "name": "getMemberProposalVoteByMilestone",
      "outputs": [
        {
          "internalType": "enum Boii.Vote",
          "name": "",
          "type": "uint8"
        }
      ],
      "stateMutability": "view",
      "type": "function"
    },
    {
      "inputs": [
        {
          "internalType": "uint256",
          "name": "proposalId",
          "type": "uint256"
        }
      ],
      "name": "getPaymentRequested",
      "outputs": [
        {
          "internalType": "uint256[]",
          "name": "",
          "type": "uint256[]"
        }
      ],
      "stateMutability": "view",
      "type": "function"
    },
    {
      "inputs": [
        {
          "internalType": "uint256",
          "name": "proposalId",
          "type": "uint256"
        }
      ],
      "name": "getProposalFlags",
      "outputs": [
        {
          "internalType": "bool[6]",
          "name": "",
          "type": "bool[6]"
        }
      ],
      "stateMutability": "view",
      "type": "function"
    },
    {
      "inputs": [
        {
          "internalType": "uint256",
          "name": "proposalId",
          "type": "uint256"
        }
      ],
      "name": "getStartPeriod",
      "outputs": [
        {
          "internalType": "uint256[]",
          "name": "",
          "type": "uint256[]"
        }
      ],
      "stateMutability": "view",
      "type": "function"
    },
    {
      "inputs": [
        {
          "internalType": "address",
          "name": "user",
          "type": "address"
        },
        {
          "internalType": "address",
          "name": "token",
          "type": "address"
        }
      ],
      "name": "getUserTokenBalance",
      "outputs": [
        {
          "internalType": "uint256",
          "name": "",
          "type": "uint256"
        }
      ],
      "stateMutability": "view",
      "type": "function"
    },
    {
      "inputs": [],
      "name": "gracePeriodLength",
      "outputs": [
        {
          "internalType": "uint256",
          "name": "",
          "type": "uint256"
        }
      ],
      "stateMutability": "view",
      "type": "function"
    },
    {
      "inputs": [
        {
          "internalType": "uint256",
          "name": "startingPeriod",
          "type": "uint256"
        }
      ],
      "name": "hasVotingPeriodExpired",
      "outputs": [
        {
          "internalType": "bool",
          "name": "",
          "type": "bool"
        }
      ],
      "stateMutability": "view",
      "type": "function"
    },
    {
      "inputs": [
        {
          "internalType": "address",
          "name": "",
          "type": "address"
        }
      ],
      "name": "members",
      "outputs": [
        {
          "internalType": "uint256",
          "name": "shares",
          "type": "uint256"
        },
        {
          "internalType": "bool",
          "name": "exists",
          "type": "bool"
        },
        {
          "internalType": "uint256",
          "name": "highestIndexVote",
          "type": "uint256"
        },
        {
          "internalType": "bool",
          "name": "jailed",
          "type": "bool"
        }
      ],
      "stateMutability": "view",
      "type": "function"
    },
    {
      "inputs": [],
      "name": "periodDuration",
      "outputs": [
        {
          "internalType": "uint256",
          "name": "",
          "type": "uint256"
        }
      ],
      "stateMutability": "view",
      "type": "function"
    },
    {
      "inputs": [
        {
          "internalType": "uint256",
          "name": "proposalId",
          "type": "uint256"
        }
      ],
      "name": "preProcessProposal",
      "outputs": [],
      "stateMutability": "nonpayable",
      "type": "function"
    },
    {
      "inputs": [
        {
          "internalType": "uint256",
          "name": "proposalId",
          "type": "uint256"
        }
      ],
      "name": "processProposal",
      "outputs": [],
      "stateMutability": "nonpayable",
      "type": "function"
    },
    {
      "inputs": [],
      "name": "proposalCount",
      "outputs": [
        {
          "internalType": "uint256",
          "name": "",
          "type": "uint256"
        }
      ],
      "stateMutability": "view",
      "type": "function"
    },
    {
      "inputs": [],
      "name": "proposalDeposit",
      "outputs": [
        {
          "internalType": "uint256",
          "name": "",
          "type": "uint256"
        }
      ],
      "stateMutability": "view",
      "type": "function"
    },
    {
      "inputs": [
        {
          "internalType": "uint256",
          "name": "",
          "type": "uint256"
        }
      ],
      "name": "proposals",
      "outputs": [
        {
          "internalType": "address",
          "name": "applicant",
          "type": "address"
        },
        {
          "internalType": "address",
          "name": "proposer",
          "type": "address"
        },
        {
          "internalType": "address",
          "name": "sponsor",
          "type": "address"
        },
        {
          "internalType": "uint256",
          "name": "sharesRequested",
          "type": "uint256"
        },
        {
          "internalType": "uint256",
          "name": "tributeOffered",
          "type": "uint256"
        },
        {
          "internalType": "uint256",
          "name": "activePeriod",
          "type": "uint256"
        },
        {
          "internalType": "uint256",
          "name": "milestoneIndex",
          "type": "uint256"
        },
        {
          "internalType": "uint256",
          "name": "yesVoted",
          "type": "uint256"
        },
        {
          "internalType": "uint256",
          "name": "noVoted",
          "type": "uint256"
        },
        {
          "internalType": "string",
          "name": "projectHash",
          "type": "string"
        },
        {
          "internalType": "uint256",
          "name": "maxTotalSharesAtYesVote",
          "type": "uint256"
        }
      ],
      "stateMutability": "view",
      "type": "function"
    },
    {
      "inputs": [
        {
          "internalType": "address",
          "name": "",
          "type": "address"
        }
      ],
      "name": "proposedToKick",
      "outputs": [
        {
          "internalType": "bool",
          "name": "",
          "type": "bool"
        }
      ],
      "stateMutability": "view",
      "type": "function"
    },
    {
      "inputs": [
        {
          "internalType": "address",
          "name": "memberToKick",
          "type": "address"
        }
      ],
      "name": "ragekick",
      "outputs": [],
      "stateMutability": "nonpayable",
      "type": "function"
    },
    {
      "inputs": [
        {
          "internalType": "uint256",
          "name": "sharesToBurn",
          "type": "uint256"
        },
        {
          "internalType": "uint256",
          "name": "proposalId",
          "type": "uint256"
        }
      ],
      "name": "ragequit",
      "outputs": [],
      "stateMutability": "nonpayable",
      "type": "function"
    },
    {
      "inputs": [
        {
          "internalType": "uint256",
          "name": "proposalId",
          "type": "uint256"
        }
      ],
      "name": "sponsorProposal",
      "outputs": [],
      "stateMutability": "nonpayable",
      "type": "function"
    },
    {
      "inputs": [
        {
          "internalType": "address",
          "name": "memberToKick",
          "type": "address"
        },
        {
          "internalType": "string",
          "name": "details",
          "type": "string"
        }
      ],
      "name": "submitGuildKickProposal",
      "outputs": [
        {
          "internalType": "uint256",
          "name": "proposalId",
          "type": "uint256"
        }
      ],
      "stateMutability": "nonpayable",
      "type": "function"
    },
    {
      "inputs": [
        {
          "internalType": "address",
          "name": "applicant",
          "type": "address"
        },
        {
          "internalType": "uint256",
          "name": "sharesRequested",
          "type": "uint256"
        },
        {
          "internalType": "uint256",
          "name": "tributeOffered",
          "type": "uint256"
        },
        {
          "internalType": "string",
          "name": "details",
          "type": "string"
        }
      ],
      "name": "submitJoinProposal",
      "outputs": [
        {
          "internalType": "uint256",
          "name": "proposalId",
          "type": "uint256"
        }
      ],
      "stateMutability": "nonpayable",
      "type": "function"
    },
    {
      "inputs": [
        {
          "internalType": "address",
          "name": "applicant",
          "type": "address"
        },
        {
          "internalType": "uint256[]",
          "name": "paymentRequested",
          "type": "uint256[]"
        },
        {
          "internalType": "uint256[]",
          "name": "startPeriod",
          "type": "uint256[]"
        },
        {
          "internalType": "string",
          "name": "details",
          "type": "string"
        }
      ],
      "name": "submitProjectProposal",
      "outputs": [
        {
          "internalType": "uint256",
          "name": "proposalId",
          "type": "uint256"
        }
      ],
      "stateMutability": "nonpayable",
      "type": "function"
    },
    {
      "inputs": [
        {
          "internalType": "uint256",
          "name": "proposalIndex",
          "type": "uint256"
        },
        {
          "internalType": "uint8",
          "name": "uintVote",
          "type": "uint8"
        }
      ],
      "name": "submitVote",
      "outputs": [],
      "stateMutability": "nonpayable",
      "type": "function"
    },
    {
      "inputs": [],
      "name": "summoningTime",
      "outputs": [
        {
          "internalType": "uint256",
          "name": "",
          "type": "uint256"
        }
      ],
      "stateMutability": "view",
      "type": "function"
    },
    {
      "inputs": [],
      "name": "totalShares",
      "outputs": [
        {
          "internalType": "uint256",
          "name": "",
          "type": "uint256"
        }
      ],
      "stateMutability": "view",
      "type": "function"
    },
    {
      "inputs": [
        {
          "internalType": "address",
          "name": "",
          "type": "address"
        },
        {
          "internalType": "address",
          "name": "",
          "type": "address"
        }
      ],
      "name": "userTokenBalances",
      "outputs": [
        {
          "internalType": "uint256",
          "name": "",
          "type": "uint256"
        }
      ],
      "stateMutability": "view",
      "type": "function"
    },
    {
      "inputs": [],
      "name": "votingPeriodLength",
      "outputs": [
        {
          "internalType": "uint256",
          "name": "",
          "type": "uint256"
        }
      ],
      "stateMutability": "view",
      "type": "function"
    },
    {
      "inputs": [
        {
          "internalType": "uint256",
          "name": "amount",
          "type": "uint256"
        }
      ],
      "name": "withdrawBalance",
      "outputs": [],
      "stateMutability": "nonpayable",
      "type": "function"
    }
  ],
  "bytecode": "0x60806040523480156200001157600080fd5b5060405162003c5738038062003c5783398101604081905262000034916200045a565b6000805460ff191660011790556001600160a01b0387166200009d5760405162461bcd60e51b815260206004820152601460248201527f73756d6d6f6e65722063616e6e6f74206265203000000000000000000000000060448201526064015b60405180910390fd5b60008511620000fa5760405162461bcd60e51b815260206004820152602260248201527f706572696f644475726174696f6e206d7573742067726561746572207468616e604482015261020360f41b606482015260840162000094565b600084116200015b5760405162461bcd60e51b815260206004820152602660248201527f766f74696e67506572696f644c656e677468206d75737420677265617465722060448201526507468616e20360d41b606482015260840162000094565b670de0b6b3a7640000841115620001c15760405162461bcd60e51b8152602060048201526024808201527f766f74696e67506572696f644c656e677468206578636565647320746865206c6044820152631a5b5a5d60e21b606482015260840162000094565b60008311620002215760405162461bcd60e51b815260206004820152602560248201527f6772616365506572696f644c656e677468206d75737420677265617465722074604482015264068616e20360dc1b606482015260840162000094565b670de0b6b3a7640000831115620002875760405162461bcd60e51b815260206004820152602360248201527f6772616365506572696f644c656e677468206578636565647320746865206c696044820152621b5a5d60ea1b606482015260840162000094565b60008111620002e35760405162461bcd60e51b815260206004820152602160248201527f64696c7574696f6e426f756e64206d7573742067726561746572207468616e206044820152600360fc1b606482015260840162000094565b670de0b6b3a76400008111156200033d5760405162461bcd60e51b815260206004820152601f60248201527f64696c7574696f6e426f756e64206578636565647320746865206c696d697400604482015260640162000094565b6001600160a01b038616620003955760405162461bcd60e51b815260206004820152601860248201527f6465706f736974546f6b656e2063616e6e6f7420626520300000000000000000604482015260640162000094565b600780546001600160a01b039788166001600160a01b0319909116179055600194855560029384556003928355600491909155600555426006556040805160808101825284815260208082018681526000838501818152606085018281529a9099168152600c909252929020905181559051818501805491151560ff1992831617905594519281019290925593519301805493151593909216929092179055600955620004c1565b80516001600160a01b03811681146200045557600080fd5b919050565b600080600080600080600060e0888a0312156200047657600080fd5b62000481886200043d565b965062000491602089016200043d565b604089015160608a015160808b015160a08c015160c0909c01519a9d939c50919a90999198509650945092505050565b61378680620004d16000396000f3fe608060405234801561001057600080fd5b50600436106102115760003560e01c806387dfc82511610125578063c49b1685116100ad578063dfdd369e1161007c578063dfdd369e146104fb578063e0a8f6f51461050e578063e63bc62d14610521578063e681c4aa14610534578063f5d54c771461053d57600080fd5b8063c49b16851461049b578063c89039c5146104cc578063da35c664146104df578063da76d5cd146104e857600080fd5b80639746d940116100f45780639746d9401461044357806399653fbe14610456578063afe5475f14610469578063b2643aab14610472578063b470aade1461049257600080fd5b806387dfc825146103f45780638b15a605146104075780638b6cb9e5146104105780639425a4761461043057600080fd5b806345f2d105116101a857806363858f2d1161017757806363858f2d146103b357806373f8fd4b146103bc5780637d5b6c72146103cf5780638340bbce146103d8578063878fc813146103e157600080fd5b806345f2d105146103425780634c1056311461036d578063571ed9c51461038057806362312524146103a057600080fd5b806315eb349e116101e457806315eb349e146102d057806327efc086146102e55780633a98ef39146103065780633fc24bba1461030f57600080fd5b8063013cf08b14610216578063086146d21461024957806308ae4b0c1461025f578063115b2d18146102bd575b600080fd5b610229610224366004612d4c565b610546565b6040516102409b9a99989796959493929190612dab565b60405180910390f35b610251610637565b604051908152602001610240565b61029b61026d366004612e3b565b600c602052600090815260409020805460018201546002830154600390930154919260ff9182169290911684565b6040805194855292151560208501529183015215156060820152608001610240565b6102516102cb366004612f0d565b610659565b6102e36102de366004612f5b565b61083c565b005b6102ee61babe81565b6040516001600160a01b039091168152602001610240565b61025160095481565b61033261031d366004612e3b565b600b6020526000908152604090205460ff1681565b6040519015158152602001610240565b610251610350366004612f7d565b600a60209081526000928352604080842090915290825290205481565b61025161037b366004612fb0565b610888565b61039361038e366004612d4c565b610b79565b604051610240919061304c565b6103936103ae366004612d4c565b610bde565b61025160035481565b6102516103ca366004612f7d565b610c41565b61025160065481565b61025160025481565b6102516103ef3660046130df565b610c6e565b6102e3610402366004612d4c565b610de7565b61025160045481565b61042361041e36600461316c565b610fb6565b60405161024091906131b5565b61033261043e366004612d4c565b611054565b6102e3610451366004612d4c565b611074565b6102e36104643660046131dd565b61153f565b61025160055481565b610485610480366004612d4c565b611939565b6040516102409190613213565b61025160015481565b6102e36000808052600d6020527f81955a0a11e65eac625c29e8882660bae4e165a75d72780094acae8ece9a29f555565b6007546102ee906001600160a01b031681565b61025160085481565b6102e36104f6366004612d4c565b6119a3565b6102e3610509366004612e3b565b6119e8565b6102e361051c366004612d4c565b611ade565b6102e361052f366004612d4c565b611c0c565b6102ee61beef81565b6102ee61dead81565b600d60205260009081526040902080546001820154600283015460038401546004850154600786015460088701546009880154600a890154600c8a0180546001600160a01b039a8b169b998b169a90981698969795969495939492939192916105ae90613246565b80601f01602080910402602001604051908101604052809291908181526020018280546105da90613246565b80156106275780601f106105fc57610100808354040283529160200191610627565b820191906000526020600020905b81548152906001019060200180831161060a57829003601f168201915b50505050509080600d015490508b565b60006001546006544261064a9190613290565b61065491906132a3565b905090565b6000805460ff166106855760405162461bcd60e51b815260040161067c906132c5565b60405180910390fd5b6000805460ff191681556001600160a01b0384168152600c602090815260409182902082516080810184528154808252600183015460ff908116151594830194909452600283015494820194909452600390910154909116151560608201529061073d5760405162461bcd60e51b815260206004820152602360248201527f6d656d626572206d7573742068617665206174206c65617374206f6e6520736860448201526261726560e81b606482015260840161067c565b6001600160a01b0384166000908152600c602052604090206003015460ff16156107b35760405162461bcd60e51b815260206004820152602160248201527f6d656d626572206d757374206e6f7420616c7265616479206265206a61696c656044820152601960fa1b606482015260840161067c565b6107bb612c45565b60016080820181905260408051828152808201909152600091602080830190803683370190505090506000816000815181106107f9576107f96132fc565b6020026020010181815250506108158660008084858a88611cd4565b60016008546108249190613290565b93505050506000805460ff1916600117905592915050565b60005460ff1661085e5760405162461bcd60e51b815260040161067c906132c5565b6000805460ff1916815561087790339084908490611df2565b50506000805460ff19166001179055565b6000805460ff166108ab5760405162461bcd60e51b815260040161067c906132c5565b6000805460ff19169055670de0b6b3a76400006108c88580613312565b11156109165760405162461bcd60e51b815260206004820152601960248201527f746f6f206d616e79207368617265732072657175657374656400000000000000604482015260640161067c565b6001600160a01b0385166109645760405162461bcd60e51b815260206004820152601560248201527406170706c6963616e742063616e6e6f74206265203605c1b604482015260640161067c565b6001600160a01b03851661dead1480159061098a57506001600160a01b03851661beef14155b80156109a157506001600160a01b03851661babe14155b6109bd5760405162461bcd60e51b815260040161067c90613325565b6001600160a01b0385166000908152600c602052604090206003015460ff16156109f95760405162461bcd60e51b815260040161067c90613369565b6007546040516323b872dd60e01b8152336004820152306024820152604481018590526001600160a01b03909116906323b872dd906064016020604051808303816000875af1158015610a50573d6000803e3d6000fd5b505050506040513d601f19601f82011682018060405250810190610a7491906133ae565b610ac05760405162461bcd60e51b815260206004820152601d60248201527f7472696275746520746f6b656e207472616e73666572206661696c6564000000604482015260640161067c565b610acc61beef846121b1565b6040805160c081018252600080825260208201819052818301819052606082018190526080820181905260a08201819052825160018082528185019094529192909190816020016020820280368337019050509050600081600081518110610b3657610b366132fc565b602002602001018181525050610b5187878784858988611cd4565b6001600854610b609190613290565b925050506000805460ff19166001179055949350505050565b6000818152600d6020908152604091829020600601805483518184028101840190945280845260609392830182828015610bd257602002820191906000526020600020905b815481526020019060010190808311610bbe575b50505050509050919050565b6000818152600d6020908152604091829020600501805483518184028101840190945280845260609392830182828015610bd25760200282019190600052602060002090815481526020019060010190808311610bbe5750505050509050919050565b6001600160a01b038083166000908152600a60209081526040808320938516835292905220545b92915050565b6000805460ff16610c915760405162461bcd60e51b815260040161067c906132c5565b6000805460ff191690556001600160a01b038516610ce95760405162461bcd60e51b815260206004820152601560248201527406170706c6963616e742063616e6e6f74206265203605c1b604482015260640161067c565b6001600160a01b03851661dead14801590610d0f57506001600160a01b03851661beef14155b8015610d2657506001600160a01b03851661babe14155b610d425760405162461bcd60e51b815260040161067c90613325565b6001600160a01b0385166000908152600c602052604090206003015460ff1615610d7e5760405162461bcd60e51b815260040161067c90613369565b6040805160c081018252600080825260208201819052918101829052606081018290526080810182905260a0810182905290610dc09087908088888887611cd4565b6001600854610dcf9190613290565b9150506000805460ff19166001179055949350505050565b60005460ff16610e095760405162461bcd60e51b815260040161067c906132c5565b6000805460ff19169055610e1c81612242565b6000610e278261237b565b6000838152600d60205260409020600b8101805465ff0000000000191665010000000000179081905591925090640100000000900460ff161515600114610f475780600501600081548110610e7e57610e7e6132fc565b9060005260206000200154600003610ee257670de0b6b3a76400008160030154600954610eab9190613312565b1115610eb657600091505b81600b820160025b602091828204019190066101000a81548160ff021916908315150217905550610f5f565b6007546001600160a01b03166000908152600080516020613731833981519152602052604090205460088201546005830180549091908110610f2657610f266132fc565b90600052602060002001541115610eb6576000915081600b82016002610ebe565b600b8101805462ff0000191662010000841515021790555b8260008051602061371183398151915282600c018360050184600b01856009015486600a01548760080154604051610f9c96959493929190613457565b60405180910390a250506000805460ff1916600117905550565b6001600160a01b0383166000908152600c602052604081206001015460ff1661101a5760405162461bcd60e51b81526020600482015260166024820152751b595b58995c88191bd95cdb881b9bdd08195e1a5cdd60521b604482015260640161067c565b506000828152600d60209081526040808320848452600e0182528083206001600160a01b038716845290915290205460ff165b9392505050565b6000600254826110649190613312565b61106c610637565b101592915050565b60005460ff166110965760405162461bcd60e51b815260040161067c906132c5565b6000805460ff19169055600754600480546040516323b872dd60e01b8152339281019290925230602483015260448201526001600160a01b03909116906323b872dd906064016020604051808303816000875af11580156110fb573d6000803e3d6000fd5b505050506040513d601f19601f8201168201806040525081019061111f91906133ae565b61117a5760405162461bcd60e51b815260206004820152602660248201527f70726f706f73616c206465706f73697420746f6b656e207472616e736665722060448201526519985a5b195960d21b606482015260840161067c565b61118861beef6004546121b1565b6000818152600d6020526040902060018101546001600160a01b03166111f05760405162461bcd60e51b815260206004820181905260248201527f70726f706f73616c206d7573742068617665206265656e2070726f706f736564604482015260640161067c565b600b81015460ff16156112155760405162461bcd60e51b815260040161067c90613520565b600b8101546301000000900460ff16156112715760405162461bcd60e51b815260206004820152601b60248201527f70726f706f73616c20686173206265656e2063616e63656c6c65640000000000604482015260640161067c565b600b810154610100900460ff16156112cb5760405162461bcd60e51b815260206004820152601b60248201527f70726f706f73616c20686173206265656e2070726f6365737365640000000000604482015260640161067c565b80546001600160a01b03166000908152600c602052604090206003015460ff16156113085760405162461bcd60e51b815260040161067c90613369565b600b810154640100000000900460ff16156113ac5780546001600160a01b03166000908152600b602052604090205460ff16156113875760405162461bcd60e51b815260206004820152601860248201527f616c72656164792070726f706f73656420746f206b69636b0000000000000000604482015260640161067c565b80546001600160a01b03166000908152600b60205260409020805460ff191660011790555b8060080154600003611487576113c0610637565b6113cb906001613312565b816006016000815481106113e1576113e16132fc565b60009182526020909120015560015b600682015481101561148557816006018181548110611411576114116132fc565b90600052602060002001548260060160018361142d9190613290565b8154811061143d5761143d6132fc565b90600052602060002001546114529190613312565b826006018281548110611467576114676132fc565b6000918252602090912001558061147d81613563565b9150506113f0565b505b8060060160008154811061149d5761149d6132fc565b600091825260208220015460078301556002820180546001600160a01b03191633179055600190600b8301905b602091828204019190066101000a81548160ff0219169083151502179055508160008051602061371183398151915282600c018360050184600b01856009015486600a0154876008015460405161152696959493929190613457565b60405180910390a250506000805460ff19166001179055565b60005460ff166115615760405162461bcd60e51b815260040161067c906132c5565b6000805460ff19168155338152600c6020526040902060085483106115985760405162461bcd60e51b815260040161067c9061357c565b6000838152600d60205260409020600b81015460ff1615156001146115ff5760405162461bcd60e51b815260206004820152601960248201527f70726f706f73616c20646f6573206e6f742073706f6e736f7200000000000000604482015260640161067c565b60038360ff16106116485760405162461bcd60e51b81526020600482015260136024820152726d757374206265206c657373207468616e203360681b604482015260640161067c565b60008360ff16600281111561165f5761165f61319f565b9050816007015461166e610637565b10156116bc5760405162461bcd60e51b815260206004820152601d60248201527f766f74696e6720706572696f6420686173206e6f742073746172746564000000604482015260640161067c565b6116c98260070154611054565b156117215760405162461bcd60e51b815260206004820152602260248201527f70726f706f73616c20766f74696e6720706572696f6420686173206578706972604482015261195960f21b606482015260840161067c565b60088201546000908152600e83016020908152604080832033845290915281205460ff1660028111156117565761175661319f565b146117a35760405162461bcd60e51b815260206004820152601860248201527f6d656d6265722068617320616c726561647920766f7465640000000000000000604482015260640161067c565b60018160028111156117b7576117b761319f565b14806117d4575060028160028111156117d2576117d261319f565b145b6118205760405162461bcd60e51b815260206004820152601d60248201527f766f7465206d7573742062652065697468657220596573206f72204e6f000000604482015260640161067c565b60088201546000908152600e8301602090815260408083203384529091529020805482919060ff1916600183600281111561185d5761185d61319f565b021790555060018160028111156118765761187661319f565b036118b0578254600983015461188c9190613312565b826009018190555081600d015460095411156118ab57600954600d8301555b6118e0565b60028160028111156118c4576118c461319f565b036118e0578254600a8301546118da9190613312565b600a8301555b8460008051602061371183398151915283600c018460050185600b01866009015487600a0154886008015460405161191d96959493929190613457565b60405180910390a250506000805460ff19166001179055505050565b611941612c45565b6000828152600d6020526040808220815160c081019283905292600b909101916006918390855b825461010083900a900460ff161515815260206001928301818104948501949093039092029101808411611968575094979650505050505050565b60005460ff166119c55760405162461bcd60e51b815260040161067c906132c5565b6000805460ff191690556119d8816123eb565b506000805460ff19166001179055565b60005460ff16611a0a5760405162461bcd60e51b815260040161067c906132c5565b6000805460ff191681556001600160a01b0382168152600c602052604081206003810154909160ff90911615159003611a7e5760405162461bcd60e51b81526020600482015260166024820152751b595b58995c881b5d5cdd081899481a5b881a985a5b60521b604482015260640161067c565b8054611acc5760405162461bcd60e51b815260206004820152601b60248201527f6d656d626572206d757374206861766520736f6d652073686172650000000000604482015260640161067c565b61087782826000015460006001611df2565b60005460ff16611b005760405162461bcd60e51b815260040161067c906132c5565b6000805460ff19168155818152600d60205260409020600b81015460ff1615611b3b5760405162461bcd60e51b815260040161067c90613520565b600b8101546301000000900460ff1615611ba35760405162461bcd60e51b815260206004820152602360248201527f70726f706f73616c2068617320616c7265616479206265656e2063616e63656c6044820152621b195960ea1b606482015260840161067c565b60018101546001600160a01b03163314611bff5760405162461bcd60e51b815260206004820152601e60248201527f736f6c656c79207468652070726f706f7365722063616e2063616e63656c0000604482015260640161067c565b6001600b820160036114ca565b60005460ff16611c2e5760405162461bcd60e51b815260040161067c906132c5565b6000805460ff19169055611c4181612517565b6000611c4c8261237b565b6000838152600d60205260409020600b81015491925090640100000000900460ff161515600114611cb85780600501600081548110611c8d57611c8d6132fc565b9060005260206000200154600003611cae57611ca9838361262f565b611cc2565b611ca9838361281f565b611cc283836129cb565b50506000805460ff1916600117905550565b6008546000908152600d6020908152604090912080546001600160a01b038a166001600160a01b031991821617825560018201805490911633179055600381018890556004810187905585519091611d33916005840191880190612c63565b508351611d499060068301906020870190612c63565b506000600782018190556008820181905560098201819055600a820155611d75600b8201836006612cae565b50600c8101611d848482613601565b50600081600d0181905550600854600080516020613711833981519152848784600b01856009015486600a01548760080154604051611dc8969594939291906136c1565b60405180910390a2600160086000828254611de39190613312565b90915550505050505050505050565b6009546001600160a01b0385166000908152600c602052604090208054851115611e545760405162461bcd60e51b8152602060048201526013602482015272696e73756666696369656e742073686172657360681b604482015260640161067c565b826120d1576000848152600d60205260409020600b015465010000000000900460ff16611ec35760405162461bcd60e51b815260206004820152601d60248201527f70726f706f73616c206d7573742062652070726570726f636573736564000000604482015260640161067c565b6003546002546000868152600d6020526040902060070154611ee59190613312565b611eef9190613312565b611ef7610637565b10611f445760405162461bcd60e51b815260206004820181905260248201527f70726f706f73616c206d75737420626520696e20677261636520706572696f64604482015260640161067c565b6000848152600d6020908152604080832060088101548452600e0182528083206001600160a01b038a16845290915281205460ff166002811115611f8a57611f8a61319f565b03611fd75760405162461bcd60e51b815260206004820181905260248201527f6d656d626572206469646e277420766f7465206f6e20612070726f706f73616c604482015260640161067c565b6000848152600d60205260409020600b015462010000900460ff16611ffd576002612000565b60015b60ff1660028111156120145761201461319f565b60028111156120255761202561319f565b6000858152600d6020908152604080832060088101548452600e0182528083206001600160a01b038b16845290915290205460ff16600281111561206b5761206b61319f565b036120d15760405162461bcd60e51b815260206004820152603060248201527f6d656d6265722077686f20766f746564207468652073616d6520726573756c7460448201526f0818d85b9b9bdd081c9859d95c5d5a5d60821b606482015260840161067c565b80546120de908690613290565b81556009546120ee908690613290565b6009556007546001600160a01b031660009081526000805160206137318339815191526020526040812054612124908785612b28565b905080156121a8576007546001600160a01b03166000908152600080516020613731833981519152602052604081208054839290612163908490613290565b90915550506001600160a01b038088166000908152600a60209081526040808320600754909416835292905290812080548392906121a2908490613312565b90915550505b50505050505050565b6001600160a01b038083166000908152600a60209081526040808320600754909416835292905290812080548392906121eb908490613312565b90915550506007546001600160a01b031660009081527fed762ddb65dfeab933eda5256eb347e1bf2b4e76044bdc8baf0a70d22dc0c374602052604081208054839290612239908490613312565b90915550505050565b60085481106122635760405162461bcd60e51b815260040161067c9061357c565b6000818152600d6020526040902060025460078201546122839190613312565b61228b610637565b10156122ea5760405162461bcd60e51b815260206004820152602860248201527f70726f706f73616c206973206e6f7420726561647920746f20626520707265706044820152671c9bd8d95cdcd95960c21b606482015260840161067c565b600b810154610100900460ff161580156123125750600b81015465010000000000900460ff16155b6123775760405162461bcd60e51b815260206004820152603060248201527f70726f706f73616c2068617320616c7265616479206265656e2070726570726f60448201526f18d95cdcd9590bdc1c9bd8d95cdcd95960821b606482015260840161067c565b5050565b6000818152600d60208190526040909120600a8101546009808301549383015460055491549290941193916123b091906136f9565b10156123bb57600091505b80546001600160a01b03166000908152600c602052604090206003015460ff16156123e557600091505b50919050565b336000908152600a602090815260408083206007546001600160a01b031684529091529020548111156124575760405162461bcd60e51b8152602060048201526014602482015273696e73756666696369656e742062616c616e636560601b604482015260640161067c565b6124613382612b95565b60075460405163a9059cbb60e01b8152336004820152602481018390526001600160a01b039091169063a9059cbb906044016020604051808303816000875af11580156124b2573d6000803e3d6000fd5b505050506040513d601f19601f820116820180604052508101906124d691906133ae565b6125145760405162461bcd60e51b815260206004820152600f60248201526e1d1c985b9cd9995c8819985a5b1959608a1b604482015260640161067c565b50565b60085481106125385760405162461bcd60e51b815260040161067c9061357c565b6000818152600d60205260409020600354600254600783015461255b9190613312565b6125659190613312565b61256d610637565b10156125c95760405162461bcd60e51b815260206004820152602560248201527f70726f706f73616c206973206e6f7420726561647920746f2062652070726f63604482015264195cdcd95960da1b606482015260840161067c565b600b810154610100900460ff16156123775760405162461bcd60e51b815260206004820152602360248201527f70726f706f73616c2068617320616c7265616479206265656e2070726f6365736044820152621cd95960ea1b606482015260840161067c565b6000828152600d60205260409020600b8101805461ff00191661010017905560038101546009548391670de0b6b3a76400009161266c9190613312565b1115612676575060005b801561279a57600b8201805462ff000019166201000017905581546001600160a01b03166000908152600c602052604090206001015460ff16156126fc57600382015482546001600160a01b03166000908152600c60205260409020546126dd9190613312565b82546001600160a01b03166000908152600c602052604090205561276a565b604080516080810182526003808501548252600160208084018281526000858701818152606087018281528a546001600160a01b03168352600c9094529690209451855551918401805492151560ff1993841617905593516002840155925191018054911515919092161790555b816003015460095461277c9190613312565b60098190555061279561beef61dead8460040154612c1d565b6127bd565b600182015460048301546127bd9161beef916001600160a01b0390911690612c1d565b8360008051602061371183398151915283600c018460050185600b01866009015487600a015488600801546040516127fa96959493929190613457565b60405180910390a26002820154612819906001600160a01b0316612c36565b50505050565b6000828152600d60209081526040808320600b8101805461ff0019166101001790556007546001600160a01b03168452600080516020613731833981519152909252909120546008820154600583018054859392908110612882576128826132fc565b90600052602060002001541115612897575060005b801561296357600b8201805462ff0000191662010000179055815460088301546005840180546128f09361dead936001600160a01b03909116929181106128e0576128e06132fc565b9060005260206000200154612c1d565b6008820154612900906001613312565b600683015411156129635760018260080160008282546129209190613312565b9250508190555081600601826008015481548110612940576129406132fc565b6000918252602090912001546007830155600b8201805465ff000000ff00191690555b8360008051602061371183398151915283600c018460050185600b01866009015487600a015488600801546040516129a096959493929190613457565b60405180910390a28160080154600003612819576002820154612819906001600160a01b0316612c36565b6000828152600d60205260409020600b8101548290640100000000900460ff16612a375760405162461bcd60e51b815260206004820152601d60248201527f6d7573742062652061206775696c64206b69636b2070726f706f73616c000000604482015260640161067c565b600b8201805461ff0019166101001790558015612ab157600b8201805462ff000019166201000017905581546001600160a01b03166000908152600c602090815260409182902082516080810184528154815260018281015460ff1615159382019390935260029190910154928101929092526060909101525b8360008051602061371183398151915283600c018460050185600b01866009015487600a01548860080154604051612aee96959493929190613457565b60405180910390a281546001600160a01b039081166000908152600b60205260409020805460ff1916905560028301546128199116612c36565b600081600003612b3757600080fd5b83600003612b475750600061104d565b6000612b5384866136f9565b905083612b6086836132a3565b03612b7757612b6f83826132a3565b91505061104d565b83612b8284876132a3565b612b8c91906136f9565b95945050505050565b6001600160a01b038083166000908152600a6020908152604080832060075490941683529290529081208054839290612bcf908490613290565b90915550506007546001600160a01b031660009081527fed762ddb65dfeab933eda5256eb347e1bf2b4e76044bdc8baf0a70d22dc0c374602052604081208054839290612239908490613290565b612c278382612b95565b612c3182826121b1565b505050565b61251461beef82600454612c1d565b6040518060c001604052806006906020820280368337509192915050565b828054828255906000526020600020908101928215612c9e579160200282015b82811115612c9e578251825591602001919060010190612c83565b50612caa929150612d37565b5090565b600183019183908215612c9e5791602002820160005b83821115612d0157835183826101000a81548160ff0219169083151502179055509260200192600101602081600001049283019260010302612cc4565b8015612d2e5782816101000a81549060ff0219169055600101602081600001049283019260010302612d01565b5050612caa9291505b5b80821115612caa5760008155600101612d38565b600060208284031215612d5e57600080fd5b5035919050565b6000815180845260005b81811015612d8b57602081850181015186830182015201612d6f565b506000602082860101526020601f19601f83011685010191505092915050565b600061016060018060a01b03808f168452808e166020850152808d166040850152508a60608401528960808401528860a08401528760c08401528660e08401528561010084015280610120840152612e0581840186612d65565b915050826101408301529c9b505050505050505050505050565b80356001600160a01b0381168114612e3657600080fd5b919050565b600060208284031215612e4d57600080fd5b61104d82612e1f565b634e487b7160e01b600052604160045260246000fd5b604051601f8201601f1916810167ffffffffffffffff81118282101715612e9557612e95612e56565b604052919050565b600082601f830112612eae57600080fd5b813567ffffffffffffffff811115612ec857612ec8612e56565b612edb601f8201601f1916602001612e6c565b818152846020838601011115612ef057600080fd5b816020850160208301376000918101602001919091529392505050565b60008060408385031215612f2057600080fd5b612f2983612e1f565b9150602083013567ffffffffffffffff811115612f4557600080fd5b612f5185828601612e9d565b9150509250929050565b60008060408385031215612f6e57600080fd5b50508035926020909101359150565b60008060408385031215612f9057600080fd5b612f9983612e1f565b9150612fa760208401612e1f565b90509250929050565b60008060008060808587031215612fc657600080fd5b612fcf85612e1f565b93506020850135925060408501359150606085013567ffffffffffffffff811115612ff957600080fd5b61300587828801612e9d565b91505092959194509250565b600081518084526020808501945080840160005b8381101561304157815187529582019590820190600101613025565b509495945050505050565b60208152600061104d6020830184613011565b600082601f83011261307057600080fd5b8135602067ffffffffffffffff82111561308c5761308c612e56565b8160051b61309b828201612e6c565b92835284810182019282810190878511156130b557600080fd5b83870192505b848310156130d4578235825291830191908301906130bb565b979650505050505050565b600080600080608085870312156130f557600080fd5b6130fe85612e1f565b9350602085013567ffffffffffffffff8082111561311b57600080fd5b6131278883890161305f565b9450604087013591508082111561313d57600080fd5b6131498883890161305f565b9350606087013591508082111561315f57600080fd5b5061300587828801612e9d565b60008060006060848603121561318157600080fd5b61318a84612e1f565b95602085013595506040909401359392505050565b634e487b7160e01b600052602160045260246000fd5b60208101600383106131d757634e487b7160e01b600052602160045260246000fd5b91905290565b600080604083850312156131f057600080fd5b82359150602083013560ff8116811461320857600080fd5b809150509250929050565b60c08101818360005b600681101561323d578151151583526020928301929091019060010161321c565b50505092915050565b600181811c9082168061325a57607f821691505b6020821081036123e557634e487b7160e01b600052602260045260246000fd5b634e487b7160e01b600052601160045260246000fd5b81810381811115610c6857610c6861327a565b6000826132c057634e487b7160e01b600052601260045260246000fd5b500490565b6020808252601f908201527f5265656e7472616e637947756172643a207265656e7472616e742063616c6c00604082015260600190565b634e487b7160e01b600052603260045260246000fd5b80820180821115610c6857610c6861327a565b60208082526024908201527f6170706c6963616e7420616464726573732063616e6e6f7420626520726573656040820152631c9d995960e21b606082015260800190565b60208082526025908201527f70726f706f73616c206170706c6963616e74206d757374206e6f74206265206a604082015264185a5b195960da1b606082015260800190565b6000602082840312156133c057600080fd5b8151801515811461104d57600080fd5b6000815480845260208085019450836000528060002060005b83811015613041578154875295820195600191820191016133e9565b805460ff80821615158452808260081c1615156020850152808260101c1615156040850152808260181c1615156060850152808260201c1615156080850152808260281c16151560a085015250505050565b60006101608083526000895461346c81613246565b928501839052610180926001828116801561348e57600181146134a8576134d9565b60ff1984168887015282151560051b8801860194506134d9565b8d60005260208060002060005b858110156134d05781548b82018a01529084019082016134b5565b8a018801965050505b5050505083810360208501526134ef818a6133d0565b925050506135006040830187613405565b846101008301528361012083015282610140830152979650505050505050565b60208082526023908201527f70726f706f73616c2068617320616c7265616479206265656e2073706f6e736f6040820152621c995960ea1b606082015260800190565b6000600182016135755761357561327a565b5060010190565b60208082526017908201527f70726f706f73616c20646f6573206e6f74206578697374000000000000000000604082015260600190565b601f821115612c3157600081815260208120601f850160051c810160208610156135da5750805b601f850160051c820191505b818110156135f9578281556001016135e6565b505050505050565b815167ffffffffffffffff81111561361b5761361b612e56565b61362f816136298454613246565b846135b3565b602080601f831160018114613664576000841561364c5750858301515b600019600386901b1c1916600185901b1785556135f9565b600085815260208120601f198616915b8281101561369357888601518255948401946001909101908401613674565b50858210156136b15787850151600019600388901b60f8161c191681555b5050505050600190811b01905550565b60006101608083526136d58184018a612d65565b905082810360208401526136e98189613011565b9150506135006040830187613405565b8082028115828204841417610c6857610c6861327a56fe1b4923c201075b2545a504e9b6d8852d698c3de0c3e8038118c3da13dd9cba4e20677881080440a9b3c87e826370bb5d9c2f74efd4dede686d52d77a6a09f8bba264697066735822122082a102e2d27461017970ab6c636ef9ff65152faa85f4912293e7ea4c222d5e7864736f6c63430008110033",
  "linkReferences": {},
  "deployedLinkReferences": {}
}