{"contracts/Boii.sol":{"Boii":{"abi":[{"inputs":[{"internalType":"address","name":"_summoner","type":"address"},{"internalType":"address","name":"_depositToken","type":"address"},{"internalType":"uint256","name":"_periodDuration","type":"uint256"},{"internalType":"uint256","name":"_votingPeriodLength","type":"uint256"},{"internalType":"uint256","name":"_gracePeriodLength","type":"uint256"},{"internalType":"uint256","name":"_proposalDeposit","type":"uint256"},{"internalType":"uint256","name":"_dilutionBound","type":"uint256"}],"stateMutability":"nonpayable","type":"constructor"},{"anonymous":false,"inputs":[{"indexed":true,"internalType":"uint256","name":"proposalId","type":"uint256"},{"indexed":false,"internalType":"address","name":"proposer","type":"address"},{"indexed":false,"internalType":"string","name":"projectHash","type":"string"},{"indexed":false,"internalType":"uint256[]","name":"paymentRequest","type":"uint256[]"},{"indexed":false,"internalType":"bool[6]","name":"flags","type":"bool[6]"},{"indexed":false,"internalType":"uint256","name":"yesVoted","type":"uint256"},{"indexed":false,"internalType":"uint256","name":"noVoted","type":"uint256"},{"indexed":false,"internalType":"uint256","name":"milestoneIndex","type":"uint256"}],"name":"UpdateProposal","type":"event"},{"inputs":[],"name":"ESCROW","outputs":[{"internalType":"address","name":"","type":"address"}],"stateMutability":"view","type":"function"},{"inputs":[],"name":"GUILD","outputs":[{"internalType":"address","name":"","type":"address"}],"stateMutability":"view","type":"function"},{"inputs":[],"name":"TOTAL","outputs":[{"internalType":"address","name":"","type":"address"}],"stateMutability":"view","type":"function"},{"inputs":[],"name":"a_test_prepare_for_vote","outputs":[],"stateMutability":"nonpayable","type":"function"},{"inputs":[{"internalType":"uint256","name":"proposalId","type":"uint256"}],"name":"cancelProposal","outputs":[],"stateMutability":"nonpayable","type":"function"},{"inputs":[],"name":"depositToken","outputs":[{"internalType":"address","name":"","type":"address"}],"stateMutability":"view","type":"function"},{"inputs":[],"name":"dilutionBound","outputs":[{"internalType":"uint256","name":"","type":"uint256"}],"stateMutability":"view","type":"function"},{"inputs":[],"name":"getCurrentPeriod","outputs":[{"internalType":"uint256","name":"","type":"uint256"}],"stateMutability":"view","type":"function"},{"inputs":[{"internalType":"address","name":"memberAddress","type":"address"},{"internalType":"uint256","name":"proposalId","type":"uint256"},{"internalType":"uint256","name":"milestone","type":"uint256"}],"name":"getMemberProposalVoteByMilestone","outputs":[{"internalType":"enum Boii.Vote","name":"","type":"uint8"}],"stateMutability":"view","type":"function"},{"inputs":[{"internalType":"uint256","name":"proposalId","type":"uint256"}],"name":"getPaymentRequested","outputs":[{"internalType":"uint256[]","name":"","type":"uint256[]"}],"stateMutability":"view","type":"function"},{"inputs":[{"internalType":"uint256","name":"proposalId","type":"uint256"}],"name":"getProposalFlags","outputs":[{"internalType":"bool[6]","name":"","type":"bool[6]"}],"stateMutability":"view","type":"function"},{"inputs":[{"internalType":"uint256","name":"proposalId","type":"uint256"}],"name":"getStartPeriod","outputs":[{"internalType":"uint256[]","name":"","type":"uint256[]"}],"stateMutability":"view","type":"function"},{"inputs":[{"internalType":"address","name":"user","type":"address"},{"internalType":"address","name":"token","type":"address"}],"name":"getUserTokenBalance","outputs":[{"internalType":"uint256","name":"","type":"uint256"}],"stateMutability":"view","type":"function"},{"inputs":[],"name":"gracePeriodLength","outputs":[{"internalType":"uint256","name":"","type":"uint256"}],"stateMutability":"view","type":"function"},{"inputs":[{"internalType":"uint256","name":"startingPeriod","type":"uint256"}],"name":"hasVotingPeriodExpired","outputs":[{"internalType":"bool","name":"","type":"bool"}],"stateMutability":"view","type":"function"},{"inputs":[{"internalType":"address","name":"","type":"address"}],"name":"members","outputs":[{"internalType":"uint256","name":"shares","type":"uint256"},{"internalType":"bool","name":"exists","type":"bool"},{"internalType":"bool","name":"jailed","type":"bool"}],"stateMutability":"view","type":"function"},{"inputs":[],"name":"periodDuration","outputs":[{"internalType":"uint256","name":"","type":"uint256"}],"stateMutability":"view","type":"function"},{"inputs":[{"internalType":"uint256","name":"proposalId","type":"uint256"}],"name":"preProcessProposal","outputs":[],"stateMutability":"nonpayable","type":"function"},{"inputs":[{"internalType":"uint256","name":"proposalId","type":"uint256"}],"name":"processProposal","outputs":[],"stateMutability":"nonpayable","type":"function"},{"inputs":[],"name":"proposalCount","outputs":[{"internalType":"uint256","name":"","type":"uint256"}],"stateMutability":"view","type":"function"},{"inputs":[],"name":"proposalDeposit","outputs":[{"internalType":"uint256","name":"","type":"uint256"}],"stateMutability":"view","type":"function"},{"inputs":[{"internalType":"uint256","name":"","type":"uint256"}],"name":"proposals","outputs":[{"internalType":"address","name":"applicant","type":"address"},{"internalType":"address","name":"proposer","type":"address"},{"internalType":"address","name":"sponsor","type":"address"},{"internalType":"uint256","name":"sharesRequested","type":"uint256"},{"internalType":"uint256","name":"tributeOffered","type":"uint256"},{"internalType":"uint256","name":"activePeriod","type":"uint256"},{"internalType":"uint256","name":"milestoneIndex","type":"uint256"},{"internalType":"uint256","name":"yesVoted","type":"uint256"},{"internalType":"uint256","name":"noVoted","type":"uint256"},{"internalType":"string","name":"projectHash","type":"string"},{"internalType":"uint256","name":"maxTotalSharesAtYesVote","type":"uint256"}],"stateMutability":"view","type":"function"},{"inputs":[{"internalType":"address","name":"","type":"address"}],"name":"proposedToKick","outputs":[{"internalType":"bool","name":"","type":"bool"}],"stateMutability":"view","type":"function"},{"inputs":[{"internalType":"address","name":"memberToKick","type":"address"}],"name":"ragekick","outputs":[],"stateMutability":"nonpayable","type":"function"},{"inputs":[{"internalType":"uint256","name":"sharesToBurn","type":"uint256"},{"internalType":"uint256","name":"proposalId","type":"uint256"}],"name":"ragequit","outputs":[],"stateMutability":"nonpayable","type":"function"},{"inputs":[{"internalType":"uint256","name":"proposalId","type":"uint256"}],"name":"sponsorProposal","outputs":[],"stateMutability":"nonpayable","type":"function"},{"inputs":[{"internalType":"address","name":"memberToKick","type":"address"},{"internalType":"string","name":"details","type":"string"}],"name":"submitGuildKickProposal","outputs":[{"internalType":"uint256","name":"proposalId","type":"uint256"}],"stateMutability":"nonpayable","type":"function"},{"inputs":[{"internalType":"address","name":"applicant","type":"address"},{"internalType":"uint256","name":"sharesRequested","type":"uint256"},{"internalType":"uint256","name":"tributeOffered","type":"uint256"},{"internalType":"string","name":"details","type":"string"}],"name":"submitJoinProposal","outputs":[{"internalType":"uint256","name":"proposalId","type":"uint256"}],"stateMutability":"nonpayable","type":"function"},{"inputs":[{"internalType":"address","name":"applicant","type":"address"},{"internalType":"uint256[]","name":"paymentRequested","type":"uint256[]"},{"internalType":"uint256[]","name":"startPeriod","type":"uint256[]"},{"internalType":"string","name":"details","type":"string"}],"name":"submitProjectProposal","outputs":[{"internalType":"uint256","name":"proposalId","type":"uint256"}],"stateMutability":"nonpayable","type":"function"},{"inputs":[{"internalType":"uint256","name":"proposalIndex","type":"uint256"},{"internalType":"uint8","name":"uintVote","type":"uint8"}],"name":"submitVote","outputs":[],"stateMutability":"nonpayable","type":"function"},{"inputs":[],"name":"summoningTime","outputs":[{"internalType":"uint256","name":"","type":"uint256"}],"stateMutability":"view","type":"function"},{"inputs":[{"internalType":"uint256","name":"amount","type":"uint256"}],"name":"testDeposit","outputs":[],"stateMutability":"nonpayable","type":"function"},{"inputs":[],"name":"totalShares","outputs":[{"internalType":"uint256","name":"","type":"uint256"}],"stateMutability":"view","type":"function"},{"inputs":[{"internalType":"address","name":"","type":"address"},{"internalType":"address","name":"","type":"address"}],"name":"userTokenBalances","outputs":[{"internalType":"uint256","name":"","type":"uint256"}],"stateMutability":"view","type":"function"},{"inputs":[],"name":"votingPeriodLength","outputs":[{"internalType":"uint256","name":"","type":"uint256"}],"stateMutability":"view","type":"function"},{"inputs":[{"internalType":"uint256","name":"amount","type":"uint256"}],"name":"withdrawBalance","outputs":[],"stateMutability":"nonpayable","type":"function"}],"evm":{"bytecode":{"linkReferences":{},"object":"60806040523480156200001157600080fd5b5060405162003ecd38038062003ecd83398101604081905262000034916200044d565b6000805460ff191660011790556001600160a01b0387166200009d5760405162461bcd60e51b815260206004820152601460248201527f73756d6d6f6e65722063616e6e6f74206265203000000000000000000000000060448201526064015b60405180910390fd5b60008511620000fa5760405162461bcd60e51b815260206004820152602260248201527f706572696f644475726174696f6e206d7573742067726561746572207468616e604482015261020360f41b606482015260840162000094565b600084116200015b5760405162461bcd60e51b815260206004820152602660248201527f766f74696e67506572696f644c656e677468206d75737420677265617465722060448201526507468616e20360d41b606482015260840162000094565b670de0b6b3a7640000841115620001c15760405162461bcd60e51b8152602060048201526024808201527f766f74696e67506572696f644c656e677468206578636565647320746865206c6044820152631a5b5a5d60e21b606482015260840162000094565b60008311620002215760405162461bcd60e51b815260206004820152602560248201527f6772616365506572696f644c656e677468206d75737420677265617465722074604482015264068616e20360dc1b606482015260840162000094565b670de0b6b3a7640000831115620002875760405162461bcd60e51b815260206004820152602360248201527f6772616365506572696f644c656e677468206578636565647320746865206c696044820152621b5a5d60ea1b606482015260840162000094565b60008111620002e35760405162461bcd60e51b815260206004820152602160248201527f64696c7574696f6e426f756e64206d7573742067726561746572207468616e206044820152600360fc1b606482015260840162000094565b670de0b6b3a76400008111156200033d5760405162461bcd60e51b815260206004820152601f60248201527f64696c7574696f6e426f756e64206578636565647320746865206c696d697400604482015260640162000094565b6001600160a01b038616620003955760405162461bcd60e51b815260206004820152601860248201527f6465706f736974546f6b656e2063616e6e6f7420626520300000000000000000604482015260640162000094565b600780546001600160a01b0319166001600160a01b039788161790556001948555600293909355600391909155600455600555426006556040805160608101825282815260208082018481526000838501818152979096168652600c9091529190932092518355519181018054935161ffff1990941692151561ff0019169290921761010093151593909302929092179055600955620004b4565b80516001600160a01b03811681146200044857600080fd5b919050565b600080600080600080600060e0888a0312156200046957600080fd5b620004748862000430565b9650620004846020890162000430565b604089015160608a015160808b015160a08c015160c0909c01519a9d939c50919a90999198509650945092505050565b613a0980620004c46000396000f3fe608060405234801561001057600080fd5b506004361061021c5760003560e01c806387dfc82511610125578063c49b1685116100ad578063dfdd369e1161007c578063dfdd369e1461050b578063e0a8f6f51461051e578063e63bc62d14610531578063e681c4aa14610544578063f5d54c771461054d57600080fd5b8063c49b1685146104ab578063c89039c5146104dc578063da35c664146104ef578063da76d5cd146104f857600080fd5b80639746d940116100f45780639746d9401461045357806399653fbe14610466578063afe5475f14610479578063b2643aab14610482578063b470aade146104a257600080fd5b806387dfc825146104045780638b15a605146104175780638b6cb9e5146104205780639425a4761461044057600080fd5b806345f2d105116101a857806363858f2d1161017757806363858f2d146103c357806373f8fd4b146103cc5780637d5b6c72146103df5780638340bbce146103e8578063878fc813146103f157600080fd5b806345f2d105146103525780634c1056311461037d578063571ed9c51461039057806362312524146103b057600080fd5b806315eb349e116101ef57806315eb349e146102cd57806327efc086146102e25780633a98ef39146103035780633fc24bba1461030c57806345e00ef41461033f57600080fd5b8063013cf08b14610221578063086146d21461025457806308ae4b0c1461026a578063115b2d18146102ba575b600080fd5b61023461022f366004612f8a565b610556565b60405161024b9b9a99989796959493929190612fe9565b60405180910390f35b61025c610647565b60405190815260200161024b565b61029d610278366004613079565b600c602052600090815260409020805460019091015460ff8082169161010090041683565b60408051938452911515602084015215159082015260600161024b565b61025c6102c836600461314b565b610669565b6102e06102db366004613199565b610848565b005b6102eb61babe81565b6040516001600160a01b03909116815260200161024b565b61025c60095481565b61032f61031a366004613079565b600b6020526000908152604090205460ff1681565b604051901515815260200161024b565b6102e061034d366004612f8a565b6108bb565b61025c6103603660046131bb565b600a60209081526000928352604080842090915290825290205481565b61025c61038b3660046131ee565b61099a565b6103a361039e366004612f8a565b610c90565b60405161024b919061328a565b6103a36103be366004612f8a565b610cf5565b61025c60035481565b61025c6103da3660046131bb565b610d58565b61025c60065481565b61025c60025481565b61025c6103ff36600461331d565b610d85565b6102e0610412366004612f8a565b610f03565b61025c60045481565b61043361042e3660046133aa565b6110e5565b60405161024b91906133f3565b61032f61044e366004612f8a565b611183565b6102e0610461366004612f8a565b6111a3565b6102e061047436600461341b565b61168f565b61025c60055481565b610495610490366004612f8a565b611ac8565b60405161024b9190613451565b61025c60015481565b6102e06000808052600d6020527f81955a0a11e65eac625c29e8882660bae4e165a75d72780094acae8ece9a29f555565b6007546102eb906001600160a01b031681565b61025c60085481565b6102e0610506366004612f8a565b611b32565b6102e0610519366004613079565b611b77565b6102e061052c366004612f8a565b611c71565b6102e061053f366004612f8a565b611e1a565b6102eb61beef81565b6102eb61dead81565b600d60205260009081526040902080546001820154600283015460038401546004850154600786015460088701546009880154600a890154600c8a0180546001600160a01b039a8b169b998b169a90981698969795969495939492939192916105be90613484565b80601f01602080910402602001604051908101604052809291908181526020018280546105ea90613484565b80156106375780601f1061060c57610100808354040283529160200191610637565b820191906000526020600020905b81548152906001019060200180831161061a57829003601f168201915b50505050509080600d015490508b565b60006001546006544261065a91906134ce565b61066491906134e1565b905090565b6000805460ff166106955760405162461bcd60e51b815260040161068c90613503565b60405180910390fd5b6000805460ff191681556001600160a01b0384168152600c6020908152604091829020825160608101845281548082526001929092015460ff8181161515948301949094526101009004909216151592820192909252906107445760405162461bcd60e51b815260206004820152602360248201527f6d656d626572206d7573742068617665206174206c65617374206f6e6520736860448201526261726560e81b606482015260840161068c565b6001600160a01b0384166000908152600c6020526040902060010154610100900460ff16156107bf5760405162461bcd60e51b815260206004820152602160248201527f6d656d626572206d757374206e6f7420616c7265616479206265206a61696c656044820152601960fa1b606482015260840161068c565b6107c7612e83565b60016080820181905260408051828152808201909152600091602080830190803683370190505090506000816000815181106108055761080561353a565b6020026020010181815250506108218660008084858a88611ee2565b600160085461083091906134ce565b93505050506000805460ff1916600117905592915050565b60005460ff1661086a5760405162461bcd60e51b815260040161068c90613503565b6000805460ff19168155338152600c602052604090205461089d5760405162461bcd60e51b815260040161068c90613550565b6108aa338383600061200f565b50506000805460ff19166001179055565b6007546040516323b872dd60e01b8152336004820152306024820152604481018390526001600160a01b03909116906323b872dd906064016020604051808303816000875af1158015610912573d6000803e3d6000fd5b505050506040513d601f19601f820116820180604052508101906109369190613576565b61098d5760405162461bcd60e51b815260206004820152602260248201527f74657374206465706f73697420746f6b656e207472616e73666572206661696c604482015261195960f21b606482015260840161068c565b61099733826123ce565b50565b6000805460ff166109bd5760405162461bcd60e51b815260040161068c90613503565b6000805460ff19169055670de0b6b3a76400006109da8580613598565b1115610a285760405162461bcd60e51b815260206004820152601960248201527f746f6f206d616e79207368617265732072657175657374656400000000000000604482015260640161068c565b6001600160a01b038516610a765760405162461bcd60e51b815260206004820152601560248201527406170706c6963616e742063616e6e6f74206265203605c1b604482015260640161068c565b6001600160a01b03851661dead14801590610a9c57506001600160a01b03851661beef14155b8015610ab357506001600160a01b03851661babe14155b610acf5760405162461bcd60e51b815260040161068c906135ab565b6001600160a01b0385166000908152600c6020526040902060010154610100900460ff1615610b105760405162461bcd60e51b815260040161068c906135ef565b6007546040516323b872dd60e01b8152336004820152306024820152604481018590526001600160a01b03909116906323b872dd906064016020604051808303816000875af1158015610b67573d6000803e3d6000fd5b505050506040513d601f19601f82011682018060405250810190610b8b9190613576565b610bd75760405162461bcd60e51b815260206004820152601d60248201527f7472696275746520746f6b656e207472616e73666572206661696c6564000000604482015260640161068c565b610be361beef846123ce565b6040805160c081018252600080825260208201819052818301819052606082018190526080820181905260a08201819052825160018082528185019094529192909190816020016020820280368337019050509050600081600081518110610c4d57610c4d61353a565b602002602001018181525050610c6887878784858988611ee2565b6001600854610c7791906134ce565b925050506000805460ff19166001179055949350505050565b6000818152600d6020908152604091829020600601805483518184028101840190945280845260609392830182828015610ce957602002820191906000526020600020905b815481526020019060010190808311610cd5575b50505050509050919050565b6000818152600d6020908152604091829020600501805483518184028101840190945280845260609392830182828015610ce95760200282019190600052602060002090815481526020019060010190808311610cd55750505050509050919050565b6001600160a01b038083166000908152600a60209081526040808320938516835292905220545b92915050565b6000805460ff16610da85760405162461bcd60e51b815260040161068c90613503565b6000805460ff191690556001600160a01b038516610e005760405162461bcd60e51b815260206004820152601560248201527406170706c6963616e742063616e6e6f74206265203605c1b604482015260640161068c565b6001600160a01b03851661dead14801590610e2657506001600160a01b03851661beef14155b8015610e3d57506001600160a01b03851661babe14155b610e595760405162461bcd60e51b815260040161068c906135ab565b6001600160a01b0385166000908152600c6020526040902060010154610100900460ff1615610e9a5760405162461bcd60e51b815260040161068c906135ef565b6040805160c081018252600080825260208201819052918101829052606081018290526080810182905260a0810182905290610edc9087908088888887611ee2565b6001600854610eeb91906134ce565b9150506000805460ff19166001179055949350505050565b60005460ff16610f255760405162461bcd60e51b815260040161068c90613503565b6000805460ff19169055610f388161245f565b6000610f4382612598565b6000838152600d60205260409020600b8101805465ff0000000000191665010000000000179081905591925090640100000000900460ff1615156001146110635780600501600081548110610f9a57610f9a61353a565b9060005260206000200154600003610ffe57670de0b6b3a76400008160030154600954610fc79190613598565b1115610fd257600091505b81600b820160025b602091828204019190066101000a81548160ff02191690831515021790555061107b565b6007546001600160a01b031660009081526000805160206139b48339815191526020526040902054600882015460058301805490919081106110425761104261353a565b90600052602060002001541115610fd2576000915081600b82016002610fda565b600b8101805462ff0000191662010000841515021790555b60018101546009820154600a83015460088401546040518794600080516020613994833981519152946110cb946001600160a01b0390921693600c89019360058a0193600b8b01939290916136bb565b60405180910390a250506000805460ff1916600117905550565b6001600160a01b0383166000908152600c602052604081206001015460ff166111495760405162461bcd60e51b81526020600482015260166024820152751b595b58995c88191bd95cdb881b9bdd08195e1a5cdd60521b604482015260640161068c565b506000828152600d60209081526040808320848452600e0182528083206001600160a01b038716845290915290205460ff165b9392505050565b6000600254826111939190613598565b61119b610647565b101592915050565b60005460ff166111c55760405162461bcd60e51b815260040161068c90613503565b6000805460ff19168155338152600c60205260409020546111f85760405162461bcd60e51b815260040161068c90613550565b600754600480546040516323b872dd60e01b8152339281019290925230602483015260448201526001600160a01b03909116906323b872dd906064016020604051808303816000875af1158015611253573d6000803e3d6000fd5b505050506040513d601f19601f820116820180604052508101906112779190613576565b6112d25760405162461bcd60e51b815260206004820152602660248201527f70726f706f73616c206465706f73697420746f6b656e207472616e736665722060448201526519985a5b195960d21b606482015260840161068c565b6112e061beef6004546123ce565b6000818152600d6020526040902060018101546001600160a01b03166113485760405162461bcd60e51b815260206004820181905260248201527f70726f706f73616c206d7573742068617665206265656e2070726f706f736564604482015260640161068c565b600b81015460ff161561136d5760405162461bcd60e51b815260040161068c90613792565b600b8101546301000000900460ff16156113c95760405162461bcd60e51b815260206004820152601b60248201527f70726f706f73616c20686173206265656e2063616e63656c6c65640000000000604482015260640161068c565b600b810154610100900460ff16156114235760405162461bcd60e51b815260206004820152601b60248201527f70726f706f73616c20686173206265656e2070726f6365737365640000000000604482015260640161068c565b80546001600160a01b03166000908152600c6020526040902060010154610100900460ff16156114655760405162461bcd60e51b815260040161068c906135ef565b600b810154640100000000900460ff16156115095780546001600160a01b03166000908152600b602052604090205460ff16156114e45760405162461bcd60e51b815260206004820152601860248201527f616c72656164792070726f706f73656420746f206b69636b0000000000000000604482015260640161068c565b80546001600160a01b03166000908152600b60205260409020805460ff191660011790555b80600801546000036115e45761151d610647565b611528906001613598565b8160060160008154811061153e5761153e61353a565b60009182526020909120015560015b60068201548110156115e25781600601818154811061156e5761156e61353a565b90600052602060002001548260060160018361158a91906134ce565b8154811061159a5761159a61353a565b90600052602060002001546115af9190613598565b8260060182815481106115c4576115c461353a565b600091825260209091200155806115da816137d5565b91505061154d565b505b806006016000815481106115fa576115fa61353a565b60009182526020909120015460078201556002810180546001600160a01b03191633179055600b8101805460ff1916600190811782558201546009830154600a8401546008850154604051879560008051602061399483398151915295611676956001600160a01b0390911694600c8a019460058b01946136bb565b60405180910390a250506000805460ff19166001179055565b60005460ff166116b15760405162461bcd60e51b815260040161068c90613503565b6000805460ff19168155338152600c60205260409020546116e45760405162461bcd60e51b815260040161068c90613550565b336000908152600c6020526040902060085483106117145760405162461bcd60e51b815260040161068c906137ee565b6000838152600d60205260409020600b81015460ff16151560011461177b5760405162461bcd60e51b815260206004820152601960248201527f70726f706f73616c20646f6573206e6f742073706f6e736f7200000000000000604482015260640161068c565b60038360ff16106117c45760405162461bcd60e51b81526020600482015260136024820152726d757374206265206c657373207468616e203360681b604482015260640161068c565b60008360ff1660028111156117db576117db6133dd565b905081600701546117ea610647565b10156118385760405162461bcd60e51b815260206004820152601d60248201527f766f74696e6720706572696f6420686173206e6f742073746172746564000000604482015260640161068c565b6118458260070154611183565b1561189d5760405162461bcd60e51b815260206004820152602260248201527f70726f706f73616c20766f74696e6720706572696f6420686173206578706972604482015261195960f21b606482015260840161068c565b60088201546000908152600e83016020908152604080832033845290915281205460ff1660028111156118d2576118d26133dd565b1461191f5760405162461bcd60e51b815260206004820152601860248201527f6d656d6265722068617320616c726561647920766f7465640000000000000000604482015260640161068c565b6001816002811115611933576119336133dd565b14806119505750600281600281111561194e5761194e6133dd565b145b61199c5760405162461bcd60e51b815260206004820152601d60248201527f766f7465206d7573742062652065697468657220596573206f72204e6f000000604482015260640161068c565b60088201546000908152600e8301602090815260408083203384529091529020805482919060ff191660018360028111156119d9576119d96133dd565b021790555060018160028111156119f2576119f26133dd565b03611a2c5782546009830154611a089190613598565b826009018190555081600d01546009541115611a2757600954600d8301555b611a5c565b6002816002811115611a4057611a406133dd565b03611a5c578254600a830154611a569190613598565b600a8301555b60018201546009830154600a8401546008850154604051899460008051602061399483398151915294611aac946001600160a01b0390921693600c8a019360058b0193600b8c01939290916136bb565b60405180910390a250506000805460ff19166001179055505050565b611ad0612e83565b6000828152600d6020526040808220815160c081019283905292600b909101916006918390855b825461010083900a900460ff161515815260206001928301818104948501949093039092029101808411611af7575094979650505050505050565b60005460ff16611b545760405162461bcd60e51b815260040161068c90613503565b6000805460ff19169055611b678161260d565b506000805460ff19166001179055565b60005460ff16611b995760405162461bcd60e51b815260040161068c90613503565b6000805460ff191681556001600160a01b0382168152600c602052604081206001810154909161010090910460ff1615159003611c115760405162461bcd60e51b81526020600482015260166024820152751b595b58995c881b5d5cdd081899481a5b881a985a5b60521b604482015260640161068c565b8054611c5f5760405162461bcd60e51b815260206004820152601b60248201527f6d656d626572206d757374206861766520736f6d652073686172650000000000604482015260640161068c565b6108aa8282600001546000600161200f565b60005460ff16611c935760405162461bcd60e51b815260040161068c90613503565b6000805460ff19168155818152600d60205260409020600b81015460ff1615611cce5760405162461bcd60e51b815260040161068c90613792565b600b8101546301000000900460ff1615611d365760405162461bcd60e51b815260206004820152602360248201527f70726f706f73616c2068617320616c7265616479206265656e2063616e63656c6044820152621b195960ea1b606482015260840161068c565b60018101546001600160a01b03163314611d925760405162461bcd60e51b815260206004820152601e60248201527f736f6c656c79207468652070726f706f7365722063616e2063616e63656c0000604482015260640161068c565b600b8101805463ff0000001916630100000017815560018201546009830154600a8401546008850154604051879560008051602061399483398151915295611def956001600160a01b0390911694600c8a019460058b01946136bb565b60405180910390a2600181015460048201546108aa9161beef916001600160a01b0390911690612736565b60005460ff16611e3c5760405162461bcd60e51b815260040161068c90613503565b6000805460ff19169055611e4f8161274f565b6000611e5a82612598565b6000838152600d60205260409020600b81015491925090640100000000900460ff161515600114611ec65780600501600081548110611e9b57611e9b61353a565b9060005260206000200154600003611ebc57611eb78383612867565b611ed0565b611eb78383612a61565b611ed08383612c20565b50506000805460ff1916600117905550565b6008546000908152600d6020908152604090912080546001600160a01b038a166001600160a01b031991821617825560018201805490911633179055600381018890556004810187905585519091611f41916005840191880190612ea1565b508351611f579060068301906020870190612ea1565b506000600782018190556008820181905560098201819055600a820155611f83600b8201836006612eec565b50600c8101611f928482613873565b506000600d8201556008805460018301546009840154600a85015493850154604051939460008051602061399483398151915294611fe5946001600160a01b0316938a938d93600b8b0193909190613933565b60405180910390a26001600860008282546120009190613598565b90915550505050505050505050565b6009546001600160a01b0385166000908152600c6020526040902080548511156120715760405162461bcd60e51b8152602060048201526013602482015272696e73756666696369656e742073686172657360681b604482015260640161068c565b826122ee576000848152600d60205260409020600b015465010000000000900460ff166120e05760405162461bcd60e51b815260206004820152601d60248201527f70726f706f73616c206d7573742062652070726570726f636573736564000000604482015260640161068c565b6003546002546000868152600d60205260409020600701546121029190613598565b61210c9190613598565b612114610647565b106121615760405162461bcd60e51b815260206004820181905260248201527f70726f706f73616c206d75737420626520696e20677261636520706572696f64604482015260640161068c565b6000848152600d6020908152604080832060088101548452600e0182528083206001600160a01b038a16845290915281205460ff1660028111156121a7576121a76133dd565b036121f45760405162461bcd60e51b815260206004820181905260248201527f6d656d626572206469646e277420766f7465206f6e20612070726f706f73616c604482015260640161068c565b6000848152600d60205260409020600b015462010000900460ff1661221a57600261221d565b60015b60ff166002811115612231576122316133dd565b6002811115612242576122426133dd565b6000858152600d6020908152604080832060088101548452600e0182528083206001600160a01b038b16845290915290205460ff166002811115612288576122886133dd565b036122ee5760405162461bcd60e51b815260206004820152603060248201527f6d656d6265722077686f20766f746564207468652073616d6520726573756c7460448201526f0818d85b9b9bdd081c9859d95c5d5a5d60821b606482015260840161068c565b80546122fb9086906134ce565b815560095461230b9086906134ce565b6009556007546001600160a01b031660009081526000805160206139b48339815191526020526040812054612341908785612d7f565b905080156123c5576007546001600160a01b031660009081526000805160206139b48339815191526020526040812080548392906123809084906134ce565b90915550506001600160a01b038088166000908152600a60209081526040808320600754909416835292905290812080548392906123bf908490613598565b90915550505b50505050505050565b6001600160a01b038083166000908152600a6020908152604080832060075490941683529290529081208054839290612408908490613598565b90915550506007546001600160a01b031660009081527fed762ddb65dfeab933eda5256eb347e1bf2b4e76044bdc8baf0a70d22dc0c374602052604081208054839290612456908490613598565b90915550505050565b60085481106124805760405162461bcd60e51b815260040161068c906137ee565b6000818152600d6020526040902060025460078201546124a09190613598565b6124a8610647565b10156125075760405162461bcd60e51b815260206004820152602860248201527f70726f706f73616c206973206e6f7420726561647920746f20626520707265706044820152671c9bd8d95cdcd95960c21b606482015260840161068c565b600b810154610100900460ff1615801561252f5750600b81015465010000000000900460ff16155b6125945760405162461bcd60e51b815260206004820152603060248201527f70726f706f73616c2068617320616c7265616479206265656e2070726570726f60448201526f18d95cdcd9590bdc1c9bd8d95cdcd95960821b606482015260840161068c565b5050565b6000818152600d60208190526040909120600a8101546009808301549383015460055491549290941193916125cd919061397c565b10156125d857600091505b80546001600160a01b03166000908152600c6020526040902060010154610100900460ff161561260757600091505b50919050565b336000908152600a602090815260408083206007546001600160a01b031684529091529020548111156126795760405162461bcd60e51b8152602060048201526014602482015273696e73756666696369656e742062616c616e636560601b604482015260640161068c565b6126833382612dec565b60075460405163a9059cbb60e01b8152336004820152602481018390526001600160a01b039091169063a9059cbb906044016020604051808303816000875af11580156126d4573d6000803e3d6000fd5b505050506040513d601f19601f820116820180604052508101906126f89190613576565b6109975760405162461bcd60e51b815260206004820152600f60248201526e1d1c985b9cd9995c8819985a5b1959608a1b604482015260640161068c565b6127408382612dec565b61274a82826123ce565b505050565b60085481106127705760405162461bcd60e51b815260040161068c906137ee565b6000818152600d6020526040902060035460025460078301546127939190613598565b61279d9190613598565b6127a5610647565b10156128015760405162461bcd60e51b815260206004820152602560248201527f70726f706f73616c206973206e6f7420726561647920746f2062652070726f63604482015264195cdcd95960da1b606482015260840161068c565b600b810154610100900460ff16156125945760405162461bcd60e51b815260206004820152602360248201527f70726f706f73616c2068617320616c7265616479206265656e2070726f6365736044820152621cd95960ea1b606482015260840161068c565b6000828152600d60205260409020600b8101805461ff00191661010017905560038101546009548391670de0b6b3a7640000916128a49190613598565b11156128ae575060005b80156129c957600b8201805462ff000019166201000017905581546001600160a01b03166000908152600c602052604090206001015460ff161561293457600382015482546001600160a01b03166000908152600c60205260409020546129159190613598565b82546001600160a01b03166000908152600c6020526040902055612999565b604080516060810182526003840154815260016020808301828152600084860181815288546001600160a01b03168252600c9093529490942092518355925191018054925115156101000261ff00199215159290921661ffff19909316929092171790555b81600301546009546129ab9190613598565b6009819055506129c461beef61dead8460040154612736565b6129ec565b600182015460048301546129ec9161beef916001600160a01b0390911690612736565b60018201546009830154600a8401546008850154604051889460008051602061399483398151915294612a3c946001600160a01b0390921693600c8a019360058b0193600b8c01939290916136bb565b60405180910390a26002820154612a5b906001600160a01b0316612e74565b50505050565b6000828152600d60209081526040808320600b8101805461ff0019166101001790556007546001600160a01b031684526000805160206139b4833981519152909252909120546008820154600583018054859392908110612ac457612ac461353a565b90600052602060002001541115612ad9575060005b8015612ba557600b8201805462ff000019166201000017905581546008830154600584018054612b329361dead936001600160a01b0390911692918110612b2257612b2261353a565b9060005260206000200154612736565b6008820154612b42906001613598565b60068301541115612ba5576001826008016000828254612b629190613598565b9250508190555081600601826008015481548110612b8257612b8261353a565b6000918252602090912001546007830155600b8201805465ff000000ff00191690555b60018201546009830154600a8401546008850154604051889460008051602061399483398151915294612bf5946001600160a01b0390921693600c8a019360058b0193600b8c01939290916136bb565b60405180910390a28160080154600003612a5b576002820154612a5b906001600160a01b0316612e74565b6000828152600d60205260409020600b8101548290640100000000900460ff16612c8c5760405162461bcd60e51b815260206004820152601d60248201527f6d7573742062652061206775696c64206b69636b2070726f706f73616c000000604482015260640161068c565b600b8201805461ff0019166101001790558015612cf557600b8201805462ff000019166201000017905581546001600160a01b03166000908152600c602090815260409182902082516060810184528154815260019182015460ff161515928101929092529101525b60018201546009830154600a8401546008850154604051889460008051602061399483398151915294612d45946001600160a01b0390921693600c8a019360058b0193600b8c01939290916136bb565b60405180910390a281546001600160a01b039081166000908152600b60205260409020805460ff191690556002830154612a5b9116612e74565b600081600003612d8e57600080fd5b83600003612d9e5750600061117c565b6000612daa848661397c565b905083612db786836134e1565b03612dce57612dc683826134e1565b91505061117c565b83612dd984876134e1565b612de3919061397c565b95945050505050565b6001600160a01b038083166000908152600a6020908152604080832060075490941683529290529081208054839290612e269084906134ce565b90915550506007546001600160a01b031660009081527fed762ddb65dfeab933eda5256eb347e1bf2b4e76044bdc8baf0a70d22dc0c3746020526040812080548392906124569084906134ce565b61099761beef82600454612736565b6040518060c001604052806006906020820280368337509192915050565b828054828255906000526020600020908101928215612edc579160200282015b82811115612edc578251825591602001919060010190612ec1565b50612ee8929150612f75565b5090565b600183019183908215612edc5791602002820160005b83821115612f3f57835183826101000a81548160ff0219169083151502179055509260200192600101602081600001049283019260010302612f02565b8015612f6c5782816101000a81549060ff0219169055600101602081600001049283019260010302612f3f565b5050612ee89291505b5b80821115612ee85760008155600101612f76565b600060208284031215612f9c57600080fd5b5035919050565b6000815180845260005b81811015612fc957602081850181015186830182015201612fad565b506000602082860101526020601f19601f83011685010191505092915050565b600061016060018060a01b03808f168452808e166020850152808d166040850152508a60608401528960808401528860a08401528760c08401528660e0840152856101008401528061012084015261304381840186612fa3565b915050826101408301529c9b505050505050505050505050565b80356001600160a01b038116811461307457600080fd5b919050565b60006020828403121561308b57600080fd5b61117c8261305d565b634e487b7160e01b600052604160045260246000fd5b604051601f8201601f1916810167ffffffffffffffff811182821017156130d3576130d3613094565b604052919050565b600082601f8301126130ec57600080fd5b813567ffffffffffffffff81111561310657613106613094565b613119601f8201601f19166020016130aa565b81815284602083860101111561312e57600080fd5b816020850160208301376000918101602001919091529392505050565b6000806040838503121561315e57600080fd5b6131678361305d565b9150602083013567ffffffffffffffff81111561318357600080fd5b61318f858286016130db565b9150509250929050565b600080604083850312156131ac57600080fd5b50508035926020909101359150565b600080604083850312156131ce57600080fd5b6131d78361305d565b91506131e56020840161305d565b90509250929050565b6000806000806080858703121561320457600080fd5b61320d8561305d565b93506020850135925060408501359150606085013567ffffffffffffffff81111561323757600080fd5b613243878288016130db565b91505092959194509250565b600081518084526020808501945080840160005b8381101561327f57815187529582019590820190600101613263565b509495945050505050565b60208152600061117c602083018461324f565b600082601f8301126132ae57600080fd5b8135602067ffffffffffffffff8211156132ca576132ca613094565b8160051b6132d98282016130aa565b92835284810182019282810190878511156132f357600080fd5b83870192505b84831015613312578235825291830191908301906132f9565b979650505050505050565b6000806000806080858703121561333357600080fd5b61333c8561305d565b9350602085013567ffffffffffffffff8082111561335957600080fd5b6133658883890161329d565b9450604087013591508082111561337b57600080fd5b6133878883890161329d565b9350606087013591508082111561339d57600080fd5b50613243878288016130db565b6000806000606084860312156133bf57600080fd5b6133c88461305d565b95602085013595506040909401359392505050565b634e487b7160e01b600052602160045260246000fd5b602081016003831061341557634e487b7160e01b600052602160045260246000fd5b91905290565b6000806040838503121561342e57600080fd5b82359150602083013560ff8116811461344657600080fd5b809150509250929050565b60c08101818360005b600681101561347b578151151583526020928301929091019060010161345a565b50505092915050565b600181811c9082168061349857607f821691505b60208210810361260757634e487b7160e01b600052602260045260246000fd5b634e487b7160e01b600052601160045260246000fd5b81810381811115610d7f57610d7f6134b8565b6000826134fe57634e487b7160e01b600052601260045260246000fd5b500490565b6020808252601f908201527f5265656e7472616e637947756172643a207265656e7472616e742063616c6c00604082015260600190565b634e487b7160e01b600052603260045260246000fd5b6020808252600c908201526b3737ba10309036b2b6b132b960a11b604082015260600190565b60006020828403121561358857600080fd5b8151801515811461117c57600080fd5b80820180821115610d7f57610d7f6134b8565b60208082526024908201527f6170706c6963616e7420616464726573732063616e6e6f7420626520726573656040820152631c9d995960e21b606082015260800190565b60208082526025908201527f70726f706f73616c206170706c6963616e74206d757374206e6f74206265206a604082015264185a5b195960da1b606082015260800190565b6000815480845260208085019450836000528060002060005b8381101561327f5781548752958201956001918201910161364d565b805460ff80821615158452808260081c1615156020850152808260101c1615156040850152808260181c1615156060850152808260201c1615156080850152808260281c16151560a085015250505050565b600061018060018060a01b038a1683526020818185015260008a546136df81613484565b9386018490526101a09360018281168015613701576001811461371b57613749565b60ff1984168988015282151560051b890187019450613749565b8e6000528560002060005b848110156137415781548b82018a0152908301908701613726565b8a0188019550505b50505050848103604086015261375f818b613634565b93505050506137716060830187613669565b84610120830152836101408301528261016083015298975050505050505050565b60208082526023908201527f70726f706f73616c2068617320616c7265616479206265656e2073706f6e736f6040820152621c995960ea1b606082015260800190565b6000600182016137e7576137e76134b8565b5060010190565b60208082526017908201527f70726f706f73616c20646f6573206e6f74206578697374000000000000000000604082015260600190565b601f82111561274a57600081815260208120601f850160051c8101602086101561384c5750805b601f850160051c820191505b8181101561386b57828155600101613858565b505050505050565b815167ffffffffffffffff81111561388d5761388d613094565b6138a18161389b8454613484565b84613825565b602080601f8311600181146138d657600084156138be5750858301515b600019600386901b1c1916600185901b17855561386b565b600085815260208120601f198616915b82811015613905578886015182559484019460019091019084016138e6565b50858210156139235787850151600019600388901b60f8161c191681555b5050505050600190811b01905550565b6001600160a01b0388168152610180602082018190526000906139588382018a612fa3565b9050828103604084015261396c818961324f565b9150506137716060830187613669565b8082028115828204841417610d7f57610d7f6134b856fe8c09f1f93a70888c4f771b66728ad738408cba6bf23c2c51fadc873ffaf9a9ba20677881080440a9b3c87e826370bb5d9c2f74efd4dede686d52d77a6a09f8bba2646970667358221220bbd1eb34483325615c7a915b7252eb6919f1a1e8758cdea66803bfbc100a823c64736f6c63430008110033","opcodes":"PUSH1 0x80 PUSH1 0x40 MSTORE CALLVALUE DUP1 ISZERO PUSH3 0x11 JUMPI PUSH1 0x0 DUP1 REVERT JUMPDEST POP PUSH1 0x40 MLOAD PUSH3 0x3ECD CODESIZE SUB DUP1 PUSH3 0x3ECD DUP4 CODECOPY DUP2 ADD PUSH1 0x40 DUP2 SWAP1 MSTORE PUSH3 0x34 SWAP2 PUSH3 0x44D JUMP JUMPDEST PUSH1 0x0 DUP1 SLOAD PUSH1 0xFF NOT AND PUSH1 0x1 OR SWAP1 SSTORE PUSH1 0x1 PUSH1 0x1 PUSH1 0xA0 SHL SUB DUP8 AND PUSH3 0x9D JUMPI PUSH1 0x40 MLOAD PUSH3 0x461BCD PUSH1 0xE5 SHL DUP2 MSTORE PUSH1 0x20 PUSH1 0x4 DUP3 ADD MSTORE PUSH1 0x14 PUSH1 0x24 DUP3 ADD MSTORE PUSH32 0x73756D6D6F6E65722063616E6E6F742062652030000000000000000000000000 PUSH1 0x44 DUP3 ADD MSTORE PUSH1 0x64 ADD JUMPDEST PUSH1 0x40 MLOAD DUP1 SWAP2 SUB SWAP1 REVERT JUMPDEST PUSH1 0x0 DUP6 GT PUSH3 0xFA JUMPI PUSH1 0x40 MLOAD PUSH3 0x461BCD PUSH1 0xE5 SHL DUP2 MSTORE PUSH1 0x20 PUSH1 0x4 DUP3 ADD MSTORE PUSH1 0x22 PUSH1 0x24 DUP3 ADD MSTORE PUSH32 0x706572696F644475726174696F6E206D7573742067726561746572207468616E PUSH1 0x44 DUP3 ADD MSTORE PUSH2 0x203 PUSH1 0xF4 SHL PUSH1 0x64 DUP3 ADD MSTORE PUSH1 0x84 ADD PUSH3 0x94 JUMP JUMPDEST PUSH1 0x0 DUP5 GT PUSH3 0x15B JUMPI PUSH1 0x40 MLOAD PUSH3 0x461BCD PUSH1 0xE5 SHL DUP2 MSTORE PUSH1 0x20 PUSH1 0x4 DUP3 ADD MSTORE PUSH1 0x26 PUSH1 0x24 DUP3 ADD MSTORE PUSH32 0x766F74696E67506572696F644C656E677468206D757374206772656174657220 PUSH1 0x44 DUP3 ADD MSTORE PUSH6 0x7468616E203 PUSH1 0xD4 SHL PUSH1 0x64 DUP3 ADD MSTORE PUSH1 0x84 ADD PUSH3 0x94 JUMP JUMPDEST PUSH8 0xDE0B6B3A7640000 DUP5 GT ISZERO PUSH3 0x1C1 JUMPI PUSH1 0x40 MLOAD PUSH3 0x461BCD PUSH1 0xE5 SHL DUP2 MSTORE PUSH1 0x20 PUSH1 0x4 DUP3 ADD MSTORE PUSH1 0x24 DUP1 DUP3 ADD MSTORE PUSH32 0x766F74696E67506572696F644C656E677468206578636565647320746865206C PUSH1 0x44 DUP3 ADD MSTORE PUSH4 0x1A5B5A5D PUSH1 0xE2 SHL PUSH1 0x64 DUP3 ADD MSTORE PUSH1 0x84 ADD PUSH3 0x94 JUMP JUMPDEST PUSH1 0x0 DUP4 GT PUSH3 0x221 JUMPI PUSH1 0x40 MLOAD PUSH3 0x461BCD PUSH1 0xE5 SHL DUP2 MSTORE PUSH1 0x20 PUSH1 0x4 DUP3 ADD MSTORE PUSH1 0x25 PUSH1 0x24 DUP3 ADD MSTORE PUSH32 0x6772616365506572696F644C656E677468206D75737420677265617465722074 PUSH1 0x44 DUP3 ADD MSTORE PUSH5 0x68616E203 PUSH1 0xDC SHL PUSH1 0x64 DUP3 ADD MSTORE PUSH1 0x84 ADD PUSH3 0x94 JUMP JUMPDEST PUSH8 0xDE0B6B3A7640000 DUP4 GT ISZERO PUSH3 0x287 JUMPI PUSH1 0x40 MLOAD PUSH3 0x461BCD PUSH1 0xE5 SHL DUP2 MSTORE PUSH1 0x20 PUSH1 0x4 DUP3 ADD MSTORE PUSH1 0x23 PUSH1 0x24 DUP3 ADD MSTORE PUSH32 0x6772616365506572696F644C656E677468206578636565647320746865206C69 PUSH1 0x44 DUP3 ADD MSTORE PUSH3 0x1B5A5D PUSH1 0xEA SHL PUSH1 0x64 DUP3 ADD MSTORE PUSH1 0x84 ADD PUSH3 0x94 JUMP JUMPDEST PUSH1 0x0 DUP2 GT PUSH3 0x2E3 JUMPI PUSH1 0x40 MLOAD PUSH3 0x461BCD PUSH1 0xE5 SHL DUP2 MSTORE PUSH1 0x20 PUSH1 0x4 DUP3 ADD MSTORE PUSH1 0x21 PUSH1 0x24 DUP3 ADD MSTORE PUSH32 0x64696C7574696F6E426F756E64206D7573742067726561746572207468616E20 PUSH1 0x44 DUP3 ADD MSTORE PUSH1 0x3 PUSH1 0xFC SHL PUSH1 0x64 DUP3 ADD MSTORE PUSH1 0x84 ADD PUSH3 0x94 JUMP JUMPDEST PUSH8 0xDE0B6B3A7640000 DUP2 GT ISZERO PUSH3 0x33D JUMPI PUSH1 0x40 MLOAD PUSH3 0x461BCD PUSH1 0xE5 SHL DUP2 MSTORE PUSH1 0x20 PUSH1 0x4 DUP3 ADD MSTORE PUSH1 0x1F PUSH1 0x24 DUP3 ADD MSTORE PUSH32 0x64696C7574696F6E426F756E64206578636565647320746865206C696D697400 PUSH1 0x44 DUP3 ADD MSTORE PUSH1 0x64 ADD PUSH3 0x94 JUMP JUMPDEST PUSH1 0x1 PUSH1 0x1 PUSH1 0xA0 SHL SUB DUP7 AND PUSH3 0x395 JUMPI PUSH1 0x40 MLOAD PUSH3 0x461BCD PUSH1 0xE5 SHL DUP2 MSTORE PUSH1 0x20 PUSH1 0x4 DUP3 ADD MSTORE PUSH1 0x18 PUSH1 0x24 DUP3 ADD MSTORE PUSH32 0x6465706F736974546F6B656E2063616E6E6F7420626520300000000000000000 PUSH1 0x44 DUP3 ADD MSTORE PUSH1 0x64 ADD PUSH3 0x94 JUMP JUMPDEST PUSH1 0x7 DUP1 SLOAD PUSH1 0x1 PUSH1 0x1 PUSH1 0xA0 SHL SUB NOT AND PUSH1 0x1 PUSH1 0x1 PUSH1 0xA0 SHL SUB SWAP8 DUP9 AND OR SWAP1 SSTORE PUSH1 0x1 SWAP5 DUP6 SSTORE PUSH1 0x2 SWAP4 SWAP1 SWAP4 SSTORE PUSH1 0x3 SWAP2 SWAP1 SWAP2 SSTORE PUSH1 0x4 SSTORE PUSH1 0x5 SSTORE TIMESTAMP PUSH1 0x6 SSTORE PUSH1 0x40 DUP1 MLOAD PUSH1 0x60 DUP2 ADD DUP3 MSTORE DUP3 DUP2 MSTORE PUSH1 0x20 DUP1 DUP3 ADD DUP5 DUP2 MSTORE PUSH1 0x0 DUP4 DUP6 ADD DUP2 DUP2 MSTORE SWAP8 SWAP1 SWAP7 AND DUP7 MSTORE PUSH1 0xC SWAP1 SWAP2 MSTORE SWAP2 SWAP1 SWAP4 KECCAK256 SWAP3 MLOAD DUP4 SSTORE MLOAD SWAP2 DUP2 ADD DUP1 SLOAD SWAP4 MLOAD PUSH2 0xFFFF NOT SWAP1 SWAP5 AND SWAP3 ISZERO ISZERO PUSH2 0xFF00 NOT AND SWAP3 SWAP1 SWAP3 OR PUSH2 0x100 SWAP4 ISZERO ISZERO SWAP4 SWAP1 SWAP4 MUL SWAP3 SWAP1 SWAP3 OR SWAP1 SSTORE PUSH1 0x9 SSTORE PUSH3 0x4B4 JUMP JUMPDEST DUP1 MLOAD PUSH1 0x1 PUSH1 0x1 PUSH1 0xA0 SHL SUB DUP2 AND DUP2 EQ PUSH3 0x448 JUMPI PUSH1 0x0 DUP1 REVERT JUMPDEST SWAP2 SWAP1 POP JUMP JUMPDEST PUSH1 0x0 DUP1 PUSH1 0x0 DUP1 PUSH1 0x0 DUP1 PUSH1 0x0 PUSH1 0xE0 DUP9 DUP11 SUB SLT ISZERO PUSH3 0x469 JUMPI PUSH1 0x0 DUP1 REVERT JUMPDEST PUSH3 0x474 DUP9 PUSH3 0x430 JUMP JUMPDEST SWAP7 POP PUSH3 0x484 PUSH1 0x20 DUP10 ADD PUSH3 0x430 JUMP JUMPDEST PUSH1 0x40 DUP10 ADD MLOAD PUSH1 0x60 DUP11 ADD MLOAD PUSH1 0x80 DUP12 ADD MLOAD PUSH1 0xA0 DUP13 ADD MLOAD PUSH1 0xC0 SWAP1 SWAP13 ADD MLOAD SWAP11 SWAP14 SWAP4 SWAP13 POP SWAP2 SWAP11 SWAP1 SWAP10 SWAP2 SWAP9 POP SWAP7 POP SWAP5 POP SWAP3 POP POP POP JUMP JUMPDEST PUSH2 0x3A09 DUP1 PUSH3 0x4C4 PUSH1 0x0 CODECOPY PUSH1 0x0 RETURN INVALID PUSH1 0x80 PUSH1 0x40 MSTORE CALLVALUE DUP1 ISZERO PUSH2 0x10 JUMPI PUSH1 0x0 DUP1 REVERT JUMPDEST POP PUSH1 0x4 CALLDATASIZE LT PUSH2 0x21C JUMPI PUSH1 0x0 CALLDATALOAD PUSH1 0xE0 SHR DUP1 PUSH4 0x87DFC825 GT PUSH2 0x125 JUMPI DUP1 PUSH4 0xC49B1685 GT PUSH2 0xAD JUMPI DUP1 PUSH4 0xDFDD369E GT PUSH2 0x7C JUMPI DUP1 PUSH4 0xDFDD369E EQ PUSH2 0x50B JUMPI DUP1 PUSH4 0xE0A8F6F5 EQ PUSH2 0x51E JUMPI DUP1 PUSH4 0xE63BC62D EQ PUSH2 0x531 JUMPI DUP1 PUSH4 0xE681C4AA EQ PUSH2 0x544 JUMPI DUP1 PUSH4 0xF5D54C77 EQ PUSH2 0x54D JUMPI PUSH1 0x0 DUP1 REVERT JUMPDEST DUP1 PUSH4 0xC49B1685 EQ PUSH2 0x4AB JUMPI DUP1 PUSH4 0xC89039C5 EQ PUSH2 0x4DC JUMPI DUP1 PUSH4 0xDA35C664 EQ PUSH2 0x4EF JUMPI DUP1 PUSH4 0xDA76D5CD EQ PUSH2 0x4F8 JUMPI PUSH1 0x0 DUP1 REVERT JUMPDEST DUP1 PUSH4 0x9746D940 GT PUSH2 0xF4 JUMPI DUP1 PUSH4 0x9746D940 EQ PUSH2 0x453 JUMPI DUP1 PUSH4 0x99653FBE EQ PUSH2 0x466 JUMPI DUP1 PUSH4 0xAFE5475F EQ PUSH2 0x479 JUMPI DUP1 PUSH4 0xB2643AAB EQ PUSH2 0x482 JUMPI DUP1 PUSH4 0xB470AADE EQ PUSH2 0x4A2 JUMPI PUSH1 0x0 DUP1 REVERT JUMPDEST DUP1 PUSH4 0x87DFC825 EQ PUSH2 0x404 JUMPI DUP1 PUSH4 0x8B15A605 EQ PUSH2 0x417 JUMPI DUP1 PUSH4 0x8B6CB9E5 EQ PUSH2 0x420 JUMPI DUP1 PUSH4 0x9425A476 EQ PUSH2 0x440 JUMPI PUSH1 0x0 DUP1 REVERT JUMPDEST DUP1 PUSH4 0x45F2D105 GT PUSH2 0x1A8 JUMPI DUP1 PUSH4 0x63858F2D GT PUSH2 0x177 JUMPI DUP1 PUSH4 0x63858F2D EQ PUSH2 0x3C3 JUMPI DUP1 PUSH4 0x73F8FD4B EQ PUSH2 0x3CC JUMPI DUP1 PUSH4 0x7D5B6C72 EQ PUSH2 0x3DF JUMPI DUP1 PUSH4 0x8340BBCE EQ PUSH2 0x3E8 JUMPI DUP1 PUSH4 0x878FC813 EQ PUSH2 0x3F1 JUMPI PUSH1 0x0 DUP1 REVERT JUMPDEST DUP1 PUSH4 0x45F2D105 EQ PUSH2 0x352 JUMPI DUP1 PUSH4 0x4C105631 EQ PUSH2 0x37D JUMPI DUP1 PUSH4 0x571ED9C5 EQ PUSH2 0x390 JUMPI DUP1 PUSH4 0x62312524 EQ PUSH2 0x3B0 JUMPI PUSH1 0x0 DUP1 REVERT JUMPDEST DUP1 PUSH4 0x15EB349E GT PUSH2 0x1EF JUMPI DUP1 PUSH4 0x15EB349E EQ PUSH2 0x2CD JUMPI DUP1 PUSH4 0x27EFC086 EQ PUSH2 0x2E2 JUMPI DUP1 PUSH4 0x3A98EF39 EQ PUSH2 0x303 JUMPI DUP1 PUSH4 0x3FC24BBA EQ PUSH2 0x30C JUMPI DUP1 PUSH4 0x45E00EF4 EQ PUSH2 0x33F JUMPI PUSH1 0x0 DUP1 REVERT JUMPDEST DUP1 PUSH4 0x13CF08B EQ PUSH2 0x221 JUMPI DUP1 PUSH4 0x86146D2 EQ PUSH2 0x254 JUMPI DUP1 PUSH4 0x8AE4B0C EQ PUSH2 0x26A JUMPI DUP1 PUSH4 0x115B2D18 EQ PUSH2 0x2BA JUMPI JUMPDEST PUSH1 0x0 DUP1 REVERT JUMPDEST PUSH2 0x234 PUSH2 0x22F CALLDATASIZE PUSH1 0x4 PUSH2 0x2F8A JUMP JUMPDEST PUSH2 0x556 JUMP JUMPDEST PUSH1 0x40 MLOAD PUSH2 0x24B SWAP12 SWAP11 SWAP10 SWAP9 SWAP8 SWAP7 SWAP6 SWAP5 SWAP4 SWAP3 SWAP2 SWAP1 PUSH2 0x2FE9 JUMP JUMPDEST PUSH1 0x40 MLOAD DUP1 SWAP2 SUB SWAP1 RETURN JUMPDEST PUSH2 0x25C PUSH2 0x647 JUMP JUMPDEST PUSH1 0x40 MLOAD SWAP1 DUP2 MSTORE PUSH1 0x20 ADD PUSH2 0x24B JUMP JUMPDEST PUSH2 0x29D PUSH2 0x278 CALLDATASIZE PUSH1 0x4 PUSH2 0x3079 JUMP JUMPDEST PUSH1 0xC PUSH1 0x20 MSTORE PUSH1 0x0 SWAP1 DUP2 MSTORE PUSH1 0x40 SWAP1 KECCAK256 DUP1 SLOAD PUSH1 0x1 SWAP1 SWAP2 ADD SLOAD PUSH1 0xFF DUP1 DUP3 AND SWAP2 PUSH2 0x100 SWAP1 DIV AND DUP4 JUMP JUMPDEST PUSH1 0x40 DUP1 MLOAD SWAP4 DUP5 MSTORE SWAP2 ISZERO ISZERO PUSH1 0x20 DUP5 ADD MSTORE ISZERO ISZERO SWAP1 DUP3 ADD MSTORE PUSH1 0x60 ADD PUSH2 0x24B JUMP JUMPDEST PUSH2 0x25C PUSH2 0x2C8 CALLDATASIZE PUSH1 0x4 PUSH2 0x314B JUMP JUMPDEST PUSH2 0x669 JUMP JUMPDEST PUSH2 0x2E0 PUSH2 0x2DB CALLDATASIZE PUSH1 0x4 PUSH2 0x3199 JUMP JUMPDEST PUSH2 0x848 JUMP JUMPDEST STOP JUMPDEST PUSH2 0x2EB PUSH2 0xBABE DUP2 JUMP JUMPDEST PUSH1 0x40 MLOAD PUSH1 0x1 PUSH1 0x1 PUSH1 0xA0 SHL SUB SWAP1 SWAP2 AND DUP2 MSTORE PUSH1 0x20 ADD PUSH2 0x24B JUMP JUMPDEST PUSH2 0x25C PUSH1 0x9 SLOAD DUP2 JUMP JUMPDEST PUSH2 0x32F PUSH2 0x31A CALLDATASIZE PUSH1 0x4 PUSH2 0x3079 JUMP JUMPDEST PUSH1 0xB PUSH1 0x20 MSTORE PUSH1 0x0 SWAP1 DUP2 MSTORE PUSH1 0x40 SWAP1 KECCAK256 SLOAD PUSH1 0xFF AND DUP2 JUMP JUMPDEST PUSH1 0x40 MLOAD SWAP1 ISZERO ISZERO DUP2 MSTORE PUSH1 0x20 ADD PUSH2 0x24B JUMP JUMPDEST PUSH2 0x2E0 PUSH2 0x34D CALLDATASIZE PUSH1 0x4 PUSH2 0x2F8A JUMP JUMPDEST PUSH2 0x8BB JUMP JUMPDEST PUSH2 0x25C PUSH2 0x360 CALLDATASIZE PUSH1 0x4 PUSH2 0x31BB JUMP JUMPDEST PUSH1 0xA PUSH1 0x20 SWAP1 DUP2 MSTORE PUSH1 0x0 SWAP3 DUP4 MSTORE PUSH1 0x40 DUP1 DUP5 KECCAK256 SWAP1 SWAP2 MSTORE SWAP1 DUP3 MSTORE SWAP1 KECCAK256 SLOAD DUP2 JUMP JUMPDEST PUSH2 0x25C PUSH2 0x38B CALLDATASIZE PUSH1 0x4 PUSH2 0x31EE JUMP JUMPDEST PUSH2 0x99A JUMP JUMPDEST PUSH2 0x3A3 PUSH2 0x39E CALLDATASIZE PUSH1 0x4 PUSH2 0x2F8A JUMP JUMPDEST PUSH2 0xC90 JUMP JUMPDEST PUSH1 0x40 MLOAD PUSH2 0x24B SWAP2 SWAP1 PUSH2 0x328A JUMP JUMPDEST PUSH2 0x3A3 PUSH2 0x3BE CALLDATASIZE PUSH1 0x4 PUSH2 0x2F8A JUMP JUMPDEST PUSH2 0xCF5 JUMP JUMPDEST PUSH2 0x25C PUSH1 0x3 SLOAD DUP2 JUMP JUMPDEST PUSH2 0x25C PUSH2 0x3DA CALLDATASIZE PUSH1 0x4 PUSH2 0x31BB JUMP JUMPDEST PUSH2 0xD58 JUMP JUMPDEST PUSH2 0x25C PUSH1 0x6 SLOAD DUP2 JUMP JUMPDEST PUSH2 0x25C PUSH1 0x2 SLOAD DUP2 JUMP JUMPDEST PUSH2 0x25C PUSH2 0x3FF CALLDATASIZE PUSH1 0x4 PUSH2 0x331D JUMP JUMPDEST PUSH2 0xD85 JUMP JUMPDEST PUSH2 0x2E0 PUSH2 0x412 CALLDATASIZE PUSH1 0x4 PUSH2 0x2F8A JUMP JUMPDEST PUSH2 0xF03 JUMP JUMPDEST PUSH2 0x25C PUSH1 0x4 SLOAD DUP2 JUMP JUMPDEST PUSH2 0x433 PUSH2 0x42E CALLDATASIZE PUSH1 0x4 PUSH2 0x33AA JUMP JUMPDEST PUSH2 0x10E5 JUMP JUMPDEST PUSH1 0x40 MLOAD PUSH2 0x24B SWAP2 SWAP1 PUSH2 0x33F3 JUMP JUMPDEST PUSH2 0x32F PUSH2 0x44E CALLDATASIZE PUSH1 0x4 PUSH2 0x2F8A JUMP JUMPDEST PUSH2 0x1183 JUMP JUMPDEST PUSH2 0x2E0 PUSH2 0x461 CALLDATASIZE PUSH1 0x4 PUSH2 0x2F8A JUMP JUMPDEST PUSH2 0x11A3 JUMP JUMPDEST PUSH2 0x2E0 PUSH2 0x474 CALLDATASIZE PUSH1 0x4 PUSH2 0x341B JUMP JUMPDEST PUSH2 0x168F JUMP JUMPDEST PUSH2 0x25C PUSH1 0x5 SLOAD DUP2 JUMP JUMPDEST PUSH2 0x495 PUSH2 0x490 CALLDATASIZE PUSH1 0x4 PUSH2 0x2F8A JUMP JUMPDEST PUSH2 0x1AC8 JUMP JUMPDEST PUSH1 0x40 MLOAD PUSH2 0x24B SWAP2 SWAP1 PUSH2 0x3451 JUMP JUMPDEST PUSH2 0x25C PUSH1 0x1 SLOAD DUP2 JUMP JUMPDEST PUSH2 0x2E0 PUSH1 0x0 DUP1 DUP1 MSTORE PUSH1 0xD PUSH1 0x20 MSTORE PUSH32 0x81955A0A11E65EAC625C29E8882660BAE4E165A75D72780094ACAE8ECE9A29F5 SSTORE JUMP JUMPDEST PUSH1 0x7 SLOAD PUSH2 0x2EB SWAP1 PUSH1 0x1 PUSH1 0x1 PUSH1 0xA0 SHL SUB AND DUP2 JUMP JUMPDEST PUSH2 0x25C PUSH1 0x8 SLOAD DUP2 JUMP JUMPDEST PUSH2 0x2E0 PUSH2 0x506 CALLDATASIZE PUSH1 0x4 PUSH2 0x2F8A JUMP JUMPDEST PUSH2 0x1B32 JUMP JUMPDEST PUSH2 0x2E0 PUSH2 0x519 CALLDATASIZE PUSH1 0x4 PUSH2 0x3079 JUMP JUMPDEST PUSH2 0x1B77 JUMP JUMPDEST PUSH2 0x2E0 PUSH2 0x52C CALLDATASIZE PUSH1 0x4 PUSH2 0x2F8A JUMP JUMPDEST PUSH2 0x1C71 JUMP JUMPDEST PUSH2 0x2E0 PUSH2 0x53F CALLDATASIZE PUSH1 0x4 PUSH2 0x2F8A JUMP JUMPDEST PUSH2 0x1E1A JUMP JUMPDEST PUSH2 0x2EB PUSH2 0xBEEF DUP2 JUMP JUMPDEST PUSH2 0x2EB PUSH2 0xDEAD DUP2 JUMP JUMPDEST PUSH1 0xD PUSH1 0x20 MSTORE PUSH1 0x0 SWAP1 DUP2 MSTORE PUSH1 0x40 SWAP1 KECCAK256 DUP1 SLOAD PUSH1 0x1 DUP3 ADD SLOAD PUSH1 0x2 DUP4 ADD SLOAD PUSH1 0x3 DUP5 ADD SLOAD PUSH1 0x4 DUP6 ADD SLOAD PUSH1 0x7 DUP7 ADD SLOAD PUSH1 0x8 DUP8 ADD SLOAD PUSH1 0x9 DUP9 ADD SLOAD PUSH1 0xA DUP10 ADD SLOAD PUSH1 0xC DUP11 ADD DUP1 SLOAD PUSH1 0x1 PUSH1 0x1 PUSH1 0xA0 SHL SUB SWAP11 DUP12 AND SWAP12 SWAP10 DUP12 AND SWAP11 SWAP1 SWAP9 AND SWAP9 SWAP7 SWAP8 SWAP6 SWAP7 SWAP5 SWAP6 SWAP4 SWAP5 SWAP3 SWAP4 SWAP2 SWAP3 SWAP2 PUSH2 0x5BE SWAP1 PUSH2 0x3484 JUMP JUMPDEST DUP1 PUSH1 0x1F ADD PUSH1 0x20 DUP1 SWAP2 DIV MUL PUSH1 0x20 ADD PUSH1 0x40 MLOAD SWAP1 DUP2 ADD PUSH1 0x40 MSTORE DUP1 SWAP3 SWAP2 SWAP1 DUP2 DUP2 MSTORE PUSH1 0x20 ADD DUP3 DUP1 SLOAD PUSH2 0x5EA SWAP1 PUSH2 0x3484 JUMP JUMPDEST DUP1 ISZERO PUSH2 0x637 JUMPI DUP1 PUSH1 0x1F LT PUSH2 0x60C JUMPI PUSH2 0x100 DUP1 DUP4 SLOAD DIV MUL DUP4 MSTORE SWAP2 PUSH1 0x20 ADD SWAP2 PUSH2 0x637 JUMP JUMPDEST DUP3 ADD SWAP2 SWAP1 PUSH1 0x0 MSTORE PUSH1 0x20 PUSH1 0x0 KECCAK256 SWAP1 JUMPDEST DUP2 SLOAD DUP2 MSTORE SWAP1 PUSH1 0x1 ADD SWAP1 PUSH1 0x20 ADD DUP1 DUP4 GT PUSH2 0x61A JUMPI DUP3 SWAP1 SUB PUSH1 0x1F AND DUP3 ADD SWAP2 JUMPDEST POP POP POP POP POP SWAP1 DUP1 PUSH1 0xD ADD SLOAD SWAP1 POP DUP12 JUMP JUMPDEST PUSH1 0x0 PUSH1 0x1 SLOAD PUSH1 0x6 SLOAD TIMESTAMP PUSH2 0x65A SWAP2 SWAP1 PUSH2 0x34CE JUMP JUMPDEST PUSH2 0x664 SWAP2 SWAP1 PUSH2 0x34E1 JUMP JUMPDEST SWAP1 POP SWAP1 JUMP JUMPDEST PUSH1 0x0 DUP1 SLOAD PUSH1 0xFF AND PUSH2 0x695 JUMPI PUSH1 0x40 MLOAD PUSH3 0x461BCD PUSH1 0xE5 SHL DUP2 MSTORE PUSH1 0x4 ADD PUSH2 0x68C SWAP1 PUSH2 0x3503 JUMP JUMPDEST PUSH1 0x40 MLOAD DUP1 SWAP2 SUB SWAP1 REVERT JUMPDEST PUSH1 0x0 DUP1 SLOAD PUSH1 0xFF NOT AND DUP2 SSTORE PUSH1 0x1 PUSH1 0x1 PUSH1 0xA0 SHL SUB DUP5 AND DUP2 MSTORE PUSH1 0xC PUSH1 0x20 SWAP1 DUP2 MSTORE PUSH1 0x40 SWAP2 DUP3 SWAP1 KECCAK256 DUP3 MLOAD PUSH1 0x60 DUP2 ADD DUP5 MSTORE DUP2 SLOAD DUP1 DUP3 MSTORE PUSH1 0x1 SWAP3 SWAP1 SWAP3 ADD SLOAD PUSH1 0xFF DUP2 DUP2 AND ISZERO ISZERO SWAP5 DUP4 ADD SWAP5 SWAP1 SWAP5 MSTORE PUSH2 0x100 SWAP1 DIV SWAP1 SWAP3 AND ISZERO ISZERO SWAP3 DUP3 ADD SWAP3 SWAP1 SWAP3 MSTORE SWAP1 PUSH2 0x744 JUMPI PUSH1 0x40 MLOAD PUSH3 0x461BCD PUSH1 0xE5 SHL DUP2 MSTORE PUSH1 0x20 PUSH1 0x4 DUP3 ADD MSTORE PUSH1 0x23 PUSH1 0x24 DUP3 ADD MSTORE PUSH32 0x6D656D626572206D7573742068617665206174206C65617374206F6E65207368 PUSH1 0x44 DUP3 ADD MSTORE PUSH3 0x617265 PUSH1 0xE8 SHL PUSH1 0x64 DUP3 ADD MSTORE PUSH1 0x84 ADD PUSH2 0x68C JUMP JUMPDEST PUSH1 0x1 PUSH1 0x1 PUSH1 0xA0 SHL SUB DUP5 AND PUSH1 0x0 SWAP1 DUP2 MSTORE PUSH1 0xC PUSH1 0x20 MSTORE PUSH1 0x40 SWAP1 KECCAK256 PUSH1 0x1 ADD SLOAD PUSH2 0x100 SWAP1 DIV PUSH1 0xFF AND ISZERO PUSH2 0x7BF JUMPI PUSH1 0x40 MLOAD PUSH3 0x461BCD PUSH1 0xE5 SHL DUP2 MSTORE PUSH1 0x20 PUSH1 0x4 DUP3 ADD MSTORE PUSH1 0x21 PUSH1 0x24 DUP3 ADD MSTORE PUSH32 0x6D656D626572206D757374206E6F7420616C7265616479206265206A61696C65 PUSH1 0x44 DUP3 ADD MSTORE PUSH1 0x19 PUSH1 0xFA SHL PUSH1 0x64 DUP3 ADD MSTORE PUSH1 0x84 ADD PUSH2 0x68C JUMP JUMPDEST PUSH2 0x7C7 PUSH2 0x2E83 JUMP JUMPDEST PUSH1 0x1 PUSH1 0x80 DUP3 ADD DUP2 SWAP1 MSTORE PUSH1 0x40 DUP1 MLOAD DUP3 DUP2 MSTORE DUP1 DUP3 ADD SWAP1 SWAP2 MSTORE PUSH1 0x0 SWAP2 PUSH1 0x20 DUP1 DUP4 ADD SWAP1 DUP1 CALLDATASIZE DUP4 CALLDATACOPY ADD SWAP1 POP POP SWAP1 POP PUSH1 0x0 DUP2 PUSH1 0x0 DUP2 MLOAD DUP2 LT PUSH2 0x805 JUMPI PUSH2 0x805 PUSH2 0x353A JUMP JUMPDEST PUSH1 0x20 MUL PUSH1 0x20 ADD ADD DUP2 DUP2 MSTORE POP POP PUSH2 0x821 DUP7 PUSH1 0x0 DUP1 DUP5 DUP6 DUP11 DUP9 PUSH2 0x1EE2 JUMP JUMPDEST PUSH1 0x1 PUSH1 0x8 SLOAD PUSH2 0x830 SWAP2 SWAP1 PUSH2 0x34CE JUMP JUMPDEST SWAP4 POP POP POP POP PUSH1 0x0 DUP1 SLOAD PUSH1 0xFF NOT AND PUSH1 0x1 OR SWAP1 SSTORE SWAP3 SWAP2 POP POP JUMP JUMPDEST PUSH1 0x0 SLOAD PUSH1 0xFF AND PUSH2 0x86A JUMPI PUSH1 0x40 MLOAD PUSH3 0x461BCD PUSH1 0xE5 SHL DUP2 MSTORE PUSH1 0x4 ADD PUSH2 0x68C SWAP1 PUSH2 0x3503 JUMP JUMPDEST PUSH1 0x0 DUP1 SLOAD PUSH1 0xFF NOT AND DUP2 SSTORE CALLER DUP2 MSTORE PUSH1 0xC PUSH1 0x20 MSTORE PUSH1 0x40 SWAP1 KECCAK256 SLOAD PUSH2 0x89D JUMPI PUSH1 0x40 MLOAD PUSH3 0x461BCD PUSH1 0xE5 SHL DUP2 MSTORE PUSH1 0x4 ADD PUSH2 0x68C SWAP1 PUSH2 0x3550 JUMP JUMPDEST PUSH2 0x8AA CALLER DUP4 DUP4 PUSH1 0x0 PUSH2 0x200F JUMP JUMPDEST POP POP PUSH1 0x0 DUP1 SLOAD PUSH1 0xFF NOT AND PUSH1 0x1 OR SWAP1 SSTORE JUMP JUMPDEST PUSH1 0x7 SLOAD PUSH1 0x40 MLOAD PUSH4 0x23B872DD PUSH1 0xE0 SHL DUP2 MSTORE CALLER PUSH1 0x4 DUP3 ADD MSTORE ADDRESS PUSH1 0x24 DUP3 ADD MSTORE PUSH1 0x44 DUP2 ADD DUP4 SWAP1 MSTORE PUSH1 0x1 PUSH1 0x1 PUSH1 0xA0 SHL SUB SWAP1 SWAP2 AND SWAP1 PUSH4 0x23B872DD SWAP1 PUSH1 0x64 ADD PUSH1 0x20 PUSH1 0x40 MLOAD DUP1 DUP4 SUB DUP2 PUSH1 0x0 DUP8 GAS CALL ISZERO DUP1 ISZERO PUSH2 0x912 JUMPI RETURNDATASIZE PUSH1 0x0 DUP1 RETURNDATACOPY RETURNDATASIZE PUSH1 0x0 REVERT JUMPDEST POP POP POP POP PUSH1 0x40 MLOAD RETURNDATASIZE PUSH1 0x1F NOT PUSH1 0x1F DUP3 ADD AND DUP3 ADD DUP1 PUSH1 0x40 MSTORE POP DUP2 ADD SWAP1 PUSH2 0x936 SWAP2 SWAP1 PUSH2 0x3576 JUMP JUMPDEST PUSH2 0x98D JUMPI PUSH1 0x40 MLOAD PUSH3 0x461BCD PUSH1 0xE5 SHL DUP2 MSTORE PUSH1 0x20 PUSH1 0x4 DUP3 ADD MSTORE PUSH1 0x22 PUSH1 0x24 DUP3 ADD MSTORE PUSH32 0x74657374206465706F73697420746F6B656E207472616E73666572206661696C PUSH1 0x44 DUP3 ADD MSTORE PUSH2 0x1959 PUSH1 0xF2 SHL PUSH1 0x64 DUP3 ADD MSTORE PUSH1 0x84 ADD PUSH2 0x68C JUMP JUMPDEST PUSH2 0x997 CALLER DUP3 PUSH2 0x23CE JUMP JUMPDEST POP JUMP JUMPDEST PUSH1 0x0 DUP1 SLOAD PUSH1 0xFF AND PUSH2 0x9BD JUMPI PUSH1 0x40 MLOAD PUSH3 0x461BCD PUSH1 0xE5 SHL DUP2 MSTORE PUSH1 0x4 ADD PUSH2 0x68C SWAP1 PUSH2 0x3503 JUMP JUMPDEST PUSH1 0x0 DUP1 SLOAD PUSH1 0xFF NOT AND SWAP1 SSTORE PUSH8 0xDE0B6B3A7640000 PUSH2 0x9DA DUP6 DUP1 PUSH2 0x3598 JUMP JUMPDEST GT ISZERO PUSH2 0xA28 JUMPI PUSH1 0x40 MLOAD PUSH3 0x461BCD PUSH1 0xE5 SHL DUP2 MSTORE PUSH1 0x20 PUSH1 0x4 DUP3 ADD MSTORE PUSH1 0x19 PUSH1 0x24 DUP3 ADD MSTORE PUSH32 0x746F6F206D616E79207368617265732072657175657374656400000000000000 PUSH1 0x44 DUP3 ADD MSTORE PUSH1 0x64 ADD PUSH2 0x68C JUMP JUMPDEST PUSH1 0x1 PUSH1 0x1 PUSH1 0xA0 SHL SUB DUP6 AND PUSH2 0xA76 JUMPI PUSH1 0x40 MLOAD PUSH3 0x461BCD PUSH1 0xE5 SHL DUP2 MSTORE PUSH1 0x20 PUSH1 0x4 DUP3 ADD MSTORE PUSH1 0x15 PUSH1 0x24 DUP3 ADD MSTORE PUSH21 0x6170706C6963616E742063616E6E6F74206265203 PUSH1 0x5C SHL PUSH1 0x44 DUP3 ADD MSTORE PUSH1 0x64 ADD PUSH2 0x68C JUMP JUMPDEST PUSH1 0x1 PUSH1 0x1 PUSH1 0xA0 SHL SUB DUP6 AND PUSH2 0xDEAD EQ DUP1 ISZERO SWAP1 PUSH2 0xA9C JUMPI POP PUSH1 0x1 PUSH1 0x1 PUSH1 0xA0 SHL SUB DUP6 AND PUSH2 0xBEEF EQ ISZERO JUMPDEST DUP1 ISZERO PUSH2 0xAB3 JUMPI POP PUSH1 0x1 PUSH1 0x1 PUSH1 0xA0 SHL SUB DUP6 AND PUSH2 0xBABE EQ ISZERO JUMPDEST PUSH2 0xACF JUMPI PUSH1 0x40 MLOAD PUSH3 0x461BCD PUSH1 0xE5 SHL DUP2 MSTORE PUSH1 0x4 ADD PUSH2 0x68C SWAP1 PUSH2 0x35AB JUMP JUMPDEST PUSH1 0x1 PUSH1 0x1 PUSH1 0xA0 SHL SUB DUP6 AND PUSH1 0x0 SWAP1 DUP2 MSTORE PUSH1 0xC PUSH1 0x20 MSTORE PUSH1 0x40 SWAP1 KECCAK256 PUSH1 0x1 ADD SLOAD PUSH2 0x100 SWAP1 DIV PUSH1 0xFF AND ISZERO PUSH2 0xB10 JUMPI PUSH1 0x40 MLOAD PUSH3 0x461BCD PUSH1 0xE5 SHL DUP2 MSTORE PUSH1 0x4 ADD PUSH2 0x68C SWAP1 PUSH2 0x35EF JUMP JUMPDEST PUSH1 0x7 SLOAD PUSH1 0x40 MLOAD PUSH4 0x23B872DD PUSH1 0xE0 SHL DUP2 MSTORE CALLER PUSH1 0x4 DUP3 ADD MSTORE ADDRESS PUSH1 0x24 DUP3 ADD MSTORE PUSH1 0x44 DUP2 ADD DUP6 SWAP1 MSTORE PUSH1 0x1 PUSH1 0x1 PUSH1 0xA0 SHL SUB SWAP1 SWAP2 AND SWAP1 PUSH4 0x23B872DD SWAP1 PUSH1 0x64 ADD PUSH1 0x20 PUSH1 0x40 MLOAD DUP1 DUP4 SUB DUP2 PUSH1 0x0 DUP8 GAS CALL ISZERO DUP1 ISZERO PUSH2 0xB67 JUMPI RETURNDATASIZE PUSH1 0x0 DUP1 RETURNDATACOPY RETURNDATASIZE PUSH1 0x0 REVERT JUMPDEST POP POP POP POP PUSH1 0x40 MLOAD RETURNDATASIZE PUSH1 0x1F NOT PUSH1 0x1F DUP3 ADD AND DUP3 ADD DUP1 PUSH1 0x40 MSTORE POP DUP2 ADD SWAP1 PUSH2 0xB8B SWAP2 SWAP1 PUSH2 0x3576 JUMP JUMPDEST PUSH2 0xBD7 JUMPI PUSH1 0x40 MLOAD PUSH3 0x461BCD PUSH1 0xE5 SHL DUP2 MSTORE PUSH1 0x20 PUSH1 0x4 DUP3 ADD MSTORE PUSH1 0x1D PUSH1 0x24 DUP3 ADD MSTORE PUSH32 0x7472696275746520746F6B656E207472616E73666572206661696C6564000000 PUSH1 0x44 DUP3 ADD MSTORE PUSH1 0x64 ADD PUSH2 0x68C JUMP JUMPDEST PUSH2 0xBE3 PUSH2 0xBEEF DUP5 PUSH2 0x23CE JUMP JUMPDEST PUSH1 0x40 DUP1 MLOAD PUSH1 0xC0 DUP2 ADD DUP3 MSTORE PUSH1 0x0 DUP1 DUP3 MSTORE PUSH1 0x20 DUP3 ADD DUP2 SWAP1 MSTORE DUP2 DUP4 ADD DUP2 SWAP1 MSTORE PUSH1 0x60 DUP3 ADD DUP2 SWAP1 MSTORE PUSH1 0x80 DUP3 ADD DUP2 SWAP1 MSTORE PUSH1 0xA0 DUP3 ADD DUP2 SWAP1 MSTORE DUP3 MLOAD PUSH1 0x1 DUP1 DUP3 MSTORE DUP2 DUP6 ADD SWAP1 SWAP5 MSTORE SWAP2 SWAP3 SWAP1 SWAP2 SWAP1 DUP2 PUSH1 0x20 ADD PUSH1 0x20 DUP3 MUL DUP1 CALLDATASIZE DUP4 CALLDATACOPY ADD SWAP1 POP POP SWAP1 POP PUSH1 0x0 DUP2 PUSH1 0x0 DUP2 MLOAD DUP2 LT PUSH2 0xC4D JUMPI PUSH2 0xC4D PUSH2 0x353A JUMP JUMPDEST PUSH1 0x20 MUL PUSH1 0x20 ADD ADD DUP2 DUP2 MSTORE POP POP PUSH2 0xC68 DUP8 DUP8 DUP8 DUP5 DUP6 DUP10 DUP9 PUSH2 0x1EE2 JUMP JUMPDEST PUSH1 0x1 PUSH1 0x8 SLOAD PUSH2 0xC77 SWAP2 SWAP1 PUSH2 0x34CE JUMP JUMPDEST SWAP3 POP POP POP PUSH1 0x0 DUP1 SLOAD PUSH1 0xFF NOT AND PUSH1 0x1 OR SWAP1 SSTORE SWAP5 SWAP4 POP POP POP POP JUMP JUMPDEST PUSH1 0x0 DUP2 DUP2 MSTORE PUSH1 0xD PUSH1 0x20 SWAP1 DUP2 MSTORE PUSH1 0x40 SWAP2 DUP3 SWAP1 KECCAK256 PUSH1 0x6 ADD DUP1 SLOAD DUP4 MLOAD DUP2 DUP5 MUL DUP2 ADD DUP5 ADD SWAP1 SWAP5 MSTORE DUP1 DUP5 MSTORE PUSH1 0x60 SWAP4 SWAP3 DUP4 ADD DUP3 DUP3 DUP1 ISZERO PUSH2 0xCE9 JUMPI PUSH1 0x20 MUL DUP3 ADD SWAP2 SWAP1 PUSH1 0x0 MSTORE PUSH1 0x20 PUSH1 0x0 KECCAK256 SWAP1 JUMPDEST DUP2 SLOAD DUP2 MSTORE PUSH1 0x20 ADD SWAP1 PUSH1 0x1 ADD SWAP1 DUP1 DUP4 GT PUSH2 0xCD5 JUMPI JUMPDEST POP POP POP POP POP SWAP1 POP SWAP2 SWAP1 POP JUMP JUMPDEST PUSH1 0x0 DUP2 DUP2 MSTORE PUSH1 0xD PUSH1 0x20 SWAP1 DUP2 MSTORE PUSH1 0x40 SWAP2 DUP3 SWAP1 KECCAK256 PUSH1 0x5 ADD DUP1 SLOAD DUP4 MLOAD DUP2 DUP5 MUL DUP2 ADD DUP5 ADD SWAP1 SWAP5 MSTORE DUP1 DUP5 MSTORE PUSH1 0x60 SWAP4 SWAP3 DUP4 ADD DUP3 DUP3 DUP1 ISZERO PUSH2 0xCE9 JUMPI PUSH1 0x20 MUL DUP3 ADD SWAP2 SWAP1 PUSH1 0x0 MSTORE PUSH1 0x20 PUSH1 0x0 KECCAK256 SWAP1 DUP2 SLOAD DUP2 MSTORE PUSH1 0x20 ADD SWAP1 PUSH1 0x1 ADD SWAP1 DUP1 DUP4 GT PUSH2 0xCD5 JUMPI POP POP POP POP POP SWAP1 POP SWAP2 SWAP1 POP JUMP JUMPDEST PUSH1 0x1 PUSH1 0x1 PUSH1 0xA0 SHL SUB DUP1 DUP4 AND PUSH1 0x0 SWAP1 DUP2 MSTORE PUSH1 0xA PUSH1 0x20 SWAP1 DUP2 MSTORE PUSH1 0x40 DUP1 DUP4 KECCAK256 SWAP4 DUP6 AND DUP4 MSTORE SWAP3 SWAP1 MSTORE KECCAK256 SLOAD JUMPDEST SWAP3 SWAP2 POP POP JUMP JUMPDEST PUSH1 0x0 DUP1 SLOAD PUSH1 0xFF AND PUSH2 0xDA8 JUMPI PUSH1 0x40 MLOAD PUSH3 0x461BCD PUSH1 0xE5 SHL DUP2 MSTORE PUSH1 0x4 ADD PUSH2 0x68C SWAP1 PUSH2 0x3503 JUMP JUMPDEST PUSH1 0x0 DUP1 SLOAD PUSH1 0xFF NOT AND SWAP1 SSTORE PUSH1 0x1 PUSH1 0x1 PUSH1 0xA0 SHL SUB DUP6 AND PUSH2 0xE00 JUMPI PUSH1 0x40 MLOAD PUSH3 0x461BCD PUSH1 0xE5 SHL DUP2 MSTORE PUSH1 0x20 PUSH1 0x4 DUP3 ADD MSTORE PUSH1 0x15 PUSH1 0x24 DUP3 ADD MSTORE PUSH21 0x6170706C6963616E742063616E6E6F74206265203 PUSH1 0x5C SHL PUSH1 0x44 DUP3 ADD MSTORE PUSH1 0x64 ADD PUSH2 0x68C JUMP JUMPDEST PUSH1 0x1 PUSH1 0x1 PUSH1 0xA0 SHL SUB DUP6 AND PUSH2 0xDEAD EQ DUP1 ISZERO SWAP1 PUSH2 0xE26 JUMPI POP PUSH1 0x1 PUSH1 0x1 PUSH1 0xA0 SHL SUB DUP6 AND PUSH2 0xBEEF EQ ISZERO JUMPDEST DUP1 ISZERO PUSH2 0xE3D JUMPI POP PUSH1 0x1 PUSH1 0x1 PUSH1 0xA0 SHL SUB DUP6 AND PUSH2 0xBABE EQ ISZERO JUMPDEST PUSH2 0xE59 JUMPI PUSH1 0x40 MLOAD PUSH3 0x461BCD PUSH1 0xE5 SHL DUP2 MSTORE PUSH1 0x4 ADD PUSH2 0x68C SWAP1 PUSH2 0x35AB JUMP JUMPDEST PUSH1 0x1 PUSH1 0x1 PUSH1 0xA0 SHL SUB DUP6 AND PUSH1 0x0 SWAP1 DUP2 MSTORE PUSH1 0xC PUSH1 0x20 MSTORE PUSH1 0x40 SWAP1 KECCAK256 PUSH1 0x1 ADD SLOAD PUSH2 0x100 SWAP1 DIV PUSH1 0xFF AND ISZERO PUSH2 0xE9A JUMPI PUSH1 0x40 MLOAD PUSH3 0x461BCD PUSH1 0xE5 SHL DUP2 MSTORE PUSH1 0x4 ADD PUSH2 0x68C SWAP1 PUSH2 0x35EF JUMP JUMPDEST PUSH1 0x40 DUP1 MLOAD PUSH1 0xC0 DUP2 ADD DUP3 MSTORE PUSH1 0x0 DUP1 DUP3 MSTORE PUSH1 0x20 DUP3 ADD DUP2 SWAP1 MSTORE SWAP2 DUP2 ADD DUP3 SWAP1 MSTORE PUSH1 0x60 DUP2 ADD DUP3 SWAP1 MSTORE PUSH1 0x80 DUP2 ADD DUP3 SWAP1 MSTORE PUSH1 0xA0 DUP2 ADD DUP3 SWAP1 MSTORE SWAP1 PUSH2 0xEDC SWAP1 DUP8 SWAP1 DUP1 DUP9 DUP9 DUP9 DUP8 PUSH2 0x1EE2 JUMP JUMPDEST PUSH1 0x1 PUSH1 0x8 SLOAD PUSH2 0xEEB SWAP2 SWAP1 PUSH2 0x34CE JUMP JUMPDEST SWAP2 POP POP PUSH1 0x0 DUP1 SLOAD PUSH1 0xFF NOT AND PUSH1 0x1 OR SWAP1 SSTORE SWAP5 SWAP4 POP POP POP POP JUMP JUMPDEST PUSH1 0x0 SLOAD PUSH1 0xFF AND PUSH2 0xF25 JUMPI PUSH1 0x40 MLOAD PUSH3 0x461BCD PUSH1 0xE5 SHL DUP2 MSTORE PUSH1 0x4 ADD PUSH2 0x68C SWAP1 PUSH2 0x3503 JUMP JUMPDEST PUSH1 0x0 DUP1 SLOAD PUSH1 0xFF NOT AND SWAP1 SSTORE PUSH2 0xF38 DUP2 PUSH2 0x245F JUMP JUMPDEST PUSH1 0x0 PUSH2 0xF43 DUP3 PUSH2 0x2598 JUMP JUMPDEST PUSH1 0x0 DUP4 DUP2 MSTORE PUSH1 0xD PUSH1 0x20 MSTORE PUSH1 0x40 SWAP1 KECCAK256 PUSH1 0xB DUP2 ADD DUP1 SLOAD PUSH6 0xFF0000000000 NOT AND PUSH6 0x10000000000 OR SWAP1 DUP2 SWAP1 SSTORE SWAP2 SWAP3 POP SWAP1 PUSH5 0x100000000 SWAP1 DIV PUSH1 0xFF AND ISZERO ISZERO PUSH1 0x1 EQ PUSH2 0x1063 JUMPI DUP1 PUSH1 0x5 ADD PUSH1 0x0 DUP2 SLOAD DUP2 LT PUSH2 0xF9A JUMPI PUSH2 0xF9A PUSH2 0x353A JUMP JUMPDEST SWAP1 PUSH1 0x0 MSTORE PUSH1 0x20 PUSH1 0x0 KECCAK256 ADD SLOAD PUSH1 0x0 SUB PUSH2 0xFFE JUMPI PUSH8 0xDE0B6B3A7640000 DUP2 PUSH1 0x3 ADD SLOAD PUSH1 0x9 SLOAD PUSH2 0xFC7 SWAP2 SWAP1 PUSH2 0x3598 JUMP JUMPDEST GT ISZERO PUSH2 0xFD2 JUMPI PUSH1 0x0 SWAP2 POP JUMPDEST DUP2 PUSH1 0xB DUP3 ADD PUSH1 0x2 JUMPDEST PUSH1 0x20 SWAP2 DUP3 DUP3 DIV ADD SWAP2 SWAP1 MOD PUSH2 0x100 EXP DUP2 SLOAD DUP2 PUSH1 0xFF MUL NOT AND SWAP1 DUP4 ISZERO ISZERO MUL OR SWAP1 SSTORE POP PUSH2 0x107B JUMP JUMPDEST PUSH1 0x7 SLOAD PUSH1 0x1 PUSH1 0x1 PUSH1 0xA0 SHL SUB AND PUSH1 0x0 SWAP1 DUP2 MSTORE PUSH1 0x0 DUP1 MLOAD PUSH1 0x20 PUSH2 0x39B4 DUP4 CODECOPY DUP2 MLOAD SWAP2 MSTORE PUSH1 0x20 MSTORE PUSH1 0x40 SWAP1 KECCAK256 SLOAD PUSH1 0x8 DUP3 ADD SLOAD PUSH1 0x5 DUP4 ADD DUP1 SLOAD SWAP1 SWAP2 SWAP1 DUP2 LT PUSH2 0x1042 JUMPI PUSH2 0x1042 PUSH2 0x353A JUMP JUMPDEST SWAP1 PUSH1 0x0 MSTORE PUSH1 0x20 PUSH1 0x0 KECCAK256 ADD SLOAD GT ISZERO PUSH2 0xFD2 JUMPI PUSH1 0x0 SWAP2 POP DUP2 PUSH1 0xB DUP3 ADD PUSH1 0x2 PUSH2 0xFDA JUMP JUMPDEST PUSH1 0xB DUP2 ADD DUP1 SLOAD PUSH3 0xFF0000 NOT AND PUSH3 0x10000 DUP5 ISZERO ISZERO MUL OR SWAP1 SSTORE JUMPDEST PUSH1 0x1 DUP2 ADD SLOAD PUSH1 0x9 DUP3 ADD SLOAD PUSH1 0xA DUP4 ADD SLOAD PUSH1 0x8 DUP5 ADD SLOAD PUSH1 0x40 MLOAD DUP8 SWAP5 PUSH1 0x0 DUP1 MLOAD PUSH1 0x20 PUSH2 0x3994 DUP4 CODECOPY DUP2 MLOAD SWAP2 MSTORE SWAP5 PUSH2 0x10CB SWAP5 PUSH1 0x1 PUSH1 0x1 PUSH1 0xA0 SHL SUB SWAP1 SWAP3 AND SWAP4 PUSH1 0xC DUP10 ADD SWAP4 PUSH1 0x5 DUP11 ADD SWAP4 PUSH1 0xB DUP12 ADD SWAP4 SWAP3 SWAP1 SWAP2 PUSH2 0x36BB JUMP JUMPDEST PUSH1 0x40 MLOAD DUP1 SWAP2 SUB SWAP1 LOG2 POP POP PUSH1 0x0 DUP1 SLOAD PUSH1 0xFF NOT AND PUSH1 0x1 OR SWAP1 SSTORE POP JUMP JUMPDEST PUSH1 0x1 PUSH1 0x1 PUSH1 0xA0 SHL SUB DUP4 AND PUSH1 0x0 SWAP1 DUP2 MSTORE PUSH1 0xC PUSH1 0x20 MSTORE PUSH1 0x40 DUP2 KECCAK256 PUSH1 0x1 ADD SLOAD PUSH1 0xFF AND PUSH2 0x1149 JUMPI PUSH1 0x40 MLOAD PUSH3 0x461BCD PUSH1 0xE5 SHL DUP2 MSTORE PUSH1 0x20 PUSH1 0x4 DUP3 ADD MSTORE PUSH1 0x16 PUSH1 0x24 DUP3 ADD MSTORE PUSH22 0x1B595B58995C88191BD95CDB881B9BDD08195E1A5CDD PUSH1 0x52 SHL PUSH1 0x44 DUP3 ADD MSTORE PUSH1 0x64 ADD PUSH2 0x68C JUMP JUMPDEST POP PUSH1 0x0 DUP3 DUP2 MSTORE PUSH1 0xD PUSH1 0x20 SWAP1 DUP2 MSTORE PUSH1 0x40 DUP1 DUP4 KECCAK256 DUP5 DUP5 MSTORE PUSH1 0xE ADD DUP3 MSTORE DUP1 DUP4 KECCAK256 PUSH1 0x1 PUSH1 0x1 PUSH1 0xA0 SHL SUB DUP8 AND DUP5 MSTORE SWAP1 SWAP2 MSTORE SWAP1 KECCAK256 SLOAD PUSH1 0xFF AND JUMPDEST SWAP4 SWAP3 POP POP POP JUMP JUMPDEST PUSH1 0x0 PUSH1 0x2 SLOAD DUP3 PUSH2 0x1193 SWAP2 SWAP1 PUSH2 0x3598 JUMP JUMPDEST PUSH2 0x119B PUSH2 0x647 JUMP JUMPDEST LT ISZERO SWAP3 SWAP2 POP POP JUMP JUMPDEST PUSH1 0x0 SLOAD PUSH1 0xFF AND PUSH2 0x11C5 JUMPI PUSH1 0x40 MLOAD PUSH3 0x461BCD PUSH1 0xE5 SHL DUP2 MSTORE PUSH1 0x4 ADD PUSH2 0x68C SWAP1 PUSH2 0x3503 JUMP JUMPDEST PUSH1 0x0 DUP1 SLOAD PUSH1 0xFF NOT AND DUP2 SSTORE CALLER DUP2 MSTORE PUSH1 0xC PUSH1 0x20 MSTORE PUSH1 0x40 SWAP1 KECCAK256 SLOAD PUSH2 0x11F8 JUMPI PUSH1 0x40 MLOAD PUSH3 0x461BCD PUSH1 0xE5 SHL DUP2 MSTORE PUSH1 0x4 ADD PUSH2 0x68C SWAP1 PUSH2 0x3550 JUMP JUMPDEST PUSH1 0x7 SLOAD PUSH1 0x4 DUP1 SLOAD PUSH1 0x40 MLOAD PUSH4 0x23B872DD PUSH1 0xE0 SHL DUP2 MSTORE CALLER SWAP3 DUP2 ADD SWAP3 SWAP1 SWAP3 MSTORE ADDRESS PUSH1 0x24 DUP4 ADD MSTORE PUSH1 0x44 DUP3 ADD MSTORE PUSH1 0x1 PUSH1 0x1 PUSH1 0xA0 SHL SUB SWAP1 SWAP2 AND SWAP1 PUSH4 0x23B872DD SWAP1 PUSH1 0x64 ADD PUSH1 0x20 PUSH1 0x40 MLOAD DUP1 DUP4 SUB DUP2 PUSH1 0x0 DUP8 GAS CALL ISZERO DUP1 ISZERO PUSH2 0x1253 JUMPI RETURNDATASIZE PUSH1 0x0 DUP1 RETURNDATACOPY RETURNDATASIZE PUSH1 0x0 REVERT JUMPDEST POP POP POP POP PUSH1 0x40 MLOAD RETURNDATASIZE PUSH1 0x1F NOT PUSH1 0x1F DUP3 ADD AND DUP3 ADD DUP1 PUSH1 0x40 MSTORE POP DUP2 ADD SWAP1 PUSH2 0x1277 SWAP2 SWAP1 PUSH2 0x3576 JUMP JUMPDEST PUSH2 0x12D2 JUMPI PUSH1 0x40 MLOAD PUSH3 0x461BCD PUSH1 0xE5 SHL DUP2 MSTORE PUSH1 0x20 PUSH1 0x4 DUP3 ADD MSTORE PUSH1 0x26 PUSH1 0x24 DUP3 ADD MSTORE PUSH32 0x70726F706F73616C206465706F73697420746F6B656E207472616E7366657220 PUSH1 0x44 DUP3 ADD MSTORE PUSH6 0x19985A5B1959 PUSH1 0xD2 SHL PUSH1 0x64 DUP3 ADD MSTORE PUSH1 0x84 ADD PUSH2 0x68C JUMP JUMPDEST PUSH2 0x12E0 PUSH2 0xBEEF PUSH1 0x4 SLOAD PUSH2 0x23CE JUMP JUMPDEST PUSH1 0x0 DUP2 DUP2 MSTORE PUSH1 0xD PUSH1 0x20 MSTORE PUSH1 0x40 SWAP1 KECCAK256 PUSH1 0x1 DUP2 ADD SLOAD PUSH1 0x1 PUSH1 0x1 PUSH1 0xA0 SHL SUB AND PUSH2 0x1348 JUMPI PUSH1 0x40 MLOAD PUSH3 0x461BCD PUSH1 0xE5 SHL DUP2 MSTORE PUSH1 0x20 PUSH1 0x4 DUP3 ADD DUP2 SWAP1 MSTORE PUSH1 0x24 DUP3 ADD MSTORE PUSH32 0x70726F706F73616C206D7573742068617665206265656E2070726F706F736564 PUSH1 0x44 DUP3 ADD MSTORE PUSH1 0x64 ADD PUSH2 0x68C JUMP JUMPDEST PUSH1 0xB DUP2 ADD SLOAD PUSH1 0xFF AND ISZERO PUSH2 0x136D JUMPI PUSH1 0x40 MLOAD PUSH3 0x461BCD PUSH1 0xE5 SHL DUP2 MSTORE PUSH1 0x4 ADD PUSH2 0x68C SWAP1 PUSH2 0x3792 JUMP JUMPDEST PUSH1 0xB DUP2 ADD SLOAD PUSH4 0x1000000 SWAP1 DIV PUSH1 0xFF AND ISZERO PUSH2 0x13C9 JUMPI PUSH1 0x40 MLOAD PUSH3 0x461BCD PUSH1 0xE5 SHL DUP2 MSTORE PUSH1 0x20 PUSH1 0x4 DUP3 ADD MSTORE PUSH1 0x1B PUSH1 0x24 DUP3 ADD MSTORE PUSH32 0x70726F706F73616C20686173206265656E2063616E63656C6C65640000000000 PUSH1 0x44 DUP3 ADD MSTORE PUSH1 0x64 ADD PUSH2 0x68C JUMP JUMPDEST PUSH1 0xB DUP2 ADD SLOAD PUSH2 0x100 SWAP1 DIV PUSH1 0xFF AND ISZERO PUSH2 0x1423 JUMPI PUSH1 0x40 MLOAD PUSH3 0x461BCD PUSH1 0xE5 SHL DUP2 MSTORE PUSH1 0x20 PUSH1 0x4 DUP3 ADD MSTORE PUSH1 0x1B PUSH1 0x24 DUP3 ADD MSTORE PUSH32 0x70726F706F73616C20686173206265656E2070726F6365737365640000000000 PUSH1 0x44 DUP3 ADD MSTORE PUSH1 0x64 ADD PUSH2 0x68C JUMP JUMPDEST DUP1 SLOAD PUSH1 0x1 PUSH1 0x1 PUSH1 0xA0 SHL SUB AND PUSH1 0x0 SWAP1 DUP2 MSTORE PUSH1 0xC PUSH1 0x20 MSTORE PUSH1 0x40 SWAP1 KECCAK256 PUSH1 0x1 ADD SLOAD PUSH2 0x100 SWAP1 DIV PUSH1 0xFF AND ISZERO PUSH2 0x1465 JUMPI PUSH1 0x40 MLOAD PUSH3 0x461BCD PUSH1 0xE5 SHL DUP2 MSTORE PUSH1 0x4 ADD PUSH2 0x68C SWAP1 PUSH2 0x35EF JUMP JUMPDEST PUSH1 0xB DUP2 ADD SLOAD PUSH5 0x100000000 SWAP1 DIV PUSH1 0xFF AND ISZERO PUSH2 0x1509 JUMPI DUP1 SLOAD PUSH1 0x1 PUSH1 0x1 PUSH1 0xA0 SHL SUB AND PUSH1 0x0 SWAP1 DUP2 MSTORE PUSH1 0xB PUSH1 0x20 MSTORE PUSH1 0x40 SWAP1 KECCAK256 SLOAD PUSH1 0xFF AND ISZERO PUSH2 0x14E4 JUMPI PUSH1 0x40 MLOAD PUSH3 0x461BCD PUSH1 0xE5 SHL DUP2 MSTORE PUSH1 0x20 PUSH1 0x4 DUP3 ADD MSTORE PUSH1 0x18 PUSH1 0x24 DUP3 ADD MSTORE PUSH32 0x616C72656164792070726F706F73656420746F206B69636B0000000000000000 PUSH1 0x44 DUP3 ADD MSTORE PUSH1 0x64 ADD PUSH2 0x68C JUMP JUMPDEST DUP1 SLOAD PUSH1 0x1 PUSH1 0x1 PUSH1 0xA0 SHL SUB AND PUSH1 0x0 SWAP1 DUP2 MSTORE PUSH1 0xB PUSH1 0x20 MSTORE PUSH1 0x40 SWAP1 KECCAK256 DUP1 SLOAD PUSH1 0xFF NOT AND PUSH1 0x1 OR SWAP1 SSTORE JUMPDEST DUP1 PUSH1 0x8 ADD SLOAD PUSH1 0x0 SUB PUSH2 0x15E4 JUMPI PUSH2 0x151D PUSH2 0x647 JUMP JUMPDEST PUSH2 0x1528 SWAP1 PUSH1 0x1 PUSH2 0x3598 JUMP JUMPDEST DUP2 PUSH1 0x6 ADD PUSH1 0x0 DUP2 SLOAD DUP2 LT PUSH2 0x153E JUMPI PUSH2 0x153E PUSH2 0x353A JUMP JUMPDEST PUSH1 0x0 SWAP2 DUP3 MSTORE PUSH1 0x20 SWAP1 SWAP2 KECCAK256 ADD SSTORE PUSH1 0x1 JUMPDEST PUSH1 0x6 DUP3 ADD SLOAD DUP2 LT ISZERO PUSH2 0x15E2 JUMPI DUP2 PUSH1 0x6 ADD DUP2 DUP2 SLOAD DUP2 LT PUSH2 0x156E JUMPI PUSH2 0x156E PUSH2 0x353A JUMP JUMPDEST SWAP1 PUSH1 0x0 MSTORE PUSH1 0x20 PUSH1 0x0 KECCAK256 ADD SLOAD DUP3 PUSH1 0x6 ADD PUSH1 0x1 DUP4 PUSH2 0x158A SWAP2 SWAP1 PUSH2 0x34CE JUMP JUMPDEST DUP2 SLOAD DUP2 LT PUSH2 0x159A JUMPI PUSH2 0x159A PUSH2 0x353A JUMP JUMPDEST SWAP1 PUSH1 0x0 MSTORE PUSH1 0x20 PUSH1 0x0 KECCAK256 ADD SLOAD PUSH2 0x15AF SWAP2 SWAP1 PUSH2 0x3598 JUMP JUMPDEST DUP3 PUSH1 0x6 ADD DUP3 DUP2 SLOAD DUP2 LT PUSH2 0x15C4 JUMPI PUSH2 0x15C4 PUSH2 0x353A JUMP JUMPDEST PUSH1 0x0 SWAP2 DUP3 MSTORE PUSH1 0x20 SWAP1 SWAP2 KECCAK256 ADD SSTORE DUP1 PUSH2 0x15DA DUP2 PUSH2 0x37D5 JUMP JUMPDEST SWAP2 POP POP PUSH2 0x154D JUMP JUMPDEST POP JUMPDEST DUP1 PUSH1 0x6 ADD PUSH1 0x0 DUP2 SLOAD DUP2 LT PUSH2 0x15FA JUMPI PUSH2 0x15FA PUSH2 0x353A JUMP JUMPDEST PUSH1 0x0 SWAP2 DUP3 MSTORE PUSH1 0x20 SWAP1 SWAP2 KECCAK256 ADD SLOAD PUSH1 0x7 DUP3 ADD SSTORE PUSH1 0x2 DUP2 ADD DUP1 SLOAD PUSH1 0x1 PUSH1 0x1 PUSH1 0xA0 SHL SUB NOT AND CALLER OR SWAP1 SSTORE PUSH1 0xB DUP2 ADD DUP1 SLOAD PUSH1 0xFF NOT AND PUSH1 0x1 SWAP1 DUP2 OR DUP3 SSTORE DUP3 ADD SLOAD PUSH1 0x9 DUP4 ADD SLOAD PUSH1 0xA DUP5 ADD SLOAD PUSH1 0x8 DUP6 ADD SLOAD PUSH1 0x40 MLOAD DUP8 SWAP6 PUSH1 0x0 DUP1 MLOAD PUSH1 0x20 PUSH2 0x3994 DUP4 CODECOPY DUP2 MLOAD SWAP2 MSTORE SWAP6 PUSH2 0x1676 SWAP6 PUSH1 0x1 PUSH1 0x1 PUSH1 0xA0 SHL SUB SWAP1 SWAP2 AND SWAP5 PUSH1 0xC DUP11 ADD SWAP5 PUSH1 0x5 DUP12 ADD SWAP5 PUSH2 0x36BB JUMP JUMPDEST PUSH1 0x40 MLOAD DUP1 SWAP2 SUB SWAP1 LOG2 POP POP PUSH1 0x0 DUP1 SLOAD PUSH1 0xFF NOT AND PUSH1 0x1 OR SWAP1 SSTORE JUMP JUMPDEST PUSH1 0x0 SLOAD PUSH1 0xFF AND PUSH2 0x16B1 JUMPI PUSH1 0x40 MLOAD PUSH3 0x461BCD PUSH1 0xE5 SHL DUP2 MSTORE PUSH1 0x4 ADD PUSH2 0x68C SWAP1 PUSH2 0x3503 JUMP JUMPDEST PUSH1 0x0 DUP1 SLOAD PUSH1 0xFF NOT AND DUP2 SSTORE CALLER DUP2 MSTORE PUSH1 0xC PUSH1 0x20 MSTORE PUSH1 0x40 SWAP1 KECCAK256 SLOAD PUSH2 0x16E4 JUMPI PUSH1 0x40 MLOAD PUSH3 0x461BCD PUSH1 0xE5 SHL DUP2 MSTORE PUSH1 0x4 ADD PUSH2 0x68C SWAP1 PUSH2 0x3550 JUMP JUMPDEST CALLER PUSH1 0x0 SWAP1 DUP2 MSTORE PUSH1 0xC PUSH1 0x20 MSTORE PUSH1 0x40 SWAP1 KECCAK256 PUSH1 0x8 SLOAD DUP4 LT PUSH2 0x1714 JUMPI PUSH1 0x40 MLOAD PUSH3 0x461BCD PUSH1 0xE5 SHL DUP2 MSTORE PUSH1 0x4 ADD PUSH2 0x68C SWAP1 PUSH2 0x37EE JUMP JUMPDEST PUSH1 0x0 DUP4 DUP2 MSTORE PUSH1 0xD PUSH1 0x20 MSTORE PUSH1 0x40 SWAP1 KECCAK256 PUSH1 0xB DUP2 ADD SLOAD PUSH1 0xFF AND ISZERO ISZERO PUSH1 0x1 EQ PUSH2 0x177B JUMPI PUSH1 0x40 MLOAD PUSH3 0x461BCD PUSH1 0xE5 SHL DUP2 MSTORE PUSH1 0x20 PUSH1 0x4 DUP3 ADD MSTORE PUSH1 0x19 PUSH1 0x24 DUP3 ADD MSTORE PUSH32 0x70726F706F73616C20646F6573206E6F742073706F6E736F7200000000000000 PUSH1 0x44 DUP3 ADD MSTORE PUSH1 0x64 ADD PUSH2 0x68C JUMP JUMPDEST PUSH1 0x3 DUP4 PUSH1 0xFF AND LT PUSH2 0x17C4 JUMPI PUSH1 0x40 MLOAD PUSH3 0x461BCD PUSH1 0xE5 SHL DUP2 MSTORE PUSH1 0x20 PUSH1 0x4 DUP3 ADD MSTORE PUSH1 0x13 PUSH1 0x24 DUP3 ADD MSTORE PUSH19 0x6D757374206265206C657373207468616E2033 PUSH1 0x68 SHL PUSH1 0x44 DUP3 ADD MSTORE PUSH1 0x64 ADD PUSH2 0x68C JUMP JUMPDEST PUSH1 0x0 DUP4 PUSH1 0xFF AND PUSH1 0x2 DUP2 GT ISZERO PUSH2 0x17DB JUMPI PUSH2 0x17DB PUSH2 0x33DD JUMP JUMPDEST SWAP1 POP DUP2 PUSH1 0x7 ADD SLOAD PUSH2 0x17EA PUSH2 0x647 JUMP JUMPDEST LT ISZERO PUSH2 0x1838 JUMPI PUSH1 0x40 MLOAD PUSH3 0x461BCD PUSH1 0xE5 SHL DUP2 MSTORE PUSH1 0x20 PUSH1 0x4 DUP3 ADD MSTORE PUSH1 0x1D PUSH1 0x24 DUP3 ADD MSTORE PUSH32 0x766F74696E6720706572696F6420686173206E6F742073746172746564000000 PUSH1 0x44 DUP3 ADD MSTORE PUSH1 0x64 ADD PUSH2 0x68C JUMP JUMPDEST PUSH2 0x1845 DUP3 PUSH1 0x7 ADD SLOAD PUSH2 0x1183 JUMP JUMPDEST ISZERO PUSH2 0x189D JUMPI PUSH1 0x40 MLOAD PUSH3 0x461BCD PUSH1 0xE5 SHL DUP2 MSTORE PUSH1 0x20 PUSH1 0x4 DUP3 ADD MSTORE PUSH1 0x22 PUSH1 0x24 DUP3 ADD MSTORE PUSH32 0x70726F706F73616C20766F74696E6720706572696F6420686173206578706972 PUSH1 0x44 DUP3 ADD MSTORE PUSH2 0x1959 PUSH1 0xF2 SHL PUSH1 0x64 DUP3 ADD MSTORE PUSH1 0x84 ADD PUSH2 0x68C JUMP JUMPDEST PUSH1 0x8 DUP3 ADD SLOAD PUSH1 0x0 SWAP1 DUP2 MSTORE PUSH1 0xE DUP4 ADD PUSH1 0x20 SWAP1 DUP2 MSTORE PUSH1 0x40 DUP1 DUP4 KECCAK256 CALLER DUP5 MSTORE SWAP1 SWAP2 MSTORE DUP2 KECCAK256 SLOAD PUSH1 0xFF AND PUSH1 0x2 DUP2 GT ISZERO PUSH2 0x18D2 JUMPI PUSH2 0x18D2 PUSH2 0x33DD JUMP JUMPDEST EQ PUSH2 0x191F JUMPI PUSH1 0x40 MLOAD PUSH3 0x461BCD PUSH1 0xE5 SHL DUP2 MSTORE PUSH1 0x20 PUSH1 0x4 DUP3 ADD MSTORE PUSH1 0x18 PUSH1 0x24 DUP3 ADD MSTORE PUSH32 0x6D656D6265722068617320616C726561647920766F7465640000000000000000 PUSH1 0x44 DUP3 ADD MSTORE PUSH1 0x64 ADD PUSH2 0x68C JUMP JUMPDEST PUSH1 0x1 DUP2 PUSH1 0x2 DUP2 GT ISZERO PUSH2 0x1933 JUMPI PUSH2 0x1933 PUSH2 0x33DD JUMP JUMPDEST EQ DUP1 PUSH2 0x1950 JUMPI POP PUSH1 0x2 DUP2 PUSH1 0x2 DUP2 GT ISZERO PUSH2 0x194E JUMPI PUSH2 0x194E PUSH2 0x33DD JUMP JUMPDEST EQ JUMPDEST PUSH2 0x199C JUMPI PUSH1 0x40 MLOAD PUSH3 0x461BCD PUSH1 0xE5 SHL DUP2 MSTORE PUSH1 0x20 PUSH1 0x4 DUP3 ADD MSTORE PUSH1 0x1D PUSH1 0x24 DUP3 ADD MSTORE PUSH32 0x766F7465206D7573742062652065697468657220596573206F72204E6F000000 PUSH1 0x44 DUP3 ADD MSTORE PUSH1 0x64 ADD PUSH2 0x68C JUMP JUMPDEST PUSH1 0x8 DUP3 ADD SLOAD PUSH1 0x0 SWAP1 DUP2 MSTORE PUSH1 0xE DUP4 ADD PUSH1 0x20 SWAP1 DUP2 MSTORE PUSH1 0x40 DUP1 DUP4 KECCAK256 CALLER DUP5 MSTORE SWAP1 SWAP2 MSTORE SWAP1 KECCAK256 DUP1 SLOAD DUP3 SWAP2 SWAP1 PUSH1 0xFF NOT AND PUSH1 0x1 DUP4 PUSH1 0x2 DUP2 GT ISZERO PUSH2 0x19D9 JUMPI PUSH2 0x19D9 PUSH2 0x33DD JUMP JUMPDEST MUL OR SWAP1 SSTORE POP PUSH1 0x1 DUP2 PUSH1 0x2 DUP2 GT ISZERO PUSH2 0x19F2 JUMPI PUSH2 0x19F2 PUSH2 0x33DD JUMP JUMPDEST SUB PUSH2 0x1A2C JUMPI DUP3 SLOAD PUSH1 0x9 DUP4 ADD SLOAD PUSH2 0x1A08 SWAP2 SWAP1 PUSH2 0x3598 JUMP JUMPDEST DUP3 PUSH1 0x9 ADD DUP2 SWAP1 SSTORE POP DUP2 PUSH1 0xD ADD SLOAD PUSH1 0x9 SLOAD GT ISZERO PUSH2 0x1A27 JUMPI PUSH1 0x9 SLOAD PUSH1 0xD DUP4 ADD SSTORE JUMPDEST PUSH2 0x1A5C JUMP JUMPDEST PUSH1 0x2 DUP2 PUSH1 0x2 DUP2 GT ISZERO PUSH2 0x1A40 JUMPI PUSH2 0x1A40 PUSH2 0x33DD JUMP JUMPDEST SUB PUSH2 0x1A5C JUMPI DUP3 SLOAD PUSH1 0xA DUP4 ADD SLOAD PUSH2 0x1A56 SWAP2 SWAP1 PUSH2 0x3598 JUMP JUMPDEST PUSH1 0xA DUP4 ADD SSTORE JUMPDEST PUSH1 0x1 DUP3 ADD SLOAD PUSH1 0x9 DUP4 ADD SLOAD PUSH1 0xA DUP5 ADD SLOAD PUSH1 0x8 DUP6 ADD SLOAD PUSH1 0x40 MLOAD DUP10 SWAP5 PUSH1 0x0 DUP1 MLOAD PUSH1 0x20 PUSH2 0x3994 DUP4 CODECOPY DUP2 MLOAD SWAP2 MSTORE SWAP5 PUSH2 0x1AAC SWAP5 PUSH1 0x1 PUSH1 0x1 PUSH1 0xA0 SHL SUB SWAP1 SWAP3 AND SWAP4 PUSH1 0xC DUP11 ADD SWAP4 PUSH1 0x5 DUP12 ADD SWAP4 PUSH1 0xB DUP13 ADD SWAP4 SWAP3 SWAP1 SWAP2 PUSH2 0x36BB JUMP JUMPDEST PUSH1 0x40 MLOAD DUP1 SWAP2 SUB SWAP1 LOG2 POP POP PUSH1 0x0 DUP1 SLOAD PUSH1 0xFF NOT AND PUSH1 0x1 OR SWAP1 SSTORE POP POP POP JUMP JUMPDEST PUSH2 0x1AD0 PUSH2 0x2E83 JUMP JUMPDEST PUSH1 0x0 DUP3 DUP2 MSTORE PUSH1 0xD PUSH1 0x20 MSTORE PUSH1 0x40 DUP1 DUP3 KECCAK256 DUP2 MLOAD PUSH1 0xC0 DUP2 ADD SWAP3 DUP4 SWAP1 MSTORE SWAP3 PUSH1 0xB SWAP1 SWAP2 ADD SWAP2 PUSH1 0x6 SWAP2 DUP4 SWAP1 DUP6 JUMPDEST DUP3 SLOAD PUSH2 0x100 DUP4 SWAP1 EXP SWAP1 DIV PUSH1 0xFF AND ISZERO ISZERO DUP2 MSTORE PUSH1 0x20 PUSH1 0x1 SWAP3 DUP4 ADD DUP2 DUP2 DIV SWAP5 DUP6 ADD SWAP5 SWAP1 SWAP4 SUB SWAP1 SWAP3 MUL SWAP2 ADD DUP1 DUP5 GT PUSH2 0x1AF7 JUMPI POP SWAP5 SWAP8 SWAP7 POP POP POP POP POP POP POP JUMP JUMPDEST PUSH1 0x0 SLOAD PUSH1 0xFF AND PUSH2 0x1B54 JUMPI PUSH1 0x40 MLOAD PUSH3 0x461BCD PUSH1 0xE5 SHL DUP2 MSTORE PUSH1 0x4 ADD PUSH2 0x68C SWAP1 PUSH2 0x3503 JUMP JUMPDEST PUSH1 0x0 DUP1 SLOAD PUSH1 0xFF NOT AND SWAP1 SSTORE PUSH2 0x1B67 DUP2 PUSH2 0x260D JUMP JUMPDEST POP PUSH1 0x0 DUP1 SLOAD PUSH1 0xFF NOT AND PUSH1 0x1 OR SWAP1 SSTORE JUMP JUMPDEST PUSH1 0x0 SLOAD PUSH1 0xFF AND PUSH2 0x1B99 JUMPI PUSH1 0x40 MLOAD PUSH3 0x461BCD PUSH1 0xE5 SHL DUP2 MSTORE PUSH1 0x4 ADD PUSH2 0x68C SWAP1 PUSH2 0x3503 JUMP JUMPDEST PUSH1 0x0 DUP1 SLOAD PUSH1 0xFF NOT AND DUP2 SSTORE PUSH1 0x1 PUSH1 0x1 PUSH1 0xA0 SHL SUB DUP3 AND DUP2 MSTORE PUSH1 0xC PUSH1 0x20 MSTORE PUSH1 0x40 DUP2 KECCAK256 PUSH1 0x1 DUP2 ADD SLOAD SWAP1 SWAP2 PUSH2 0x100 SWAP1 SWAP2 DIV PUSH1 0xFF AND ISZERO ISZERO SWAP1 SUB PUSH2 0x1C11 JUMPI PUSH1 0x40 MLOAD PUSH3 0x461BCD PUSH1 0xE5 SHL DUP2 MSTORE PUSH1 0x20 PUSH1 0x4 DUP3 ADD MSTORE PUSH1 0x16 PUSH1 0x24 DUP3 ADD MSTORE PUSH22 0x1B595B58995C881B5D5CDD081899481A5B881A985A5B PUSH1 0x52 SHL PUSH1 0x44 DUP3 ADD MSTORE PUSH1 0x64 ADD PUSH2 0x68C JUMP JUMPDEST DUP1 SLOAD PUSH2 0x1C5F JUMPI PUSH1 0x40 MLOAD PUSH3 0x461BCD PUSH1 0xE5 SHL DUP2 MSTORE PUSH1 0x20 PUSH1 0x4 DUP3 ADD MSTORE PUSH1 0x1B PUSH1 0x24 DUP3 ADD MSTORE PUSH32 0x6D656D626572206D757374206861766520736F6D652073686172650000000000 PUSH1 0x44 DUP3 ADD MSTORE PUSH1 0x64 ADD PUSH2 0x68C JUMP JUMPDEST PUSH2 0x8AA DUP3 DUP3 PUSH1 0x0 ADD SLOAD PUSH1 0x0 PUSH1 0x1 PUSH2 0x200F JUMP JUMPDEST PUSH1 0x0 SLOAD PUSH1 0xFF AND PUSH2 0x1C93 JUMPI PUSH1 0x40 MLOAD PUSH3 0x461BCD PUSH1 0xE5 SHL DUP2 MSTORE PUSH1 0x4 ADD PUSH2 0x68C SWAP1 PUSH2 0x3503 JUMP JUMPDEST PUSH1 0x0 DUP1 SLOAD PUSH1 0xFF NOT AND DUP2 SSTORE DUP2 DUP2 MSTORE PUSH1 0xD PUSH1 0x20 MSTORE PUSH1 0x40 SWAP1 KECCAK256 PUSH1 0xB DUP2 ADD SLOAD PUSH1 0xFF AND ISZERO PUSH2 0x1CCE JUMPI PUSH1 0x40 MLOAD PUSH3 0x461BCD PUSH1 0xE5 SHL DUP2 MSTORE PUSH1 0x4 ADD PUSH2 0x68C SWAP1 PUSH2 0x3792 JUMP JUMPDEST PUSH1 0xB DUP2 ADD SLOAD PUSH4 0x1000000 SWAP1 DIV PUSH1 0xFF AND ISZERO PUSH2 0x1D36 JUMPI PUSH1 0x40 MLOAD PUSH3 0x461BCD PUSH1 0xE5 SHL DUP2 MSTORE PUSH1 0x20 PUSH1 0x4 DUP3 ADD MSTORE PUSH1 0x23 PUSH1 0x24 DUP3 ADD MSTORE PUSH32 0x70726F706F73616C2068617320616C7265616479206265656E2063616E63656C PUSH1 0x44 DUP3 ADD MSTORE PUSH3 0x1B1959 PUSH1 0xEA SHL PUSH1 0x64 DUP3 ADD MSTORE PUSH1 0x84 ADD PUSH2 0x68C JUMP JUMPDEST PUSH1 0x1 DUP2 ADD SLOAD PUSH1 0x1 PUSH1 0x1 PUSH1 0xA0 SHL SUB AND CALLER EQ PUSH2 0x1D92 JUMPI PUSH1 0x40 MLOAD PUSH3 0x461BCD PUSH1 0xE5 SHL DUP2 MSTORE PUSH1 0x20 PUSH1 0x4 DUP3 ADD MSTORE PUSH1 0x1E PUSH1 0x24 DUP3 ADD MSTORE PUSH32 0x736F6C656C79207468652070726F706F7365722063616E2063616E63656C0000 PUSH1 0x44 DUP3 ADD MSTORE PUSH1 0x64 ADD PUSH2 0x68C JUMP JUMPDEST PUSH1 0xB DUP2 ADD DUP1 SLOAD PUSH4 0xFF000000 NOT AND PUSH4 0x1000000 OR DUP2 SSTORE PUSH1 0x1 DUP3 ADD SLOAD PUSH1 0x9 DUP4 ADD SLOAD PUSH1 0xA DUP5 ADD SLOAD PUSH1 0x8 DUP6 ADD SLOAD PUSH1 0x40 MLOAD DUP8 SWAP6 PUSH1 0x0 DUP1 MLOAD PUSH1 0x20 PUSH2 0x3994 DUP4 CODECOPY DUP2 MLOAD SWAP2 MSTORE SWAP6 PUSH2 0x1DEF SWAP6 PUSH1 0x1 PUSH1 0x1 PUSH1 0xA0 SHL SUB SWAP1 SWAP2 AND SWAP5 PUSH1 0xC DUP11 ADD SWAP5 PUSH1 0x5 DUP12 ADD SWAP5 PUSH2 0x36BB JUMP JUMPDEST PUSH1 0x40 MLOAD DUP1 SWAP2 SUB SWAP1 LOG2 PUSH1 0x1 DUP2 ADD SLOAD PUSH1 0x4 DUP3 ADD SLOAD PUSH2 0x8AA SWAP2 PUSH2 0xBEEF SWAP2 PUSH1 0x1 PUSH1 0x1 PUSH1 0xA0 SHL SUB SWAP1 SWAP2 AND SWAP1 PUSH2 0x2736 JUMP JUMPDEST PUSH1 0x0 SLOAD PUSH1 0xFF AND PUSH2 0x1E3C JUMPI PUSH1 0x40 MLOAD PUSH3 0x461BCD PUSH1 0xE5 SHL DUP2 MSTORE PUSH1 0x4 ADD PUSH2 0x68C SWAP1 PUSH2 0x3503 JUMP JUMPDEST PUSH1 0x0 DUP1 SLOAD PUSH1 0xFF NOT AND SWAP1 SSTORE PUSH2 0x1E4F DUP2 PUSH2 0x274F JUMP JUMPDEST PUSH1 0x0 PUSH2 0x1E5A DUP3 PUSH2 0x2598 JUMP JUMPDEST PUSH1 0x0 DUP4 DUP2 MSTORE PUSH1 0xD PUSH1 0x20 MSTORE PUSH1 0x40 SWAP1 KECCAK256 PUSH1 0xB DUP2 ADD SLOAD SWAP2 SWAP3 POP SWAP1 PUSH5 0x100000000 SWAP1 DIV PUSH1 0xFF AND ISZERO ISZERO PUSH1 0x1 EQ PUSH2 0x1EC6 JUMPI DUP1 PUSH1 0x5 ADD PUSH1 0x0 DUP2 SLOAD DUP2 LT PUSH2 0x1E9B JUMPI PUSH2 0x1E9B PUSH2 0x353A JUMP JUMPDEST SWAP1 PUSH1 0x0 MSTORE PUSH1 0x20 PUSH1 0x0 KECCAK256 ADD SLOAD PUSH1 0x0 SUB PUSH2 0x1EBC JUMPI PUSH2 0x1EB7 DUP4 DUP4 PUSH2 0x2867 JUMP JUMPDEST PUSH2 0x1ED0 JUMP JUMPDEST PUSH2 0x1EB7 DUP4 DUP4 PUSH2 0x2A61 JUMP JUMPDEST PUSH2 0x1ED0 DUP4 DUP4 PUSH2 0x2C20 JUMP JUMPDEST POP POP PUSH1 0x0 DUP1 SLOAD PUSH1 0xFF NOT AND PUSH1 0x1 OR SWAP1 SSTORE POP JUMP JUMPDEST PUSH1 0x8 SLOAD PUSH1 0x0 SWAP1 DUP2 MSTORE PUSH1 0xD PUSH1 0x20 SWAP1 DUP2 MSTORE PUSH1 0x40 SWAP1 SWAP2 KECCAK256 DUP1 SLOAD PUSH1 0x1 PUSH1 0x1 PUSH1 0xA0 SHL SUB DUP11 AND PUSH1 0x1 PUSH1 0x1 PUSH1 0xA0 SHL SUB NOT SWAP2 DUP3 AND OR DUP3 SSTORE PUSH1 0x1 DUP3 ADD DUP1 SLOAD SWAP1 SWAP2 AND CALLER OR SWAP1 SSTORE PUSH1 0x3 DUP2 ADD DUP9 SWAP1 SSTORE PUSH1 0x4 DUP2 ADD DUP8 SWAP1 SSTORE DUP6 MLOAD SWAP1 SWAP2 PUSH2 0x1F41 SWAP2 PUSH1 0x5 DUP5 ADD SWAP2 DUP9 ADD SWAP1 PUSH2 0x2EA1 JUMP JUMPDEST POP DUP4 MLOAD PUSH2 0x1F57 SWAP1 PUSH1 0x6 DUP4 ADD SWAP1 PUSH1 0x20 DUP8 ADD SWAP1 PUSH2 0x2EA1 JUMP JUMPDEST POP PUSH1 0x0 PUSH1 0x7 DUP3 ADD DUP2 SWAP1 SSTORE PUSH1 0x8 DUP3 ADD DUP2 SWAP1 SSTORE PUSH1 0x9 DUP3 ADD DUP2 SWAP1 SSTORE PUSH1 0xA DUP3 ADD SSTORE PUSH2 0x1F83 PUSH1 0xB DUP3 ADD DUP4 PUSH1 0x6 PUSH2 0x2EEC JUMP JUMPDEST POP PUSH1 0xC DUP2 ADD PUSH2 0x1F92 DUP5 DUP3 PUSH2 0x3873 JUMP JUMPDEST POP PUSH1 0x0 PUSH1 0xD DUP3 ADD SSTORE PUSH1 0x8 DUP1 SLOAD PUSH1 0x1 DUP4 ADD SLOAD PUSH1 0x9 DUP5 ADD SLOAD PUSH1 0xA DUP6 ADD SLOAD SWAP4 DUP6 ADD SLOAD PUSH1 0x40 MLOAD SWAP4 SWAP5 PUSH1 0x0 DUP1 MLOAD PUSH1 0x20 PUSH2 0x3994 DUP4 CODECOPY DUP2 MLOAD SWAP2 MSTORE SWAP5 PUSH2 0x1FE5 SWAP5 PUSH1 0x1 PUSH1 0x1 PUSH1 0xA0 SHL SUB AND SWAP4 DUP11 SWAP4 DUP14 SWAP4 PUSH1 0xB DUP12 ADD SWAP4 SWAP1 SWAP2 SWAP1 PUSH2 0x3933 JUMP JUMPDEST PUSH1 0x40 MLOAD DUP1 SWAP2 SUB SWAP1 LOG2 PUSH1 0x1 PUSH1 0x8 PUSH1 0x0 DUP3 DUP3 SLOAD PUSH2 0x2000 SWAP2 SWAP1 PUSH2 0x3598 JUMP JUMPDEST SWAP1 SWAP2 SSTORE POP POP POP POP POP POP POP POP POP POP JUMP JUMPDEST PUSH1 0x9 SLOAD PUSH1 0x1 PUSH1 0x1 PUSH1 0xA0 SHL SUB DUP6 AND PUSH1 0x0 SWAP1 DUP2 MSTORE PUSH1 0xC PUSH1 0x20 MSTORE PUSH1 0x40 SWAP1 KECCAK256 DUP1 SLOAD DUP6 GT ISZERO PUSH2 0x2071 JUMPI PUSH1 0x40 MLOAD PUSH3 0x461BCD PUSH1 0xE5 SHL DUP2 MSTORE PUSH1 0x20 PUSH1 0x4 DUP3 ADD MSTORE PUSH1 0x13 PUSH1 0x24 DUP3 ADD MSTORE PUSH19 0x696E73756666696369656E7420736861726573 PUSH1 0x68 SHL PUSH1 0x44 DUP3 ADD MSTORE PUSH1 0x64 ADD PUSH2 0x68C JUMP JUMPDEST DUP3 PUSH2 0x22EE JUMPI PUSH1 0x0 DUP5 DUP2 MSTORE PUSH1 0xD PUSH1 0x20 MSTORE PUSH1 0x40 SWAP1 KECCAK256 PUSH1 0xB ADD SLOAD PUSH6 0x10000000000 SWAP1 DIV PUSH1 0xFF AND PUSH2 0x20E0 JUMPI PUSH1 0x40 MLOAD PUSH3 0x461BCD PUSH1 0xE5 SHL DUP2 MSTORE PUSH1 0x20 PUSH1 0x4 DUP3 ADD MSTORE PUSH1 0x1D PUSH1 0x24 DUP3 ADD MSTORE PUSH32 0x70726F706F73616C206D7573742062652070726570726F636573736564000000 PUSH1 0x44 DUP3 ADD MSTORE PUSH1 0x64 ADD PUSH2 0x68C JUMP JUMPDEST PUSH1 0x3 SLOAD PUSH1 0x2 SLOAD PUSH1 0x0 DUP7 DUP2 MSTORE PUSH1 0xD PUSH1 0x20 MSTORE PUSH1 0x40 SWAP1 KECCAK256 PUSH1 0x7 ADD SLOAD PUSH2 0x2102 SWAP2 SWAP1 PUSH2 0x3598 JUMP JUMPDEST PUSH2 0x210C SWAP2 SWAP1 PUSH2 0x3598 JUMP JUMPDEST PUSH2 0x2114 PUSH2 0x647 JUMP JUMPDEST LT PUSH2 0x2161 JUMPI PUSH1 0x40 MLOAD PUSH3 0x461BCD PUSH1 0xE5 SHL DUP2 MSTORE PUSH1 0x20 PUSH1 0x4 DUP3 ADD DUP2 SWAP1 MSTORE PUSH1 0x24 DUP3 ADD MSTORE PUSH32 0x70726F706F73616C206D75737420626520696E20677261636520706572696F64 PUSH1 0x44 DUP3 ADD MSTORE PUSH1 0x64 ADD PUSH2 0x68C JUMP JUMPDEST PUSH1 0x0 DUP5 DUP2 MSTORE PUSH1 0xD PUSH1 0x20 SWAP1 DUP2 MSTORE PUSH1 0x40 DUP1 DUP4 KECCAK256 PUSH1 0x8 DUP2 ADD SLOAD DUP5 MSTORE PUSH1 0xE ADD DUP3 MSTORE DUP1 DUP4 KECCAK256 PUSH1 0x1 PUSH1 0x1 PUSH1 0xA0 SHL SUB DUP11 AND DUP5 MSTORE SWAP1 SWAP2 MSTORE DUP2 KECCAK256 SLOAD PUSH1 0xFF AND PUSH1 0x2 DUP2 GT ISZERO PUSH2 0x21A7 JUMPI PUSH2 0x21A7 PUSH2 0x33DD JUMP JUMPDEST SUB PUSH2 0x21F4 JUMPI PUSH1 0x40 MLOAD PUSH3 0x461BCD PUSH1 0xE5 SHL DUP2 MSTORE PUSH1 0x20 PUSH1 0x4 DUP3 ADD DUP2 SWAP1 MSTORE PUSH1 0x24 DUP3 ADD MSTORE PUSH32 0x6D656D626572206469646E277420766F7465206F6E20612070726F706F73616C PUSH1 0x44 DUP3 ADD MSTORE PUSH1 0x64 ADD PUSH2 0x68C JUMP JUMPDEST PUSH1 0x0 DUP5 DUP2 MSTORE PUSH1 0xD PUSH1 0x20 MSTORE PUSH1 0x40 SWAP1 KECCAK256 PUSH1 0xB ADD SLOAD PUSH3 0x10000 SWAP1 DIV PUSH1 0xFF AND PUSH2 0x221A JUMPI PUSH1 0x2 PUSH2 0x221D JUMP JUMPDEST PUSH1 0x1 JUMPDEST PUSH1 0xFF AND PUSH1 0x2 DUP2 GT ISZERO PUSH2 0x2231 JUMPI PUSH2 0x2231 PUSH2 0x33DD JUMP JUMPDEST PUSH1 0x2 DUP2 GT ISZERO PUSH2 0x2242 JUMPI PUSH2 0x2242 PUSH2 0x33DD JUMP JUMPDEST PUSH1 0x0 DUP6 DUP2 MSTORE PUSH1 0xD PUSH1 0x20 SWAP1 DUP2 MSTORE PUSH1 0x40 DUP1 DUP4 KECCAK256 PUSH1 0x8 DUP2 ADD SLOAD DUP5 MSTORE PUSH1 0xE ADD DUP3 MSTORE DUP1 DUP4 KECCAK256 PUSH1 0x1 PUSH1 0x1 PUSH1 0xA0 SHL SUB DUP12 AND DUP5 MSTORE SWAP1 SWAP2 MSTORE SWAP1 KECCAK256 SLOAD PUSH1 0xFF AND PUSH1 0x2 DUP2 GT ISZERO PUSH2 0x2288 JUMPI PUSH2 0x2288 PUSH2 0x33DD JUMP JUMPDEST SUB PUSH2 0x22EE JUMPI PUSH1 0x40 MLOAD PUSH3 0x461BCD PUSH1 0xE5 SHL DUP2 MSTORE PUSH1 0x20 PUSH1 0x4 DUP3 ADD MSTORE PUSH1 0x30 PUSH1 0x24 DUP3 ADD MSTORE PUSH32 0x6D656D6265722077686F20766F746564207468652073616D6520726573756C74 PUSH1 0x44 DUP3 ADD MSTORE PUSH16 0x818D85B9B9BDD081C9859D95C5D5A5D PUSH1 0x82 SHL PUSH1 0x64 DUP3 ADD MSTORE PUSH1 0x84 ADD PUSH2 0x68C JUMP JUMPDEST DUP1 SLOAD PUSH2 0x22FB SWAP1 DUP7 SWAP1 PUSH2 0x34CE JUMP JUMPDEST DUP2 SSTORE PUSH1 0x9 SLOAD PUSH2 0x230B SWAP1 DUP7 SWAP1 PUSH2 0x34CE JUMP JUMPDEST PUSH1 0x9 SSTORE PUSH1 0x7 SLOAD PUSH1 0x1 PUSH1 0x1 PUSH1 0xA0 SHL SUB AND PUSH1 0x0 SWAP1 DUP2 MSTORE PUSH1 0x0 DUP1 MLOAD PUSH1 0x20 PUSH2 0x39B4 DUP4 CODECOPY DUP2 MLOAD SWAP2 MSTORE PUSH1 0x20 MSTORE PUSH1 0x40 DUP2 KECCAK256 SLOAD PUSH2 0x2341 SWAP1 DUP8 DUP6 PUSH2 0x2D7F JUMP JUMPDEST SWAP1 POP DUP1 ISZERO PUSH2 0x23C5 JUMPI PUSH1 0x7 SLOAD PUSH1 0x1 PUSH1 0x1 PUSH1 0xA0 SHL SUB AND PUSH1 0x0 SWAP1 DUP2 MSTORE PUSH1 0x0 DUP1 MLOAD PUSH1 0x20 PUSH2 0x39B4 DUP4 CODECOPY DUP2 MLOAD SWAP2 MSTORE PUSH1 0x20 MSTORE PUSH1 0x40 DUP2 KECCAK256 DUP1 SLOAD DUP4 SWAP3 SWAP1 PUSH2 0x2380 SWAP1 DUP5 SWAP1 PUSH2 0x34CE JUMP JUMPDEST SWAP1 SWAP2 SSTORE POP POP PUSH1 0x1 PUSH1 0x1 PUSH1 0xA0 SHL SUB DUP1 DUP9 AND PUSH1 0x0 SWAP1 DUP2 MSTORE PUSH1 0xA PUSH1 0x20 SWAP1 DUP2 MSTORE PUSH1 0x40 DUP1 DUP4 KECCAK256 PUSH1 0x7 SLOAD SWAP1 SWAP5 AND DUP4 MSTORE SWAP3 SWAP1 MSTORE SWAP1 DUP2 KECCAK256 DUP1 SLOAD DUP4 SWAP3 SWAP1 PUSH2 0x23BF SWAP1 DUP5 SWAP1 PUSH2 0x3598 JUMP JUMPDEST SWAP1 SWAP2 SSTORE POP POP JUMPDEST POP POP POP POP POP POP POP JUMP JUMPDEST PUSH1 0x1 PUSH1 0x1 PUSH1 0xA0 SHL SUB DUP1 DUP4 AND PUSH1 0x0 SWAP1 DUP2 MSTORE PUSH1 0xA PUSH1 0x20 SWAP1 DUP2 MSTORE PUSH1 0x40 DUP1 DUP4 KECCAK256 PUSH1 0x7 SLOAD SWAP1 SWAP5 AND DUP4 MSTORE SWAP3 SWAP1 MSTORE SWAP1 DUP2 KECCAK256 DUP1 SLOAD DUP4 SWAP3 SWAP1 PUSH2 0x2408 SWAP1 DUP5 SWAP1 PUSH2 0x3598 JUMP JUMPDEST SWAP1 SWAP2 SSTORE POP POP PUSH1 0x7 SLOAD PUSH1 0x1 PUSH1 0x1 PUSH1 0xA0 SHL SUB AND PUSH1 0x0 SWAP1 DUP2 MSTORE PUSH32 0xED762DDB65DFEAB933EDA5256EB347E1BF2B4E76044BDC8BAF0A70D22DC0C374 PUSH1 0x20 MSTORE PUSH1 0x40 DUP2 KECCAK256 DUP1 SLOAD DUP4 SWAP3 SWAP1 PUSH2 0x2456 SWAP1 DUP5 SWAP1 PUSH2 0x3598 JUMP JUMPDEST SWAP1 SWAP2 SSTORE POP POP POP POP JUMP JUMPDEST PUSH1 0x8 SLOAD DUP2 LT PUSH2 0x2480 JUMPI PUSH1 0x40 MLOAD PUSH3 0x461BCD PUSH1 0xE5 SHL DUP2 MSTORE PUSH1 0x4 ADD PUSH2 0x68C SWAP1 PUSH2 0x37EE JUMP JUMPDEST PUSH1 0x0 DUP2 DUP2 MSTORE PUSH1 0xD PUSH1 0x20 MSTORE PUSH1 0x40 SWAP1 KECCAK256 PUSH1 0x2 SLOAD PUSH1 0x7 DUP3 ADD SLOAD PUSH2 0x24A0 SWAP2 SWAP1 PUSH2 0x3598 JUMP JUMPDEST PUSH2 0x24A8 PUSH2 0x647 JUMP JUMPDEST LT ISZERO PUSH2 0x2507 JUMPI PUSH1 0x40 MLOAD PUSH3 0x461BCD PUSH1 0xE5 SHL DUP2 MSTORE PUSH1 0x20 PUSH1 0x4 DUP3 ADD MSTORE PUSH1 0x28 PUSH1 0x24 DUP3 ADD MSTORE PUSH32 0x70726F706F73616C206973206E6F7420726561647920746F2062652070726570 PUSH1 0x44 DUP3 ADD MSTORE PUSH8 0x1C9BD8D95CDCD959 PUSH1 0xC2 SHL PUSH1 0x64 DUP3 ADD MSTORE PUSH1 0x84 ADD PUSH2 0x68C JUMP JUMPDEST PUSH1 0xB DUP2 ADD SLOAD PUSH2 0x100 SWAP1 DIV PUSH1 0xFF AND ISZERO DUP1 ISZERO PUSH2 0x252F JUMPI POP PUSH1 0xB DUP2 ADD SLOAD PUSH6 0x10000000000 SWAP1 DIV PUSH1 0xFF AND ISZERO JUMPDEST PUSH2 0x2594 JUMPI PUSH1 0x40 MLOAD PUSH3 0x461BCD PUSH1 0xE5 SHL DUP2 MSTORE PUSH1 0x20 PUSH1 0x4 DUP3 ADD MSTORE PUSH1 0x30 PUSH1 0x24 DUP3 ADD MSTORE PUSH32 0x70726F706F73616C2068617320616C7265616479206265656E2070726570726F PUSH1 0x44 DUP3 ADD MSTORE PUSH16 0x18D95CDCD9590BDC1C9BD8D95CDCD959 PUSH1 0x82 SHL PUSH1 0x64 DUP3 ADD MSTORE PUSH1 0x84 ADD PUSH2 0x68C JUMP JUMPDEST POP POP JUMP JUMPDEST PUSH1 0x0 DUP2 DUP2 MSTORE PUSH1 0xD PUSH1 0x20 DUP2 SWAP1 MSTORE PUSH1 0x40 SWAP1 SWAP2 KECCAK256 PUSH1 0xA DUP2 ADD SLOAD PUSH1 0x9 DUP1 DUP4 ADD SLOAD SWAP4 DUP4 ADD SLOAD PUSH1 0x5 SLOAD SWAP2 SLOAD SWAP3 SWAP1 SWAP5 GT SWAP4 SWAP2 PUSH2 0x25CD SWAP2 SWAP1 PUSH2 0x397C JUMP JUMPDEST LT ISZERO PUSH2 0x25D8 JUMPI PUSH1 0x0 SWAP2 POP JUMPDEST DUP1 SLOAD PUSH1 0x1 PUSH1 0x1 PUSH1 0xA0 SHL SUB AND PUSH1 0x0 SWAP1 DUP2 MSTORE PUSH1 0xC PUSH1 0x20 MSTORE PUSH1 0x40 SWAP1 KECCAK256 PUSH1 0x1 ADD SLOAD PUSH2 0x100 SWAP1 DIV PUSH1 0xFF AND ISZERO PUSH2 0x2607 JUMPI PUSH1 0x0 SWAP2 POP JUMPDEST POP SWAP2 SWAP1 POP JUMP JUMPDEST CALLER PUSH1 0x0 SWAP1 DUP2 MSTORE PUSH1 0xA PUSH1 0x20 SWAP1 DUP2 MSTORE PUSH1 0x40 DUP1 DUP4 KECCAK256 PUSH1 0x7 SLOAD PUSH1 0x1 PUSH1 0x1 PUSH1 0xA0 SHL SUB AND DUP5 MSTORE SWAP1 SWAP2 MSTORE SWAP1 KECCAK256 SLOAD DUP2 GT ISZERO PUSH2 0x2679 JUMPI PUSH1 0x40 MLOAD PUSH3 0x461BCD PUSH1 0xE5 SHL DUP2 MSTORE PUSH1 0x20 PUSH1 0x4 DUP3 ADD MSTORE PUSH1 0x14 PUSH1 0x24 DUP3 ADD MSTORE PUSH20 0x696E73756666696369656E742062616C616E6365 PUSH1 0x60 SHL PUSH1 0x44 DUP3 ADD MSTORE PUSH1 0x64 ADD PUSH2 0x68C JUMP JUMPDEST PUSH2 0x2683 CALLER DUP3 PUSH2 0x2DEC JUMP JUMPDEST PUSH1 0x7 SLOAD PUSH1 0x40 MLOAD PUSH4 0xA9059CBB PUSH1 0xE0 SHL DUP2 MSTORE CALLER PUSH1 0x4 DUP3 ADD MSTORE PUSH1 0x24 DUP2 ADD DUP4 SWAP1 MSTORE PUSH1 0x1 PUSH1 0x1 PUSH1 0xA0 SHL SUB SWAP1 SWAP2 AND SWAP1 PUSH4 0xA9059CBB SWAP1 PUSH1 0x44 ADD PUSH1 0x20 PUSH1 0x40 MLOAD DUP1 DUP4 SUB DUP2 PUSH1 0x0 DUP8 GAS CALL ISZERO DUP1 ISZERO PUSH2 0x26D4 JUMPI RETURNDATASIZE PUSH1 0x0 DUP1 RETURNDATACOPY RETURNDATASIZE PUSH1 0x0 REVERT JUMPDEST POP POP POP POP PUSH1 0x40 MLOAD RETURNDATASIZE PUSH1 0x1F NOT PUSH1 0x1F DUP3 ADD AND DUP3 ADD DUP1 PUSH1 0x40 MSTORE POP DUP2 ADD SWAP1 PUSH2 0x26F8 SWAP2 SWAP1 PUSH2 0x3576 JUMP JUMPDEST PUSH2 0x997 JUMPI PUSH1 0x40 MLOAD PUSH3 0x461BCD PUSH1 0xE5 SHL DUP2 MSTORE PUSH1 0x20 PUSH1 0x4 DUP3 ADD MSTORE PUSH1 0xF PUSH1 0x24 DUP3 ADD MSTORE PUSH15 0x1D1C985B9CD9995C8819985A5B1959 PUSH1 0x8A SHL PUSH1 0x44 DUP3 ADD MSTORE PUSH1 0x64 ADD PUSH2 0x68C JUMP JUMPDEST PUSH2 0x2740 DUP4 DUP3 PUSH2 0x2DEC JUMP JUMPDEST PUSH2 0x274A DUP3 DUP3 PUSH2 0x23CE JUMP JUMPDEST POP POP POP JUMP JUMPDEST PUSH1 0x8 SLOAD DUP2 LT PUSH2 0x2770 JUMPI PUSH1 0x40 MLOAD PUSH3 0x461BCD PUSH1 0xE5 SHL DUP2 MSTORE PUSH1 0x4 ADD PUSH2 0x68C SWAP1 PUSH2 0x37EE JUMP JUMPDEST PUSH1 0x0 DUP2 DUP2 MSTORE PUSH1 0xD PUSH1 0x20 MSTORE PUSH1 0x40 SWAP1 KECCAK256 PUSH1 0x3 SLOAD PUSH1 0x2 SLOAD PUSH1 0x7 DUP4 ADD SLOAD PUSH2 0x2793 SWAP2 SWAP1 PUSH2 0x3598 JUMP JUMPDEST PUSH2 0x279D SWAP2 SWAP1 PUSH2 0x3598 JUMP JUMPDEST PUSH2 0x27A5 PUSH2 0x647 JUMP JUMPDEST LT ISZERO PUSH2 0x2801 JUMPI PUSH1 0x40 MLOAD PUSH3 0x461BCD PUSH1 0xE5 SHL DUP2 MSTORE PUSH1 0x20 PUSH1 0x4 DUP3 ADD MSTORE PUSH1 0x25 PUSH1 0x24 DUP3 ADD MSTORE PUSH32 0x70726F706F73616C206973206E6F7420726561647920746F2062652070726F63 PUSH1 0x44 DUP3 ADD MSTORE PUSH5 0x195CDCD959 PUSH1 0xDA SHL PUSH1 0x64 DUP3 ADD MSTORE PUSH1 0x84 ADD PUSH2 0x68C JUMP JUMPDEST PUSH1 0xB DUP2 ADD SLOAD PUSH2 0x100 SWAP1 DIV PUSH1 0xFF AND ISZERO PUSH2 0x2594 JUMPI PUSH1 0x40 MLOAD PUSH3 0x461BCD PUSH1 0xE5 SHL DUP2 MSTORE PUSH1 0x20 PUSH1 0x4 DUP3 ADD MSTORE PUSH1 0x23 PUSH1 0x24 DUP3 ADD MSTORE PUSH32 0x70726F706F73616C2068617320616C7265616479206265656E2070726F636573 PUSH1 0x44 DUP3 ADD MSTORE PUSH3 0x1CD959 PUSH1 0xEA SHL PUSH1 0x64 DUP3 ADD MSTORE PUSH1 0x84 ADD PUSH2 0x68C JUMP JUMPDEST PUSH1 0x0 DUP3 DUP2 MSTORE PUSH1 0xD PUSH1 0x20 MSTORE PUSH1 0x40 SWAP1 KECCAK256 PUSH1 0xB DUP2 ADD DUP1 SLOAD PUSH2 0xFF00 NOT AND PUSH2 0x100 OR SWAP1 SSTORE PUSH1 0x3 DUP2 ADD SLOAD PUSH1 0x9 SLOAD DUP4 SWAP2 PUSH8 0xDE0B6B3A7640000 SWAP2 PUSH2 0x28A4 SWAP2 SWAP1 PUSH2 0x3598 JUMP JUMPDEST GT ISZERO PUSH2 0x28AE JUMPI POP PUSH1 0x0 JUMPDEST DUP1 ISZERO PUSH2 0x29C9 JUMPI PUSH1 0xB DUP3 ADD DUP1 SLOAD PUSH3 0xFF0000 NOT AND PUSH3 0x10000 OR SWAP1 SSTORE DUP2 SLOAD PUSH1 0x1 PUSH1 0x1 PUSH1 0xA0 SHL SUB AND PUSH1 0x0 SWAP1 DUP2 MSTORE PUSH1 0xC PUSH1 0x20 MSTORE PUSH1 0x40 SWAP1 KECCAK256 PUSH1 0x1 ADD SLOAD PUSH1 0xFF AND ISZERO PUSH2 0x2934 JUMPI PUSH1 0x3 DUP3 ADD SLOAD DUP3 SLOAD PUSH1 0x1 PUSH1 0x1 PUSH1 0xA0 SHL SUB AND PUSH1 0x0 SWAP1 DUP2 MSTORE PUSH1 0xC PUSH1 0x20 MSTORE PUSH1 0x40 SWAP1 KECCAK256 SLOAD PUSH2 0x2915 SWAP2 SWAP1 PUSH2 0x3598 JUMP JUMPDEST DUP3 SLOAD PUSH1 0x1 PUSH1 0x1 PUSH1 0xA0 SHL SUB AND PUSH1 0x0 SWAP1 DUP2 MSTORE PUSH1 0xC PUSH1 0x20 MSTORE PUSH1 0x40 SWAP1 KECCAK256 SSTORE PUSH2 0x2999 JUMP JUMPDEST PUSH1 0x40 DUP1 MLOAD PUSH1 0x60 DUP2 ADD DUP3 MSTORE PUSH1 0x3 DUP5 ADD SLOAD DUP2 MSTORE PUSH1 0x1 PUSH1 0x20 DUP1 DUP4 ADD DUP3 DUP2 MSTORE PUSH1 0x0 DUP5 DUP7 ADD DUP2 DUP2 MSTORE DUP9 SLOAD PUSH1 0x1 PUSH1 0x1 PUSH1 0xA0 SHL SUB AND DUP3 MSTORE PUSH1 0xC SWAP1 SWAP4 MSTORE SWAP5 SWAP1 SWAP5 KECCAK256 SWAP3 MLOAD DUP4 SSTORE SWAP3 MLOAD SWAP2 ADD DUP1 SLOAD SWAP3 MLOAD ISZERO ISZERO PUSH2 0x100 MUL PUSH2 0xFF00 NOT SWAP3 ISZERO ISZERO SWAP3 SWAP1 SWAP3 AND PUSH2 0xFFFF NOT SWAP1 SWAP4 AND SWAP3 SWAP1 SWAP3 OR OR SWAP1 SSTORE JUMPDEST DUP2 PUSH1 0x3 ADD SLOAD PUSH1 0x9 SLOAD PUSH2 0x29AB SWAP2 SWAP1 PUSH2 0x3598 JUMP JUMPDEST PUSH1 0x9 DUP2 SWAP1 SSTORE POP PUSH2 0x29C4 PUSH2 0xBEEF PUSH2 0xDEAD DUP5 PUSH1 0x4 ADD SLOAD PUSH2 0x2736 JUMP JUMPDEST PUSH2 0x29EC JUMP JUMPDEST PUSH1 0x1 DUP3 ADD SLOAD PUSH1 0x4 DUP4 ADD SLOAD PUSH2 0x29EC SWAP2 PUSH2 0xBEEF SWAP2 PUSH1 0x1 PUSH1 0x1 PUSH1 0xA0 SHL SUB SWAP1 SWAP2 AND SWAP1 PUSH2 0x2736 JUMP JUMPDEST PUSH1 0x1 DUP3 ADD SLOAD PUSH1 0x9 DUP4 ADD SLOAD PUSH1 0xA DUP5 ADD SLOAD PUSH1 0x8 DUP6 ADD SLOAD PUSH1 0x40 MLOAD DUP9 SWAP5 PUSH1 0x0 DUP1 MLOAD PUSH1 0x20 PUSH2 0x3994 DUP4 CODECOPY DUP2 MLOAD SWAP2 MSTORE SWAP5 PUSH2 0x2A3C SWAP5 PUSH1 0x1 PUSH1 0x1 PUSH1 0xA0 SHL SUB SWAP1 SWAP3 AND SWAP4 PUSH1 0xC DUP11 ADD SWAP4 PUSH1 0x5 DUP12 ADD SWAP4 PUSH1 0xB DUP13 ADD SWAP4 SWAP3 SWAP1 SWAP2 PUSH2 0x36BB JUMP JUMPDEST PUSH1 0x40 MLOAD DUP1 SWAP2 SUB SWAP1 LOG2 PUSH1 0x2 DUP3 ADD SLOAD PUSH2 0x2A5B SWAP1 PUSH1 0x1 PUSH1 0x1 PUSH1 0xA0 SHL SUB AND PUSH2 0x2E74 JUMP JUMPDEST POP POP POP POP JUMP JUMPDEST PUSH1 0x0 DUP3 DUP2 MSTORE PUSH1 0xD PUSH1 0x20 SWAP1 DUP2 MSTORE PUSH1 0x40 DUP1 DUP4 KECCAK256 PUSH1 0xB DUP2 ADD DUP1 SLOAD PUSH2 0xFF00 NOT AND PUSH2 0x100 OR SWAP1 SSTORE PUSH1 0x7 SLOAD PUSH1 0x1 PUSH1 0x1 PUSH1 0xA0 SHL SUB AND DUP5 MSTORE PUSH1 0x0 DUP1 MLOAD PUSH1 0x20 PUSH2 0x39B4 DUP4 CODECOPY DUP2 MLOAD SWAP2 MSTORE SWAP1 SWAP3 MSTORE SWAP1 SWAP2 KECCAK256 SLOAD PUSH1 0x8 DUP3 ADD SLOAD PUSH1 0x5 DUP4 ADD DUP1 SLOAD DUP6 SWAP4 SWAP3 SWAP1 DUP2 LT PUSH2 0x2AC4 JUMPI PUSH2 0x2AC4 PUSH2 0x353A JUMP JUMPDEST SWAP1 PUSH1 0x0 MSTORE PUSH1 0x20 PUSH1 0x0 KECCAK256 ADD SLOAD GT ISZERO PUSH2 0x2AD9 JUMPI POP PUSH1 0x0 JUMPDEST DUP1 ISZERO PUSH2 0x2BA5 JUMPI PUSH1 0xB DUP3 ADD DUP1 SLOAD PUSH3 0xFF0000 NOT AND PUSH3 0x10000 OR SWAP1 SSTORE DUP2 SLOAD PUSH1 0x8 DUP4 ADD SLOAD PUSH1 0x5 DUP5 ADD DUP1 SLOAD PUSH2 0x2B32 SWAP4 PUSH2 0xDEAD SWAP4 PUSH1 0x1 PUSH1 0x1 PUSH1 0xA0 SHL SUB SWAP1 SWAP2 AND SWAP3 SWAP2 DUP2 LT PUSH2 0x2B22 JUMPI PUSH2 0x2B22 PUSH2 0x353A JUMP JUMPDEST SWAP1 PUSH1 0x0 MSTORE PUSH1 0x20 PUSH1 0x0 KECCAK256 ADD SLOAD PUSH2 0x2736 JUMP JUMPDEST PUSH1 0x8 DUP3 ADD SLOAD PUSH2 0x2B42 SWAP1 PUSH1 0x1 PUSH2 0x3598 JUMP JUMPDEST PUSH1 0x6 DUP4 ADD SLOAD GT ISZERO PUSH2 0x2BA5 JUMPI PUSH1 0x1 DUP3 PUSH1 0x8 ADD PUSH1 0x0 DUP3 DUP3 SLOAD PUSH2 0x2B62 SWAP2 SWAP1 PUSH2 0x3598 JUMP JUMPDEST SWAP3 POP POP DUP2 SWAP1 SSTORE POP DUP2 PUSH1 0x6 ADD DUP3 PUSH1 0x8 ADD SLOAD DUP2 SLOAD DUP2 LT PUSH2 0x2B82 JUMPI PUSH2 0x2B82 PUSH2 0x353A JUMP JUMPDEST PUSH1 0x0 SWAP2 DUP3 MSTORE PUSH1 0x20 SWAP1 SWAP2 KECCAK256 ADD SLOAD PUSH1 0x7 DUP4 ADD SSTORE PUSH1 0xB DUP3 ADD DUP1 SLOAD PUSH6 0xFF000000FF00 NOT AND SWAP1 SSTORE JUMPDEST PUSH1 0x1 DUP3 ADD SLOAD PUSH1 0x9 DUP4 ADD SLOAD PUSH1 0xA DUP5 ADD SLOAD PUSH1 0x8 DUP6 ADD SLOAD PUSH1 0x40 MLOAD DUP9 SWAP5 PUSH1 0x0 DUP1 MLOAD PUSH1 0x20 PUSH2 0x3994 DUP4 CODECOPY DUP2 MLOAD SWAP2 MSTORE SWAP5 PUSH2 0x2BF5 SWAP5 PUSH1 0x1 PUSH1 0x1 PUSH1 0xA0 SHL SUB SWAP1 SWAP3 AND SWAP4 PUSH1 0xC DUP11 ADD SWAP4 PUSH1 0x5 DUP12 ADD SWAP4 PUSH1 0xB DUP13 ADD SWAP4 SWAP3 SWAP1 SWAP2 PUSH2 0x36BB JUMP JUMPDEST PUSH1 0x40 MLOAD DUP1 SWAP2 SUB SWAP1 LOG2 DUP2 PUSH1 0x8 ADD SLOAD PUSH1 0x0 SUB PUSH2 0x2A5B JUMPI PUSH1 0x2 DUP3 ADD SLOAD PUSH2 0x2A5B SWAP1 PUSH1 0x1 PUSH1 0x1 PUSH1 0xA0 SHL SUB AND PUSH2 0x2E74 JUMP JUMPDEST PUSH1 0x0 DUP3 DUP2 MSTORE PUSH1 0xD PUSH1 0x20 MSTORE PUSH1 0x40 SWAP1 KECCAK256 PUSH1 0xB DUP2 ADD SLOAD DUP3 SWAP1 PUSH5 0x100000000 SWAP1 DIV PUSH1 0xFF AND PUSH2 0x2C8C JUMPI PUSH1 0x40 MLOAD PUSH3 0x461BCD PUSH1 0xE5 SHL DUP2 MSTORE PUSH1 0x20 PUSH1 0x4 DUP3 ADD MSTORE PUSH1 0x1D PUSH1 0x24 DUP3 ADD MSTORE PUSH32 0x6D7573742062652061206775696C64206B69636B2070726F706F73616C000000 PUSH1 0x44 DUP3 ADD MSTORE PUSH1 0x64 ADD PUSH2 0x68C JUMP JUMPDEST PUSH1 0xB DUP3 ADD DUP1 SLOAD PUSH2 0xFF00 NOT AND PUSH2 0x100 OR SWAP1 SSTORE DUP1 ISZERO PUSH2 0x2CF5 JUMPI PUSH1 0xB DUP3 ADD DUP1 SLOAD PUSH3 0xFF0000 NOT AND PUSH3 0x10000 OR SWAP1 SSTORE DUP2 SLOAD PUSH1 0x1 PUSH1 0x1 PUSH1 0xA0 SHL SUB AND PUSH1 0x0 SWAP1 DUP2 MSTORE PUSH1 0xC PUSH1 0x20 SWAP1 DUP2 MSTORE PUSH1 0x40 SWAP2 DUP3 SWAP1 KECCAK256 DUP3 MLOAD PUSH1 0x60 DUP2 ADD DUP5 MSTORE DUP2 SLOAD DUP2 MSTORE PUSH1 0x1 SWAP2 DUP3 ADD SLOAD PUSH1 0xFF AND ISZERO ISZERO SWAP3 DUP2 ADD SWAP3 SWAP1 SWAP3 MSTORE SWAP2 ADD MSTORE JUMPDEST PUSH1 0x1 DUP3 ADD SLOAD PUSH1 0x9 DUP4 ADD SLOAD PUSH1 0xA DUP5 ADD SLOAD PUSH1 0x8 DUP6 ADD SLOAD PUSH1 0x40 MLOAD DUP9 SWAP5 PUSH1 0x0 DUP1 MLOAD PUSH1 0x20 PUSH2 0x3994 DUP4 CODECOPY DUP2 MLOAD SWAP2 MSTORE SWAP5 PUSH2 0x2D45 SWAP5 PUSH1 0x1 PUSH1 0x1 PUSH1 0xA0 SHL SUB SWAP1 SWAP3 AND SWAP4 PUSH1 0xC DUP11 ADD SWAP4 PUSH1 0x5 DUP12 ADD SWAP4 PUSH1 0xB DUP13 ADD SWAP4 SWAP3 SWAP1 SWAP2 PUSH2 0x36BB JUMP JUMPDEST PUSH1 0x40 MLOAD DUP1 SWAP2 SUB SWAP1 LOG2 DUP2 SLOAD PUSH1 0x1 PUSH1 0x1 PUSH1 0xA0 SHL SUB SWAP1 DUP2 AND PUSH1 0x0 SWAP1 DUP2 MSTORE PUSH1 0xB PUSH1 0x20 MSTORE PUSH1 0x40 SWAP1 KECCAK256 DUP1 SLOAD PUSH1 0xFF NOT AND SWAP1 SSTORE PUSH1 0x2 DUP4 ADD SLOAD PUSH2 0x2A5B SWAP2 AND PUSH2 0x2E74 JUMP JUMPDEST PUSH1 0x0 DUP2 PUSH1 0x0 SUB PUSH2 0x2D8E JUMPI PUSH1 0x0 DUP1 REVERT JUMPDEST DUP4 PUSH1 0x0 SUB PUSH2 0x2D9E JUMPI POP PUSH1 0x0 PUSH2 0x117C JUMP JUMPDEST PUSH1 0x0 PUSH2 0x2DAA DUP5 DUP7 PUSH2 0x397C JUMP JUMPDEST SWAP1 POP DUP4 PUSH2 0x2DB7 DUP7 DUP4 PUSH2 0x34E1 JUMP JUMPDEST SUB PUSH2 0x2DCE JUMPI PUSH2 0x2DC6 DUP4 DUP3 PUSH2 0x34E1 JUMP JUMPDEST SWAP2 POP POP PUSH2 0x117C JUMP JUMPDEST DUP4 PUSH2 0x2DD9 DUP5 DUP8 PUSH2 0x34E1 JUMP JUMPDEST PUSH2 0x2DE3 SWAP2 SWAP1 PUSH2 0x397C JUMP JUMPDEST SWAP6 SWAP5 POP POP POP POP POP JUMP JUMPDEST PUSH1 0x1 PUSH1 0x1 PUSH1 0xA0 SHL SUB DUP1 DUP4 AND PUSH1 0x0 SWAP1 DUP2 MSTORE PUSH1 0xA PUSH1 0x20 SWAP1 DUP2 MSTORE PUSH1 0x40 DUP1 DUP4 KECCAK256 PUSH1 0x7 SLOAD SWAP1 SWAP5 AND DUP4 MSTORE SWAP3 SWAP1 MSTORE SWAP1 DUP2 KECCAK256 DUP1 SLOAD DUP4 SWAP3 SWAP1 PUSH2 0x2E26 SWAP1 DUP5 SWAP1 PUSH2 0x34CE JUMP JUMPDEST SWAP1 SWAP2 SSTORE POP POP PUSH1 0x7 SLOAD PUSH1 0x1 PUSH1 0x1 PUSH1 0xA0 SHL SUB AND PUSH1 0x0 SWAP1 DUP2 MSTORE PUSH32 0xED762DDB65DFEAB933EDA5256EB347E1BF2B4E76044BDC8BAF0A70D22DC0C374 PUSH1 0x20 MSTORE PUSH1 0x40 DUP2 KECCAK256 DUP1 SLOAD DUP4 SWAP3 SWAP1 PUSH2 0x2456 SWAP1 DUP5 SWAP1 PUSH2 0x34CE JUMP JUMPDEST PUSH2 0x997 PUSH2 0xBEEF DUP3 PUSH1 0x4 SLOAD PUSH2 0x2736 JUMP JUMPDEST PUSH1 0x40 MLOAD DUP1 PUSH1 0xC0 ADD PUSH1 0x40 MSTORE DUP1 PUSH1 0x6 SWAP1 PUSH1 0x20 DUP3 MUL DUP1 CALLDATASIZE DUP4 CALLDATACOPY POP SWAP2 SWAP3 SWAP2 POP POP JUMP JUMPDEST DUP3 DUP1 SLOAD DUP3 DUP3 SSTORE SWAP1 PUSH1 0x0 MSTORE PUSH1 0x20 PUSH1 0x0 KECCAK256 SWAP1 DUP2 ADD SWAP3 DUP3 ISZERO PUSH2 0x2EDC JUMPI SWAP2 PUSH1 0x20 MUL DUP3 ADD JUMPDEST DUP3 DUP2 GT ISZERO PUSH2 0x2EDC JUMPI DUP3 MLOAD DUP3 SSTORE SWAP2 PUSH1 0x20 ADD SWAP2 SWAP1 PUSH1 0x1 ADD SWAP1 PUSH2 0x2EC1 JUMP JUMPDEST POP PUSH2 0x2EE8 SWAP3 SWAP2 POP PUSH2 0x2F75 JUMP JUMPDEST POP SWAP1 JUMP JUMPDEST PUSH1 0x1 DUP4 ADD SWAP2 DUP4 SWAP1 DUP3 ISZERO PUSH2 0x2EDC JUMPI SWAP2 PUSH1 0x20 MUL DUP3 ADD PUSH1 0x0 JUMPDEST DUP4 DUP3 GT ISZERO PUSH2 0x2F3F JUMPI DUP4 MLOAD DUP4 DUP3 PUSH2 0x100 EXP DUP2 SLOAD DUP2 PUSH1 0xFF MUL NOT AND SWAP1 DUP4 ISZERO ISZERO MUL OR SWAP1 SSTORE POP SWAP3 PUSH1 0x20 ADD SWAP3 PUSH1 0x1 ADD PUSH1 0x20 DUP2 PUSH1 0x0 ADD DIV SWAP3 DUP4 ADD SWAP3 PUSH1 0x1 SUB MUL PUSH2 0x2F02 JUMP JUMPDEST DUP1 ISZERO PUSH2 0x2F6C JUMPI DUP3 DUP2 PUSH2 0x100 EXP DUP2 SLOAD SWAP1 PUSH1 0xFF MUL NOT AND SWAP1 SSTORE PUSH1 0x1 ADD PUSH1 0x20 DUP2 PUSH1 0x0 ADD DIV SWAP3 DUP4 ADD SWAP3 PUSH1 0x1 SUB MUL PUSH2 0x2F3F JUMP JUMPDEST POP POP PUSH2 0x2EE8 SWAP3 SWAP2 POP JUMPDEST JUMPDEST DUP1 DUP3 GT ISZERO PUSH2 0x2EE8 JUMPI PUSH1 0x0 DUP2 SSTORE PUSH1 0x1 ADD PUSH2 0x2F76 JUMP JUMPDEST PUSH1 0x0 PUSH1 0x20 DUP3 DUP5 SUB SLT ISZERO PUSH2 0x2F9C JUMPI PUSH1 0x0 DUP1 REVERT JUMPDEST POP CALLDATALOAD SWAP2 SWAP1 POP JUMP JUMPDEST PUSH1 0x0 DUP2 MLOAD DUP1 DUP5 MSTORE PUSH1 0x0 JUMPDEST DUP2 DUP2 LT ISZERO PUSH2 0x2FC9 JUMPI PUSH1 0x20 DUP2 DUP6 ADD DUP2 ADD MLOAD DUP7 DUP4 ADD DUP3 ADD MSTORE ADD PUSH2 0x2FAD JUMP JUMPDEST POP PUSH1 0x0 PUSH1 0x20 DUP3 DUP7 ADD ADD MSTORE PUSH1 0x20 PUSH1 0x1F NOT PUSH1 0x1F DUP4 ADD AND DUP6 ADD ADD SWAP2 POP POP SWAP3 SWAP2 POP POP JUMP JUMPDEST PUSH1 0x0 PUSH2 0x160 PUSH1 0x1 DUP1 PUSH1 0xA0 SHL SUB DUP1 DUP16 AND DUP5 MSTORE DUP1 DUP15 AND PUSH1 0x20 DUP6 ADD MSTORE DUP1 DUP14 AND PUSH1 0x40 DUP6 ADD MSTORE POP DUP11 PUSH1 0x60 DUP5 ADD MSTORE DUP10 PUSH1 0x80 DUP5 ADD MSTORE DUP9 PUSH1 0xA0 DUP5 ADD MSTORE DUP8 PUSH1 0xC0 DUP5 ADD MSTORE DUP7 PUSH1 0xE0 DUP5 ADD MSTORE DUP6 PUSH2 0x100 DUP5 ADD MSTORE DUP1 PUSH2 0x120 DUP5 ADD MSTORE PUSH2 0x3043 DUP2 DUP5 ADD DUP7 PUSH2 0x2FA3 JUMP JUMPDEST SWAP2 POP POP DUP3 PUSH2 0x140 DUP4 ADD MSTORE SWAP13 SWAP12 POP POP POP POP POP POP POP POP POP POP POP POP JUMP JUMPDEST DUP1 CALLDATALOAD PUSH1 0x1 PUSH1 0x1 PUSH1 0xA0 SHL SUB DUP2 AND DUP2 EQ PUSH2 0x3074 JUMPI PUSH1 0x0 DUP1 REVERT JUMPDEST SWAP2 SWAP1 POP JUMP JUMPDEST PUSH1 0x0 PUSH1 0x20 DUP3 DUP5 SUB SLT ISZERO PUSH2 0x308B JUMPI PUSH1 0x0 DUP1 REVERT JUMPDEST PUSH2 0x117C DUP3 PUSH2 0x305D JUMP JUMPDEST PUSH4 0x4E487B71 PUSH1 0xE0 SHL PUSH1 0x0 MSTORE PUSH1 0x41 PUSH1 0x4 MSTORE PUSH1 0x24 PUSH1 0x0 REVERT JUMPDEST PUSH1 0x40 MLOAD PUSH1 0x1F DUP3 ADD PUSH1 0x1F NOT AND DUP2 ADD PUSH8 0xFFFFFFFFFFFFFFFF DUP2 GT DUP3 DUP3 LT OR ISZERO PUSH2 0x30D3 JUMPI PUSH2 0x30D3 PUSH2 0x3094 JUMP JUMPDEST PUSH1 0x40 MSTORE SWAP2 SWAP1 POP JUMP JUMPDEST PUSH1 0x0 DUP3 PUSH1 0x1F DUP4 ADD SLT PUSH2 0x30EC JUMPI PUSH1 0x0 DUP1 REVERT JUMPDEST DUP2 CALLDATALOAD PUSH8 0xFFFFFFFFFFFFFFFF DUP2 GT ISZERO PUSH2 0x3106 JUMPI PUSH2 0x3106 PUSH2 0x3094 JUMP JUMPDEST PUSH2 0x3119 PUSH1 0x1F DUP3 ADD PUSH1 0x1F NOT AND PUSH1 0x20 ADD PUSH2 0x30AA JUMP JUMPDEST DUP2 DUP2 MSTORE DUP5 PUSH1 0x20 DUP4 DUP7 ADD ADD GT ISZERO PUSH2 0x312E JUMPI PUSH1 0x0 DUP1 REVERT JUMPDEST DUP2 PUSH1 0x20 DUP6 ADD PUSH1 0x20 DUP4 ADD CALLDATACOPY PUSH1 0x0 SWAP2 DUP2 ADD PUSH1 0x20 ADD SWAP2 SWAP1 SWAP2 MSTORE SWAP4 SWAP3 POP POP POP JUMP JUMPDEST PUSH1 0x0 DUP1 PUSH1 0x40 DUP4 DUP6 SUB SLT ISZERO PUSH2 0x315E JUMPI PUSH1 0x0 DUP1 REVERT JUMPDEST PUSH2 0x3167 DUP4 PUSH2 0x305D JUMP JUMPDEST SWAP2 POP PUSH1 0x20 DUP4 ADD CALLDATALOAD PUSH8 0xFFFFFFFFFFFFFFFF DUP2 GT ISZERO PUSH2 0x3183 JUMPI PUSH1 0x0 DUP1 REVERT JUMPDEST PUSH2 0x318F DUP6 DUP3 DUP7 ADD PUSH2 0x30DB JUMP JUMPDEST SWAP2 POP POP SWAP3 POP SWAP3 SWAP1 POP JUMP JUMPDEST PUSH1 0x0 DUP1 PUSH1 0x40 DUP4 DUP6 SUB SLT ISZERO PUSH2 0x31AC JUMPI PUSH1 0x0 DUP1 REVERT JUMPDEST POP POP DUP1 CALLDATALOAD SWAP3 PUSH1 0x20 SWAP1 SWAP2 ADD CALLDATALOAD SWAP2 POP JUMP JUMPDEST PUSH1 0x0 DUP1 PUSH1 0x40 DUP4 DUP6 SUB SLT ISZERO PUSH2 0x31CE JUMPI PUSH1 0x0 DUP1 REVERT JUMPDEST PUSH2 0x31D7 DUP4 PUSH2 0x305D JUMP JUMPDEST SWAP2 POP PUSH2 0x31E5 PUSH1 0x20 DUP5 ADD PUSH2 0x305D JUMP JUMPDEST SWAP1 POP SWAP3 POP SWAP3 SWAP1 POP JUMP JUMPDEST PUSH1 0x0 DUP1 PUSH1 0x0 DUP1 PUSH1 0x80 DUP6 DUP8 SUB SLT ISZERO PUSH2 0x3204 JUMPI PUSH1 0x0 DUP1 REVERT JUMPDEST PUSH2 0x320D DUP6 PUSH2 0x305D JUMP JUMPDEST SWAP4 POP PUSH1 0x20 DUP6 ADD CALLDATALOAD SWAP3 POP PUSH1 0x40 DUP6 ADD CALLDATALOAD SWAP2 POP PUSH1 0x60 DUP6 ADD CALLDATALOAD PUSH8 0xFFFFFFFFFFFFFFFF DUP2 GT ISZERO PUSH2 0x3237 JUMPI PUSH1 0x0 DUP1 REVERT JUMPDEST PUSH2 0x3243 DUP8 DUP3 DUP9 ADD PUSH2 0x30DB JUMP JUMPDEST SWAP2 POP POP SWAP3 SWAP6 SWAP2 SWAP5 POP SWAP3 POP JUMP JUMPDEST PUSH1 0x0 DUP2 MLOAD DUP1 DUP5 MSTORE PUSH1 0x20 DUP1 DUP6 ADD SWAP5 POP DUP1 DUP5 ADD PUSH1 0x0 JUMPDEST DUP4 DUP2 LT ISZERO PUSH2 0x327F JUMPI DUP2 MLOAD DUP8 MSTORE SWAP6 DUP3 ADD SWAP6 SWAP1 DUP3 ADD SWAP1 PUSH1 0x1 ADD PUSH2 0x3263 JUMP JUMPDEST POP SWAP5 SWAP6 SWAP5 POP POP POP POP POP JUMP JUMPDEST PUSH1 0x20 DUP2 MSTORE PUSH1 0x0 PUSH2 0x117C PUSH1 0x20 DUP4 ADD DUP5 PUSH2 0x324F JUMP JUMPDEST PUSH1 0x0 DUP3 PUSH1 0x1F DUP4 ADD SLT PUSH2 0x32AE JUMPI PUSH1 0x0 DUP1 REVERT JUMPDEST DUP2 CALLDATALOAD PUSH1 0x20 PUSH8 0xFFFFFFFFFFFFFFFF DUP3 GT ISZERO PUSH2 0x32CA JUMPI PUSH2 0x32CA PUSH2 0x3094 JUMP JUMPDEST DUP2 PUSH1 0x5 SHL PUSH2 0x32D9 DUP3 DUP3 ADD PUSH2 0x30AA JUMP JUMPDEST SWAP3 DUP4 MSTORE DUP5 DUP2 ADD DUP3 ADD SWAP3 DUP3 DUP2 ADD SWAP1 DUP8 DUP6 GT ISZERO PUSH2 0x32F3 JUMPI PUSH1 0x0 DUP1 REVERT JUMPDEST DUP4 DUP8 ADD SWAP3 POP JUMPDEST DUP5 DUP4 LT ISZERO PUSH2 0x3312 JUMPI DUP3 CALLDATALOAD DUP3 MSTORE SWAP2 DUP4 ADD SWAP2 SWAP1 DUP4 ADD SWAP1 PUSH2 0x32F9 JUMP JUMPDEST SWAP8 SWAP7 POP POP POP POP POP POP POP JUMP JUMPDEST PUSH1 0x0 DUP1 PUSH1 0x0 DUP1 PUSH1 0x80 DUP6 DUP8 SUB SLT ISZERO PUSH2 0x3333 JUMPI PUSH1 0x0 DUP1 REVERT JUMPDEST PUSH2 0x333C DUP6 PUSH2 0x305D JUMP JUMPDEST SWAP4 POP PUSH1 0x20 DUP6 ADD CALLDATALOAD PUSH8 0xFFFFFFFFFFFFFFFF DUP1 DUP3 GT ISZERO PUSH2 0x3359 JUMPI PUSH1 0x0 DUP1 REVERT JUMPDEST PUSH2 0x3365 DUP9 DUP4 DUP10 ADD PUSH2 0x329D JUMP JUMPDEST SWAP5 POP PUSH1 0x40 DUP8 ADD CALLDATALOAD SWAP2 POP DUP1 DUP3 GT ISZERO PUSH2 0x337B JUMPI PUSH1 0x0 DUP1 REVERT JUMPDEST PUSH2 0x3387 DUP9 DUP4 DUP10 ADD PUSH2 0x329D JUMP JUMPDEST SWAP4 POP PUSH1 0x60 DUP8 ADD CALLDATALOAD SWAP2 POP DUP1 DUP3 GT ISZERO PUSH2 0x339D JUMPI PUSH1 0x0 DUP1 REVERT JUMPDEST POP PUSH2 0x3243 DUP8 DUP3 DUP9 ADD PUSH2 0x30DB JUMP JUMPDEST PUSH1 0x0 DUP1 PUSH1 0x0 PUSH1 0x60 DUP5 DUP7 SUB SLT ISZERO PUSH2 0x33BF JUMPI PUSH1 0x0 DUP1 REVERT JUMPDEST PUSH2 0x33C8 DUP5 PUSH2 0x305D JUMP JUMPDEST SWAP6 PUSH1 0x20 DUP6 ADD CALLDATALOAD SWAP6 POP PUSH1 0x40 SWAP1 SWAP5 ADD CALLDATALOAD SWAP4 SWAP3 POP POP POP JUMP JUMPDEST PUSH4 0x4E487B71 PUSH1 0xE0 SHL PUSH1 0x0 MSTORE PUSH1 0x21 PUSH1 0x4 MSTORE PUSH1 0x24 PUSH1 0x0 REVERT JUMPDEST PUSH1 0x20 DUP2 ADD PUSH1 0x3 DUP4 LT PUSH2 0x3415 JUMPI PUSH4 0x4E487B71 PUSH1 0xE0 SHL PUSH1 0x0 MSTORE PUSH1 0x21 PUSH1 0x4 MSTORE PUSH1 0x24 PUSH1 0x0 REVERT JUMPDEST SWAP2 SWAP1 MSTORE SWAP1 JUMP JUMPDEST PUSH1 0x0 DUP1 PUSH1 0x40 DUP4 DUP6 SUB SLT ISZERO PUSH2 0x342E JUMPI PUSH1 0x0 DUP1 REVERT JUMPDEST DUP3 CALLDATALOAD SWAP2 POP PUSH1 0x20 DUP4 ADD CALLDATALOAD PUSH1 0xFF DUP2 AND DUP2 EQ PUSH2 0x3446 JUMPI PUSH1 0x0 DUP1 REVERT JUMPDEST DUP1 SWAP2 POP POP SWAP3 POP SWAP3 SWAP1 POP JUMP JUMPDEST PUSH1 0xC0 DUP2 ADD DUP2 DUP4 PUSH1 0x0 JUMPDEST PUSH1 0x6 DUP2 LT ISZERO PUSH2 0x347B JUMPI DUP2 MLOAD ISZERO ISZERO DUP4 MSTORE PUSH1 0x20 SWAP3 DUP4 ADD SWAP3 SWAP1 SWAP2 ADD SWAP1 PUSH1 0x1 ADD PUSH2 0x345A JUMP JUMPDEST POP POP POP SWAP3 SWAP2 POP POP JUMP JUMPDEST PUSH1 0x1 DUP2 DUP2 SHR SWAP1 DUP3 AND DUP1 PUSH2 0x3498 JUMPI PUSH1 0x7F DUP3 AND SWAP2 POP JUMPDEST PUSH1 0x20 DUP3 LT DUP2 SUB PUSH2 0x2607 JUMPI PUSH4 0x4E487B71 PUSH1 0xE0 SHL PUSH1 0x0 MSTORE PUSH1 0x22 PUSH1 0x4 MSTORE PUSH1 0x24 PUSH1 0x0 REVERT JUMPDEST PUSH4 0x4E487B71 PUSH1 0xE0 SHL PUSH1 0x0 MSTORE PUSH1 0x11 PUSH1 0x4 MSTORE PUSH1 0x24 PUSH1 0x0 REVERT JUMPDEST DUP2 DUP2 SUB DUP2 DUP2 GT ISZERO PUSH2 0xD7F JUMPI PUSH2 0xD7F PUSH2 0x34B8 JUMP JUMPDEST PUSH1 0x0 DUP3 PUSH2 0x34FE JUMPI PUSH4 0x4E487B71 PUSH1 0xE0 SHL PUSH1 0x0 MSTORE PUSH1 0x12 PUSH1 0x4 MSTORE PUSH1 0x24 PUSH1 0x0 REVERT JUMPDEST POP DIV SWAP1 JUMP JUMPDEST PUSH1 0x20 DUP1 DUP3 MSTORE PUSH1 0x1F SWAP1 DUP3 ADD MSTORE PUSH32 0x5265656E7472616E637947756172643A207265656E7472616E742063616C6C00 PUSH1 0x40 DUP3 ADD MSTORE PUSH1 0x60 ADD SWAP1 JUMP JUMPDEST PUSH4 0x4E487B71 PUSH1 0xE0 SHL PUSH1 0x0 MSTORE PUSH1 0x32 PUSH1 0x4 MSTORE PUSH1 0x24 PUSH1 0x0 REVERT JUMPDEST PUSH1 0x20 DUP1 DUP3 MSTORE PUSH1 0xC SWAP1 DUP3 ADD MSTORE PUSH12 0x3737BA10309036B2B6B132B9 PUSH1 0xA1 SHL PUSH1 0x40 DUP3 ADD MSTORE PUSH1 0x60 ADD SWAP1 JUMP JUMPDEST PUSH1 0x0 PUSH1 0x20 DUP3 DUP5 SUB SLT ISZERO PUSH2 0x3588 JUMPI PUSH1 0x0 DUP1 REVERT JUMPDEST DUP2 MLOAD DUP1 ISZERO ISZERO DUP2 EQ PUSH2 0x117C JUMPI PUSH1 0x0 DUP1 REVERT JUMPDEST DUP1 DUP3 ADD DUP1 DUP3 GT ISZERO PUSH2 0xD7F JUMPI PUSH2 0xD7F PUSH2 0x34B8 JUMP JUMPDEST PUSH1 0x20 DUP1 DUP3 MSTORE PUSH1 0x24 SWAP1 DUP3 ADD MSTORE PUSH32 0x6170706C6963616E7420616464726573732063616E6E6F742062652072657365 PUSH1 0x40 DUP3 ADD MSTORE PUSH4 0x1C9D9959 PUSH1 0xE2 SHL PUSH1 0x60 DUP3 ADD MSTORE PUSH1 0x80 ADD SWAP1 JUMP JUMPDEST PUSH1 0x20 DUP1 DUP3 MSTORE PUSH1 0x25 SWAP1 DUP3 ADD MSTORE PUSH32 0x70726F706F73616C206170706C6963616E74206D757374206E6F74206265206A PUSH1 0x40 DUP3 ADD MSTORE PUSH5 0x185A5B1959 PUSH1 0xDA SHL PUSH1 0x60 DUP3 ADD MSTORE PUSH1 0x80 ADD SWAP1 JUMP JUMPDEST PUSH1 0x0 DUP2 SLOAD DUP1 DUP5 MSTORE PUSH1 0x20 DUP1 DUP6 ADD SWAP5 POP DUP4 PUSH1 0x0 MSTORE DUP1 PUSH1 0x0 KECCAK256 PUSH1 0x0 JUMPDEST DUP4 DUP2 LT ISZERO PUSH2 0x327F JUMPI DUP2 SLOAD DUP8 MSTORE SWAP6 DUP3 ADD SWAP6 PUSH1 0x1 SWAP2 DUP3 ADD SWAP2 ADD PUSH2 0x364D JUMP JUMPDEST DUP1 SLOAD PUSH1 0xFF DUP1 DUP3 AND ISZERO ISZERO DUP5 MSTORE DUP1 DUP3 PUSH1 0x8 SHR AND ISZERO ISZERO PUSH1 0x20 DUP6 ADD MSTORE DUP1 DUP3 PUSH1 0x10 SHR AND ISZERO ISZERO PUSH1 0x40 DUP6 ADD MSTORE DUP1 DUP3 PUSH1 0x18 SHR AND ISZERO ISZERO PUSH1 0x60 DUP6 ADD MSTORE DUP1 DUP3 PUSH1 0x20 SHR AND ISZERO ISZERO PUSH1 0x80 DUP6 ADD MSTORE DUP1 DUP3 PUSH1 0x28 SHR AND ISZERO ISZERO PUSH1 0xA0 DUP6 ADD MSTORE POP POP POP POP JUMP JUMPDEST PUSH1 0x0 PUSH2 0x180 PUSH1 0x1 DUP1 PUSH1 0xA0 SHL SUB DUP11 AND DUP4 MSTORE PUSH1 0x20 DUP2 DUP2 DUP6 ADD MSTORE PUSH1 0x0 DUP11 SLOAD PUSH2 0x36DF DUP2 PUSH2 0x3484 JUMP JUMPDEST SWAP4 DUP7 ADD DUP5 SWAP1 MSTORE PUSH2 0x1A0 SWAP4 PUSH1 0x1 DUP3 DUP2 AND DUP1 ISZERO PUSH2 0x3701 JUMPI PUSH1 0x1 DUP2 EQ PUSH2 0x371B JUMPI PUSH2 0x3749 JUMP JUMPDEST PUSH1 0xFF NOT DUP5 AND DUP10 DUP9 ADD MSTORE DUP3 ISZERO ISZERO PUSH1 0x5 SHL DUP10 ADD DUP8 ADD SWAP5 POP PUSH2 0x3749 JUMP JUMPDEST DUP15 PUSH1 0x0 MSTORE DUP6 PUSH1 0x0 KECCAK256 PUSH1 0x0 JUMPDEST DUP5 DUP2 LT ISZERO PUSH2 0x3741 JUMPI DUP2 SLOAD DUP12 DUP3 ADD DUP11 ADD MSTORE SWAP1 DUP4 ADD SWAP1 DUP8 ADD PUSH2 0x3726 JUMP JUMPDEST DUP11 ADD DUP9 ADD SWAP6 POP POP JUMPDEST POP POP POP POP DUP5 DUP2 SUB PUSH1 0x40 DUP7 ADD MSTORE PUSH2 0x375F DUP2 DUP12 PUSH2 0x3634 JUMP JUMPDEST SWAP4 POP POP POP POP PUSH2 0x3771 PUSH1 0x60 DUP4 ADD DUP8 PUSH2 0x3669 JUMP JUMPDEST DUP5 PUSH2 0x120 DUP4 ADD MSTORE DUP4 PUSH2 0x140 DUP4 ADD MSTORE DUP3 PUSH2 0x160 DUP4 ADD MSTORE SWAP9 SWAP8 POP POP POP POP POP POP POP POP JUMP JUMPDEST PUSH1 0x20 DUP1 DUP3 MSTORE PUSH1 0x23 SWAP1 DUP3 ADD MSTORE PUSH32 0x70726F706F73616C2068617320616C7265616479206265656E2073706F6E736F PUSH1 0x40 DUP3 ADD MSTORE PUSH3 0x1C9959 PUSH1 0xEA SHL PUSH1 0x60 DUP3 ADD MSTORE PUSH1 0x80 ADD SWAP1 JUMP JUMPDEST PUSH1 0x0 PUSH1 0x1 DUP3 ADD PUSH2 0x37E7 JUMPI PUSH2 0x37E7 PUSH2 0x34B8 JUMP JUMPDEST POP PUSH1 0x1 ADD SWAP1 JUMP JUMPDEST PUSH1 0x20 DUP1 DUP3 MSTORE PUSH1 0x17 SWAP1 DUP3 ADD MSTORE PUSH32 0x70726F706F73616C20646F6573206E6F74206578697374000000000000000000 PUSH1 0x40 DUP3 ADD MSTORE PUSH1 0x60 ADD SWAP1 JUMP JUMPDEST PUSH1 0x1F DUP3 GT ISZERO PUSH2 0x274A JUMPI PUSH1 0x0 DUP2 DUP2 MSTORE PUSH1 0x20 DUP2 KECCAK256 PUSH1 0x1F DUP6 ADD PUSH1 0x5 SHR DUP2 ADD PUSH1 0x20 DUP7 LT ISZERO PUSH2 0x384C JUMPI POP DUP1 JUMPDEST PUSH1 0x1F DUP6 ADD PUSH1 0x5 SHR DUP3 ADD SWAP2 POP JUMPDEST DUP2 DUP2 LT ISZERO PUSH2 0x386B JUMPI DUP3 DUP2 SSTORE PUSH1 0x1 ADD PUSH2 0x3858 JUMP JUMPDEST POP POP POP POP POP POP JUMP JUMPDEST DUP2 MLOAD PUSH8 0xFFFFFFFFFFFFFFFF DUP2 GT ISZERO PUSH2 0x388D JUMPI PUSH2 0x388D PUSH2 0x3094 JUMP JUMPDEST PUSH2 0x38A1 DUP2 PUSH2 0x389B DUP5 SLOAD PUSH2 0x3484 JUMP JUMPDEST DUP5 PUSH2 0x3825 JUMP JUMPDEST PUSH1 0x20 DUP1 PUSH1 0x1F DUP4 GT PUSH1 0x1 DUP2 EQ PUSH2 0x38D6 JUMPI PUSH1 0x0 DUP5 ISZERO PUSH2 0x38BE JUMPI POP DUP6 DUP4 ADD MLOAD JUMPDEST PUSH1 0x0 NOT PUSH1 0x3 DUP7 SWAP1 SHL SHR NOT AND PUSH1 0x1 DUP6 SWAP1 SHL OR DUP6 SSTORE PUSH2 0x386B JUMP JUMPDEST PUSH1 0x0 DUP6 DUP2 MSTORE PUSH1 0x20 DUP2 KECCAK256 PUSH1 0x1F NOT DUP7 AND SWAP2 JUMPDEST DUP3 DUP2 LT ISZERO PUSH2 0x3905 JUMPI DUP9 DUP7 ADD MLOAD DUP3 SSTORE SWAP5 DUP5 ADD SWAP5 PUSH1 0x1 SWAP1 SWAP2 ADD SWAP1 DUP5 ADD PUSH2 0x38E6 JUMP JUMPDEST POP DUP6 DUP3 LT ISZERO PUSH2 0x3923 JUMPI DUP8 DUP6 ADD MLOAD PUSH1 0x0 NOT PUSH1 0x3 DUP9 SWAP1 SHL PUSH1 0xF8 AND SHR NOT AND DUP2 SSTORE JUMPDEST POP POP POP POP POP PUSH1 0x1 SWAP1 DUP2 SHL ADD SWAP1 SSTORE POP JUMP JUMPDEST PUSH1 0x1 PUSH1 0x1 PUSH1 0xA0 SHL SUB DUP9 AND DUP2 MSTORE PUSH2 0x180 PUSH1 0x20 DUP3 ADD DUP2 SWAP1 MSTORE PUSH1 0x0 SWAP1 PUSH2 0x3958 DUP4 DUP3 ADD DUP11 PUSH2 0x2FA3 JUMP JUMPDEST SWAP1 POP DUP3 DUP2 SUB PUSH1 0x40 DUP5 ADD MSTORE PUSH2 0x396C DUP2 DUP10 PUSH2 0x324F JUMP JUMPDEST SWAP2 POP POP PUSH2 0x3771 PUSH1 0x60 DUP4 ADD DUP8 PUSH2 0x3669 JUMP JUMPDEST DUP1 DUP3 MUL DUP2 ISZERO DUP3 DUP3 DIV DUP5 EQ OR PUSH2 0xD7F JUMPI PUSH2 0xD7F PUSH2 0x34B8 JUMP INVALID DUP13 MULMOD CALL 0xF9 GASPRICE PUSH17 0x888C4F771B66728AD738408CBA6BF23C2C MLOAD STATICCALL 0xDC DUP8 EXTCODEHASH STATICCALL 0xF9 0xA9 0xBA KECCAK256 PUSH8 0x7881080440A9B3C8 PUSH31 0x826370BB5D9C2F74EFD4DEDE686D52D77A6A09F8BBA2646970667358221220 0xBB 0xD1 0xEB CALLVALUE BASEFEE CALLER 0x25 PUSH2 0x5C7A SWAP2 JUMPDEST PUSH19 0x52EB6919F1A1E8758CDEA66803BFBC100A823C PUSH5 0x736F6C6343 STOP ADDMOD GT STOP CALLER "},"methodIdentifiers":{"ESCROW()":"e681c4aa","GUILD()":"f5d54c77","TOTAL()":"27efc086","a_test_prepare_for_vote()":"c49b1685","cancelProposal(uint256)":"e0a8f6f5","depositToken()":"c89039c5","dilutionBound()":"afe5475f","getCurrentPeriod()":"086146d2","getMemberProposalVoteByMilestone(address,uint256,uint256)":"8b6cb9e5","getPaymentRequested(uint256)":"62312524","getProposalFlags(uint256)":"b2643aab","getStartPeriod(uint256)":"571ed9c5","getUserTokenBalance(address,address)":"73f8fd4b","gracePeriodLength()":"63858f2d","hasVotingPeriodExpired(uint256)":"9425a476","members(address)":"08ae4b0c","periodDuration()":"b470aade","preProcessProposal(uint256)":"87dfc825","processProposal(uint256)":"e63bc62d","proposalCount()":"da35c664","proposalDeposit()":"8b15a605","proposals(uint256)":"013cf08b","proposedToKick(address)":"3fc24bba","ragekick(address)":"dfdd369e","ragequit(uint256,uint256)":"15eb349e","sponsorProposal(uint256)":"9746d940","submitGuildKickProposal(address,string)":"115b2d18","submitJoinProposal(address,uint256,uint256,string)":"4c105631","submitProjectProposal(address,uint256[],uint256[],string)":"878fc813","submitVote(uint256,uint8)":"99653fbe","summoningTime()":"7d5b6c72","testDeposit(uint256)":"45e00ef4","totalShares()":"3a98ef39","userTokenBalances(address,address)":"45f2d105","votingPeriodLength()":"8340bbce","withdrawBalance(uint256)":"da76d5cd"}}}}}