{"contracts/Boii.sol":{"Boii":{"abi":[{"inputs":[{"internalType":"address","name":"_summoner","type":"address"},{"internalType":"address","name":"_depositToken","type":"address"},{"internalType":"uint256","name":"_periodDuration","type":"uint256"},{"internalType":"uint256","name":"_votingPeriodLength","type":"uint256"},{"internalType":"uint256","name":"_gracePeriodLength","type":"uint256"},{"internalType":"uint256","name":"_proposalDeposit","type":"uint256"},{"internalType":"uint256","name":"_dilutionBound","type":"uint256"}],"stateMutability":"nonpayable","type":"constructor"},{"anonymous":false,"inputs":[{"indexed":true,"internalType":"uint256","name":"proposalId","type":"uint256"},{"indexed":true,"internalType":"string","name":"projectHash","type":"string"},{"indexed":false,"internalType":"uint256[]","name":"paymentRequest","type":"uint256[]"},{"indexed":false,"internalType":"bool[6]","name":"flags","type":"bool[6]"},{"indexed":false,"internalType":"uint256","name":"yesVoted","type":"uint256"},{"indexed":false,"internalType":"uint256","name":"noVoted","type":"uint256"},{"indexed":false,"internalType":"uint256","name":"milestoneIndex","type":"uint256"}],"name":"UpdateProposal","type":"event"},{"inputs":[],"name":"ESCROW","outputs":[{"internalType":"address","name":"","type":"address"}],"stateMutability":"view","type":"function"},{"inputs":[],"name":"GUILD","outputs":[{"internalType":"address","name":"","type":"address"}],"stateMutability":"view","type":"function"},{"inputs":[],"name":"TOTAL","outputs":[{"internalType":"address","name":"","type":"address"}],"stateMutability":"view","type":"function"},{"inputs":[],"name":"a_test_prepare_for_vote","outputs":[],"stateMutability":"nonpayable","type":"function"},{"inputs":[{"internalType":"uint256","name":"proposalId","type":"uint256"}],"name":"cancelProposal","outputs":[],"stateMutability":"nonpayable","type":"function"},{"inputs":[],"name":"depositToken","outputs":[{"internalType":"address","name":"","type":"address"}],"stateMutability":"view","type":"function"},{"inputs":[],"name":"dilutionBound","outputs":[{"internalType":"uint256","name":"","type":"uint256"}],"stateMutability":"view","type":"function"},{"inputs":[],"name":"getCurrentPeriod","outputs":[{"internalType":"uint256","name":"","type":"uint256"}],"stateMutability":"view","type":"function"},{"inputs":[{"internalType":"address","name":"memberAddress","type":"address"},{"internalType":"uint256","name":"proposalId","type":"uint256"},{"internalType":"uint256","name":"milestone","type":"uint256"}],"name":"getMemberProposalVoteByMilestone","outputs":[{"internalType":"enum Boii.Vote","name":"","type":"uint8"}],"stateMutability":"view","type":"function"},{"inputs":[{"internalType":"uint256","name":"proposalId","type":"uint256"}],"name":"getPaymentRequested","outputs":[{"internalType":"uint256[]","name":"","type":"uint256[]"}],"stateMutability":"view","type":"function"},{"inputs":[{"internalType":"uint256","name":"proposalId","type":"uint256"}],"name":"getProposalFlags","outputs":[{"internalType":"bool[6]","name":"","type":"bool[6]"}],"stateMutability":"view","type":"function"},{"inputs":[{"internalType":"uint256","name":"proposalId","type":"uint256"}],"name":"getStartPeriod","outputs":[{"internalType":"uint256[]","name":"","type":"uint256[]"}],"stateMutability":"view","type":"function"},{"inputs":[{"internalType":"address","name":"user","type":"address"},{"internalType":"address","name":"token","type":"address"}],"name":"getUserTokenBalance","outputs":[{"internalType":"uint256","name":"","type":"uint256"}],"stateMutability":"view","type":"function"},{"inputs":[],"name":"gracePeriodLength","outputs":[{"internalType":"uint256","name":"","type":"uint256"}],"stateMutability":"view","type":"function"},{"inputs":[{"internalType":"uint256","name":"startingPeriod","type":"uint256"}],"name":"hasVotingPeriodExpired","outputs":[{"internalType":"bool","name":"","type":"bool"}],"stateMutability":"view","type":"function"},{"inputs":[{"internalType":"address","name":"","type":"address"}],"name":"members","outputs":[{"internalType":"uint256","name":"shares","type":"uint256"},{"internalType":"bool","name":"exists","type":"bool"},{"internalType":"uint256","name":"highestIndexVote","type":"uint256"},{"internalType":"bool","name":"jailed","type":"bool"}],"stateMutability":"view","type":"function"},{"inputs":[],"name":"periodDuration","outputs":[{"internalType":"uint256","name":"","type":"uint256"}],"stateMutability":"view","type":"function"},{"inputs":[{"internalType":"uint256","name":"proposalId","type":"uint256"}],"name":"preProcessProposal","outputs":[],"stateMutability":"nonpayable","type":"function"},{"inputs":[{"internalType":"uint256","name":"proposalId","type":"uint256"}],"name":"processProposal","outputs":[],"stateMutability":"nonpayable","type":"function"},{"inputs":[],"name":"proposalCount","outputs":[{"internalType":"uint256","name":"","type":"uint256"}],"stateMutability":"view","type":"function"},{"inputs":[],"name":"proposalDeposit","outputs":[{"internalType":"uint256","name":"","type":"uint256"}],"stateMutability":"view","type":"function"},{"inputs":[{"internalType":"uint256","name":"","type":"uint256"}],"name":"proposals","outputs":[{"internalType":"address","name":"applicant","type":"address"},{"internalType":"address","name":"proposer","type":"address"},{"internalType":"address","name":"sponsor","type":"address"},{"internalType":"uint256","name":"sharesRequested","type":"uint256"},{"internalType":"uint256","name":"tributeOffered","type":"uint256"},{"internalType":"uint256","name":"activePeriod","type":"uint256"},{"internalType":"uint256","name":"milestoneIndex","type":"uint256"},{"internalType":"uint256","name":"yesVoted","type":"uint256"},{"internalType":"uint256","name":"noVoted","type":"uint256"},{"internalType":"string","name":"projectHash","type":"string"},{"internalType":"uint256","name":"maxTotalSharesAtYesVote","type":"uint256"}],"stateMutability":"view","type":"function"},{"inputs":[{"internalType":"address","name":"","type":"address"}],"name":"proposedToKick","outputs":[{"internalType":"bool","name":"","type":"bool"}],"stateMutability":"view","type":"function"},{"inputs":[{"internalType":"address","name":"memberToKick","type":"address"}],"name":"ragekick","outputs":[],"stateMutability":"nonpayable","type":"function"},{"inputs":[{"internalType":"uint256","name":"sharesToBurn","type":"uint256"},{"internalType":"uint256","name":"proposalId","type":"uint256"}],"name":"ragequit","outputs":[],"stateMutability":"nonpayable","type":"function"},{"inputs":[{"internalType":"uint256","name":"proposalId","type":"uint256"}],"name":"sponsorProposal","outputs":[],"stateMutability":"nonpayable","type":"function"},{"inputs":[{"internalType":"address","name":"memberToKick","type":"address"},{"internalType":"string","name":"details","type":"string"}],"name":"submitGuildKickProposal","outputs":[{"internalType":"uint256","name":"proposalId","type":"uint256"}],"stateMutability":"nonpayable","type":"function"},{"inputs":[{"internalType":"address","name":"applicant","type":"address"},{"internalType":"uint256","name":"sharesRequested","type":"uint256"},{"internalType":"uint256","name":"tributeOffered","type":"uint256"},{"internalType":"string","name":"details","type":"string"}],"name":"submitJoinProposal","outputs":[{"internalType":"uint256","name":"proposalId","type":"uint256"}],"stateMutability":"nonpayable","type":"function"},{"inputs":[{"internalType":"address","name":"applicant","type":"address"},{"internalType":"uint256[]","name":"paymentRequested","type":"uint256[]"},{"internalType":"uint256[]","name":"startPeriod","type":"uint256[]"},{"internalType":"string","name":"details","type":"string"}],"name":"submitProjectProposal","outputs":[{"internalType":"uint256","name":"proposalId","type":"uint256"}],"stateMutability":"nonpayable","type":"function"},{"inputs":[{"internalType":"uint256","name":"proposalIndex","type":"uint256"},{"internalType":"uint8","name":"uintVote","type":"uint8"}],"name":"submitVote","outputs":[],"stateMutability":"nonpayable","type":"function"},{"inputs":[],"name":"summoningTime","outputs":[{"internalType":"uint256","name":"","type":"uint256"}],"stateMutability":"view","type":"function"},{"inputs":[],"name":"totalShares","outputs":[{"internalType":"uint256","name":"","type":"uint256"}],"stateMutability":"view","type":"function"},{"inputs":[{"internalType":"address","name":"","type":"address"},{"internalType":"address","name":"","type":"address"}],"name":"userTokenBalances","outputs":[{"internalType":"uint256","name":"","type":"uint256"}],"stateMutability":"view","type":"function"},{"inputs":[],"name":"votingPeriodLength","outputs":[{"internalType":"uint256","name":"","type":"uint256"}],"stateMutability":"view","type":"function"},{"inputs":[{"internalType":"uint256","name":"amount","type":"uint256"}],"name":"withdrawBalance","outputs":[],"stateMutability":"nonpayable","type":"function"}],"evm":{"bytecode":{"linkReferences":{},"object":"60806040523480156200001157600080fd5b5060405162003ce938038062003ce983398101604081905262000034916200045a565b6000805460ff191660011790556001600160a01b0387166200009d5760405162461bcd60e51b815260206004820152601460248201527f73756d6d6f6e65722063616e6e6f74206265203000000000000000000000000060448201526064015b60405180910390fd5b60008511620000fa5760405162461bcd60e51b815260206004820152602260248201527f706572696f644475726174696f6e206d7573742067726561746572207468616e604482015261020360f41b606482015260840162000094565b600084116200015b5760405162461bcd60e51b815260206004820152602660248201527f766f74696e67506572696f644c656e677468206d75737420677265617465722060448201526507468616e20360d41b606482015260840162000094565b670de0b6b3a7640000841115620001c15760405162461bcd60e51b8152602060048201526024808201527f766f74696e67506572696f644c656e677468206578636565647320746865206c6044820152631a5b5a5d60e21b606482015260840162000094565b60008311620002215760405162461bcd60e51b815260206004820152602560248201527f6772616365506572696f644c656e677468206d75737420677265617465722074604482015264068616e20360dc1b606482015260840162000094565b670de0b6b3a7640000831115620002875760405162461bcd60e51b815260206004820152602360248201527f6772616365506572696f644c656e677468206578636565647320746865206c696044820152621b5a5d60ea1b606482015260840162000094565b60008111620002e35760405162461bcd60e51b815260206004820152602160248201527f64696c7574696f6e426f756e64206d7573742067726561746572207468616e206044820152600360fc1b606482015260840162000094565b670de0b6b3a76400008111156200033d5760405162461bcd60e51b815260206004820152601f60248201527f64696c7574696f6e426f756e64206578636565647320746865206c696d697400604482015260640162000094565b6001600160a01b038616620003955760405162461bcd60e51b815260206004820152601860248201527f6465706f736974546f6b656e2063616e6e6f7420626520300000000000000000604482015260640162000094565b600780546001600160a01b039788166001600160a01b0319909116179055600194855560029384556003928355600491909155600555426006556040805160808101825284815260208082018681526000838501818152606085018281529a9099168152600c909252929020905181559051818501805491151560ff1992831617905594519281019290925593519301805493151593909216929092179055600955620004c1565b80516001600160a01b03811681146200045557600080fd5b919050565b600080600080600080600060e0888a0312156200047657600080fd5b62000481886200043d565b965062000491602089016200043d565b604089015160608a015160808b015160a08c015160c0909c01519a9d939c50919a90999198509650945092505050565b61381880620004d16000396000f3fe608060405234801561001057600080fd5b50600436106102115760003560e01c806387dfc82511610125578063c49b1685116100ad578063dfdd369e1161007c578063dfdd369e146104fb578063e0a8f6f51461050e578063e63bc62d14610521578063e681c4aa14610534578063f5d54c771461053d57600080fd5b8063c49b16851461049b578063c89039c5146104cc578063da35c664146104df578063da76d5cd146104e857600080fd5b80639746d940116100f45780639746d9401461044357806399653fbe14610456578063afe5475f14610469578063b2643aab14610472578063b470aade1461049257600080fd5b806387dfc825146103f45780638b15a605146104075780638b6cb9e5146104105780639425a4761461043057600080fd5b806345f2d105116101a857806363858f2d1161017757806363858f2d146103b357806373f8fd4b146103bc5780637d5b6c72146103cf5780638340bbce146103d8578063878fc813146103e157600080fd5b806345f2d105146103425780634c1056311461036d578063571ed9c51461038057806362312524146103a057600080fd5b806315eb349e116101e457806315eb349e146102d057806327efc086146102e55780633a98ef39146103065780633fc24bba1461030f57600080fd5b8063013cf08b14610216578063086146d21461024957806308ae4b0c1461025f578063115b2d18146102bd575b600080fd5b610229610224366004612dd5565b610546565b6040516102409b9a99989796959493929190612e12565b60405180910390f35b610251610637565b604051908152602001610240565b61029b61026d366004612ebf565b600c602052600090815260409020805460018201546002830154600390930154919260ff9182169290911684565b6040805194855292151560208501529183015215156060820152608001610240565b6102516102cb366004612f91565b610659565b6102e36102de366004612fdf565b61083c565b005b6102ee61babe81565b6040516001600160a01b039091168152602001610240565b61025160095481565b61033261031d366004612ebf565b600b6020526000908152604090205460ff1681565b6040519015158152602001610240565b610251610350366004613001565b600a60209081526000928352604080842090915290825290205481565b61025161037b366004613034565b610888565b61039361038e366004612dd5565b610b79565b60405161024091906130d0565b6103936103ae366004612dd5565b610bde565b61025160035481565b6102516103ca366004613001565b610c41565b61025160065481565b61025160025481565b6102516103ef366004613163565b610c6e565b6102e3610402366004612dd5565b610de7565b61025160045481565b61042361041e3660046131f0565b610fca565b6040516102409190613239565b61033261043e366004612dd5565b611068565b6102e3610451366004612dd5565b611088565b6102e3610464366004613261565b611567565b61025160055481565b610485610480366004612dd5565b611975565b6040516102409190613297565b61025160015481565b6102e36000808052600d6020527f81955a0a11e65eac625c29e8882660bae4e165a75d72780094acae8ece9a29f555565b6007546102ee906001600160a01b031681565b61025160085481565b6102e36104f6366004612dd5565b6119df565b6102e3610509366004612ebf565b611a24565b6102e361051c366004612dd5565b611b1a565b6102e361052f366004612dd5565b611c48565b6102ee61beef81565b6102ee61dead81565b600d60205260009081526040902080546001820154600283015460038401546004850154600786015460088701546009880154600a890154600c8a0180546001600160a01b039a8b169b998b169a90981698969795969495939492939192916105ae906132ca565b80601f01602080910402602001604051908101604052809291908181526020018280546105da906132ca565b80156106275780601f106105fc57610100808354040283529160200191610627565b820191906000526020600020905b81548152906001019060200180831161060a57829003601f168201915b50505050509080600d015490508b565b60006001546006544261064a9190613314565b6106549190613327565b905090565b6000805460ff166106855760405162461bcd60e51b815260040161067c90613349565b60405180910390fd5b6000805460ff191681556001600160a01b0384168152600c602090815260409182902082516080810184528154808252600183015460ff908116151594830194909452600283015494820194909452600390910154909116151560608201529061073d5760405162461bcd60e51b815260206004820152602360248201527f6d656d626572206d7573742068617665206174206c65617374206f6e6520736860448201526261726560e81b606482015260840161067c565b6001600160a01b0384166000908152600c602052604090206003015460ff16156107b35760405162461bcd60e51b815260206004820152602160248201527f6d656d626572206d757374206e6f7420616c7265616479206265206a61696c656044820152601960fa1b606482015260840161067c565b6107bb612cce565b60016080820181905260408051828152808201909152600091602080830190803683370190505090506000816000815181106107f9576107f9613380565b6020026020010181815250506108158660008084858a88611d10565b60016008546108249190613314565b93505050506000805460ff1916600117905592915050565b60005460ff1661085e5760405162461bcd60e51b815260040161067c90613349565b6000805460ff1916815561087790339084908490611e3f565b50506000805460ff19166001179055565b6000805460ff166108ab5760405162461bcd60e51b815260040161067c90613349565b6000805460ff19169055670de0b6b3a76400006108c88580613396565b11156109165760405162461bcd60e51b815260206004820152601960248201527f746f6f206d616e79207368617265732072657175657374656400000000000000604482015260640161067c565b6001600160a01b0385166109645760405162461bcd60e51b815260206004820152601560248201527406170706c6963616e742063616e6e6f74206265203605c1b604482015260640161067c565b6001600160a01b03851661dead1480159061098a57506001600160a01b03851661beef14155b80156109a157506001600160a01b03851661babe14155b6109bd5760405162461bcd60e51b815260040161067c906133a9565b6001600160a01b0385166000908152600c602052604090206003015460ff16156109f95760405162461bcd60e51b815260040161067c906133ed565b6007546040516323b872dd60e01b8152336004820152306024820152604481018590526001600160a01b03909116906323b872dd906064016020604051808303816000875af1158015610a50573d6000803e3d6000fd5b505050506040513d601f19601f82011682018060405250810190610a749190613432565b610ac05760405162461bcd60e51b815260206004820152601d60248201527f7472696275746520746f6b656e207472616e73666572206661696c6564000000604482015260640161067c565b610acc61beef846121fe565b6040805160c081018252600080825260208201819052818301819052606082018190526080820181905260a08201819052825160018082528185019094529192909190816020016020820280368337019050509050600081600081518110610b3657610b36613380565b602002602001018181525050610b5187878784858988611d10565b6001600854610b609190613314565b925050506000805460ff19166001179055949350505050565b6000818152600d6020908152604091829020600601805483518184028101840190945280845260609392830182828015610bd257602002820191906000526020600020905b815481526020019060010190808311610bbe575b50505050509050919050565b6000818152600d6020908152604091829020600501805483518184028101840190945280845260609392830182828015610bd25760200282019190600052602060002090815481526020019060010190808311610bbe5750505050509050919050565b6001600160a01b038083166000908152600a60209081526040808320938516835292905220545b92915050565b6000805460ff16610c915760405162461bcd60e51b815260040161067c90613349565b6000805460ff191690556001600160a01b038516610ce95760405162461bcd60e51b815260206004820152601560248201527406170706c6963616e742063616e6e6f74206265203605c1b604482015260640161067c565b6001600160a01b03851661dead14801590610d0f57506001600160a01b03851661beef14155b8015610d2657506001600160a01b03851661babe14155b610d425760405162461bcd60e51b815260040161067c906133a9565b6001600160a01b0385166000908152600c602052604090206003015460ff1615610d7e5760405162461bcd60e51b815260040161067c906133ed565b6040805160c081018252600080825260208201819052918101829052606081018290526080810182905260a0810182905290610dc09087908088888887611d10565b6001600854610dcf9190613314565b9150506000805460ff19166001179055949350505050565b60005460ff16610e095760405162461bcd60e51b815260040161067c90613349565b6000805460ff19169055610e1c8161228f565b6000610e27826123c8565b6000838152600d60205260409020600b8101805465ff0000000000191665010000000000179081905591925090640100000000900460ff161515600114610f475780600501600081548110610e7e57610e7e613380565b9060005260206000200154600003610ee257670de0b6b3a76400008160030154600954610eab9190613396565b1115610eb657600091505b81600b820160025b602091828204019190066101000a81548160ff021916908315150217905550610f5f565b6007546001600160a01b031660009081526000805160206137c3833981519152602052604090205460088201546005830180549091908110610f2657610f26613380565b90600052602060002001541115610eb6576000915081600b82016002610ebe565b600b8101805462ff0000191662010000841515021790555b80600c01604051610f709190613454565b6040518091039020836000805160206137a38339815191528360050184600b01856009015486600a01548760080154604051610fb095949392919061351c565b60405180910390a350506000805460ff1916600117905550565b6001600160a01b0383166000908152600c602052604081206001015460ff1661102e5760405162461bcd60e51b81526020600482015260166024820152751b595b58995c88191bd95cdb881b9bdd08195e1a5cdd60521b604482015260640161067c565b506000828152600d60209081526040808320848452600e0182528083206001600160a01b038716845290915290205460ff165b9392505050565b6000600254826110789190613396565b611080610637565b101592915050565b60005460ff166110aa5760405162461bcd60e51b815260040161067c90613349565b6000805460ff19169055600754600480546040516323b872dd60e01b8152339281019290925230602483015260448201526001600160a01b03909116906323b872dd906064016020604051808303816000875af115801561110f573d6000803e3d6000fd5b505050506040513d601f19601f820116820180604052508101906111339190613432565b61118e5760405162461bcd60e51b815260206004820152602660248201527f70726f706f73616c206465706f73697420746f6b656e207472616e736665722060448201526519985a5b195960d21b606482015260840161067c565b61119c61beef6004546121fe565b6000818152600d6020526040902060018101546001600160a01b03166112045760405162461bcd60e51b815260206004820181905260248201527f70726f706f73616c206d7573742068617665206265656e2070726f706f736564604482015260640161067c565b600b81015460ff16156112295760405162461bcd60e51b815260040161067c9061358c565b600b8101546301000000900460ff16156112855760405162461bcd60e51b815260206004820152601b60248201527f70726f706f73616c20686173206265656e2063616e63656c6c65640000000000604482015260640161067c565b600b810154610100900460ff16156112df5760405162461bcd60e51b815260206004820152601b60248201527f70726f706f73616c20686173206265656e2070726f6365737365640000000000604482015260640161067c565b80546001600160a01b03166000908152600c602052604090206003015460ff161561131c5760405162461bcd60e51b815260040161067c906133ed565b600b810154640100000000900460ff16156113c05780546001600160a01b03166000908152600b602052604090205460ff161561139b5760405162461bcd60e51b815260206004820152601860248201527f616c72656164792070726f706f73656420746f206b69636b0000000000000000604482015260640161067c565b80546001600160a01b03166000908152600b60205260409020805460ff191660011790555b806008015460000361149b576113d4610637565b6113df906001613396565b816006016000815481106113f5576113f5613380565b60009182526020909120015560015b60068201548110156114995781600601818154811061142557611425613380565b9060005260206000200154826006016001836114419190613314565b8154811061145157611451613380565b90600052602060002001546114669190613396565b82600601828154811061147b5761147b613380565b60009182526020909120015580611491816135cf565b915050611404565b505b806006016000815481106114b1576114b1613380565b600091825260208220015460078301556002820180546001600160a01b03191633179055600190600b8301905b602091828204019190066101000a81548160ff02191690831515021790555080600c0160405161150e9190613454565b6040518091039020826000805160206137a38339815191528360050184600b01856009015486600a0154876008015460405161154e95949392919061351c565b60405180910390a350506000805460ff19166001179055565b60005460ff166115895760405162461bcd60e51b815260040161067c90613349565b6000805460ff19168155338152600c6020526040902060085483106115c05760405162461bcd60e51b815260040161067c906135e8565b6000838152600d60205260409020600b81015460ff1615156001146116275760405162461bcd60e51b815260206004820152601960248201527f70726f706f73616c20646f6573206e6f742073706f6e736f7200000000000000604482015260640161067c565b60038360ff16106116705760405162461bcd60e51b81526020600482015260136024820152726d757374206265206c657373207468616e203360681b604482015260640161067c565b60008360ff16600281111561168757611687613223565b90508160070154611696610637565b10156116e45760405162461bcd60e51b815260206004820152601d60248201527f766f74696e6720706572696f6420686173206e6f742073746172746564000000604482015260640161067c565b6116f18260070154611068565b156117495760405162461bcd60e51b815260206004820152602260248201527f70726f706f73616c20766f74696e6720706572696f6420686173206578706972604482015261195960f21b606482015260840161067c565b60088201546000908152600e83016020908152604080832033845290915281205460ff16600281111561177e5761177e613223565b146117cb5760405162461bcd60e51b815260206004820152601860248201527f6d656d6265722068617320616c726561647920766f7465640000000000000000604482015260640161067c565b60018160028111156117df576117df613223565b14806117fc575060028160028111156117fa576117fa613223565b145b6118485760405162461bcd60e51b815260206004820152601d60248201527f766f7465206d7573742062652065697468657220596573206f72204e6f000000604482015260640161067c565b60088201546000908152600e8301602090815260408083203384529091529020805482919060ff1916600183600281111561188557611885613223565b0217905550600181600281111561189e5761189e613223565b036118d857825460098301546118b49190613396565b826009018190555081600d015460095411156118d357600954600d8301555b611908565b60028160028111156118ec576118ec613223565b03611908578254600a8301546119029190613396565b600a8301555b81600c016040516119199190613454565b6040518091039020856000805160206137a38339815191528460050185600b01866009015487600a0154886008015460405161195995949392919061351c565b60405180910390a350506000805460ff19166001179055505050565b61197d612cce565b6000828152600d6020526040808220815160c081019283905292600b909101916006918390855b825461010083900a900460ff1615158152602060019283018181049485019490930390920291018084116119a4575094979650505050505050565b60005460ff16611a015760405162461bcd60e51b815260040161067c90613349565b6000805460ff19169055611a1481612438565b506000805460ff19166001179055565b60005460ff16611a465760405162461bcd60e51b815260040161067c90613349565b6000805460ff191681556001600160a01b0382168152600c602052604081206003810154909160ff90911615159003611aba5760405162461bcd60e51b81526020600482015260166024820152751b595b58995c881b5d5cdd081899481a5b881a985a5b60521b604482015260640161067c565b8054611b085760405162461bcd60e51b815260206004820152601b60248201527f6d656d626572206d757374206861766520736f6d652073686172650000000000604482015260640161067c565b61087782826000015460006001611e3f565b60005460ff16611b3c5760405162461bcd60e51b815260040161067c90613349565b6000805460ff19168155818152600d60205260409020600b81015460ff1615611b775760405162461bcd60e51b815260040161067c9061358c565b600b8101546301000000900460ff1615611bdf5760405162461bcd60e51b815260206004820152602360248201527f70726f706f73616c2068617320616c7265616479206265656e2063616e63656c6044820152621b195960ea1b606482015260840161067c565b60018101546001600160a01b03163314611c3b5760405162461bcd60e51b815260206004820152601e60248201527f736f6c656c79207468652070726f706f7365722063616e2063616e63656c0000604482015260640161067c565b6001600b820160036114de565b60005460ff16611c6a5760405162461bcd60e51b815260040161067c90613349565b6000805460ff19169055611c7d81612564565b6000611c88826123c8565b6000838152600d60205260409020600b81015491925090640100000000900460ff161515600114611cf45780600501600081548110611cc957611cc9613380565b9060005260206000200154600003611cea57611ce5838361267c565b611cfe565b611ce58383612880565b611cfe8383612a40565b50506000805460ff1916600117905550565b6008546000908152600d6020908152604090912080546001600160a01b038a166001600160a01b031991821617825560018201805490911633179055600381018890556004810187905585519091611d6f916005840191880190612cec565b508351611d859060068301906020870190612cec565b506000600782018190556008820181905560098201819055600a820155611db1600b8201836006612d37565b50600c8101611dc0848261366d565b506000600d820155604051611dd690849061372d565b60405180910390206008546000805160206137a38339815191528784600b01856009015486600a01548760080154604051611e15959493929190613749565b60405180910390a3600160086000828254611e309190613396565b90915550505050505050505050565b6009546001600160a01b0385166000908152600c602052604090208054851115611ea15760405162461bcd60e51b8152602060048201526013602482015272696e73756666696369656e742073686172657360681b604482015260640161067c565b8261211e576000848152600d60205260409020600b015465010000000000900460ff16611f105760405162461bcd60e51b815260206004820152601d60248201527f70726f706f73616c206d7573742062652070726570726f636573736564000000604482015260640161067c565b6003546002546000868152600d6020526040902060070154611f329190613396565b611f3c9190613396565b611f44610637565b10611f915760405162461bcd60e51b815260206004820181905260248201527f70726f706f73616c206d75737420626520696e20677261636520706572696f64604482015260640161067c565b6000848152600d6020908152604080832060088101548452600e0182528083206001600160a01b038a16845290915281205460ff166002811115611fd757611fd7613223565b036120245760405162461bcd60e51b815260206004820181905260248201527f6d656d626572206469646e277420766f7465206f6e20612070726f706f73616c604482015260640161067c565b6000848152600d60205260409020600b015462010000900460ff1661204a57600261204d565b60015b60ff16600281111561206157612061613223565b600281111561207257612072613223565b6000858152600d6020908152604080832060088101548452600e0182528083206001600160a01b038b16845290915290205460ff1660028111156120b8576120b8613223565b0361211e5760405162461bcd60e51b815260206004820152603060248201527f6d656d6265722077686f20766f746564207468652073616d6520726573756c7460448201526f0818d85b9b9bdd081c9859d95c5d5a5d60821b606482015260840161067c565b805461212b908690613314565b815560095461213b908690613314565b6009556007546001600160a01b031660009081526000805160206137c38339815191526020526040812054612171908785612bb1565b905080156121f5576007546001600160a01b031660009081526000805160206137c38339815191526020526040812080548392906121b0908490613314565b90915550506001600160a01b038088166000908152600a60209081526040808320600754909416835292905290812080548392906121ef908490613396565b90915550505b50505050505050565b6001600160a01b038083166000908152600a6020908152604080832060075490941683529290529081208054839290612238908490613396565b90915550506007546001600160a01b031660009081527fed762ddb65dfeab933eda5256eb347e1bf2b4e76044bdc8baf0a70d22dc0c374602052604081208054839290612286908490613396565b90915550505050565b60085481106122b05760405162461bcd60e51b815260040161067c906135e8565b6000818152600d6020526040902060025460078201546122d09190613396565b6122d8610637565b10156123375760405162461bcd60e51b815260206004820152602860248201527f70726f706f73616c206973206e6f7420726561647920746f20626520707265706044820152671c9bd8d95cdcd95960c21b606482015260840161067c565b600b810154610100900460ff1615801561235f5750600b81015465010000000000900460ff16155b6123c45760405162461bcd60e51b815260206004820152603060248201527f70726f706f73616c2068617320616c7265616479206265656e2070726570726f60448201526f18d95cdcd9590bdc1c9bd8d95cdcd95960821b606482015260840161067c565b5050565b6000818152600d60208190526040909120600a8101546009808301549383015460055491549290941193916123fd919061378b565b101561240857600091505b80546001600160a01b03166000908152600c602052604090206003015460ff161561243257600091505b50919050565b336000908152600a602090815260408083206007546001600160a01b031684529091529020548111156124a45760405162461bcd60e51b8152602060048201526014602482015273696e73756666696369656e742062616c616e636560601b604482015260640161067c565b6124ae3382612c1e565b60075460405163a9059cbb60e01b8152336004820152602481018390526001600160a01b039091169063a9059cbb906044016020604051808303816000875af11580156124ff573d6000803e3d6000fd5b505050506040513d601f19601f820116820180604052508101906125239190613432565b6125615760405162461bcd60e51b815260206004820152600f60248201526e1d1c985b9cd9995c8819985a5b1959608a1b604482015260640161067c565b50565b60085481106125855760405162461bcd60e51b815260040161067c906135e8565b6000818152600d6020526040902060035460025460078301546125a89190613396565b6125b29190613396565b6125ba610637565b10156126165760405162461bcd60e51b815260206004820152602560248201527f70726f706f73616c206973206e6f7420726561647920746f2062652070726f63604482015264195cdcd95960da1b606482015260840161067c565b600b810154610100900460ff16156123c45760405162461bcd60e51b815260206004820152602360248201527f70726f706f73616c2068617320616c7265616479206265656e2070726f6365736044820152621cd95960ea1b606482015260840161067c565b6000828152600d60205260409020600b8101805461ff00191661010017905560038101546009548391670de0b6b3a7640000916126b99190613396565b11156126c3575060005b80156127e757600b8201805462ff000019166201000017905581546001600160a01b03166000908152600c602052604090206001015460ff161561274957600382015482546001600160a01b03166000908152600c602052604090205461272a9190613396565b82546001600160a01b03166000908152600c60205260409020556127b7565b604080516080810182526003808501548252600160208084018281526000858701818152606087018281528a546001600160a01b03168352600c9094529690209451855551918401805492151560ff1993841617905593516002840155925191018054911515919092161790555b81600301546009546127c99190613396565b6009819055506127e261beef61dead8460040154612ca6565b61280a565b6001820154600483015461280a9161beef916001600160a01b0390911690612ca6565b81600c0160405161281b9190613454565b6040518091039020846000805160206137a38339815191528460050185600b01866009015487600a0154886008015460405161285b95949392919061351c565b60405180910390a3600282015461287a906001600160a01b0316612cbf565b50505050565b6000828152600d60209081526040808320600b8101805461ff0019166101001790556007546001600160a01b031684526000805160206137c38339815191529092529091205460088201546005830180548593929081106128e3576128e3613380565b906000526020600020015411156128f8575060005b80156129c457600b8201805462ff0000191662010000179055815460088301546005840180546129519361dead936001600160a01b039091169291811061294157612941613380565b9060005260206000200154612ca6565b6008820154612961906001613396565b600683015411156129c45760018260080160008282546129819190613396565b92505081905550816006018260080154815481106129a1576129a1613380565b6000918252602090912001546007830155600b8201805465ff000000ff00191690555b81600c016040516129d59190613454565b6040518091039020846000805160206137a38339815191528460050185600b01866009015487600a01548860080154604051612a1595949392919061351c565b60405180910390a3816008015460000361287a57600282015461287a906001600160a01b0316612cbf565b6000828152600d60205260409020600b8101548290640100000000900460ff16612aac5760405162461bcd60e51b815260206004820152601d60248201527f6d7573742062652061206775696c64206b69636b2070726f706f73616c000000604482015260640161067c565b600b8201805461ff0019166101001790558015612b2657600b8201805462ff000019166201000017905581546001600160a01b03166000908152600c602090815260409182902082516080810184528154815260018281015460ff1615159382019390935260029190910154928101929092526060909101525b81600c01604051612b379190613454565b6040518091039020846000805160206137a38339815191528460050185600b01866009015487600a01548860080154604051612b7795949392919061351c565b60405180910390a381546001600160a01b039081166000908152600b60205260409020805460ff19169055600283015461287a9116612cbf565b600081600003612bc057600080fd5b83600003612bd057506000611061565b6000612bdc848661378b565b905083612be98683613327565b03612c0057612bf88382613327565b915050611061565b83612c0b8487613327565b612c15919061378b565b95945050505050565b6001600160a01b038083166000908152600a6020908152604080832060075490941683529290529081208054839290612c58908490613314565b90915550506007546001600160a01b031660009081527fed762ddb65dfeab933eda5256eb347e1bf2b4e76044bdc8baf0a70d22dc0c374602052604081208054839290612286908490613314565b612cb08382612c1e565b612cba82826121fe565b505050565b61256161beef82600454612ca6565b6040518060c001604052806006906020820280368337509192915050565b828054828255906000526020600020908101928215612d27579160200282015b82811115612d27578251825591602001919060010190612d0c565b50612d33929150612dc0565b5090565b600183019183908215612d275791602002820160005b83821115612d8a57835183826101000a81548160ff0219169083151502179055509260200192600101602081600001049283019260010302612d4d565b8015612db75782816101000a81549060ff0219169055600101602081600001049283019260010302612d8a565b5050612d339291505b5b80821115612d335760008155600101612dc1565b600060208284031215612de757600080fd5b5035919050565b60005b83811015612e09578181015183820152602001612df1565b50506000910152565b600061016060018060a01b03808f168452808e166020850152808d166040850152508a60608401528960808401528860a08401528760c08401528660e08401528561010084015280610120840152845180828501526101809150612e7c8183860160208901612dee565b81601f19601f83011685010192505050826101408301529c9b505050505050505050505050565b80356001600160a01b0381168114612eba57600080fd5b919050565b600060208284031215612ed157600080fd5b61106182612ea3565b634e487b7160e01b600052604160045260246000fd5b604051601f8201601f1916810167ffffffffffffffff81118282101715612f1957612f19612eda565b604052919050565b600082601f830112612f3257600080fd5b813567ffffffffffffffff811115612f4c57612f4c612eda565b612f5f601f8201601f1916602001612ef0565b818152846020838601011115612f7457600080fd5b816020850160208301376000918101602001919091529392505050565b60008060408385031215612fa457600080fd5b612fad83612ea3565b9150602083013567ffffffffffffffff811115612fc957600080fd5b612fd585828601612f21565b9150509250929050565b60008060408385031215612ff257600080fd5b50508035926020909101359150565b6000806040838503121561301457600080fd5b61301d83612ea3565b915061302b60208401612ea3565b90509250929050565b6000806000806080858703121561304a57600080fd5b61305385612ea3565b93506020850135925060408501359150606085013567ffffffffffffffff81111561307d57600080fd5b61308987828801612f21565b91505092959194509250565b600081518084526020808501945080840160005b838110156130c5578151875295820195908201906001016130a9565b509495945050505050565b6020815260006110616020830184613095565b600082601f8301126130f457600080fd5b8135602067ffffffffffffffff82111561311057613110612eda565b8160051b61311f828201612ef0565b928352848101820192828101908785111561313957600080fd5b83870192505b848310156131585782358252918301919083019061313f565b979650505050505050565b6000806000806080858703121561317957600080fd5b61318285612ea3565b9350602085013567ffffffffffffffff8082111561319f57600080fd5b6131ab888389016130e3565b945060408701359150808211156131c157600080fd5b6131cd888389016130e3565b935060608701359150808211156131e357600080fd5b5061308987828801612f21565b60008060006060848603121561320557600080fd5b61320e84612ea3565b95602085013595506040909401359392505050565b634e487b7160e01b600052602160045260246000fd5b602081016003831061325b57634e487b7160e01b600052602160045260246000fd5b91905290565b6000806040838503121561327457600080fd5b82359150602083013560ff8116811461328c57600080fd5b809150509250929050565b60c08101818360005b60068110156132c157815115158352602092830192909101906001016132a0565b50505092915050565b600181811c908216806132de57607f821691505b60208210810361243257634e487b7160e01b600052602260045260246000fd5b634e487b7160e01b600052601160045260246000fd5b81810381811115610c6857610c686132fe565b60008261334457634e487b7160e01b600052601260045260246000fd5b500490565b6020808252601f908201527f5265656e7472616e637947756172643a207265656e7472616e742063616c6c00604082015260600190565b634e487b7160e01b600052603260045260246000fd5b80820180821115610c6857610c686132fe565b60208082526024908201527f6170706c6963616e7420616464726573732063616e6e6f7420626520726573656040820152631c9d995960e21b606082015260800190565b60208082526025908201527f70726f706f73616c206170706c6963616e74206d757374206e6f74206265206a604082015264185a5b195960da1b606082015260800190565b60006020828403121561344457600080fd5b8151801515811461106157600080fd5b6000808354613462816132ca565b6001828116801561347a576001811461348f576134be565b60ff19841687528215158302870194506134be565b8760005260208060002060005b858110156134b55781548a82015290840190820161349c565b50505082870194505b50929695505050505050565b805460ff80821615158452808260081c1615156020850152808260101c1615156040850152808260181c1615156060850152808260201c1615156080850152808260281c16151560a085015250505050565b6101408082528654908201819052600087815260208082209192610160850192845b8281101561355a5781548552938301936001918201910161353e565b50505081925061356c818501896134ca565b50508460e083015283610100830152826101208301529695505050505050565b60208082526023908201527f70726f706f73616c2068617320616c7265616479206265656e2073706f6e736f6040820152621c995960ea1b606082015260800190565b6000600182016135e1576135e16132fe565b5060010190565b60208082526017908201527f70726f706f73616c20646f6573206e6f74206578697374000000000000000000604082015260600190565b601f821115612cba57600081815260208120601f850160051c810160208610156136465750805b601f850160051c820191505b8181101561366557828155600101613652565b505050505050565b815167ffffffffffffffff81111561368757613687612eda565b61369b8161369584546132ca565b8461361f565b602080601f8311600181146136d057600084156136b85750858301515b600019600386901b1c1916600185901b178555613665565b600085815260208120601f198616915b828110156136ff578886015182559484019460019091019084016136e0565b508582101561371d5787850151600019600388901b60f8161c191681555b5050505050600190811b01905550565b6000825161373f818460208701612dee565b9190910192915050565b600061014080835261375d81840189613095565b91505061376d60208301876134ca565b8460e083015283610100830152826101208301529695505050505050565b8082028115828204841417610c6857610c686132fe56fe1b4923c201075b2545a504e9b6d8852d698c3de0c3e8038118c3da13dd9cba4e20677881080440a9b3c87e826370bb5d9c2f74efd4dede686d52d77a6a09f8bba2646970667358221220908033907dd848d1b8818025081041078b21b238937b3769a474ae0496642fc864736f6c63430008110033","opcodes":"PUSH1 0x80 PUSH1 0x40 MSTORE CALLVALUE DUP1 ISZERO PUSH3 0x11 JUMPI PUSH1 0x0 DUP1 REVERT JUMPDEST POP PUSH1 0x40 MLOAD PUSH3 0x3CE9 CODESIZE SUB DUP1 PUSH3 0x3CE9 DUP4 CODECOPY DUP2 ADD PUSH1 0x40 DUP2 SWAP1 MSTORE PUSH3 0x34 SWAP2 PUSH3 0x45A JUMP JUMPDEST PUSH1 0x0 DUP1 SLOAD PUSH1 0xFF NOT AND PUSH1 0x1 OR SWAP1 SSTORE PUSH1 0x1 PUSH1 0x1 PUSH1 0xA0 SHL SUB DUP8 AND PUSH3 0x9D JUMPI PUSH1 0x40 MLOAD PUSH3 0x461BCD PUSH1 0xE5 SHL DUP2 MSTORE PUSH1 0x20 PUSH1 0x4 DUP3 ADD MSTORE PUSH1 0x14 PUSH1 0x24 DUP3 ADD MSTORE PUSH32 0x73756D6D6F6E65722063616E6E6F742062652030000000000000000000000000 PUSH1 0x44 DUP3 ADD MSTORE PUSH1 0x64 ADD JUMPDEST PUSH1 0x40 MLOAD DUP1 SWAP2 SUB SWAP1 REVERT JUMPDEST PUSH1 0x0 DUP6 GT PUSH3 0xFA JUMPI PUSH1 0x40 MLOAD PUSH3 0x461BCD PUSH1 0xE5 SHL DUP2 MSTORE PUSH1 0x20 PUSH1 0x4 DUP3 ADD MSTORE PUSH1 0x22 PUSH1 0x24 DUP3 ADD MSTORE PUSH32 0x706572696F644475726174696F6E206D7573742067726561746572207468616E PUSH1 0x44 DUP3 ADD MSTORE PUSH2 0x203 PUSH1 0xF4 SHL PUSH1 0x64 DUP3 ADD MSTORE PUSH1 0x84 ADD PUSH3 0x94 JUMP JUMPDEST PUSH1 0x0 DUP5 GT PUSH3 0x15B JUMPI PUSH1 0x40 MLOAD PUSH3 0x461BCD PUSH1 0xE5 SHL DUP2 MSTORE PUSH1 0x20 PUSH1 0x4 DUP3 ADD MSTORE PUSH1 0x26 PUSH1 0x24 DUP3 ADD MSTORE PUSH32 0x766F74696E67506572696F644C656E677468206D757374206772656174657220 PUSH1 0x44 DUP3 ADD MSTORE PUSH6 0x7468616E203 PUSH1 0xD4 SHL PUSH1 0x64 DUP3 ADD MSTORE PUSH1 0x84 ADD PUSH3 0x94 JUMP JUMPDEST PUSH8 0xDE0B6B3A7640000 DUP5 GT ISZERO PUSH3 0x1C1 JUMPI PUSH1 0x40 MLOAD PUSH3 0x461BCD PUSH1 0xE5 SHL DUP2 MSTORE PUSH1 0x20 PUSH1 0x4 DUP3 ADD MSTORE PUSH1 0x24 DUP1 DUP3 ADD MSTORE PUSH32 0x766F74696E67506572696F644C656E677468206578636565647320746865206C PUSH1 0x44 DUP3 ADD MSTORE PUSH4 0x1A5B5A5D PUSH1 0xE2 SHL PUSH1 0x64 DUP3 ADD MSTORE PUSH1 0x84 ADD PUSH3 0x94 JUMP JUMPDEST PUSH1 0x0 DUP4 GT PUSH3 0x221 JUMPI PUSH1 0x40 MLOAD PUSH3 0x461BCD PUSH1 0xE5 SHL DUP2 MSTORE PUSH1 0x20 PUSH1 0x4 DUP3 ADD MSTORE PUSH1 0x25 PUSH1 0x24 DUP3 ADD MSTORE PUSH32 0x6772616365506572696F644C656E677468206D75737420677265617465722074 PUSH1 0x44 DUP3 ADD MSTORE PUSH5 0x68616E203 PUSH1 0xDC SHL PUSH1 0x64 DUP3 ADD MSTORE PUSH1 0x84 ADD PUSH3 0x94 JUMP JUMPDEST PUSH8 0xDE0B6B3A7640000 DUP4 GT ISZERO PUSH3 0x287 JUMPI PUSH1 0x40 MLOAD PUSH3 0x461BCD PUSH1 0xE5 SHL DUP2 MSTORE PUSH1 0x20 PUSH1 0x4 DUP3 ADD MSTORE PUSH1 0x23 PUSH1 0x24 DUP3 ADD MSTORE PUSH32 0x6772616365506572696F644C656E677468206578636565647320746865206C69 PUSH1 0x44 DUP3 ADD MSTORE PUSH3 0x1B5A5D PUSH1 0xEA SHL PUSH1 0x64 DUP3 ADD MSTORE PUSH1 0x84 ADD PUSH3 0x94 JUMP JUMPDEST PUSH1 0x0 DUP2 GT PUSH3 0x2E3 JUMPI PUSH1 0x40 MLOAD PUSH3 0x461BCD PUSH1 0xE5 SHL DUP2 MSTORE PUSH1 0x20 PUSH1 0x4 DUP3 ADD MSTORE PUSH1 0x21 PUSH1 0x24 DUP3 ADD MSTORE PUSH32 0x64696C7574696F6E426F756E64206D7573742067726561746572207468616E20 PUSH1 0x44 DUP3 ADD MSTORE PUSH1 0x3 PUSH1 0xFC SHL PUSH1 0x64 DUP3 ADD MSTORE PUSH1 0x84 ADD PUSH3 0x94 JUMP JUMPDEST PUSH8 0xDE0B6B3A7640000 DUP2 GT ISZERO PUSH3 0x33D JUMPI PUSH1 0x40 MLOAD PUSH3 0x461BCD PUSH1 0xE5 SHL DUP2 MSTORE PUSH1 0x20 PUSH1 0x4 DUP3 ADD MSTORE PUSH1 0x1F PUSH1 0x24 DUP3 ADD MSTORE PUSH32 0x64696C7574696F6E426F756E64206578636565647320746865206C696D697400 PUSH1 0x44 DUP3 ADD MSTORE PUSH1 0x64 ADD PUSH3 0x94 JUMP JUMPDEST PUSH1 0x1 PUSH1 0x1 PUSH1 0xA0 SHL SUB DUP7 AND PUSH3 0x395 JUMPI PUSH1 0x40 MLOAD PUSH3 0x461BCD PUSH1 0xE5 SHL DUP2 MSTORE PUSH1 0x20 PUSH1 0x4 DUP3 ADD MSTORE PUSH1 0x18 PUSH1 0x24 DUP3 ADD MSTORE PUSH32 0x6465706F736974546F6B656E2063616E6E6F7420626520300000000000000000 PUSH1 0x44 DUP3 ADD MSTORE PUSH1 0x64 ADD PUSH3 0x94 JUMP JUMPDEST PUSH1 0x7 DUP1 SLOAD PUSH1 0x1 PUSH1 0x1 PUSH1 0xA0 SHL SUB SWAP8 DUP9 AND PUSH1 0x1 PUSH1 0x1 PUSH1 0xA0 SHL SUB NOT SWAP1 SWAP2 AND OR SWAP1 SSTORE PUSH1 0x1 SWAP5 DUP6 SSTORE PUSH1 0x2 SWAP4 DUP5 SSTORE PUSH1 0x3 SWAP3 DUP4 SSTORE PUSH1 0x4 SWAP2 SWAP1 SWAP2 SSTORE PUSH1 0x5 SSTORE TIMESTAMP PUSH1 0x6 SSTORE PUSH1 0x40 DUP1 MLOAD PUSH1 0x80 DUP2 ADD DUP3 MSTORE DUP5 DUP2 MSTORE PUSH1 0x20 DUP1 DUP3 ADD DUP7 DUP2 MSTORE PUSH1 0x0 DUP4 DUP6 ADD DUP2 DUP2 MSTORE PUSH1 0x60 DUP6 ADD DUP3 DUP2 MSTORE SWAP11 SWAP1 SWAP10 AND DUP2 MSTORE PUSH1 0xC SWAP1 SWAP3 MSTORE SWAP3 SWAP1 KECCAK256 SWAP1 MLOAD DUP2 SSTORE SWAP1 MLOAD DUP2 DUP6 ADD DUP1 SLOAD SWAP2 ISZERO ISZERO PUSH1 0xFF NOT SWAP3 DUP4 AND OR SWAP1 SSTORE SWAP5 MLOAD SWAP3 DUP2 ADD SWAP3 SWAP1 SWAP3 SSTORE SWAP4 MLOAD SWAP4 ADD DUP1 SLOAD SWAP4 ISZERO ISZERO SWAP4 SWAP1 SWAP3 AND SWAP3 SWAP1 SWAP3 OR SWAP1 SSTORE PUSH1 0x9 SSTORE PUSH3 0x4C1 JUMP JUMPDEST DUP1 MLOAD PUSH1 0x1 PUSH1 0x1 PUSH1 0xA0 SHL SUB DUP2 AND DUP2 EQ PUSH3 0x455 JUMPI PUSH1 0x0 DUP1 REVERT JUMPDEST SWAP2 SWAP1 POP JUMP JUMPDEST PUSH1 0x0 DUP1 PUSH1 0x0 DUP1 PUSH1 0x0 DUP1 PUSH1 0x0 PUSH1 0xE0 DUP9 DUP11 SUB SLT ISZERO PUSH3 0x476 JUMPI PUSH1 0x0 DUP1 REVERT JUMPDEST PUSH3 0x481 DUP9 PUSH3 0x43D JUMP JUMPDEST SWAP7 POP PUSH3 0x491 PUSH1 0x20 DUP10 ADD PUSH3 0x43D JUMP JUMPDEST PUSH1 0x40 DUP10 ADD MLOAD PUSH1 0x60 DUP11 ADD MLOAD PUSH1 0x80 DUP12 ADD MLOAD PUSH1 0xA0 DUP13 ADD MLOAD PUSH1 0xC0 SWAP1 SWAP13 ADD MLOAD SWAP11 SWAP14 SWAP4 SWAP13 POP SWAP2 SWAP11 SWAP1 SWAP10 SWAP2 SWAP9 POP SWAP7 POP SWAP5 POP SWAP3 POP POP POP JUMP JUMPDEST PUSH2 0x3818 DUP1 PUSH3 0x4D1 PUSH1 0x0 CODECOPY PUSH1 0x0 RETURN INVALID PUSH1 0x80 PUSH1 0x40 MSTORE CALLVALUE DUP1 ISZERO PUSH2 0x10 JUMPI PUSH1 0x0 DUP1 REVERT JUMPDEST POP PUSH1 0x4 CALLDATASIZE LT PUSH2 0x211 JUMPI PUSH1 0x0 CALLDATALOAD PUSH1 0xE0 SHR DUP1 PUSH4 0x87DFC825 GT PUSH2 0x125 JUMPI DUP1 PUSH4 0xC49B1685 GT PUSH2 0xAD JUMPI DUP1 PUSH4 0xDFDD369E GT PUSH2 0x7C JUMPI DUP1 PUSH4 0xDFDD369E EQ PUSH2 0x4FB JUMPI DUP1 PUSH4 0xE0A8F6F5 EQ PUSH2 0x50E JUMPI DUP1 PUSH4 0xE63BC62D EQ PUSH2 0x521 JUMPI DUP1 PUSH4 0xE681C4AA EQ PUSH2 0x534 JUMPI DUP1 PUSH4 0xF5D54C77 EQ PUSH2 0x53D JUMPI PUSH1 0x0 DUP1 REVERT JUMPDEST DUP1 PUSH4 0xC49B1685 EQ PUSH2 0x49B JUMPI DUP1 PUSH4 0xC89039C5 EQ PUSH2 0x4CC JUMPI DUP1 PUSH4 0xDA35C664 EQ PUSH2 0x4DF JUMPI DUP1 PUSH4 0xDA76D5CD EQ PUSH2 0x4E8 JUMPI PUSH1 0x0 DUP1 REVERT JUMPDEST DUP1 PUSH4 0x9746D940 GT PUSH2 0xF4 JUMPI DUP1 PUSH4 0x9746D940 EQ PUSH2 0x443 JUMPI DUP1 PUSH4 0x99653FBE EQ PUSH2 0x456 JUMPI DUP1 PUSH4 0xAFE5475F EQ PUSH2 0x469 JUMPI DUP1 PUSH4 0xB2643AAB EQ PUSH2 0x472 JUMPI DUP1 PUSH4 0xB470AADE EQ PUSH2 0x492 JUMPI PUSH1 0x0 DUP1 REVERT JUMPDEST DUP1 PUSH4 0x87DFC825 EQ PUSH2 0x3F4 JUMPI DUP1 PUSH4 0x8B15A605 EQ PUSH2 0x407 JUMPI DUP1 PUSH4 0x8B6CB9E5 EQ PUSH2 0x410 JUMPI DUP1 PUSH4 0x9425A476 EQ PUSH2 0x430 JUMPI PUSH1 0x0 DUP1 REVERT JUMPDEST DUP1 PUSH4 0x45F2D105 GT PUSH2 0x1A8 JUMPI DUP1 PUSH4 0x63858F2D GT PUSH2 0x177 JUMPI DUP1 PUSH4 0x63858F2D EQ PUSH2 0x3B3 JUMPI DUP1 PUSH4 0x73F8FD4B EQ PUSH2 0x3BC JUMPI DUP1 PUSH4 0x7D5B6C72 EQ PUSH2 0x3CF JUMPI DUP1 PUSH4 0x8340BBCE EQ PUSH2 0x3D8 JUMPI DUP1 PUSH4 0x878FC813 EQ PUSH2 0x3E1 JUMPI PUSH1 0x0 DUP1 REVERT JUMPDEST DUP1 PUSH4 0x45F2D105 EQ PUSH2 0x342 JUMPI DUP1 PUSH4 0x4C105631 EQ PUSH2 0x36D JUMPI DUP1 PUSH4 0x571ED9C5 EQ PUSH2 0x380 JUMPI DUP1 PUSH4 0x62312524 EQ PUSH2 0x3A0 JUMPI PUSH1 0x0 DUP1 REVERT JUMPDEST DUP1 PUSH4 0x15EB349E GT PUSH2 0x1E4 JUMPI DUP1 PUSH4 0x15EB349E EQ PUSH2 0x2D0 JUMPI DUP1 PUSH4 0x27EFC086 EQ PUSH2 0x2E5 JUMPI DUP1 PUSH4 0x3A98EF39 EQ PUSH2 0x306 JUMPI DUP1 PUSH4 0x3FC24BBA EQ PUSH2 0x30F JUMPI PUSH1 0x0 DUP1 REVERT JUMPDEST DUP1 PUSH4 0x13CF08B EQ PUSH2 0x216 JUMPI DUP1 PUSH4 0x86146D2 EQ PUSH2 0x249 JUMPI DUP1 PUSH4 0x8AE4B0C EQ PUSH2 0x25F JUMPI DUP1 PUSH4 0x115B2D18 EQ PUSH2 0x2BD JUMPI JUMPDEST PUSH1 0x0 DUP1 REVERT JUMPDEST PUSH2 0x229 PUSH2 0x224 CALLDATASIZE PUSH1 0x4 PUSH2 0x2DD5 JUMP JUMPDEST PUSH2 0x546 JUMP JUMPDEST PUSH1 0x40 MLOAD PUSH2 0x240 SWAP12 SWAP11 SWAP10 SWAP9 SWAP8 SWAP7 SWAP6 SWAP5 SWAP4 SWAP3 SWAP2 SWAP1 PUSH2 0x2E12 JUMP JUMPDEST PUSH1 0x40 MLOAD DUP1 SWAP2 SUB SWAP1 RETURN JUMPDEST PUSH2 0x251 PUSH2 0x637 JUMP JUMPDEST PUSH1 0x40 MLOAD SWAP1 DUP2 MSTORE PUSH1 0x20 ADD PUSH2 0x240 JUMP JUMPDEST PUSH2 0x29B PUSH2 0x26D CALLDATASIZE PUSH1 0x4 PUSH2 0x2EBF JUMP JUMPDEST PUSH1 0xC PUSH1 0x20 MSTORE PUSH1 0x0 SWAP1 DUP2 MSTORE PUSH1 0x40 SWAP1 KECCAK256 DUP1 SLOAD PUSH1 0x1 DUP3 ADD SLOAD PUSH1 0x2 DUP4 ADD SLOAD PUSH1 0x3 SWAP1 SWAP4 ADD SLOAD SWAP2 SWAP3 PUSH1 0xFF SWAP2 DUP3 AND SWAP3 SWAP1 SWAP2 AND DUP5 JUMP JUMPDEST PUSH1 0x40 DUP1 MLOAD SWAP5 DUP6 MSTORE SWAP3 ISZERO ISZERO PUSH1 0x20 DUP6 ADD MSTORE SWAP2 DUP4 ADD MSTORE ISZERO ISZERO PUSH1 0x60 DUP3 ADD MSTORE PUSH1 0x80 ADD PUSH2 0x240 JUMP JUMPDEST PUSH2 0x251 PUSH2 0x2CB CALLDATASIZE PUSH1 0x4 PUSH2 0x2F91 JUMP JUMPDEST PUSH2 0x659 JUMP JUMPDEST PUSH2 0x2E3 PUSH2 0x2DE CALLDATASIZE PUSH1 0x4 PUSH2 0x2FDF JUMP JUMPDEST PUSH2 0x83C JUMP JUMPDEST STOP JUMPDEST PUSH2 0x2EE PUSH2 0xBABE DUP2 JUMP JUMPDEST PUSH1 0x40 MLOAD PUSH1 0x1 PUSH1 0x1 PUSH1 0xA0 SHL SUB SWAP1 SWAP2 AND DUP2 MSTORE PUSH1 0x20 ADD PUSH2 0x240 JUMP JUMPDEST PUSH2 0x251 PUSH1 0x9 SLOAD DUP2 JUMP JUMPDEST PUSH2 0x332 PUSH2 0x31D CALLDATASIZE PUSH1 0x4 PUSH2 0x2EBF JUMP JUMPDEST PUSH1 0xB PUSH1 0x20 MSTORE PUSH1 0x0 SWAP1 DUP2 MSTORE PUSH1 0x40 SWAP1 KECCAK256 SLOAD PUSH1 0xFF AND DUP2 JUMP JUMPDEST PUSH1 0x40 MLOAD SWAP1 ISZERO ISZERO DUP2 MSTORE PUSH1 0x20 ADD PUSH2 0x240 JUMP JUMPDEST PUSH2 0x251 PUSH2 0x350 CALLDATASIZE PUSH1 0x4 PUSH2 0x3001 JUMP JUMPDEST PUSH1 0xA PUSH1 0x20 SWAP1 DUP2 MSTORE PUSH1 0x0 SWAP3 DUP4 MSTORE PUSH1 0x40 DUP1 DUP5 KECCAK256 SWAP1 SWAP2 MSTORE SWAP1 DUP3 MSTORE SWAP1 KECCAK256 SLOAD DUP2 JUMP JUMPDEST PUSH2 0x251 PUSH2 0x37B CALLDATASIZE PUSH1 0x4 PUSH2 0x3034 JUMP JUMPDEST PUSH2 0x888 JUMP JUMPDEST PUSH2 0x393 PUSH2 0x38E CALLDATASIZE PUSH1 0x4 PUSH2 0x2DD5 JUMP JUMPDEST PUSH2 0xB79 JUMP JUMPDEST PUSH1 0x40 MLOAD PUSH2 0x240 SWAP2 SWAP1 PUSH2 0x30D0 JUMP JUMPDEST PUSH2 0x393 PUSH2 0x3AE CALLDATASIZE PUSH1 0x4 PUSH2 0x2DD5 JUMP JUMPDEST PUSH2 0xBDE JUMP JUMPDEST PUSH2 0x251 PUSH1 0x3 SLOAD DUP2 JUMP JUMPDEST PUSH2 0x251 PUSH2 0x3CA CALLDATASIZE PUSH1 0x4 PUSH2 0x3001 JUMP JUMPDEST PUSH2 0xC41 JUMP JUMPDEST PUSH2 0x251 PUSH1 0x6 SLOAD DUP2 JUMP JUMPDEST PUSH2 0x251 PUSH1 0x2 SLOAD DUP2 JUMP JUMPDEST PUSH2 0x251 PUSH2 0x3EF CALLDATASIZE PUSH1 0x4 PUSH2 0x3163 JUMP JUMPDEST PUSH2 0xC6E JUMP JUMPDEST PUSH2 0x2E3 PUSH2 0x402 CALLDATASIZE PUSH1 0x4 PUSH2 0x2DD5 JUMP JUMPDEST PUSH2 0xDE7 JUMP JUMPDEST PUSH2 0x251 PUSH1 0x4 SLOAD DUP2 JUMP JUMPDEST PUSH2 0x423 PUSH2 0x41E CALLDATASIZE PUSH1 0x4 PUSH2 0x31F0 JUMP JUMPDEST PUSH2 0xFCA JUMP JUMPDEST PUSH1 0x40 MLOAD PUSH2 0x240 SWAP2 SWAP1 PUSH2 0x3239 JUMP JUMPDEST PUSH2 0x332 PUSH2 0x43E CALLDATASIZE PUSH1 0x4 PUSH2 0x2DD5 JUMP JUMPDEST PUSH2 0x1068 JUMP JUMPDEST PUSH2 0x2E3 PUSH2 0x451 CALLDATASIZE PUSH1 0x4 PUSH2 0x2DD5 JUMP JUMPDEST PUSH2 0x1088 JUMP JUMPDEST PUSH2 0x2E3 PUSH2 0x464 CALLDATASIZE PUSH1 0x4 PUSH2 0x3261 JUMP JUMPDEST PUSH2 0x1567 JUMP JUMPDEST PUSH2 0x251 PUSH1 0x5 SLOAD DUP2 JUMP JUMPDEST PUSH2 0x485 PUSH2 0x480 CALLDATASIZE PUSH1 0x4 PUSH2 0x2DD5 JUMP JUMPDEST PUSH2 0x1975 JUMP JUMPDEST PUSH1 0x40 MLOAD PUSH2 0x240 SWAP2 SWAP1 PUSH2 0x3297 JUMP JUMPDEST PUSH2 0x251 PUSH1 0x1 SLOAD DUP2 JUMP JUMPDEST PUSH2 0x2E3 PUSH1 0x0 DUP1 DUP1 MSTORE PUSH1 0xD PUSH1 0x20 MSTORE PUSH32 0x81955A0A11E65EAC625C29E8882660BAE4E165A75D72780094ACAE8ECE9A29F5 SSTORE JUMP JUMPDEST PUSH1 0x7 SLOAD PUSH2 0x2EE SWAP1 PUSH1 0x1 PUSH1 0x1 PUSH1 0xA0 SHL SUB AND DUP2 JUMP JUMPDEST PUSH2 0x251 PUSH1 0x8 SLOAD DUP2 JUMP JUMPDEST PUSH2 0x2E3 PUSH2 0x4F6 CALLDATASIZE PUSH1 0x4 PUSH2 0x2DD5 JUMP JUMPDEST PUSH2 0x19DF JUMP JUMPDEST PUSH2 0x2E3 PUSH2 0x509 CALLDATASIZE PUSH1 0x4 PUSH2 0x2EBF JUMP JUMPDEST PUSH2 0x1A24 JUMP JUMPDEST PUSH2 0x2E3 PUSH2 0x51C CALLDATASIZE PUSH1 0x4 PUSH2 0x2DD5 JUMP JUMPDEST PUSH2 0x1B1A JUMP JUMPDEST PUSH2 0x2E3 PUSH2 0x52F CALLDATASIZE PUSH1 0x4 PUSH2 0x2DD5 JUMP JUMPDEST PUSH2 0x1C48 JUMP JUMPDEST PUSH2 0x2EE PUSH2 0xBEEF DUP2 JUMP JUMPDEST PUSH2 0x2EE PUSH2 0xDEAD DUP2 JUMP JUMPDEST PUSH1 0xD PUSH1 0x20 MSTORE PUSH1 0x0 SWAP1 DUP2 MSTORE PUSH1 0x40 SWAP1 KECCAK256 DUP1 SLOAD PUSH1 0x1 DUP3 ADD SLOAD PUSH1 0x2 DUP4 ADD SLOAD PUSH1 0x3 DUP5 ADD SLOAD PUSH1 0x4 DUP6 ADD SLOAD PUSH1 0x7 DUP7 ADD SLOAD PUSH1 0x8 DUP8 ADD SLOAD PUSH1 0x9 DUP9 ADD SLOAD PUSH1 0xA DUP10 ADD SLOAD PUSH1 0xC DUP11 ADD DUP1 SLOAD PUSH1 0x1 PUSH1 0x1 PUSH1 0xA0 SHL SUB SWAP11 DUP12 AND SWAP12 SWAP10 DUP12 AND SWAP11 SWAP1 SWAP9 AND SWAP9 SWAP7 SWAP8 SWAP6 SWAP7 SWAP5 SWAP6 SWAP4 SWAP5 SWAP3 SWAP4 SWAP2 SWAP3 SWAP2 PUSH2 0x5AE SWAP1 PUSH2 0x32CA JUMP JUMPDEST DUP1 PUSH1 0x1F ADD PUSH1 0x20 DUP1 SWAP2 DIV MUL PUSH1 0x20 ADD PUSH1 0x40 MLOAD SWAP1 DUP2 ADD PUSH1 0x40 MSTORE DUP1 SWAP3 SWAP2 SWAP1 DUP2 DUP2 MSTORE PUSH1 0x20 ADD DUP3 DUP1 SLOAD PUSH2 0x5DA SWAP1 PUSH2 0x32CA JUMP JUMPDEST DUP1 ISZERO PUSH2 0x627 JUMPI DUP1 PUSH1 0x1F LT PUSH2 0x5FC JUMPI PUSH2 0x100 DUP1 DUP4 SLOAD DIV MUL DUP4 MSTORE SWAP2 PUSH1 0x20 ADD SWAP2 PUSH2 0x627 JUMP JUMPDEST DUP3 ADD SWAP2 SWAP1 PUSH1 0x0 MSTORE PUSH1 0x20 PUSH1 0x0 KECCAK256 SWAP1 JUMPDEST DUP2 SLOAD DUP2 MSTORE SWAP1 PUSH1 0x1 ADD SWAP1 PUSH1 0x20 ADD DUP1 DUP4 GT PUSH2 0x60A JUMPI DUP3 SWAP1 SUB PUSH1 0x1F AND DUP3 ADD SWAP2 JUMPDEST POP POP POP POP POP SWAP1 DUP1 PUSH1 0xD ADD SLOAD SWAP1 POP DUP12 JUMP JUMPDEST PUSH1 0x0 PUSH1 0x1 SLOAD PUSH1 0x6 SLOAD TIMESTAMP PUSH2 0x64A SWAP2 SWAP1 PUSH2 0x3314 JUMP JUMPDEST PUSH2 0x654 SWAP2 SWAP1 PUSH2 0x3327 JUMP JUMPDEST SWAP1 POP SWAP1 JUMP JUMPDEST PUSH1 0x0 DUP1 SLOAD PUSH1 0xFF AND PUSH2 0x685 JUMPI PUSH1 0x40 MLOAD PUSH3 0x461BCD PUSH1 0xE5 SHL DUP2 MSTORE PUSH1 0x4 ADD PUSH2 0x67C SWAP1 PUSH2 0x3349 JUMP JUMPDEST PUSH1 0x40 MLOAD DUP1 SWAP2 SUB SWAP1 REVERT JUMPDEST PUSH1 0x0 DUP1 SLOAD PUSH1 0xFF NOT AND DUP2 SSTORE PUSH1 0x1 PUSH1 0x1 PUSH1 0xA0 SHL SUB DUP5 AND DUP2 MSTORE PUSH1 0xC PUSH1 0x20 SWAP1 DUP2 MSTORE PUSH1 0x40 SWAP2 DUP3 SWAP1 KECCAK256 DUP3 MLOAD PUSH1 0x80 DUP2 ADD DUP5 MSTORE DUP2 SLOAD DUP1 DUP3 MSTORE PUSH1 0x1 DUP4 ADD SLOAD PUSH1 0xFF SWAP1 DUP2 AND ISZERO ISZERO SWAP5 DUP4 ADD SWAP5 SWAP1 SWAP5 MSTORE PUSH1 0x2 DUP4 ADD SLOAD SWAP5 DUP3 ADD SWAP5 SWAP1 SWAP5 MSTORE PUSH1 0x3 SWAP1 SWAP2 ADD SLOAD SWAP1 SWAP2 AND ISZERO ISZERO PUSH1 0x60 DUP3 ADD MSTORE SWAP1 PUSH2 0x73D JUMPI PUSH1 0x40 MLOAD PUSH3 0x461BCD PUSH1 0xE5 SHL DUP2 MSTORE PUSH1 0x20 PUSH1 0x4 DUP3 ADD MSTORE PUSH1 0x23 PUSH1 0x24 DUP3 ADD MSTORE PUSH32 0x6D656D626572206D7573742068617665206174206C65617374206F6E65207368 PUSH1 0x44 DUP3 ADD MSTORE PUSH3 0x617265 PUSH1 0xE8 SHL PUSH1 0x64 DUP3 ADD MSTORE PUSH1 0x84 ADD PUSH2 0x67C JUMP JUMPDEST PUSH1 0x1 PUSH1 0x1 PUSH1 0xA0 SHL SUB DUP5 AND PUSH1 0x0 SWAP1 DUP2 MSTORE PUSH1 0xC PUSH1 0x20 MSTORE PUSH1 0x40 SWAP1 KECCAK256 PUSH1 0x3 ADD SLOAD PUSH1 0xFF AND ISZERO PUSH2 0x7B3 JUMPI PUSH1 0x40 MLOAD PUSH3 0x461BCD PUSH1 0xE5 SHL DUP2 MSTORE PUSH1 0x20 PUSH1 0x4 DUP3 ADD MSTORE PUSH1 0x21 PUSH1 0x24 DUP3 ADD MSTORE PUSH32 0x6D656D626572206D757374206E6F7420616C7265616479206265206A61696C65 PUSH1 0x44 DUP3 ADD MSTORE PUSH1 0x19 PUSH1 0xFA SHL PUSH1 0x64 DUP3 ADD MSTORE PUSH1 0x84 ADD PUSH2 0x67C JUMP JUMPDEST PUSH2 0x7BB PUSH2 0x2CCE JUMP JUMPDEST PUSH1 0x1 PUSH1 0x80 DUP3 ADD DUP2 SWAP1 MSTORE PUSH1 0x40 DUP1 MLOAD DUP3 DUP2 MSTORE DUP1 DUP3 ADD SWAP1 SWAP2 MSTORE PUSH1 0x0 SWAP2 PUSH1 0x20 DUP1 DUP4 ADD SWAP1 DUP1 CALLDATASIZE DUP4 CALLDATACOPY ADD SWAP1 POP POP SWAP1 POP PUSH1 0x0 DUP2 PUSH1 0x0 DUP2 MLOAD DUP2 LT PUSH2 0x7F9 JUMPI PUSH2 0x7F9 PUSH2 0x3380 JUMP JUMPDEST PUSH1 0x20 MUL PUSH1 0x20 ADD ADD DUP2 DUP2 MSTORE POP POP PUSH2 0x815 DUP7 PUSH1 0x0 DUP1 DUP5 DUP6 DUP11 DUP9 PUSH2 0x1D10 JUMP JUMPDEST PUSH1 0x1 PUSH1 0x8 SLOAD PUSH2 0x824 SWAP2 SWAP1 PUSH2 0x3314 JUMP JUMPDEST SWAP4 POP POP POP POP PUSH1 0x0 DUP1 SLOAD PUSH1 0xFF NOT AND PUSH1 0x1 OR SWAP1 SSTORE SWAP3 SWAP2 POP POP JUMP JUMPDEST PUSH1 0x0 SLOAD PUSH1 0xFF AND PUSH2 0x85E JUMPI PUSH1 0x40 MLOAD PUSH3 0x461BCD PUSH1 0xE5 SHL DUP2 MSTORE PUSH1 0x4 ADD PUSH2 0x67C SWAP1 PUSH2 0x3349 JUMP JUMPDEST PUSH1 0x0 DUP1 SLOAD PUSH1 0xFF NOT AND DUP2 SSTORE PUSH2 0x877 SWAP1 CALLER SWAP1 DUP5 SWAP1 DUP5 SWAP1 PUSH2 0x1E3F JUMP JUMPDEST POP POP PUSH1 0x0 DUP1 SLOAD PUSH1 0xFF NOT AND PUSH1 0x1 OR SWAP1 SSTORE JUMP JUMPDEST PUSH1 0x0 DUP1 SLOAD PUSH1 0xFF AND PUSH2 0x8AB JUMPI PUSH1 0x40 MLOAD PUSH3 0x461BCD PUSH1 0xE5 SHL DUP2 MSTORE PUSH1 0x4 ADD PUSH2 0x67C SWAP1 PUSH2 0x3349 JUMP JUMPDEST PUSH1 0x0 DUP1 SLOAD PUSH1 0xFF NOT AND SWAP1 SSTORE PUSH8 0xDE0B6B3A7640000 PUSH2 0x8C8 DUP6 DUP1 PUSH2 0x3396 JUMP JUMPDEST GT ISZERO PUSH2 0x916 JUMPI PUSH1 0x40 MLOAD PUSH3 0x461BCD PUSH1 0xE5 SHL DUP2 MSTORE PUSH1 0x20 PUSH1 0x4 DUP3 ADD MSTORE PUSH1 0x19 PUSH1 0x24 DUP3 ADD MSTORE PUSH32 0x746F6F206D616E79207368617265732072657175657374656400000000000000 PUSH1 0x44 DUP3 ADD MSTORE PUSH1 0x64 ADD PUSH2 0x67C JUMP JUMPDEST PUSH1 0x1 PUSH1 0x1 PUSH1 0xA0 SHL SUB DUP6 AND PUSH2 0x964 JUMPI PUSH1 0x40 MLOAD PUSH3 0x461BCD PUSH1 0xE5 SHL DUP2 MSTORE PUSH1 0x20 PUSH1 0x4 DUP3 ADD MSTORE PUSH1 0x15 PUSH1 0x24 DUP3 ADD MSTORE PUSH21 0x6170706C6963616E742063616E6E6F74206265203 PUSH1 0x5C SHL PUSH1 0x44 DUP3 ADD MSTORE PUSH1 0x64 ADD PUSH2 0x67C JUMP JUMPDEST PUSH1 0x1 PUSH1 0x1 PUSH1 0xA0 SHL SUB DUP6 AND PUSH2 0xDEAD EQ DUP1 ISZERO SWAP1 PUSH2 0x98A JUMPI POP PUSH1 0x1 PUSH1 0x1 PUSH1 0xA0 SHL SUB DUP6 AND PUSH2 0xBEEF EQ ISZERO JUMPDEST DUP1 ISZERO PUSH2 0x9A1 JUMPI POP PUSH1 0x1 PUSH1 0x1 PUSH1 0xA0 SHL SUB DUP6 AND PUSH2 0xBABE EQ ISZERO JUMPDEST PUSH2 0x9BD JUMPI PUSH1 0x40 MLOAD PUSH3 0x461BCD PUSH1 0xE5 SHL DUP2 MSTORE PUSH1 0x4 ADD PUSH2 0x67C SWAP1 PUSH2 0x33A9 JUMP JUMPDEST PUSH1 0x1 PUSH1 0x1 PUSH1 0xA0 SHL SUB DUP6 AND PUSH1 0x0 SWAP1 DUP2 MSTORE PUSH1 0xC PUSH1 0x20 MSTORE PUSH1 0x40 SWAP1 KECCAK256 PUSH1 0x3 ADD SLOAD PUSH1 0xFF AND ISZERO PUSH2 0x9F9 JUMPI PUSH1 0x40 MLOAD PUSH3 0x461BCD PUSH1 0xE5 SHL DUP2 MSTORE PUSH1 0x4 ADD PUSH2 0x67C SWAP1 PUSH2 0x33ED JUMP JUMPDEST PUSH1 0x7 SLOAD PUSH1 0x40 MLOAD PUSH4 0x23B872DD PUSH1 0xE0 SHL DUP2 MSTORE CALLER PUSH1 0x4 DUP3 ADD MSTORE ADDRESS PUSH1 0x24 DUP3 ADD MSTORE PUSH1 0x44 DUP2 ADD DUP6 SWAP1 MSTORE PUSH1 0x1 PUSH1 0x1 PUSH1 0xA0 SHL SUB SWAP1 SWAP2 AND SWAP1 PUSH4 0x23B872DD SWAP1 PUSH1 0x64 ADD PUSH1 0x20 PUSH1 0x40 MLOAD DUP1 DUP4 SUB DUP2 PUSH1 0x0 DUP8 GAS CALL ISZERO DUP1 ISZERO PUSH2 0xA50 JUMPI RETURNDATASIZE PUSH1 0x0 DUP1 RETURNDATACOPY RETURNDATASIZE PUSH1 0x0 REVERT JUMPDEST POP POP POP POP PUSH1 0x40 MLOAD RETURNDATASIZE PUSH1 0x1F NOT PUSH1 0x1F DUP3 ADD AND DUP3 ADD DUP1 PUSH1 0x40 MSTORE POP DUP2 ADD SWAP1 PUSH2 0xA74 SWAP2 SWAP1 PUSH2 0x3432 JUMP JUMPDEST PUSH2 0xAC0 JUMPI PUSH1 0x40 MLOAD PUSH3 0x461BCD PUSH1 0xE5 SHL DUP2 MSTORE PUSH1 0x20 PUSH1 0x4 DUP3 ADD MSTORE PUSH1 0x1D PUSH1 0x24 DUP3 ADD MSTORE PUSH32 0x7472696275746520746F6B656E207472616E73666572206661696C6564000000 PUSH1 0x44 DUP3 ADD MSTORE PUSH1 0x64 ADD PUSH2 0x67C JUMP JUMPDEST PUSH2 0xACC PUSH2 0xBEEF DUP5 PUSH2 0x21FE JUMP JUMPDEST PUSH1 0x40 DUP1 MLOAD PUSH1 0xC0 DUP2 ADD DUP3 MSTORE PUSH1 0x0 DUP1 DUP3 MSTORE PUSH1 0x20 DUP3 ADD DUP2 SWAP1 MSTORE DUP2 DUP4 ADD DUP2 SWAP1 MSTORE PUSH1 0x60 DUP3 ADD DUP2 SWAP1 MSTORE PUSH1 0x80 DUP3 ADD DUP2 SWAP1 MSTORE PUSH1 0xA0 DUP3 ADD DUP2 SWAP1 MSTORE DUP3 MLOAD PUSH1 0x1 DUP1 DUP3 MSTORE DUP2 DUP6 ADD SWAP1 SWAP5 MSTORE SWAP2 SWAP3 SWAP1 SWAP2 SWAP1 DUP2 PUSH1 0x20 ADD PUSH1 0x20 DUP3 MUL DUP1 CALLDATASIZE DUP4 CALLDATACOPY ADD SWAP1 POP POP SWAP1 POP PUSH1 0x0 DUP2 PUSH1 0x0 DUP2 MLOAD DUP2 LT PUSH2 0xB36 JUMPI PUSH2 0xB36 PUSH2 0x3380 JUMP JUMPDEST PUSH1 0x20 MUL PUSH1 0x20 ADD ADD DUP2 DUP2 MSTORE POP POP PUSH2 0xB51 DUP8 DUP8 DUP8 DUP5 DUP6 DUP10 DUP9 PUSH2 0x1D10 JUMP JUMPDEST PUSH1 0x1 PUSH1 0x8 SLOAD PUSH2 0xB60 SWAP2 SWAP1 PUSH2 0x3314 JUMP JUMPDEST SWAP3 POP POP POP PUSH1 0x0 DUP1 SLOAD PUSH1 0xFF NOT AND PUSH1 0x1 OR SWAP1 SSTORE SWAP5 SWAP4 POP POP POP POP JUMP JUMPDEST PUSH1 0x0 DUP2 DUP2 MSTORE PUSH1 0xD PUSH1 0x20 SWAP1 DUP2 MSTORE PUSH1 0x40 SWAP2 DUP3 SWAP1 KECCAK256 PUSH1 0x6 ADD DUP1 SLOAD DUP4 MLOAD DUP2 DUP5 MUL DUP2 ADD DUP5 ADD SWAP1 SWAP5 MSTORE DUP1 DUP5 MSTORE PUSH1 0x60 SWAP4 SWAP3 DUP4 ADD DUP3 DUP3 DUP1 ISZERO PUSH2 0xBD2 JUMPI PUSH1 0x20 MUL DUP3 ADD SWAP2 SWAP1 PUSH1 0x0 MSTORE PUSH1 0x20 PUSH1 0x0 KECCAK256 SWAP1 JUMPDEST DUP2 SLOAD DUP2 MSTORE PUSH1 0x20 ADD SWAP1 PUSH1 0x1 ADD SWAP1 DUP1 DUP4 GT PUSH2 0xBBE JUMPI JUMPDEST POP POP POP POP POP SWAP1 POP SWAP2 SWAP1 POP JUMP JUMPDEST PUSH1 0x0 DUP2 DUP2 MSTORE PUSH1 0xD PUSH1 0x20 SWAP1 DUP2 MSTORE PUSH1 0x40 SWAP2 DUP3 SWAP1 KECCAK256 PUSH1 0x5 ADD DUP1 SLOAD DUP4 MLOAD DUP2 DUP5 MUL DUP2 ADD DUP5 ADD SWAP1 SWAP5 MSTORE DUP1 DUP5 MSTORE PUSH1 0x60 SWAP4 SWAP3 DUP4 ADD DUP3 DUP3 DUP1 ISZERO PUSH2 0xBD2 JUMPI PUSH1 0x20 MUL DUP3 ADD SWAP2 SWAP1 PUSH1 0x0 MSTORE PUSH1 0x20 PUSH1 0x0 KECCAK256 SWAP1 DUP2 SLOAD DUP2 MSTORE PUSH1 0x20 ADD SWAP1 PUSH1 0x1 ADD SWAP1 DUP1 DUP4 GT PUSH2 0xBBE JUMPI POP POP POP POP POP SWAP1 POP SWAP2 SWAP1 POP JUMP JUMPDEST PUSH1 0x1 PUSH1 0x1 PUSH1 0xA0 SHL SUB DUP1 DUP4 AND PUSH1 0x0 SWAP1 DUP2 MSTORE PUSH1 0xA PUSH1 0x20 SWAP1 DUP2 MSTORE PUSH1 0x40 DUP1 DUP4 KECCAK256 SWAP4 DUP6 AND DUP4 MSTORE SWAP3 SWAP1 MSTORE KECCAK256 SLOAD JUMPDEST SWAP3 SWAP2 POP POP JUMP JUMPDEST PUSH1 0x0 DUP1 SLOAD PUSH1 0xFF AND PUSH2 0xC91 JUMPI PUSH1 0x40 MLOAD PUSH3 0x461BCD PUSH1 0xE5 SHL DUP2 MSTORE PUSH1 0x4 ADD PUSH2 0x67C SWAP1 PUSH2 0x3349 JUMP JUMPDEST PUSH1 0x0 DUP1 SLOAD PUSH1 0xFF NOT AND SWAP1 SSTORE PUSH1 0x1 PUSH1 0x1 PUSH1 0xA0 SHL SUB DUP6 AND PUSH2 0xCE9 JUMPI PUSH1 0x40 MLOAD PUSH3 0x461BCD PUSH1 0xE5 SHL DUP2 MSTORE PUSH1 0x20 PUSH1 0x4 DUP3 ADD MSTORE PUSH1 0x15 PUSH1 0x24 DUP3 ADD MSTORE PUSH21 0x6170706C6963616E742063616E6E6F74206265203 PUSH1 0x5C SHL PUSH1 0x44 DUP3 ADD MSTORE PUSH1 0x64 ADD PUSH2 0x67C JUMP JUMPDEST PUSH1 0x1 PUSH1 0x1 PUSH1 0xA0 SHL SUB DUP6 AND PUSH2 0xDEAD EQ DUP1 ISZERO SWAP1 PUSH2 0xD0F JUMPI POP PUSH1 0x1 PUSH1 0x1 PUSH1 0xA0 SHL SUB DUP6 AND PUSH2 0xBEEF EQ ISZERO JUMPDEST DUP1 ISZERO PUSH2 0xD26 JUMPI POP PUSH1 0x1 PUSH1 0x1 PUSH1 0xA0 SHL SUB DUP6 AND PUSH2 0xBABE EQ ISZERO JUMPDEST PUSH2 0xD42 JUMPI PUSH1 0x40 MLOAD PUSH3 0x461BCD PUSH1 0xE5 SHL DUP2 MSTORE PUSH1 0x4 ADD PUSH2 0x67C SWAP1 PUSH2 0x33A9 JUMP JUMPDEST PUSH1 0x1 PUSH1 0x1 PUSH1 0xA0 SHL SUB DUP6 AND PUSH1 0x0 SWAP1 DUP2 MSTORE PUSH1 0xC PUSH1 0x20 MSTORE PUSH1 0x40 SWAP1 KECCAK256 PUSH1 0x3 ADD SLOAD PUSH1 0xFF AND ISZERO PUSH2 0xD7E JUMPI PUSH1 0x40 MLOAD PUSH3 0x461BCD PUSH1 0xE5 SHL DUP2 MSTORE PUSH1 0x4 ADD PUSH2 0x67C SWAP1 PUSH2 0x33ED JUMP JUMPDEST PUSH1 0x40 DUP1 MLOAD PUSH1 0xC0 DUP2 ADD DUP3 MSTORE PUSH1 0x0 DUP1 DUP3 MSTORE PUSH1 0x20 DUP3 ADD DUP2 SWAP1 MSTORE SWAP2 DUP2 ADD DUP3 SWAP1 MSTORE PUSH1 0x60 DUP2 ADD DUP3 SWAP1 MSTORE PUSH1 0x80 DUP2 ADD DUP3 SWAP1 MSTORE PUSH1 0xA0 DUP2 ADD DUP3 SWAP1 MSTORE SWAP1 PUSH2 0xDC0 SWAP1 DUP8 SWAP1 DUP1 DUP9 DUP9 DUP9 DUP8 PUSH2 0x1D10 JUMP JUMPDEST PUSH1 0x1 PUSH1 0x8 SLOAD PUSH2 0xDCF SWAP2 SWAP1 PUSH2 0x3314 JUMP JUMPDEST SWAP2 POP POP PUSH1 0x0 DUP1 SLOAD PUSH1 0xFF NOT AND PUSH1 0x1 OR SWAP1 SSTORE SWAP5 SWAP4 POP POP POP POP JUMP JUMPDEST PUSH1 0x0 SLOAD PUSH1 0xFF AND PUSH2 0xE09 JUMPI PUSH1 0x40 MLOAD PUSH3 0x461BCD PUSH1 0xE5 SHL DUP2 MSTORE PUSH1 0x4 ADD PUSH2 0x67C SWAP1 PUSH2 0x3349 JUMP JUMPDEST PUSH1 0x0 DUP1 SLOAD PUSH1 0xFF NOT AND SWAP1 SSTORE PUSH2 0xE1C DUP2 PUSH2 0x228F JUMP JUMPDEST PUSH1 0x0 PUSH2 0xE27 DUP3 PUSH2 0x23C8 JUMP JUMPDEST PUSH1 0x0 DUP4 DUP2 MSTORE PUSH1 0xD PUSH1 0x20 MSTORE PUSH1 0x40 SWAP1 KECCAK256 PUSH1 0xB DUP2 ADD DUP1 SLOAD PUSH6 0xFF0000000000 NOT AND PUSH6 0x10000000000 OR SWAP1 DUP2 SWAP1 SSTORE SWAP2 SWAP3 POP SWAP1 PUSH5 0x100000000 SWAP1 DIV PUSH1 0xFF AND ISZERO ISZERO PUSH1 0x1 EQ PUSH2 0xF47 JUMPI DUP1 PUSH1 0x5 ADD PUSH1 0x0 DUP2 SLOAD DUP2 LT PUSH2 0xE7E JUMPI PUSH2 0xE7E PUSH2 0x3380 JUMP JUMPDEST SWAP1 PUSH1 0x0 MSTORE PUSH1 0x20 PUSH1 0x0 KECCAK256 ADD SLOAD PUSH1 0x0 SUB PUSH2 0xEE2 JUMPI PUSH8 0xDE0B6B3A7640000 DUP2 PUSH1 0x3 ADD SLOAD PUSH1 0x9 SLOAD PUSH2 0xEAB SWAP2 SWAP1 PUSH2 0x3396 JUMP JUMPDEST GT ISZERO PUSH2 0xEB6 JUMPI PUSH1 0x0 SWAP2 POP JUMPDEST DUP2 PUSH1 0xB DUP3 ADD PUSH1 0x2 JUMPDEST PUSH1 0x20 SWAP2 DUP3 DUP3 DIV ADD SWAP2 SWAP1 MOD PUSH2 0x100 EXP DUP2 SLOAD DUP2 PUSH1 0xFF MUL NOT AND SWAP1 DUP4 ISZERO ISZERO MUL OR SWAP1 SSTORE POP PUSH2 0xF5F JUMP JUMPDEST PUSH1 0x7 SLOAD PUSH1 0x1 PUSH1 0x1 PUSH1 0xA0 SHL SUB AND PUSH1 0x0 SWAP1 DUP2 MSTORE PUSH1 0x0 DUP1 MLOAD PUSH1 0x20 PUSH2 0x37C3 DUP4 CODECOPY DUP2 MLOAD SWAP2 MSTORE PUSH1 0x20 MSTORE PUSH1 0x40 SWAP1 KECCAK256 SLOAD PUSH1 0x8 DUP3 ADD SLOAD PUSH1 0x5 DUP4 ADD DUP1 SLOAD SWAP1 SWAP2 SWAP1 DUP2 LT PUSH2 0xF26 JUMPI PUSH2 0xF26 PUSH2 0x3380 JUMP JUMPDEST SWAP1 PUSH1 0x0 MSTORE PUSH1 0x20 PUSH1 0x0 KECCAK256 ADD SLOAD GT ISZERO PUSH2 0xEB6 JUMPI PUSH1 0x0 SWAP2 POP DUP2 PUSH1 0xB DUP3 ADD PUSH1 0x2 PUSH2 0xEBE JUMP JUMPDEST PUSH1 0xB DUP2 ADD DUP1 SLOAD PUSH3 0xFF0000 NOT AND PUSH3 0x10000 DUP5 ISZERO ISZERO MUL OR SWAP1 SSTORE JUMPDEST DUP1 PUSH1 0xC ADD PUSH1 0x40 MLOAD PUSH2 0xF70 SWAP2 SWAP1 PUSH2 0x3454 JUMP JUMPDEST PUSH1 0x40 MLOAD DUP1 SWAP2 SUB SWAP1 KECCAK256 DUP4 PUSH1 0x0 DUP1 MLOAD PUSH1 0x20 PUSH2 0x37A3 DUP4 CODECOPY DUP2 MLOAD SWAP2 MSTORE DUP4 PUSH1 0x5 ADD DUP5 PUSH1 0xB ADD DUP6 PUSH1 0x9 ADD SLOAD DUP7 PUSH1 0xA ADD SLOAD DUP8 PUSH1 0x8 ADD SLOAD PUSH1 0x40 MLOAD PUSH2 0xFB0 SWAP6 SWAP5 SWAP4 SWAP3 SWAP2 SWAP1 PUSH2 0x351C JUMP JUMPDEST PUSH1 0x40 MLOAD DUP1 SWAP2 SUB SWAP1 LOG3 POP POP PUSH1 0x0 DUP1 SLOAD PUSH1 0xFF NOT AND PUSH1 0x1 OR SWAP1 SSTORE POP JUMP JUMPDEST PUSH1 0x1 PUSH1 0x1 PUSH1 0xA0 SHL SUB DUP4 AND PUSH1 0x0 SWAP1 DUP2 MSTORE PUSH1 0xC PUSH1 0x20 MSTORE PUSH1 0x40 DUP2 KECCAK256 PUSH1 0x1 ADD SLOAD PUSH1 0xFF AND PUSH2 0x102E JUMPI PUSH1 0x40 MLOAD PUSH3 0x461BCD PUSH1 0xE5 SHL DUP2 MSTORE PUSH1 0x20 PUSH1 0x4 DUP3 ADD MSTORE PUSH1 0x16 PUSH1 0x24 DUP3 ADD MSTORE PUSH22 0x1B595B58995C88191BD95CDB881B9BDD08195E1A5CDD PUSH1 0x52 SHL PUSH1 0x44 DUP3 ADD MSTORE PUSH1 0x64 ADD PUSH2 0x67C JUMP JUMPDEST POP PUSH1 0x0 DUP3 DUP2 MSTORE PUSH1 0xD PUSH1 0x20 SWAP1 DUP2 MSTORE PUSH1 0x40 DUP1 DUP4 KECCAK256 DUP5 DUP5 MSTORE PUSH1 0xE ADD DUP3 MSTORE DUP1 DUP4 KECCAK256 PUSH1 0x1 PUSH1 0x1 PUSH1 0xA0 SHL SUB DUP8 AND DUP5 MSTORE SWAP1 SWAP2 MSTORE SWAP1 KECCAK256 SLOAD PUSH1 0xFF AND JUMPDEST SWAP4 SWAP3 POP POP POP JUMP JUMPDEST PUSH1 0x0 PUSH1 0x2 SLOAD DUP3 PUSH2 0x1078 SWAP2 SWAP1 PUSH2 0x3396 JUMP JUMPDEST PUSH2 0x1080 PUSH2 0x637 JUMP JUMPDEST LT ISZERO SWAP3 SWAP2 POP POP JUMP JUMPDEST PUSH1 0x0 SLOAD PUSH1 0xFF AND PUSH2 0x10AA JUMPI PUSH1 0x40 MLOAD PUSH3 0x461BCD PUSH1 0xE5 SHL DUP2 MSTORE PUSH1 0x4 ADD PUSH2 0x67C SWAP1 PUSH2 0x3349 JUMP JUMPDEST PUSH1 0x0 DUP1 SLOAD PUSH1 0xFF NOT AND SWAP1 SSTORE PUSH1 0x7 SLOAD PUSH1 0x4 DUP1 SLOAD PUSH1 0x40 MLOAD PUSH4 0x23B872DD PUSH1 0xE0 SHL DUP2 MSTORE CALLER SWAP3 DUP2 ADD SWAP3 SWAP1 SWAP3 MSTORE ADDRESS PUSH1 0x24 DUP4 ADD MSTORE PUSH1 0x44 DUP3 ADD MSTORE PUSH1 0x1 PUSH1 0x1 PUSH1 0xA0 SHL SUB SWAP1 SWAP2 AND SWAP1 PUSH4 0x23B872DD SWAP1 PUSH1 0x64 ADD PUSH1 0x20 PUSH1 0x40 MLOAD DUP1 DUP4 SUB DUP2 PUSH1 0x0 DUP8 GAS CALL ISZERO DUP1 ISZERO PUSH2 0x110F JUMPI RETURNDATASIZE PUSH1 0x0 DUP1 RETURNDATACOPY RETURNDATASIZE PUSH1 0x0 REVERT JUMPDEST POP POP POP POP PUSH1 0x40 MLOAD RETURNDATASIZE PUSH1 0x1F NOT PUSH1 0x1F DUP3 ADD AND DUP3 ADD DUP1 PUSH1 0x40 MSTORE POP DUP2 ADD SWAP1 PUSH2 0x1133 SWAP2 SWAP1 PUSH2 0x3432 JUMP JUMPDEST PUSH2 0x118E JUMPI PUSH1 0x40 MLOAD PUSH3 0x461BCD PUSH1 0xE5 SHL DUP2 MSTORE PUSH1 0x20 PUSH1 0x4 DUP3 ADD MSTORE PUSH1 0x26 PUSH1 0x24 DUP3 ADD MSTORE PUSH32 0x70726F706F73616C206465706F73697420746F6B656E207472616E7366657220 PUSH1 0x44 DUP3 ADD MSTORE PUSH6 0x19985A5B1959 PUSH1 0xD2 SHL PUSH1 0x64 DUP3 ADD MSTORE PUSH1 0x84 ADD PUSH2 0x67C JUMP JUMPDEST PUSH2 0x119C PUSH2 0xBEEF PUSH1 0x4 SLOAD PUSH2 0x21FE JUMP JUMPDEST PUSH1 0x0 DUP2 DUP2 MSTORE PUSH1 0xD PUSH1 0x20 MSTORE PUSH1 0x40 SWAP1 KECCAK256 PUSH1 0x1 DUP2 ADD SLOAD PUSH1 0x1 PUSH1 0x1 PUSH1 0xA0 SHL SUB AND PUSH2 0x1204 JUMPI PUSH1 0x40 MLOAD PUSH3 0x461BCD PUSH1 0xE5 SHL DUP2 MSTORE PUSH1 0x20 PUSH1 0x4 DUP3 ADD DUP2 SWAP1 MSTORE PUSH1 0x24 DUP3 ADD MSTORE PUSH32 0x70726F706F73616C206D7573742068617665206265656E2070726F706F736564 PUSH1 0x44 DUP3 ADD MSTORE PUSH1 0x64 ADD PUSH2 0x67C JUMP JUMPDEST PUSH1 0xB DUP2 ADD SLOAD PUSH1 0xFF AND ISZERO PUSH2 0x1229 JUMPI PUSH1 0x40 MLOAD PUSH3 0x461BCD PUSH1 0xE5 SHL DUP2 MSTORE PUSH1 0x4 ADD PUSH2 0x67C SWAP1 PUSH2 0x358C JUMP JUMPDEST PUSH1 0xB DUP2 ADD SLOAD PUSH4 0x1000000 SWAP1 DIV PUSH1 0xFF AND ISZERO PUSH2 0x1285 JUMPI PUSH1 0x40 MLOAD PUSH3 0x461BCD PUSH1 0xE5 SHL DUP2 MSTORE PUSH1 0x20 PUSH1 0x4 DUP3 ADD MSTORE PUSH1 0x1B PUSH1 0x24 DUP3 ADD MSTORE PUSH32 0x70726F706F73616C20686173206265656E2063616E63656C6C65640000000000 PUSH1 0x44 DUP3 ADD MSTORE PUSH1 0x64 ADD PUSH2 0x67C JUMP JUMPDEST PUSH1 0xB DUP2 ADD SLOAD PUSH2 0x100 SWAP1 DIV PUSH1 0xFF AND ISZERO PUSH2 0x12DF JUMPI PUSH1 0x40 MLOAD PUSH3 0x461BCD PUSH1 0xE5 SHL DUP2 MSTORE PUSH1 0x20 PUSH1 0x4 DUP3 ADD MSTORE PUSH1 0x1B PUSH1 0x24 DUP3 ADD MSTORE PUSH32 0x70726F706F73616C20686173206265656E2070726F6365737365640000000000 PUSH1 0x44 DUP3 ADD MSTORE PUSH1 0x64 ADD PUSH2 0x67C JUMP JUMPDEST DUP1 SLOAD PUSH1 0x1 PUSH1 0x1 PUSH1 0xA0 SHL SUB AND PUSH1 0x0 SWAP1 DUP2 MSTORE PUSH1 0xC PUSH1 0x20 MSTORE PUSH1 0x40 SWAP1 KECCAK256 PUSH1 0x3 ADD SLOAD PUSH1 0xFF AND ISZERO PUSH2 0x131C JUMPI PUSH1 0x40 MLOAD PUSH3 0x461BCD PUSH1 0xE5 SHL DUP2 MSTORE PUSH1 0x4 ADD PUSH2 0x67C SWAP1 PUSH2 0x33ED JUMP JUMPDEST PUSH1 0xB DUP2 ADD SLOAD PUSH5 0x100000000 SWAP1 DIV PUSH1 0xFF AND ISZERO PUSH2 0x13C0 JUMPI DUP1 SLOAD PUSH1 0x1 PUSH1 0x1 PUSH1 0xA0 SHL SUB AND PUSH1 0x0 SWAP1 DUP2 MSTORE PUSH1 0xB PUSH1 0x20 MSTORE PUSH1 0x40 SWAP1 KECCAK256 SLOAD PUSH1 0xFF AND ISZERO PUSH2 0x139B JUMPI PUSH1 0x40 MLOAD PUSH3 0x461BCD PUSH1 0xE5 SHL DUP2 MSTORE PUSH1 0x20 PUSH1 0x4 DUP3 ADD MSTORE PUSH1 0x18 PUSH1 0x24 DUP3 ADD MSTORE PUSH32 0x616C72656164792070726F706F73656420746F206B69636B0000000000000000 PUSH1 0x44 DUP3 ADD MSTORE PUSH1 0x64 ADD PUSH2 0x67C JUMP JUMPDEST DUP1 SLOAD PUSH1 0x1 PUSH1 0x1 PUSH1 0xA0 SHL SUB AND PUSH1 0x0 SWAP1 DUP2 MSTORE PUSH1 0xB PUSH1 0x20 MSTORE PUSH1 0x40 SWAP1 KECCAK256 DUP1 SLOAD PUSH1 0xFF NOT AND PUSH1 0x1 OR SWAP1 SSTORE JUMPDEST DUP1 PUSH1 0x8 ADD SLOAD PUSH1 0x0 SUB PUSH2 0x149B JUMPI PUSH2 0x13D4 PUSH2 0x637 JUMP JUMPDEST PUSH2 0x13DF SWAP1 PUSH1 0x1 PUSH2 0x3396 JUMP JUMPDEST DUP2 PUSH1 0x6 ADD PUSH1 0x0 DUP2 SLOAD DUP2 LT PUSH2 0x13F5 JUMPI PUSH2 0x13F5 PUSH2 0x3380 JUMP JUMPDEST PUSH1 0x0 SWAP2 DUP3 MSTORE PUSH1 0x20 SWAP1 SWAP2 KECCAK256 ADD SSTORE PUSH1 0x1 JUMPDEST PUSH1 0x6 DUP3 ADD SLOAD DUP2 LT ISZERO PUSH2 0x1499 JUMPI DUP2 PUSH1 0x6 ADD DUP2 DUP2 SLOAD DUP2 LT PUSH2 0x1425 JUMPI PUSH2 0x1425 PUSH2 0x3380 JUMP JUMPDEST SWAP1 PUSH1 0x0 MSTORE PUSH1 0x20 PUSH1 0x0 KECCAK256 ADD SLOAD DUP3 PUSH1 0x6 ADD PUSH1 0x1 DUP4 PUSH2 0x1441 SWAP2 SWAP1 PUSH2 0x3314 JUMP JUMPDEST DUP2 SLOAD DUP2 LT PUSH2 0x1451 JUMPI PUSH2 0x1451 PUSH2 0x3380 JUMP JUMPDEST SWAP1 PUSH1 0x0 MSTORE PUSH1 0x20 PUSH1 0x0 KECCAK256 ADD SLOAD PUSH2 0x1466 SWAP2 SWAP1 PUSH2 0x3396 JUMP JUMPDEST DUP3 PUSH1 0x6 ADD DUP3 DUP2 SLOAD DUP2 LT PUSH2 0x147B JUMPI PUSH2 0x147B PUSH2 0x3380 JUMP JUMPDEST PUSH1 0x0 SWAP2 DUP3 MSTORE PUSH1 0x20 SWAP1 SWAP2 KECCAK256 ADD SSTORE DUP1 PUSH2 0x1491 DUP2 PUSH2 0x35CF JUMP JUMPDEST SWAP2 POP POP PUSH2 0x1404 JUMP JUMPDEST POP JUMPDEST DUP1 PUSH1 0x6 ADD PUSH1 0x0 DUP2 SLOAD DUP2 LT PUSH2 0x14B1 JUMPI PUSH2 0x14B1 PUSH2 0x3380 JUMP JUMPDEST PUSH1 0x0 SWAP2 DUP3 MSTORE PUSH1 0x20 DUP3 KECCAK256 ADD SLOAD PUSH1 0x7 DUP4 ADD SSTORE PUSH1 0x2 DUP3 ADD DUP1 SLOAD PUSH1 0x1 PUSH1 0x1 PUSH1 0xA0 SHL SUB NOT AND CALLER OR SWAP1 SSTORE PUSH1 0x1 SWAP1 PUSH1 0xB DUP4 ADD SWAP1 JUMPDEST PUSH1 0x20 SWAP2 DUP3 DUP3 DIV ADD SWAP2 SWAP1 MOD PUSH2 0x100 EXP DUP2 SLOAD DUP2 PUSH1 0xFF MUL NOT AND SWAP1 DUP4 ISZERO ISZERO MUL OR SWAP1 SSTORE POP DUP1 PUSH1 0xC ADD PUSH1 0x40 MLOAD PUSH2 0x150E SWAP2 SWAP1 PUSH2 0x3454 JUMP JUMPDEST PUSH1 0x40 MLOAD DUP1 SWAP2 SUB SWAP1 KECCAK256 DUP3 PUSH1 0x0 DUP1 MLOAD PUSH1 0x20 PUSH2 0x37A3 DUP4 CODECOPY DUP2 MLOAD SWAP2 MSTORE DUP4 PUSH1 0x5 ADD DUP5 PUSH1 0xB ADD DUP6 PUSH1 0x9 ADD SLOAD DUP7 PUSH1 0xA ADD SLOAD DUP8 PUSH1 0x8 ADD SLOAD PUSH1 0x40 MLOAD PUSH2 0x154E SWAP6 SWAP5 SWAP4 SWAP3 SWAP2 SWAP1 PUSH2 0x351C JUMP JUMPDEST PUSH1 0x40 MLOAD DUP1 SWAP2 SUB SWAP1 LOG3 POP POP PUSH1 0x0 DUP1 SLOAD PUSH1 0xFF NOT AND PUSH1 0x1 OR SWAP1 SSTORE JUMP JUMPDEST PUSH1 0x0 SLOAD PUSH1 0xFF AND PUSH2 0x1589 JUMPI PUSH1 0x40 MLOAD PUSH3 0x461BCD PUSH1 0xE5 SHL DUP2 MSTORE PUSH1 0x4 ADD PUSH2 0x67C SWAP1 PUSH2 0x3349 JUMP JUMPDEST PUSH1 0x0 DUP1 SLOAD PUSH1 0xFF NOT AND DUP2 SSTORE CALLER DUP2 MSTORE PUSH1 0xC PUSH1 0x20 MSTORE PUSH1 0x40 SWAP1 KECCAK256 PUSH1 0x8 SLOAD DUP4 LT PUSH2 0x15C0 JUMPI PUSH1 0x40 MLOAD PUSH3 0x461BCD PUSH1 0xE5 SHL DUP2 MSTORE PUSH1 0x4 ADD PUSH2 0x67C SWAP1 PUSH2 0x35E8 JUMP JUMPDEST PUSH1 0x0 DUP4 DUP2 MSTORE PUSH1 0xD PUSH1 0x20 MSTORE PUSH1 0x40 SWAP1 KECCAK256 PUSH1 0xB DUP2 ADD SLOAD PUSH1 0xFF AND ISZERO ISZERO PUSH1 0x1 EQ PUSH2 0x1627 JUMPI PUSH1 0x40 MLOAD PUSH3 0x461BCD PUSH1 0xE5 SHL DUP2 MSTORE PUSH1 0x20 PUSH1 0x4 DUP3 ADD MSTORE PUSH1 0x19 PUSH1 0x24 DUP3 ADD MSTORE PUSH32 0x70726F706F73616C20646F6573206E6F742073706F6E736F7200000000000000 PUSH1 0x44 DUP3 ADD MSTORE PUSH1 0x64 ADD PUSH2 0x67C JUMP JUMPDEST PUSH1 0x3 DUP4 PUSH1 0xFF AND LT PUSH2 0x1670 JUMPI PUSH1 0x40 MLOAD PUSH3 0x461BCD PUSH1 0xE5 SHL DUP2 MSTORE PUSH1 0x20 PUSH1 0x4 DUP3 ADD MSTORE PUSH1 0x13 PUSH1 0x24 DUP3 ADD MSTORE PUSH19 0x6D757374206265206C657373207468616E2033 PUSH1 0x68 SHL PUSH1 0x44 DUP3 ADD MSTORE PUSH1 0x64 ADD PUSH2 0x67C JUMP JUMPDEST PUSH1 0x0 DUP4 PUSH1 0xFF AND PUSH1 0x2 DUP2 GT ISZERO PUSH2 0x1687 JUMPI PUSH2 0x1687 PUSH2 0x3223 JUMP JUMPDEST SWAP1 POP DUP2 PUSH1 0x7 ADD SLOAD PUSH2 0x1696 PUSH2 0x637 JUMP JUMPDEST LT ISZERO PUSH2 0x16E4 JUMPI PUSH1 0x40 MLOAD PUSH3 0x461BCD PUSH1 0xE5 SHL DUP2 MSTORE PUSH1 0x20 PUSH1 0x4 DUP3 ADD MSTORE PUSH1 0x1D PUSH1 0x24 DUP3 ADD MSTORE PUSH32 0x766F74696E6720706572696F6420686173206E6F742073746172746564000000 PUSH1 0x44 DUP3 ADD MSTORE PUSH1 0x64 ADD PUSH2 0x67C JUMP JUMPDEST PUSH2 0x16F1 DUP3 PUSH1 0x7 ADD SLOAD PUSH2 0x1068 JUMP JUMPDEST ISZERO PUSH2 0x1749 JUMPI PUSH1 0x40 MLOAD PUSH3 0x461BCD PUSH1 0xE5 SHL DUP2 MSTORE PUSH1 0x20 PUSH1 0x4 DUP3 ADD MSTORE PUSH1 0x22 PUSH1 0x24 DUP3 ADD MSTORE PUSH32 0x70726F706F73616C20766F74696E6720706572696F6420686173206578706972 PUSH1 0x44 DUP3 ADD MSTORE PUSH2 0x1959 PUSH1 0xF2 SHL PUSH1 0x64 DUP3 ADD MSTORE PUSH1 0x84 ADD PUSH2 0x67C JUMP JUMPDEST PUSH1 0x8 DUP3 ADD SLOAD PUSH1 0x0 SWAP1 DUP2 MSTORE PUSH1 0xE DUP4 ADD PUSH1 0x20 SWAP1 DUP2 MSTORE PUSH1 0x40 DUP1 DUP4 KECCAK256 CALLER DUP5 MSTORE SWAP1 SWAP2 MSTORE DUP2 KECCAK256 SLOAD PUSH1 0xFF AND PUSH1 0x2 DUP2 GT ISZERO PUSH2 0x177E JUMPI PUSH2 0x177E PUSH2 0x3223 JUMP JUMPDEST EQ PUSH2 0x17CB JUMPI PUSH1 0x40 MLOAD PUSH3 0x461BCD PUSH1 0xE5 SHL DUP2 MSTORE PUSH1 0x20 PUSH1 0x4 DUP3 ADD MSTORE PUSH1 0x18 PUSH1 0x24 DUP3 ADD MSTORE PUSH32 0x6D656D6265722068617320616C726561647920766F7465640000000000000000 PUSH1 0x44 DUP3 ADD MSTORE PUSH1 0x64 ADD PUSH2 0x67C JUMP JUMPDEST PUSH1 0x1 DUP2 PUSH1 0x2 DUP2 GT ISZERO PUSH2 0x17DF JUMPI PUSH2 0x17DF PUSH2 0x3223 JUMP JUMPDEST EQ DUP1 PUSH2 0x17FC JUMPI POP PUSH1 0x2 DUP2 PUSH1 0x2 DUP2 GT ISZERO PUSH2 0x17FA JUMPI PUSH2 0x17FA PUSH2 0x3223 JUMP JUMPDEST EQ JUMPDEST PUSH2 0x1848 JUMPI PUSH1 0x40 MLOAD PUSH3 0x461BCD PUSH1 0xE5 SHL DUP2 MSTORE PUSH1 0x20 PUSH1 0x4 DUP3 ADD MSTORE PUSH1 0x1D PUSH1 0x24 DUP3 ADD MSTORE PUSH32 0x766F7465206D7573742062652065697468657220596573206F72204E6F000000 PUSH1 0x44 DUP3 ADD MSTORE PUSH1 0x64 ADD PUSH2 0x67C JUMP JUMPDEST PUSH1 0x8 DUP3 ADD SLOAD PUSH1 0x0 SWAP1 DUP2 MSTORE PUSH1 0xE DUP4 ADD PUSH1 0x20 SWAP1 DUP2 MSTORE PUSH1 0x40 DUP1 DUP4 KECCAK256 CALLER DUP5 MSTORE SWAP1 SWAP2 MSTORE SWAP1 KECCAK256 DUP1 SLOAD DUP3 SWAP2 SWAP1 PUSH1 0xFF NOT AND PUSH1 0x1 DUP4 PUSH1 0x2 DUP2 GT ISZERO PUSH2 0x1885 JUMPI PUSH2 0x1885 PUSH2 0x3223 JUMP JUMPDEST MUL OR SWAP1 SSTORE POP PUSH1 0x1 DUP2 PUSH1 0x2 DUP2 GT ISZERO PUSH2 0x189E JUMPI PUSH2 0x189E PUSH2 0x3223 JUMP JUMPDEST SUB PUSH2 0x18D8 JUMPI DUP3 SLOAD PUSH1 0x9 DUP4 ADD SLOAD PUSH2 0x18B4 SWAP2 SWAP1 PUSH2 0x3396 JUMP JUMPDEST DUP3 PUSH1 0x9 ADD DUP2 SWAP1 SSTORE POP DUP2 PUSH1 0xD ADD SLOAD PUSH1 0x9 SLOAD GT ISZERO PUSH2 0x18D3 JUMPI PUSH1 0x9 SLOAD PUSH1 0xD DUP4 ADD SSTORE JUMPDEST PUSH2 0x1908 JUMP JUMPDEST PUSH1 0x2 DUP2 PUSH1 0x2 DUP2 GT ISZERO PUSH2 0x18EC JUMPI PUSH2 0x18EC PUSH2 0x3223 JUMP JUMPDEST SUB PUSH2 0x1908 JUMPI DUP3 SLOAD PUSH1 0xA DUP4 ADD SLOAD PUSH2 0x1902 SWAP2 SWAP1 PUSH2 0x3396 JUMP JUMPDEST PUSH1 0xA DUP4 ADD SSTORE JUMPDEST DUP2 PUSH1 0xC ADD PUSH1 0x40 MLOAD PUSH2 0x1919 SWAP2 SWAP1 PUSH2 0x3454 JUMP JUMPDEST PUSH1 0x40 MLOAD DUP1 SWAP2 SUB SWAP1 KECCAK256 DUP6 PUSH1 0x0 DUP1 MLOAD PUSH1 0x20 PUSH2 0x37A3 DUP4 CODECOPY DUP2 MLOAD SWAP2 MSTORE DUP5 PUSH1 0x5 ADD DUP6 PUSH1 0xB ADD DUP7 PUSH1 0x9 ADD SLOAD DUP8 PUSH1 0xA ADD SLOAD DUP9 PUSH1 0x8 ADD SLOAD PUSH1 0x40 MLOAD PUSH2 0x1959 SWAP6 SWAP5 SWAP4 SWAP3 SWAP2 SWAP1 PUSH2 0x351C JUMP JUMPDEST PUSH1 0x40 MLOAD DUP1 SWAP2 SUB SWAP1 LOG3 POP POP PUSH1 0x0 DUP1 SLOAD PUSH1 0xFF NOT AND PUSH1 0x1 OR SWAP1 SSTORE POP POP POP JUMP JUMPDEST PUSH2 0x197D PUSH2 0x2CCE JUMP JUMPDEST PUSH1 0x0 DUP3 DUP2 MSTORE PUSH1 0xD PUSH1 0x20 MSTORE PUSH1 0x40 DUP1 DUP3 KECCAK256 DUP2 MLOAD PUSH1 0xC0 DUP2 ADD SWAP3 DUP4 SWAP1 MSTORE SWAP3 PUSH1 0xB SWAP1 SWAP2 ADD SWAP2 PUSH1 0x6 SWAP2 DUP4 SWAP1 DUP6 JUMPDEST DUP3 SLOAD PUSH2 0x100 DUP4 SWAP1 EXP SWAP1 DIV PUSH1 0xFF AND ISZERO ISZERO DUP2 MSTORE PUSH1 0x20 PUSH1 0x1 SWAP3 DUP4 ADD DUP2 DUP2 DIV SWAP5 DUP6 ADD SWAP5 SWAP1 SWAP4 SUB SWAP1 SWAP3 MUL SWAP2 ADD DUP1 DUP5 GT PUSH2 0x19A4 JUMPI POP SWAP5 SWAP8 SWAP7 POP POP POP POP POP POP POP JUMP JUMPDEST PUSH1 0x0 SLOAD PUSH1 0xFF AND PUSH2 0x1A01 JUMPI PUSH1 0x40 MLOAD PUSH3 0x461BCD PUSH1 0xE5 SHL DUP2 MSTORE PUSH1 0x4 ADD PUSH2 0x67C SWAP1 PUSH2 0x3349 JUMP JUMPDEST PUSH1 0x0 DUP1 SLOAD PUSH1 0xFF NOT AND SWAP1 SSTORE PUSH2 0x1A14 DUP2 PUSH2 0x2438 JUMP JUMPDEST POP PUSH1 0x0 DUP1 SLOAD PUSH1 0xFF NOT AND PUSH1 0x1 OR SWAP1 SSTORE JUMP JUMPDEST PUSH1 0x0 SLOAD PUSH1 0xFF AND PUSH2 0x1A46 JUMPI PUSH1 0x40 MLOAD PUSH3 0x461BCD PUSH1 0xE5 SHL DUP2 MSTORE PUSH1 0x4 ADD PUSH2 0x67C SWAP1 PUSH2 0x3349 JUMP JUMPDEST PUSH1 0x0 DUP1 SLOAD PUSH1 0xFF NOT AND DUP2 SSTORE PUSH1 0x1 PUSH1 0x1 PUSH1 0xA0 SHL SUB DUP3 AND DUP2 MSTORE PUSH1 0xC PUSH1 0x20 MSTORE PUSH1 0x40 DUP2 KECCAK256 PUSH1 0x3 DUP2 ADD SLOAD SWAP1 SWAP2 PUSH1 0xFF SWAP1 SWAP2 AND ISZERO ISZERO SWAP1 SUB PUSH2 0x1ABA JUMPI PUSH1 0x40 MLOAD PUSH3 0x461BCD PUSH1 0xE5 SHL DUP2 MSTORE PUSH1 0x20 PUSH1 0x4 DUP3 ADD MSTORE PUSH1 0x16 PUSH1 0x24 DUP3 ADD MSTORE PUSH22 0x1B595B58995C881B5D5CDD081899481A5B881A985A5B PUSH1 0x52 SHL PUSH1 0x44 DUP3 ADD MSTORE PUSH1 0x64 ADD PUSH2 0x67C JUMP JUMPDEST DUP1 SLOAD PUSH2 0x1B08 JUMPI PUSH1 0x40 MLOAD PUSH3 0x461BCD PUSH1 0xE5 SHL DUP2 MSTORE PUSH1 0x20 PUSH1 0x4 DUP3 ADD MSTORE PUSH1 0x1B PUSH1 0x24 DUP3 ADD MSTORE PUSH32 0x6D656D626572206D757374206861766520736F6D652073686172650000000000 PUSH1 0x44 DUP3 ADD MSTORE PUSH1 0x64 ADD PUSH2 0x67C JUMP JUMPDEST PUSH2 0x877 DUP3 DUP3 PUSH1 0x0 ADD SLOAD PUSH1 0x0 PUSH1 0x1 PUSH2 0x1E3F JUMP JUMPDEST PUSH1 0x0 SLOAD PUSH1 0xFF AND PUSH2 0x1B3C JUMPI PUSH1 0x40 MLOAD PUSH3 0x461BCD PUSH1 0xE5 SHL DUP2 MSTORE PUSH1 0x4 ADD PUSH2 0x67C SWAP1 PUSH2 0x3349 JUMP JUMPDEST PUSH1 0x0 DUP1 SLOAD PUSH1 0xFF NOT AND DUP2 SSTORE DUP2 DUP2 MSTORE PUSH1 0xD PUSH1 0x20 MSTORE PUSH1 0x40 SWAP1 KECCAK256 PUSH1 0xB DUP2 ADD SLOAD PUSH1 0xFF AND ISZERO PUSH2 0x1B77 JUMPI PUSH1 0x40 MLOAD PUSH3 0x461BCD PUSH1 0xE5 SHL DUP2 MSTORE PUSH1 0x4 ADD PUSH2 0x67C SWAP1 PUSH2 0x358C JUMP JUMPDEST PUSH1 0xB DUP2 ADD SLOAD PUSH4 0x1000000 SWAP1 DIV PUSH1 0xFF AND ISZERO PUSH2 0x1BDF JUMPI PUSH1 0x40 MLOAD PUSH3 0x461BCD PUSH1 0xE5 SHL DUP2 MSTORE PUSH1 0x20 PUSH1 0x4 DUP3 ADD MSTORE PUSH1 0x23 PUSH1 0x24 DUP3 ADD MSTORE PUSH32 0x70726F706F73616C2068617320616C7265616479206265656E2063616E63656C PUSH1 0x44 DUP3 ADD MSTORE PUSH3 0x1B1959 PUSH1 0xEA SHL PUSH1 0x64 DUP3 ADD MSTORE PUSH1 0x84 ADD PUSH2 0x67C JUMP JUMPDEST PUSH1 0x1 DUP2 ADD SLOAD PUSH1 0x1 PUSH1 0x1 PUSH1 0xA0 SHL SUB AND CALLER EQ PUSH2 0x1C3B JUMPI PUSH1 0x40 MLOAD PUSH3 0x461BCD PUSH1 0xE5 SHL DUP2 MSTORE PUSH1 0x20 PUSH1 0x4 DUP3 ADD MSTORE PUSH1 0x1E PUSH1 0x24 DUP3 ADD MSTORE PUSH32 0x736F6C656C79207468652070726F706F7365722063616E2063616E63656C0000 PUSH1 0x44 DUP3 ADD MSTORE PUSH1 0x64 ADD PUSH2 0x67C JUMP JUMPDEST PUSH1 0x1 PUSH1 0xB DUP3 ADD PUSH1 0x3 PUSH2 0x14DE JUMP JUMPDEST PUSH1 0x0 SLOAD PUSH1 0xFF AND PUSH2 0x1C6A JUMPI PUSH1 0x40 MLOAD PUSH3 0x461BCD PUSH1 0xE5 SHL DUP2 MSTORE PUSH1 0x4 ADD PUSH2 0x67C SWAP1 PUSH2 0x3349 JUMP JUMPDEST PUSH1 0x0 DUP1 SLOAD PUSH1 0xFF NOT AND SWAP1 SSTORE PUSH2 0x1C7D DUP2 PUSH2 0x2564 JUMP JUMPDEST PUSH1 0x0 PUSH2 0x1C88 DUP3 PUSH2 0x23C8 JUMP JUMPDEST PUSH1 0x0 DUP4 DUP2 MSTORE PUSH1 0xD PUSH1 0x20 MSTORE PUSH1 0x40 SWAP1 KECCAK256 PUSH1 0xB DUP2 ADD SLOAD SWAP2 SWAP3 POP SWAP1 PUSH5 0x100000000 SWAP1 DIV PUSH1 0xFF AND ISZERO ISZERO PUSH1 0x1 EQ PUSH2 0x1CF4 JUMPI DUP1 PUSH1 0x5 ADD PUSH1 0x0 DUP2 SLOAD DUP2 LT PUSH2 0x1CC9 JUMPI PUSH2 0x1CC9 PUSH2 0x3380 JUMP JUMPDEST SWAP1 PUSH1 0x0 MSTORE PUSH1 0x20 PUSH1 0x0 KECCAK256 ADD SLOAD PUSH1 0x0 SUB PUSH2 0x1CEA JUMPI PUSH2 0x1CE5 DUP4 DUP4 PUSH2 0x267C JUMP JUMPDEST PUSH2 0x1CFE JUMP JUMPDEST PUSH2 0x1CE5 DUP4 DUP4 PUSH2 0x2880 JUMP JUMPDEST PUSH2 0x1CFE DUP4 DUP4 PUSH2 0x2A40 JUMP JUMPDEST POP POP PUSH1 0x0 DUP1 SLOAD PUSH1 0xFF NOT AND PUSH1 0x1 OR SWAP1 SSTORE POP JUMP JUMPDEST PUSH1 0x8 SLOAD PUSH1 0x0 SWAP1 DUP2 MSTORE PUSH1 0xD PUSH1 0x20 SWAP1 DUP2 MSTORE PUSH1 0x40 SWAP1 SWAP2 KECCAK256 DUP1 SLOAD PUSH1 0x1 PUSH1 0x1 PUSH1 0xA0 SHL SUB DUP11 AND PUSH1 0x1 PUSH1 0x1 PUSH1 0xA0 SHL SUB NOT SWAP2 DUP3 AND OR DUP3 SSTORE PUSH1 0x1 DUP3 ADD DUP1 SLOAD SWAP1 SWAP2 AND CALLER OR SWAP1 SSTORE PUSH1 0x3 DUP2 ADD DUP9 SWAP1 SSTORE PUSH1 0x4 DUP2 ADD DUP8 SWAP1 SSTORE DUP6 MLOAD SWAP1 SWAP2 PUSH2 0x1D6F SWAP2 PUSH1 0x5 DUP5 ADD SWAP2 DUP9 ADD SWAP1 PUSH2 0x2CEC JUMP JUMPDEST POP DUP4 MLOAD PUSH2 0x1D85 SWAP1 PUSH1 0x6 DUP4 ADD SWAP1 PUSH1 0x20 DUP8 ADD SWAP1 PUSH2 0x2CEC JUMP JUMPDEST POP PUSH1 0x0 PUSH1 0x7 DUP3 ADD DUP2 SWAP1 SSTORE PUSH1 0x8 DUP3 ADD DUP2 SWAP1 SSTORE PUSH1 0x9 DUP3 ADD DUP2 SWAP1 SSTORE PUSH1 0xA DUP3 ADD SSTORE PUSH2 0x1DB1 PUSH1 0xB DUP3 ADD DUP4 PUSH1 0x6 PUSH2 0x2D37 JUMP JUMPDEST POP PUSH1 0xC DUP2 ADD PUSH2 0x1DC0 DUP5 DUP3 PUSH2 0x366D JUMP JUMPDEST POP PUSH1 0x0 PUSH1 0xD DUP3 ADD SSTORE PUSH1 0x40 MLOAD PUSH2 0x1DD6 SWAP1 DUP5 SWAP1 PUSH2 0x372D JUMP JUMPDEST PUSH1 0x40 MLOAD DUP1 SWAP2 SUB SWAP1 KECCAK256 PUSH1 0x8 SLOAD PUSH1 0x0 DUP1 MLOAD PUSH1 0x20 PUSH2 0x37A3 DUP4 CODECOPY DUP2 MLOAD SWAP2 MSTORE DUP8 DUP5 PUSH1 0xB ADD DUP6 PUSH1 0x9 ADD SLOAD DUP7 PUSH1 0xA ADD SLOAD DUP8 PUSH1 0x8 ADD SLOAD PUSH1 0x40 MLOAD PUSH2 0x1E15 SWAP6 SWAP5 SWAP4 SWAP3 SWAP2 SWAP1 PUSH2 0x3749 JUMP JUMPDEST PUSH1 0x40 MLOAD DUP1 SWAP2 SUB SWAP1 LOG3 PUSH1 0x1 PUSH1 0x8 PUSH1 0x0 DUP3 DUP3 SLOAD PUSH2 0x1E30 SWAP2 SWAP1 PUSH2 0x3396 JUMP JUMPDEST SWAP1 SWAP2 SSTORE POP POP POP POP POP POP POP POP POP POP JUMP JUMPDEST PUSH1 0x9 SLOAD PUSH1 0x1 PUSH1 0x1 PUSH1 0xA0 SHL SUB DUP6 AND PUSH1 0x0 SWAP1 DUP2 MSTORE PUSH1 0xC PUSH1 0x20 MSTORE PUSH1 0x40 SWAP1 KECCAK256 DUP1 SLOAD DUP6 GT ISZERO PUSH2 0x1EA1 JUMPI PUSH1 0x40 MLOAD PUSH3 0x461BCD PUSH1 0xE5 SHL DUP2 MSTORE PUSH1 0x20 PUSH1 0x4 DUP3 ADD MSTORE PUSH1 0x13 PUSH1 0x24 DUP3 ADD MSTORE PUSH19 0x696E73756666696369656E7420736861726573 PUSH1 0x68 SHL PUSH1 0x44 DUP3 ADD MSTORE PUSH1 0x64 ADD PUSH2 0x67C JUMP JUMPDEST DUP3 PUSH2 0x211E JUMPI PUSH1 0x0 DUP5 DUP2 MSTORE PUSH1 0xD PUSH1 0x20 MSTORE PUSH1 0x40 SWAP1 KECCAK256 PUSH1 0xB ADD SLOAD PUSH6 0x10000000000 SWAP1 DIV PUSH1 0xFF AND PUSH2 0x1F10 JUMPI PUSH1 0x40 MLOAD PUSH3 0x461BCD PUSH1 0xE5 SHL DUP2 MSTORE PUSH1 0x20 PUSH1 0x4 DUP3 ADD MSTORE PUSH1 0x1D PUSH1 0x24 DUP3 ADD MSTORE PUSH32 0x70726F706F73616C206D7573742062652070726570726F636573736564000000 PUSH1 0x44 DUP3 ADD MSTORE PUSH1 0x64 ADD PUSH2 0x67C JUMP JUMPDEST PUSH1 0x3 SLOAD PUSH1 0x2 SLOAD PUSH1 0x0 DUP7 DUP2 MSTORE PUSH1 0xD PUSH1 0x20 MSTORE PUSH1 0x40 SWAP1 KECCAK256 PUSH1 0x7 ADD SLOAD PUSH2 0x1F32 SWAP2 SWAP1 PUSH2 0x3396 JUMP JUMPDEST PUSH2 0x1F3C SWAP2 SWAP1 PUSH2 0x3396 JUMP JUMPDEST PUSH2 0x1F44 PUSH2 0x637 JUMP JUMPDEST LT PUSH2 0x1F91 JUMPI PUSH1 0x40 MLOAD PUSH3 0x461BCD PUSH1 0xE5 SHL DUP2 MSTORE PUSH1 0x20 PUSH1 0x4 DUP3 ADD DUP2 SWAP1 MSTORE PUSH1 0x24 DUP3 ADD MSTORE PUSH32 0x70726F706F73616C206D75737420626520696E20677261636520706572696F64 PUSH1 0x44 DUP3 ADD MSTORE PUSH1 0x64 ADD PUSH2 0x67C JUMP JUMPDEST PUSH1 0x0 DUP5 DUP2 MSTORE PUSH1 0xD PUSH1 0x20 SWAP1 DUP2 MSTORE PUSH1 0x40 DUP1 DUP4 KECCAK256 PUSH1 0x8 DUP2 ADD SLOAD DUP5 MSTORE PUSH1 0xE ADD DUP3 MSTORE DUP1 DUP4 KECCAK256 PUSH1 0x1 PUSH1 0x1 PUSH1 0xA0 SHL SUB DUP11 AND DUP5 MSTORE SWAP1 SWAP2 MSTORE DUP2 KECCAK256 SLOAD PUSH1 0xFF AND PUSH1 0x2 DUP2 GT ISZERO PUSH2 0x1FD7 JUMPI PUSH2 0x1FD7 PUSH2 0x3223 JUMP JUMPDEST SUB PUSH2 0x2024 JUMPI PUSH1 0x40 MLOAD PUSH3 0x461BCD PUSH1 0xE5 SHL DUP2 MSTORE PUSH1 0x20 PUSH1 0x4 DUP3 ADD DUP2 SWAP1 MSTORE PUSH1 0x24 DUP3 ADD MSTORE PUSH32 0x6D656D626572206469646E277420766F7465206F6E20612070726F706F73616C PUSH1 0x44 DUP3 ADD MSTORE PUSH1 0x64 ADD PUSH2 0x67C JUMP JUMPDEST PUSH1 0x0 DUP5 DUP2 MSTORE PUSH1 0xD PUSH1 0x20 MSTORE PUSH1 0x40 SWAP1 KECCAK256 PUSH1 0xB ADD SLOAD PUSH3 0x10000 SWAP1 DIV PUSH1 0xFF AND PUSH2 0x204A JUMPI PUSH1 0x2 PUSH2 0x204D JUMP JUMPDEST PUSH1 0x1 JUMPDEST PUSH1 0xFF AND PUSH1 0x2 DUP2 GT ISZERO PUSH2 0x2061 JUMPI PUSH2 0x2061 PUSH2 0x3223 JUMP JUMPDEST PUSH1 0x2 DUP2 GT ISZERO PUSH2 0x2072 JUMPI PUSH2 0x2072 PUSH2 0x3223 JUMP JUMPDEST PUSH1 0x0 DUP6 DUP2 MSTORE PUSH1 0xD PUSH1 0x20 SWAP1 DUP2 MSTORE PUSH1 0x40 DUP1 DUP4 KECCAK256 PUSH1 0x8 DUP2 ADD SLOAD DUP5 MSTORE PUSH1 0xE ADD DUP3 MSTORE DUP1 DUP4 KECCAK256 PUSH1 0x1 PUSH1 0x1 PUSH1 0xA0 SHL SUB DUP12 AND DUP5 MSTORE SWAP1 SWAP2 MSTORE SWAP1 KECCAK256 SLOAD PUSH1 0xFF AND PUSH1 0x2 DUP2 GT ISZERO PUSH2 0x20B8 JUMPI PUSH2 0x20B8 PUSH2 0x3223 JUMP JUMPDEST SUB PUSH2 0x211E JUMPI PUSH1 0x40 MLOAD PUSH3 0x461BCD PUSH1 0xE5 SHL DUP2 MSTORE PUSH1 0x20 PUSH1 0x4 DUP3 ADD MSTORE PUSH1 0x30 PUSH1 0x24 DUP3 ADD MSTORE PUSH32 0x6D656D6265722077686F20766F746564207468652073616D6520726573756C74 PUSH1 0x44 DUP3 ADD MSTORE PUSH16 0x818D85B9B9BDD081C9859D95C5D5A5D PUSH1 0x82 SHL PUSH1 0x64 DUP3 ADD MSTORE PUSH1 0x84 ADD PUSH2 0x67C JUMP JUMPDEST DUP1 SLOAD PUSH2 0x212B SWAP1 DUP7 SWAP1 PUSH2 0x3314 JUMP JUMPDEST DUP2 SSTORE PUSH1 0x9 SLOAD PUSH2 0x213B SWAP1 DUP7 SWAP1 PUSH2 0x3314 JUMP JUMPDEST PUSH1 0x9 SSTORE PUSH1 0x7 SLOAD PUSH1 0x1 PUSH1 0x1 PUSH1 0xA0 SHL SUB AND PUSH1 0x0 SWAP1 DUP2 MSTORE PUSH1 0x0 DUP1 MLOAD PUSH1 0x20 PUSH2 0x37C3 DUP4 CODECOPY DUP2 MLOAD SWAP2 MSTORE PUSH1 0x20 MSTORE PUSH1 0x40 DUP2 KECCAK256 SLOAD PUSH2 0x2171 SWAP1 DUP8 DUP6 PUSH2 0x2BB1 JUMP JUMPDEST SWAP1 POP DUP1 ISZERO PUSH2 0x21F5 JUMPI PUSH1 0x7 SLOAD PUSH1 0x1 PUSH1 0x1 PUSH1 0xA0 SHL SUB AND PUSH1 0x0 SWAP1 DUP2 MSTORE PUSH1 0x0 DUP1 MLOAD PUSH1 0x20 PUSH2 0x37C3 DUP4 CODECOPY DUP2 MLOAD SWAP2 MSTORE PUSH1 0x20 MSTORE PUSH1 0x40 DUP2 KECCAK256 DUP1 SLOAD DUP4 SWAP3 SWAP1 PUSH2 0x21B0 SWAP1 DUP5 SWAP1 PUSH2 0x3314 JUMP JUMPDEST SWAP1 SWAP2 SSTORE POP POP PUSH1 0x1 PUSH1 0x1 PUSH1 0xA0 SHL SUB DUP1 DUP9 AND PUSH1 0x0 SWAP1 DUP2 MSTORE PUSH1 0xA PUSH1 0x20 SWAP1 DUP2 MSTORE PUSH1 0x40 DUP1 DUP4 KECCAK256 PUSH1 0x7 SLOAD SWAP1 SWAP5 AND DUP4 MSTORE SWAP3 SWAP1 MSTORE SWAP1 DUP2 KECCAK256 DUP1 SLOAD DUP4 SWAP3 SWAP1 PUSH2 0x21EF SWAP1 DUP5 SWAP1 PUSH2 0x3396 JUMP JUMPDEST SWAP1 SWAP2 SSTORE POP POP JUMPDEST POP POP POP POP POP POP POP JUMP JUMPDEST PUSH1 0x1 PUSH1 0x1 PUSH1 0xA0 SHL SUB DUP1 DUP4 AND PUSH1 0x0 SWAP1 DUP2 MSTORE PUSH1 0xA PUSH1 0x20 SWAP1 DUP2 MSTORE PUSH1 0x40 DUP1 DUP4 KECCAK256 PUSH1 0x7 SLOAD SWAP1 SWAP5 AND DUP4 MSTORE SWAP3 SWAP1 MSTORE SWAP1 DUP2 KECCAK256 DUP1 SLOAD DUP4 SWAP3 SWAP1 PUSH2 0x2238 SWAP1 DUP5 SWAP1 PUSH2 0x3396 JUMP JUMPDEST SWAP1 SWAP2 SSTORE POP POP PUSH1 0x7 SLOAD PUSH1 0x1 PUSH1 0x1 PUSH1 0xA0 SHL SUB AND PUSH1 0x0 SWAP1 DUP2 MSTORE PUSH32 0xED762DDB65DFEAB933EDA5256EB347E1BF2B4E76044BDC8BAF0A70D22DC0C374 PUSH1 0x20 MSTORE PUSH1 0x40 DUP2 KECCAK256 DUP1 SLOAD DUP4 SWAP3 SWAP1 PUSH2 0x2286 SWAP1 DUP5 SWAP1 PUSH2 0x3396 JUMP JUMPDEST SWAP1 SWAP2 SSTORE POP POP POP POP JUMP JUMPDEST PUSH1 0x8 SLOAD DUP2 LT PUSH2 0x22B0 JUMPI PUSH1 0x40 MLOAD PUSH3 0x461BCD PUSH1 0xE5 SHL DUP2 MSTORE PUSH1 0x4 ADD PUSH2 0x67C SWAP1 PUSH2 0x35E8 JUMP JUMPDEST PUSH1 0x0 DUP2 DUP2 MSTORE PUSH1 0xD PUSH1 0x20 MSTORE PUSH1 0x40 SWAP1 KECCAK256 PUSH1 0x2 SLOAD PUSH1 0x7 DUP3 ADD SLOAD PUSH2 0x22D0 SWAP2 SWAP1 PUSH2 0x3396 JUMP JUMPDEST PUSH2 0x22D8 PUSH2 0x637 JUMP JUMPDEST LT ISZERO PUSH2 0x2337 JUMPI PUSH1 0x40 MLOAD PUSH3 0x461BCD PUSH1 0xE5 SHL DUP2 MSTORE PUSH1 0x20 PUSH1 0x4 DUP3 ADD MSTORE PUSH1 0x28 PUSH1 0x24 DUP3 ADD MSTORE PUSH32 0x70726F706F73616C206973206E6F7420726561647920746F2062652070726570 PUSH1 0x44 DUP3 ADD MSTORE PUSH8 0x1C9BD8D95CDCD959 PUSH1 0xC2 SHL PUSH1 0x64 DUP3 ADD MSTORE PUSH1 0x84 ADD PUSH2 0x67C JUMP JUMPDEST PUSH1 0xB DUP2 ADD SLOAD PUSH2 0x100 SWAP1 DIV PUSH1 0xFF AND ISZERO DUP1 ISZERO PUSH2 0x235F JUMPI POP PUSH1 0xB DUP2 ADD SLOAD PUSH6 0x10000000000 SWAP1 DIV PUSH1 0xFF AND ISZERO JUMPDEST PUSH2 0x23C4 JUMPI PUSH1 0x40 MLOAD PUSH3 0x461BCD PUSH1 0xE5 SHL DUP2 MSTORE PUSH1 0x20 PUSH1 0x4 DUP3 ADD MSTORE PUSH1 0x30 PUSH1 0x24 DUP3 ADD MSTORE PUSH32 0x70726F706F73616C2068617320616C7265616479206265656E2070726570726F PUSH1 0x44 DUP3 ADD MSTORE PUSH16 0x18D95CDCD9590BDC1C9BD8D95CDCD959 PUSH1 0x82 SHL PUSH1 0x64 DUP3 ADD MSTORE PUSH1 0x84 ADD PUSH2 0x67C JUMP JUMPDEST POP POP JUMP JUMPDEST PUSH1 0x0 DUP2 DUP2 MSTORE PUSH1 0xD PUSH1 0x20 DUP2 SWAP1 MSTORE PUSH1 0x40 SWAP1 SWAP2 KECCAK256 PUSH1 0xA DUP2 ADD SLOAD PUSH1 0x9 DUP1 DUP4 ADD SLOAD SWAP4 DUP4 ADD SLOAD PUSH1 0x5 SLOAD SWAP2 SLOAD SWAP3 SWAP1 SWAP5 GT SWAP4 SWAP2 PUSH2 0x23FD SWAP2 SWAP1 PUSH2 0x378B JUMP JUMPDEST LT ISZERO PUSH2 0x2408 JUMPI PUSH1 0x0 SWAP2 POP JUMPDEST DUP1 SLOAD PUSH1 0x1 PUSH1 0x1 PUSH1 0xA0 SHL SUB AND PUSH1 0x0 SWAP1 DUP2 MSTORE PUSH1 0xC PUSH1 0x20 MSTORE PUSH1 0x40 SWAP1 KECCAK256 PUSH1 0x3 ADD SLOAD PUSH1 0xFF AND ISZERO PUSH2 0x2432 JUMPI PUSH1 0x0 SWAP2 POP JUMPDEST POP SWAP2 SWAP1 POP JUMP JUMPDEST CALLER PUSH1 0x0 SWAP1 DUP2 MSTORE PUSH1 0xA PUSH1 0x20 SWAP1 DUP2 MSTORE PUSH1 0x40 DUP1 DUP4 KECCAK256 PUSH1 0x7 SLOAD PUSH1 0x1 PUSH1 0x1 PUSH1 0xA0 SHL SUB AND DUP5 MSTORE SWAP1 SWAP2 MSTORE SWAP1 KECCAK256 SLOAD DUP2 GT ISZERO PUSH2 0x24A4 JUMPI PUSH1 0x40 MLOAD PUSH3 0x461BCD PUSH1 0xE5 SHL DUP2 MSTORE PUSH1 0x20 PUSH1 0x4 DUP3 ADD MSTORE PUSH1 0x14 PUSH1 0x24 DUP3 ADD MSTORE PUSH20 0x696E73756666696369656E742062616C616E6365 PUSH1 0x60 SHL PUSH1 0x44 DUP3 ADD MSTORE PUSH1 0x64 ADD PUSH2 0x67C JUMP JUMPDEST PUSH2 0x24AE CALLER DUP3 PUSH2 0x2C1E JUMP JUMPDEST PUSH1 0x7 SLOAD PUSH1 0x40 MLOAD PUSH4 0xA9059CBB PUSH1 0xE0 SHL DUP2 MSTORE CALLER PUSH1 0x4 DUP3 ADD MSTORE PUSH1 0x24 DUP2 ADD DUP4 SWAP1 MSTORE PUSH1 0x1 PUSH1 0x1 PUSH1 0xA0 SHL SUB SWAP1 SWAP2 AND SWAP1 PUSH4 0xA9059CBB SWAP1 PUSH1 0x44 ADD PUSH1 0x20 PUSH1 0x40 MLOAD DUP1 DUP4 SUB DUP2 PUSH1 0x0 DUP8 GAS CALL ISZERO DUP1 ISZERO PUSH2 0x24FF JUMPI RETURNDATASIZE PUSH1 0x0 DUP1 RETURNDATACOPY RETURNDATASIZE PUSH1 0x0 REVERT JUMPDEST POP POP POP POP PUSH1 0x40 MLOAD RETURNDATASIZE PUSH1 0x1F NOT PUSH1 0x1F DUP3 ADD AND DUP3 ADD DUP1 PUSH1 0x40 MSTORE POP DUP2 ADD SWAP1 PUSH2 0x2523 SWAP2 SWAP1 PUSH2 0x3432 JUMP JUMPDEST PUSH2 0x2561 JUMPI PUSH1 0x40 MLOAD PUSH3 0x461BCD PUSH1 0xE5 SHL DUP2 MSTORE PUSH1 0x20 PUSH1 0x4 DUP3 ADD MSTORE PUSH1 0xF PUSH1 0x24 DUP3 ADD MSTORE PUSH15 0x1D1C985B9CD9995C8819985A5B1959 PUSH1 0x8A SHL PUSH1 0x44 DUP3 ADD MSTORE PUSH1 0x64 ADD PUSH2 0x67C JUMP JUMPDEST POP JUMP JUMPDEST PUSH1 0x8 SLOAD DUP2 LT PUSH2 0x2585 JUMPI PUSH1 0x40 MLOAD PUSH3 0x461BCD PUSH1 0xE5 SHL DUP2 MSTORE PUSH1 0x4 ADD PUSH2 0x67C SWAP1 PUSH2 0x35E8 JUMP JUMPDEST PUSH1 0x0 DUP2 DUP2 MSTORE PUSH1 0xD PUSH1 0x20 MSTORE PUSH1 0x40 SWAP1 KECCAK256 PUSH1 0x3 SLOAD PUSH1 0x2 SLOAD PUSH1 0x7 DUP4 ADD SLOAD PUSH2 0x25A8 SWAP2 SWAP1 PUSH2 0x3396 JUMP JUMPDEST PUSH2 0x25B2 SWAP2 SWAP1 PUSH2 0x3396 JUMP JUMPDEST PUSH2 0x25BA PUSH2 0x637 JUMP JUMPDEST LT ISZERO PUSH2 0x2616 JUMPI PUSH1 0x40 MLOAD PUSH3 0x461BCD PUSH1 0xE5 SHL DUP2 MSTORE PUSH1 0x20 PUSH1 0x4 DUP3 ADD MSTORE PUSH1 0x25 PUSH1 0x24 DUP3 ADD MSTORE PUSH32 0x70726F706F73616C206973206E6F7420726561647920746F2062652070726F63 PUSH1 0x44 DUP3 ADD MSTORE PUSH5 0x195CDCD959 PUSH1 0xDA SHL PUSH1 0x64 DUP3 ADD MSTORE PUSH1 0x84 ADD PUSH2 0x67C JUMP JUMPDEST PUSH1 0xB DUP2 ADD SLOAD PUSH2 0x100 SWAP1 DIV PUSH1 0xFF AND ISZERO PUSH2 0x23C4 JUMPI PUSH1 0x40 MLOAD PUSH3 0x461BCD PUSH1 0xE5 SHL DUP2 MSTORE PUSH1 0x20 PUSH1 0x4 DUP3 ADD MSTORE PUSH1 0x23 PUSH1 0x24 DUP3 ADD MSTORE PUSH32 0x70726F706F73616C2068617320616C7265616479206265656E2070726F636573 PUSH1 0x44 DUP3 ADD MSTORE PUSH3 0x1CD959 PUSH1 0xEA SHL PUSH1 0x64 DUP3 ADD MSTORE PUSH1 0x84 ADD PUSH2 0x67C JUMP JUMPDEST PUSH1 0x0 DUP3 DUP2 MSTORE PUSH1 0xD PUSH1 0x20 MSTORE PUSH1 0x40 SWAP1 KECCAK256 PUSH1 0xB DUP2 ADD DUP1 SLOAD PUSH2 0xFF00 NOT AND PUSH2 0x100 OR SWAP1 SSTORE PUSH1 0x3 DUP2 ADD SLOAD PUSH1 0x9 SLOAD DUP4 SWAP2 PUSH8 0xDE0B6B3A7640000 SWAP2 PUSH2 0x26B9 SWAP2 SWAP1 PUSH2 0x3396 JUMP JUMPDEST GT ISZERO PUSH2 0x26C3 JUMPI POP PUSH1 0x0 JUMPDEST DUP1 ISZERO PUSH2 0x27E7 JUMPI PUSH1 0xB DUP3 ADD DUP1 SLOAD PUSH3 0xFF0000 NOT AND PUSH3 0x10000 OR SWAP1 SSTORE DUP2 SLOAD PUSH1 0x1 PUSH1 0x1 PUSH1 0xA0 SHL SUB AND PUSH1 0x0 SWAP1 DUP2 MSTORE PUSH1 0xC PUSH1 0x20 MSTORE PUSH1 0x40 SWAP1 KECCAK256 PUSH1 0x1 ADD SLOAD PUSH1 0xFF AND ISZERO PUSH2 0x2749 JUMPI PUSH1 0x3 DUP3 ADD SLOAD DUP3 SLOAD PUSH1 0x1 PUSH1 0x1 PUSH1 0xA0 SHL SUB AND PUSH1 0x0 SWAP1 DUP2 MSTORE PUSH1 0xC PUSH1 0x20 MSTORE PUSH1 0x40 SWAP1 KECCAK256 SLOAD PUSH2 0x272A SWAP2 SWAP1 PUSH2 0x3396 JUMP JUMPDEST DUP3 SLOAD PUSH1 0x1 PUSH1 0x1 PUSH1 0xA0 SHL SUB AND PUSH1 0x0 SWAP1 DUP2 MSTORE PUSH1 0xC PUSH1 0x20 MSTORE PUSH1 0x40 SWAP1 KECCAK256 SSTORE PUSH2 0x27B7 JUMP JUMPDEST PUSH1 0x40 DUP1 MLOAD PUSH1 0x80 DUP2 ADD DUP3 MSTORE PUSH1 0x3 DUP1 DUP6 ADD SLOAD DUP3 MSTORE PUSH1 0x1 PUSH1 0x20 DUP1 DUP5 ADD DUP3 DUP2 MSTORE PUSH1 0x0 DUP6 DUP8 ADD DUP2 DUP2 MSTORE PUSH1 0x60 DUP8 ADD DUP3 DUP2 MSTORE DUP11 SLOAD PUSH1 0x1 PUSH1 0x1 PUSH1 0xA0 SHL SUB AND DUP4 MSTORE PUSH1 0xC SWAP1 SWAP5 MSTORE SWAP7 SWAP1 KECCAK256 SWAP5 MLOAD DUP6 SSTORE MLOAD SWAP2 DUP5 ADD DUP1 SLOAD SWAP3 ISZERO ISZERO PUSH1 0xFF NOT SWAP4 DUP5 AND OR SWAP1 SSTORE SWAP4 MLOAD PUSH1 0x2 DUP5 ADD SSTORE SWAP3 MLOAD SWAP2 ADD DUP1 SLOAD SWAP2 ISZERO ISZERO SWAP2 SWAP1 SWAP3 AND OR SWAP1 SSTORE JUMPDEST DUP2 PUSH1 0x3 ADD SLOAD PUSH1 0x9 SLOAD PUSH2 0x27C9 SWAP2 SWAP1 PUSH2 0x3396 JUMP JUMPDEST PUSH1 0x9 DUP2 SWAP1 SSTORE POP PUSH2 0x27E2 PUSH2 0xBEEF PUSH2 0xDEAD DUP5 PUSH1 0x4 ADD SLOAD PUSH2 0x2CA6 JUMP JUMPDEST PUSH2 0x280A JUMP JUMPDEST PUSH1 0x1 DUP3 ADD SLOAD PUSH1 0x4 DUP4 ADD SLOAD PUSH2 0x280A SWAP2 PUSH2 0xBEEF SWAP2 PUSH1 0x1 PUSH1 0x1 PUSH1 0xA0 SHL SUB SWAP1 SWAP2 AND SWAP1 PUSH2 0x2CA6 JUMP JUMPDEST DUP2 PUSH1 0xC ADD PUSH1 0x40 MLOAD PUSH2 0x281B SWAP2 SWAP1 PUSH2 0x3454 JUMP JUMPDEST PUSH1 0x40 MLOAD DUP1 SWAP2 SUB SWAP1 KECCAK256 DUP5 PUSH1 0x0 DUP1 MLOAD PUSH1 0x20 PUSH2 0x37A3 DUP4 CODECOPY DUP2 MLOAD SWAP2 MSTORE DUP5 PUSH1 0x5 ADD DUP6 PUSH1 0xB ADD DUP7 PUSH1 0x9 ADD SLOAD DUP8 PUSH1 0xA ADD SLOAD DUP9 PUSH1 0x8 ADD SLOAD PUSH1 0x40 MLOAD PUSH2 0x285B SWAP6 SWAP5 SWAP4 SWAP3 SWAP2 SWAP1 PUSH2 0x351C JUMP JUMPDEST PUSH1 0x40 MLOAD DUP1 SWAP2 SUB SWAP1 LOG3 PUSH1 0x2 DUP3 ADD SLOAD PUSH2 0x287A SWAP1 PUSH1 0x1 PUSH1 0x1 PUSH1 0xA0 SHL SUB AND PUSH2 0x2CBF JUMP JUMPDEST POP POP POP POP JUMP JUMPDEST PUSH1 0x0 DUP3 DUP2 MSTORE PUSH1 0xD PUSH1 0x20 SWAP1 DUP2 MSTORE PUSH1 0x40 DUP1 DUP4 KECCAK256 PUSH1 0xB DUP2 ADD DUP1 SLOAD PUSH2 0xFF00 NOT AND PUSH2 0x100 OR SWAP1 SSTORE PUSH1 0x7 SLOAD PUSH1 0x1 PUSH1 0x1 PUSH1 0xA0 SHL SUB AND DUP5 MSTORE PUSH1 0x0 DUP1 MLOAD PUSH1 0x20 PUSH2 0x37C3 DUP4 CODECOPY DUP2 MLOAD SWAP2 MSTORE SWAP1 SWAP3 MSTORE SWAP1 SWAP2 KECCAK256 SLOAD PUSH1 0x8 DUP3 ADD SLOAD PUSH1 0x5 DUP4 ADD DUP1 SLOAD DUP6 SWAP4 SWAP3 SWAP1 DUP2 LT PUSH2 0x28E3 JUMPI PUSH2 0x28E3 PUSH2 0x3380 JUMP JUMPDEST SWAP1 PUSH1 0x0 MSTORE PUSH1 0x20 PUSH1 0x0 KECCAK256 ADD SLOAD GT ISZERO PUSH2 0x28F8 JUMPI POP PUSH1 0x0 JUMPDEST DUP1 ISZERO PUSH2 0x29C4 JUMPI PUSH1 0xB DUP3 ADD DUP1 SLOAD PUSH3 0xFF0000 NOT AND PUSH3 0x10000 OR SWAP1 SSTORE DUP2 SLOAD PUSH1 0x8 DUP4 ADD SLOAD PUSH1 0x5 DUP5 ADD DUP1 SLOAD PUSH2 0x2951 SWAP4 PUSH2 0xDEAD SWAP4 PUSH1 0x1 PUSH1 0x1 PUSH1 0xA0 SHL SUB SWAP1 SWAP2 AND SWAP3 SWAP2 DUP2 LT PUSH2 0x2941 JUMPI PUSH2 0x2941 PUSH2 0x3380 JUMP JUMPDEST SWAP1 PUSH1 0x0 MSTORE PUSH1 0x20 PUSH1 0x0 KECCAK256 ADD SLOAD PUSH2 0x2CA6 JUMP JUMPDEST PUSH1 0x8 DUP3 ADD SLOAD PUSH2 0x2961 SWAP1 PUSH1 0x1 PUSH2 0x3396 JUMP JUMPDEST PUSH1 0x6 DUP4 ADD SLOAD GT ISZERO PUSH2 0x29C4 JUMPI PUSH1 0x1 DUP3 PUSH1 0x8 ADD PUSH1 0x0 DUP3 DUP3 SLOAD PUSH2 0x2981 SWAP2 SWAP1 PUSH2 0x3396 JUMP JUMPDEST SWAP3 POP POP DUP2 SWAP1 SSTORE POP DUP2 PUSH1 0x6 ADD DUP3 PUSH1 0x8 ADD SLOAD DUP2 SLOAD DUP2 LT PUSH2 0x29A1 JUMPI PUSH2 0x29A1 PUSH2 0x3380 JUMP JUMPDEST PUSH1 0x0 SWAP2 DUP3 MSTORE PUSH1 0x20 SWAP1 SWAP2 KECCAK256 ADD SLOAD PUSH1 0x7 DUP4 ADD SSTORE PUSH1 0xB DUP3 ADD DUP1 SLOAD PUSH6 0xFF000000FF00 NOT AND SWAP1 SSTORE JUMPDEST DUP2 PUSH1 0xC ADD PUSH1 0x40 MLOAD PUSH2 0x29D5 SWAP2 SWAP1 PUSH2 0x3454 JUMP JUMPDEST PUSH1 0x40 MLOAD DUP1 SWAP2 SUB SWAP1 KECCAK256 DUP5 PUSH1 0x0 DUP1 MLOAD PUSH1 0x20 PUSH2 0x37A3 DUP4 CODECOPY DUP2 MLOAD SWAP2 MSTORE DUP5 PUSH1 0x5 ADD DUP6 PUSH1 0xB ADD DUP7 PUSH1 0x9 ADD SLOAD DUP8 PUSH1 0xA ADD SLOAD DUP9 PUSH1 0x8 ADD SLOAD PUSH1 0x40 MLOAD PUSH2 0x2A15 SWAP6 SWAP5 SWAP4 SWAP3 SWAP2 SWAP1 PUSH2 0x351C JUMP JUMPDEST PUSH1 0x40 MLOAD DUP1 SWAP2 SUB SWAP1 LOG3 DUP2 PUSH1 0x8 ADD SLOAD PUSH1 0x0 SUB PUSH2 0x287A JUMPI PUSH1 0x2 DUP3 ADD SLOAD PUSH2 0x287A SWAP1 PUSH1 0x1 PUSH1 0x1 PUSH1 0xA0 SHL SUB AND PUSH2 0x2CBF JUMP JUMPDEST PUSH1 0x0 DUP3 DUP2 MSTORE PUSH1 0xD PUSH1 0x20 MSTORE PUSH1 0x40 SWAP1 KECCAK256 PUSH1 0xB DUP2 ADD SLOAD DUP3 SWAP1 PUSH5 0x100000000 SWAP1 DIV PUSH1 0xFF AND PUSH2 0x2AAC JUMPI PUSH1 0x40 MLOAD PUSH3 0x461BCD PUSH1 0xE5 SHL DUP2 MSTORE PUSH1 0x20 PUSH1 0x4 DUP3 ADD MSTORE PUSH1 0x1D PUSH1 0x24 DUP3 ADD MSTORE PUSH32 0x6D7573742062652061206775696C64206B69636B2070726F706F73616C000000 PUSH1 0x44 DUP3 ADD MSTORE PUSH1 0x64 ADD PUSH2 0x67C JUMP JUMPDEST PUSH1 0xB DUP3 ADD DUP1 SLOAD PUSH2 0xFF00 NOT AND PUSH2 0x100 OR SWAP1 SSTORE DUP1 ISZERO PUSH2 0x2B26 JUMPI PUSH1 0xB DUP3 ADD DUP1 SLOAD PUSH3 0xFF0000 NOT AND PUSH3 0x10000 OR SWAP1 SSTORE DUP2 SLOAD PUSH1 0x1 PUSH1 0x1 PUSH1 0xA0 SHL SUB AND PUSH1 0x0 SWAP1 DUP2 MSTORE PUSH1 0xC PUSH1 0x20 SWAP1 DUP2 MSTORE PUSH1 0x40 SWAP2 DUP3 SWAP1 KECCAK256 DUP3 MLOAD PUSH1 0x80 DUP2 ADD DUP5 MSTORE DUP2 SLOAD DUP2 MSTORE PUSH1 0x1 DUP3 DUP2 ADD SLOAD PUSH1 0xFF AND ISZERO ISZERO SWAP4 DUP3 ADD SWAP4 SWAP1 SWAP4 MSTORE PUSH1 0x2 SWAP2 SWAP1 SWAP2 ADD SLOAD SWAP3 DUP2 ADD SWAP3 SWAP1 SWAP3 MSTORE PUSH1 0x60 SWAP1 SWAP2 ADD MSTORE JUMPDEST DUP2 PUSH1 0xC ADD PUSH1 0x40 MLOAD PUSH2 0x2B37 SWAP2 SWAP1 PUSH2 0x3454 JUMP JUMPDEST PUSH1 0x40 MLOAD DUP1 SWAP2 SUB SWAP1 KECCAK256 DUP5 PUSH1 0x0 DUP1 MLOAD PUSH1 0x20 PUSH2 0x37A3 DUP4 CODECOPY DUP2 MLOAD SWAP2 MSTORE DUP5 PUSH1 0x5 ADD DUP6 PUSH1 0xB ADD DUP7 PUSH1 0x9 ADD SLOAD DUP8 PUSH1 0xA ADD SLOAD DUP9 PUSH1 0x8 ADD SLOAD PUSH1 0x40 MLOAD PUSH2 0x2B77 SWAP6 SWAP5 SWAP4 SWAP3 SWAP2 SWAP1 PUSH2 0x351C JUMP JUMPDEST PUSH1 0x40 MLOAD DUP1 SWAP2 SUB SWAP1 LOG3 DUP2 SLOAD PUSH1 0x1 PUSH1 0x1 PUSH1 0xA0 SHL SUB SWAP1 DUP2 AND PUSH1 0x0 SWAP1 DUP2 MSTORE PUSH1 0xB PUSH1 0x20 MSTORE PUSH1 0x40 SWAP1 KECCAK256 DUP1 SLOAD PUSH1 0xFF NOT AND SWAP1 SSTORE PUSH1 0x2 DUP4 ADD SLOAD PUSH2 0x287A SWAP2 AND PUSH2 0x2CBF JUMP JUMPDEST PUSH1 0x0 DUP2 PUSH1 0x0 SUB PUSH2 0x2BC0 JUMPI PUSH1 0x0 DUP1 REVERT JUMPDEST DUP4 PUSH1 0x0 SUB PUSH2 0x2BD0 JUMPI POP PUSH1 0x0 PUSH2 0x1061 JUMP JUMPDEST PUSH1 0x0 PUSH2 0x2BDC DUP5 DUP7 PUSH2 0x378B JUMP JUMPDEST SWAP1 POP DUP4 PUSH2 0x2BE9 DUP7 DUP4 PUSH2 0x3327 JUMP JUMPDEST SUB PUSH2 0x2C00 JUMPI PUSH2 0x2BF8 DUP4 DUP3 PUSH2 0x3327 JUMP JUMPDEST SWAP2 POP POP PUSH2 0x1061 JUMP JUMPDEST DUP4 PUSH2 0x2C0B DUP5 DUP8 PUSH2 0x3327 JUMP JUMPDEST PUSH2 0x2C15 SWAP2 SWAP1 PUSH2 0x378B JUMP JUMPDEST SWAP6 SWAP5 POP POP POP POP POP JUMP JUMPDEST PUSH1 0x1 PUSH1 0x1 PUSH1 0xA0 SHL SUB DUP1 DUP4 AND PUSH1 0x0 SWAP1 DUP2 MSTORE PUSH1 0xA PUSH1 0x20 SWAP1 DUP2 MSTORE PUSH1 0x40 DUP1 DUP4 KECCAK256 PUSH1 0x7 SLOAD SWAP1 SWAP5 AND DUP4 MSTORE SWAP3 SWAP1 MSTORE SWAP1 DUP2 KECCAK256 DUP1 SLOAD DUP4 SWAP3 SWAP1 PUSH2 0x2C58 SWAP1 DUP5 SWAP1 PUSH2 0x3314 JUMP JUMPDEST SWAP1 SWAP2 SSTORE POP POP PUSH1 0x7 SLOAD PUSH1 0x1 PUSH1 0x1 PUSH1 0xA0 SHL SUB AND PUSH1 0x0 SWAP1 DUP2 MSTORE PUSH32 0xED762DDB65DFEAB933EDA5256EB347E1BF2B4E76044BDC8BAF0A70D22DC0C374 PUSH1 0x20 MSTORE PUSH1 0x40 DUP2 KECCAK256 DUP1 SLOAD DUP4 SWAP3 SWAP1 PUSH2 0x2286 SWAP1 DUP5 SWAP1 PUSH2 0x3314 JUMP JUMPDEST PUSH2 0x2CB0 DUP4 DUP3 PUSH2 0x2C1E JUMP JUMPDEST PUSH2 0x2CBA DUP3 DUP3 PUSH2 0x21FE JUMP JUMPDEST POP POP POP JUMP JUMPDEST PUSH2 0x2561 PUSH2 0xBEEF DUP3 PUSH1 0x4 SLOAD PUSH2 0x2CA6 JUMP JUMPDEST PUSH1 0x40 MLOAD DUP1 PUSH1 0xC0 ADD PUSH1 0x40 MSTORE DUP1 PUSH1 0x6 SWAP1 PUSH1 0x20 DUP3 MUL DUP1 CALLDATASIZE DUP4 CALLDATACOPY POP SWAP2 SWAP3 SWAP2 POP POP JUMP JUMPDEST DUP3 DUP1 SLOAD DUP3 DUP3 SSTORE SWAP1 PUSH1 0x0 MSTORE PUSH1 0x20 PUSH1 0x0 KECCAK256 SWAP1 DUP2 ADD SWAP3 DUP3 ISZERO PUSH2 0x2D27 JUMPI SWAP2 PUSH1 0x20 MUL DUP3 ADD JUMPDEST DUP3 DUP2 GT ISZERO PUSH2 0x2D27 JUMPI DUP3 MLOAD DUP3 SSTORE SWAP2 PUSH1 0x20 ADD SWAP2 SWAP1 PUSH1 0x1 ADD SWAP1 PUSH2 0x2D0C JUMP JUMPDEST POP PUSH2 0x2D33 SWAP3 SWAP2 POP PUSH2 0x2DC0 JUMP JUMPDEST POP SWAP1 JUMP JUMPDEST PUSH1 0x1 DUP4 ADD SWAP2 DUP4 SWAP1 DUP3 ISZERO PUSH2 0x2D27 JUMPI SWAP2 PUSH1 0x20 MUL DUP3 ADD PUSH1 0x0 JUMPDEST DUP4 DUP3 GT ISZERO PUSH2 0x2D8A JUMPI DUP4 MLOAD DUP4 DUP3 PUSH2 0x100 EXP DUP2 SLOAD DUP2 PUSH1 0xFF MUL NOT AND SWAP1 DUP4 ISZERO ISZERO MUL OR SWAP1 SSTORE POP SWAP3 PUSH1 0x20 ADD SWAP3 PUSH1 0x1 ADD PUSH1 0x20 DUP2 PUSH1 0x0 ADD DIV SWAP3 DUP4 ADD SWAP3 PUSH1 0x1 SUB MUL PUSH2 0x2D4D JUMP JUMPDEST DUP1 ISZERO PUSH2 0x2DB7 JUMPI DUP3 DUP2 PUSH2 0x100 EXP DUP2 SLOAD SWAP1 PUSH1 0xFF MUL NOT AND SWAP1 SSTORE PUSH1 0x1 ADD PUSH1 0x20 DUP2 PUSH1 0x0 ADD DIV SWAP3 DUP4 ADD SWAP3 PUSH1 0x1 SUB MUL PUSH2 0x2D8A JUMP JUMPDEST POP POP PUSH2 0x2D33 SWAP3 SWAP2 POP JUMPDEST JUMPDEST DUP1 DUP3 GT ISZERO PUSH2 0x2D33 JUMPI PUSH1 0x0 DUP2 SSTORE PUSH1 0x1 ADD PUSH2 0x2DC1 JUMP JUMPDEST PUSH1 0x0 PUSH1 0x20 DUP3 DUP5 SUB SLT ISZERO PUSH2 0x2DE7 JUMPI PUSH1 0x0 DUP1 REVERT JUMPDEST POP CALLDATALOAD SWAP2 SWAP1 POP JUMP JUMPDEST PUSH1 0x0 JUMPDEST DUP4 DUP2 LT ISZERO PUSH2 0x2E09 JUMPI DUP2 DUP2 ADD MLOAD DUP4 DUP3 ADD MSTORE PUSH1 0x20 ADD PUSH2 0x2DF1 JUMP JUMPDEST POP POP PUSH1 0x0 SWAP2 ADD MSTORE JUMP JUMPDEST PUSH1 0x0 PUSH2 0x160 PUSH1 0x1 DUP1 PUSH1 0xA0 SHL SUB DUP1 DUP16 AND DUP5 MSTORE DUP1 DUP15 AND PUSH1 0x20 DUP6 ADD MSTORE DUP1 DUP14 AND PUSH1 0x40 DUP6 ADD MSTORE POP DUP11 PUSH1 0x60 DUP5 ADD MSTORE DUP10 PUSH1 0x80 DUP5 ADD MSTORE DUP9 PUSH1 0xA0 DUP5 ADD MSTORE DUP8 PUSH1 0xC0 DUP5 ADD MSTORE DUP7 PUSH1 0xE0 DUP5 ADD MSTORE DUP6 PUSH2 0x100 DUP5 ADD MSTORE DUP1 PUSH2 0x120 DUP5 ADD MSTORE DUP5 MLOAD DUP1 DUP3 DUP6 ADD MSTORE PUSH2 0x180 SWAP2 POP PUSH2 0x2E7C DUP2 DUP4 DUP7 ADD PUSH1 0x20 DUP10 ADD PUSH2 0x2DEE JUMP JUMPDEST DUP2 PUSH1 0x1F NOT PUSH1 0x1F DUP4 ADD AND DUP6 ADD ADD SWAP3 POP POP POP DUP3 PUSH2 0x140 DUP4 ADD MSTORE SWAP13 SWAP12 POP POP POP POP POP POP POP POP POP POP POP POP JUMP JUMPDEST DUP1 CALLDATALOAD PUSH1 0x1 PUSH1 0x1 PUSH1 0xA0 SHL SUB DUP2 AND DUP2 EQ PUSH2 0x2EBA JUMPI PUSH1 0x0 DUP1 REVERT JUMPDEST SWAP2 SWAP1 POP JUMP JUMPDEST PUSH1 0x0 PUSH1 0x20 DUP3 DUP5 SUB SLT ISZERO PUSH2 0x2ED1 JUMPI PUSH1 0x0 DUP1 REVERT JUMPDEST PUSH2 0x1061 DUP3 PUSH2 0x2EA3 JUMP JUMPDEST PUSH4 0x4E487B71 PUSH1 0xE0 SHL PUSH1 0x0 MSTORE PUSH1 0x41 PUSH1 0x4 MSTORE PUSH1 0x24 PUSH1 0x0 REVERT JUMPDEST PUSH1 0x40 MLOAD PUSH1 0x1F DUP3 ADD PUSH1 0x1F NOT AND DUP2 ADD PUSH8 0xFFFFFFFFFFFFFFFF DUP2 GT DUP3 DUP3 LT OR ISZERO PUSH2 0x2F19 JUMPI PUSH2 0x2F19 PUSH2 0x2EDA JUMP JUMPDEST PUSH1 0x40 MSTORE SWAP2 SWAP1 POP JUMP JUMPDEST PUSH1 0x0 DUP3 PUSH1 0x1F DUP4 ADD SLT PUSH2 0x2F32 JUMPI PUSH1 0x0 DUP1 REVERT JUMPDEST DUP2 CALLDATALOAD PUSH8 0xFFFFFFFFFFFFFFFF DUP2 GT ISZERO PUSH2 0x2F4C JUMPI PUSH2 0x2F4C PUSH2 0x2EDA JUMP JUMPDEST PUSH2 0x2F5F PUSH1 0x1F DUP3 ADD PUSH1 0x1F NOT AND PUSH1 0x20 ADD PUSH2 0x2EF0 JUMP JUMPDEST DUP2 DUP2 MSTORE DUP5 PUSH1 0x20 DUP4 DUP7 ADD ADD GT ISZERO PUSH2 0x2F74 JUMPI PUSH1 0x0 DUP1 REVERT JUMPDEST DUP2 PUSH1 0x20 DUP6 ADD PUSH1 0x20 DUP4 ADD CALLDATACOPY PUSH1 0x0 SWAP2 DUP2 ADD PUSH1 0x20 ADD SWAP2 SWAP1 SWAP2 MSTORE SWAP4 SWAP3 POP POP POP JUMP JUMPDEST PUSH1 0x0 DUP1 PUSH1 0x40 DUP4 DUP6 SUB SLT ISZERO PUSH2 0x2FA4 JUMPI PUSH1 0x0 DUP1 REVERT JUMPDEST PUSH2 0x2FAD DUP4 PUSH2 0x2EA3 JUMP JUMPDEST SWAP2 POP PUSH1 0x20 DUP4 ADD CALLDATALOAD PUSH8 0xFFFFFFFFFFFFFFFF DUP2 GT ISZERO PUSH2 0x2FC9 JUMPI PUSH1 0x0 DUP1 REVERT JUMPDEST PUSH2 0x2FD5 DUP6 DUP3 DUP7 ADD PUSH2 0x2F21 JUMP JUMPDEST SWAP2 POP POP SWAP3 POP SWAP3 SWAP1 POP JUMP JUMPDEST PUSH1 0x0 DUP1 PUSH1 0x40 DUP4 DUP6 SUB SLT ISZERO PUSH2 0x2FF2 JUMPI PUSH1 0x0 DUP1 REVERT JUMPDEST POP POP DUP1 CALLDATALOAD SWAP3 PUSH1 0x20 SWAP1 SWAP2 ADD CALLDATALOAD SWAP2 POP JUMP JUMPDEST PUSH1 0x0 DUP1 PUSH1 0x40 DUP4 DUP6 SUB SLT ISZERO PUSH2 0x3014 JUMPI PUSH1 0x0 DUP1 REVERT JUMPDEST PUSH2 0x301D DUP4 PUSH2 0x2EA3 JUMP JUMPDEST SWAP2 POP PUSH2 0x302B PUSH1 0x20 DUP5 ADD PUSH2 0x2EA3 JUMP JUMPDEST SWAP1 POP SWAP3 POP SWAP3 SWAP1 POP JUMP JUMPDEST PUSH1 0x0 DUP1 PUSH1 0x0 DUP1 PUSH1 0x80 DUP6 DUP8 SUB SLT ISZERO PUSH2 0x304A JUMPI PUSH1 0x0 DUP1 REVERT JUMPDEST PUSH2 0x3053 DUP6 PUSH2 0x2EA3 JUMP JUMPDEST SWAP4 POP PUSH1 0x20 DUP6 ADD CALLDATALOAD SWAP3 POP PUSH1 0x40 DUP6 ADD CALLDATALOAD SWAP2 POP PUSH1 0x60 DUP6 ADD CALLDATALOAD PUSH8 0xFFFFFFFFFFFFFFFF DUP2 GT ISZERO PUSH2 0x307D JUMPI PUSH1 0x0 DUP1 REVERT JUMPDEST PUSH2 0x3089 DUP8 DUP3 DUP9 ADD PUSH2 0x2F21 JUMP JUMPDEST SWAP2 POP POP SWAP3 SWAP6 SWAP2 SWAP5 POP SWAP3 POP JUMP JUMPDEST PUSH1 0x0 DUP2 MLOAD DUP1 DUP5 MSTORE PUSH1 0x20 DUP1 DUP6 ADD SWAP5 POP DUP1 DUP5 ADD PUSH1 0x0 JUMPDEST DUP4 DUP2 LT ISZERO PUSH2 0x30C5 JUMPI DUP2 MLOAD DUP8 MSTORE SWAP6 DUP3 ADD SWAP6 SWAP1 DUP3 ADD SWAP1 PUSH1 0x1 ADD PUSH2 0x30A9 JUMP JUMPDEST POP SWAP5 SWAP6 SWAP5 POP POP POP POP POP JUMP JUMPDEST PUSH1 0x20 DUP2 MSTORE PUSH1 0x0 PUSH2 0x1061 PUSH1 0x20 DUP4 ADD DUP5 PUSH2 0x3095 JUMP JUMPDEST PUSH1 0x0 DUP3 PUSH1 0x1F DUP4 ADD SLT PUSH2 0x30F4 JUMPI PUSH1 0x0 DUP1 REVERT JUMPDEST DUP2 CALLDATALOAD PUSH1 0x20 PUSH8 0xFFFFFFFFFFFFFFFF DUP3 GT ISZERO PUSH2 0x3110 JUMPI PUSH2 0x3110 PUSH2 0x2EDA JUMP JUMPDEST DUP2 PUSH1 0x5 SHL PUSH2 0x311F DUP3 DUP3 ADD PUSH2 0x2EF0 JUMP JUMPDEST SWAP3 DUP4 MSTORE DUP5 DUP2 ADD DUP3 ADD SWAP3 DUP3 DUP2 ADD SWAP1 DUP8 DUP6 GT ISZERO PUSH2 0x3139 JUMPI PUSH1 0x0 DUP1 REVERT JUMPDEST DUP4 DUP8 ADD SWAP3 POP JUMPDEST DUP5 DUP4 LT ISZERO PUSH2 0x3158 JUMPI DUP3 CALLDATALOAD DUP3 MSTORE SWAP2 DUP4 ADD SWAP2 SWAP1 DUP4 ADD SWAP1 PUSH2 0x313F JUMP JUMPDEST SWAP8 SWAP7 POP POP POP POP POP POP POP JUMP JUMPDEST PUSH1 0x0 DUP1 PUSH1 0x0 DUP1 PUSH1 0x80 DUP6 DUP8 SUB SLT ISZERO PUSH2 0x3179 JUMPI PUSH1 0x0 DUP1 REVERT JUMPDEST PUSH2 0x3182 DUP6 PUSH2 0x2EA3 JUMP JUMPDEST SWAP4 POP PUSH1 0x20 DUP6 ADD CALLDATALOAD PUSH8 0xFFFFFFFFFFFFFFFF DUP1 DUP3 GT ISZERO PUSH2 0x319F JUMPI PUSH1 0x0 DUP1 REVERT JUMPDEST PUSH2 0x31AB DUP9 DUP4 DUP10 ADD PUSH2 0x30E3 JUMP JUMPDEST SWAP5 POP PUSH1 0x40 DUP8 ADD CALLDATALOAD SWAP2 POP DUP1 DUP3 GT ISZERO PUSH2 0x31C1 JUMPI PUSH1 0x0 DUP1 REVERT JUMPDEST PUSH2 0x31CD DUP9 DUP4 DUP10 ADD PUSH2 0x30E3 JUMP JUMPDEST SWAP4 POP PUSH1 0x60 DUP8 ADD CALLDATALOAD SWAP2 POP DUP1 DUP3 GT ISZERO PUSH2 0x31E3 JUMPI PUSH1 0x0 DUP1 REVERT JUMPDEST POP PUSH2 0x3089 DUP8 DUP3 DUP9 ADD PUSH2 0x2F21 JUMP JUMPDEST PUSH1 0x0 DUP1 PUSH1 0x0 PUSH1 0x60 DUP5 DUP7 SUB SLT ISZERO PUSH2 0x3205 JUMPI PUSH1 0x0 DUP1 REVERT JUMPDEST PUSH2 0x320E DUP5 PUSH2 0x2EA3 JUMP JUMPDEST SWAP6 PUSH1 0x20 DUP6 ADD CALLDATALOAD SWAP6 POP PUSH1 0x40 SWAP1 SWAP5 ADD CALLDATALOAD SWAP4 SWAP3 POP POP POP JUMP JUMPDEST PUSH4 0x4E487B71 PUSH1 0xE0 SHL PUSH1 0x0 MSTORE PUSH1 0x21 PUSH1 0x4 MSTORE PUSH1 0x24 PUSH1 0x0 REVERT JUMPDEST PUSH1 0x20 DUP2 ADD PUSH1 0x3 DUP4 LT PUSH2 0x325B JUMPI PUSH4 0x4E487B71 PUSH1 0xE0 SHL PUSH1 0x0 MSTORE PUSH1 0x21 PUSH1 0x4 MSTORE PUSH1 0x24 PUSH1 0x0 REVERT JUMPDEST SWAP2 SWAP1 MSTORE SWAP1 JUMP JUMPDEST PUSH1 0x0 DUP1 PUSH1 0x40 DUP4 DUP6 SUB SLT ISZERO PUSH2 0x3274 JUMPI PUSH1 0x0 DUP1 REVERT JUMPDEST DUP3 CALLDATALOAD SWAP2 POP PUSH1 0x20 DUP4 ADD CALLDATALOAD PUSH1 0xFF DUP2 AND DUP2 EQ PUSH2 0x328C JUMPI PUSH1 0x0 DUP1 REVERT JUMPDEST DUP1 SWAP2 POP POP SWAP3 POP SWAP3 SWAP1 POP JUMP JUMPDEST PUSH1 0xC0 DUP2 ADD DUP2 DUP4 PUSH1 0x0 JUMPDEST PUSH1 0x6 DUP2 LT ISZERO PUSH2 0x32C1 JUMPI DUP2 MLOAD ISZERO ISZERO DUP4 MSTORE PUSH1 0x20 SWAP3 DUP4 ADD SWAP3 SWAP1 SWAP2 ADD SWAP1 PUSH1 0x1 ADD PUSH2 0x32A0 JUMP JUMPDEST POP POP POP SWAP3 SWAP2 POP POP JUMP JUMPDEST PUSH1 0x1 DUP2 DUP2 SHR SWAP1 DUP3 AND DUP1 PUSH2 0x32DE JUMPI PUSH1 0x7F DUP3 AND SWAP2 POP JUMPDEST PUSH1 0x20 DUP3 LT DUP2 SUB PUSH2 0x2432 JUMPI PUSH4 0x4E487B71 PUSH1 0xE0 SHL PUSH1 0x0 MSTORE PUSH1 0x22 PUSH1 0x4 MSTORE PUSH1 0x24 PUSH1 0x0 REVERT JUMPDEST PUSH4 0x4E487B71 PUSH1 0xE0 SHL PUSH1 0x0 MSTORE PUSH1 0x11 PUSH1 0x4 MSTORE PUSH1 0x24 PUSH1 0x0 REVERT JUMPDEST DUP2 DUP2 SUB DUP2 DUP2 GT ISZERO PUSH2 0xC68 JUMPI PUSH2 0xC68 PUSH2 0x32FE JUMP JUMPDEST PUSH1 0x0 DUP3 PUSH2 0x3344 JUMPI PUSH4 0x4E487B71 PUSH1 0xE0 SHL PUSH1 0x0 MSTORE PUSH1 0x12 PUSH1 0x4 MSTORE PUSH1 0x24 PUSH1 0x0 REVERT JUMPDEST POP DIV SWAP1 JUMP JUMPDEST PUSH1 0x20 DUP1 DUP3 MSTORE PUSH1 0x1F SWAP1 DUP3 ADD MSTORE PUSH32 0x5265656E7472616E637947756172643A207265656E7472616E742063616C6C00 PUSH1 0x40 DUP3 ADD MSTORE PUSH1 0x60 ADD SWAP1 JUMP JUMPDEST PUSH4 0x4E487B71 PUSH1 0xE0 SHL PUSH1 0x0 MSTORE PUSH1 0x32 PUSH1 0x4 MSTORE PUSH1 0x24 PUSH1 0x0 REVERT JUMPDEST DUP1 DUP3 ADD DUP1 DUP3 GT ISZERO PUSH2 0xC68 JUMPI PUSH2 0xC68 PUSH2 0x32FE JUMP JUMPDEST PUSH1 0x20 DUP1 DUP3 MSTORE PUSH1 0x24 SWAP1 DUP3 ADD MSTORE PUSH32 0x6170706C6963616E7420616464726573732063616E6E6F742062652072657365 PUSH1 0x40 DUP3 ADD MSTORE PUSH4 0x1C9D9959 PUSH1 0xE2 SHL PUSH1 0x60 DUP3 ADD MSTORE PUSH1 0x80 ADD SWAP1 JUMP JUMPDEST PUSH1 0x20 DUP1 DUP3 MSTORE PUSH1 0x25 SWAP1 DUP3 ADD MSTORE PUSH32 0x70726F706F73616C206170706C6963616E74206D757374206E6F74206265206A PUSH1 0x40 DUP3 ADD MSTORE PUSH5 0x185A5B1959 PUSH1 0xDA SHL PUSH1 0x60 DUP3 ADD MSTORE PUSH1 0x80 ADD SWAP1 JUMP JUMPDEST PUSH1 0x0 PUSH1 0x20 DUP3 DUP5 SUB SLT ISZERO PUSH2 0x3444 JUMPI PUSH1 0x0 DUP1 REVERT JUMPDEST DUP2 MLOAD DUP1 ISZERO ISZERO DUP2 EQ PUSH2 0x1061 JUMPI PUSH1 0x0 DUP1 REVERT JUMPDEST PUSH1 0x0 DUP1 DUP4 SLOAD PUSH2 0x3462 DUP2 PUSH2 0x32CA JUMP JUMPDEST PUSH1 0x1 DUP3 DUP2 AND DUP1 ISZERO PUSH2 0x347A JUMPI PUSH1 0x1 DUP2 EQ PUSH2 0x348F JUMPI PUSH2 0x34BE JUMP JUMPDEST PUSH1 0xFF NOT DUP5 AND DUP8 MSTORE DUP3 ISZERO ISZERO DUP4 MUL DUP8 ADD SWAP5 POP PUSH2 0x34BE JUMP JUMPDEST DUP8 PUSH1 0x0 MSTORE PUSH1 0x20 DUP1 PUSH1 0x0 KECCAK256 PUSH1 0x0 JUMPDEST DUP6 DUP2 LT ISZERO PUSH2 0x34B5 JUMPI DUP2 SLOAD DUP11 DUP3 ADD MSTORE SWAP1 DUP5 ADD SWAP1 DUP3 ADD PUSH2 0x349C JUMP JUMPDEST POP POP POP DUP3 DUP8 ADD SWAP5 POP JUMPDEST POP SWAP3 SWAP7 SWAP6 POP POP POP POP POP POP JUMP JUMPDEST DUP1 SLOAD PUSH1 0xFF DUP1 DUP3 AND ISZERO ISZERO DUP5 MSTORE DUP1 DUP3 PUSH1 0x8 SHR AND ISZERO ISZERO PUSH1 0x20 DUP6 ADD MSTORE DUP1 DUP3 PUSH1 0x10 SHR AND ISZERO ISZERO PUSH1 0x40 DUP6 ADD MSTORE DUP1 DUP3 PUSH1 0x18 SHR AND ISZERO ISZERO PUSH1 0x60 DUP6 ADD MSTORE DUP1 DUP3 PUSH1 0x20 SHR AND ISZERO ISZERO PUSH1 0x80 DUP6 ADD MSTORE DUP1 DUP3 PUSH1 0x28 SHR AND ISZERO ISZERO PUSH1 0xA0 DUP6 ADD MSTORE POP POP POP POP JUMP JUMPDEST PUSH2 0x140 DUP1 DUP3 MSTORE DUP7 SLOAD SWAP1 DUP3 ADD DUP2 SWAP1 MSTORE PUSH1 0x0 DUP8 DUP2 MSTORE PUSH1 0x20 DUP1 DUP3 KECCAK256 SWAP2 SWAP3 PUSH2 0x160 DUP6 ADD SWAP3 DUP5 JUMPDEST DUP3 DUP2 LT ISZERO PUSH2 0x355A JUMPI DUP2 SLOAD DUP6 MSTORE SWAP4 DUP4 ADD SWAP4 PUSH1 0x1 SWAP2 DUP3 ADD SWAP2 ADD PUSH2 0x353E JUMP JUMPDEST POP POP POP DUP2 SWAP3 POP PUSH2 0x356C DUP2 DUP6 ADD DUP10 PUSH2 0x34CA JUMP JUMPDEST POP POP DUP5 PUSH1 0xE0 DUP4 ADD MSTORE DUP4 PUSH2 0x100 DUP4 ADD MSTORE DUP3 PUSH2 0x120 DUP4 ADD MSTORE SWAP7 SWAP6 POP POP POP POP POP POP JUMP JUMPDEST PUSH1 0x20 DUP1 DUP3 MSTORE PUSH1 0x23 SWAP1 DUP3 ADD MSTORE PUSH32 0x70726F706F73616C2068617320616C7265616479206265656E2073706F6E736F PUSH1 0x40 DUP3 ADD MSTORE PUSH3 0x1C9959 PUSH1 0xEA SHL PUSH1 0x60 DUP3 ADD MSTORE PUSH1 0x80 ADD SWAP1 JUMP JUMPDEST PUSH1 0x0 PUSH1 0x1 DUP3 ADD PUSH2 0x35E1 JUMPI PUSH2 0x35E1 PUSH2 0x32FE JUMP JUMPDEST POP PUSH1 0x1 ADD SWAP1 JUMP JUMPDEST PUSH1 0x20 DUP1 DUP3 MSTORE PUSH1 0x17 SWAP1 DUP3 ADD MSTORE PUSH32 0x70726F706F73616C20646F6573206E6F74206578697374000000000000000000 PUSH1 0x40 DUP3 ADD MSTORE PUSH1 0x60 ADD SWAP1 JUMP JUMPDEST PUSH1 0x1F DUP3 GT ISZERO PUSH2 0x2CBA JUMPI PUSH1 0x0 DUP2 DUP2 MSTORE PUSH1 0x20 DUP2 KECCAK256 PUSH1 0x1F DUP6 ADD PUSH1 0x5 SHR DUP2 ADD PUSH1 0x20 DUP7 LT ISZERO PUSH2 0x3646 JUMPI POP DUP1 JUMPDEST PUSH1 0x1F DUP6 ADD PUSH1 0x5 SHR DUP3 ADD SWAP2 POP JUMPDEST DUP2 DUP2 LT ISZERO PUSH2 0x3665 JUMPI DUP3 DUP2 SSTORE PUSH1 0x1 ADD PUSH2 0x3652 JUMP JUMPDEST POP POP POP POP POP POP JUMP JUMPDEST DUP2 MLOAD PUSH8 0xFFFFFFFFFFFFFFFF DUP2 GT ISZERO PUSH2 0x3687 JUMPI PUSH2 0x3687 PUSH2 0x2EDA JUMP JUMPDEST PUSH2 0x369B DUP2 PUSH2 0x3695 DUP5 SLOAD PUSH2 0x32CA JUMP JUMPDEST DUP5 PUSH2 0x361F JUMP JUMPDEST PUSH1 0x20 DUP1 PUSH1 0x1F DUP4 GT PUSH1 0x1 DUP2 EQ PUSH2 0x36D0 JUMPI PUSH1 0x0 DUP5 ISZERO PUSH2 0x36B8 JUMPI POP DUP6 DUP4 ADD MLOAD JUMPDEST PUSH1 0x0 NOT PUSH1 0x3 DUP7 SWAP1 SHL SHR NOT AND PUSH1 0x1 DUP6 SWAP1 SHL OR DUP6 SSTORE PUSH2 0x3665 JUMP JUMPDEST PUSH1 0x0 DUP6 DUP2 MSTORE PUSH1 0x20 DUP2 KECCAK256 PUSH1 0x1F NOT DUP7 AND SWAP2 JUMPDEST DUP3 DUP2 LT ISZERO PUSH2 0x36FF JUMPI DUP9 DUP7 ADD MLOAD DUP3 SSTORE SWAP5 DUP5 ADD SWAP5 PUSH1 0x1 SWAP1 SWAP2 ADD SWAP1 DUP5 ADD PUSH2 0x36E0 JUMP JUMPDEST POP DUP6 DUP3 LT ISZERO PUSH2 0x371D JUMPI DUP8 DUP6 ADD MLOAD PUSH1 0x0 NOT PUSH1 0x3 DUP9 SWAP1 SHL PUSH1 0xF8 AND SHR NOT AND DUP2 SSTORE JUMPDEST POP POP POP POP POP PUSH1 0x1 SWAP1 DUP2 SHL ADD SWAP1 SSTORE POP JUMP JUMPDEST PUSH1 0x0 DUP3 MLOAD PUSH2 0x373F DUP2 DUP5 PUSH1 0x20 DUP8 ADD PUSH2 0x2DEE JUMP JUMPDEST SWAP2 SWAP1 SWAP2 ADD SWAP3 SWAP2 POP POP JUMP JUMPDEST PUSH1 0x0 PUSH2 0x140 DUP1 DUP4 MSTORE PUSH2 0x375D DUP2 DUP5 ADD DUP10 PUSH2 0x3095 JUMP JUMPDEST SWAP2 POP POP PUSH2 0x376D PUSH1 0x20 DUP4 ADD DUP8 PUSH2 0x34CA JUMP JUMPDEST DUP5 PUSH1 0xE0 DUP4 ADD MSTORE DUP4 PUSH2 0x100 DUP4 ADD MSTORE DUP3 PUSH2 0x120 DUP4 ADD MSTORE SWAP7 SWAP6 POP POP POP POP POP POP JUMP JUMPDEST DUP1 DUP3 MUL DUP2 ISZERO DUP3 DUP3 DIV DUP5 EQ OR PUSH2 0xC68 JUMPI PUSH2 0xC68 PUSH2 0x32FE JUMP INVALID SHL 0x49 0x23 0xC2 ADD SMOD JUMPDEST 0x25 GASLIMIT 0xA5 DIV 0xE9 0xB6 0xD8 DUP6 0x2D PUSH10 0x8C3DE0C3E8038118C3DA SGT 0xDD SWAP13 0xBA 0x4E KECCAK256 PUSH8 0x7881080440A9B3C8 PUSH31 0x826370BB5D9C2F74EFD4DEDE686D52D77A6A09F8BBA2646970667358221220 SWAP1 DUP1 CALLER SWAP1 PUSH30 0xD848D1B8818025081041078B21B238937B3769A474AE0496642FC864736F PUSH13 0x63430008110033000000000000 "},"methodIdentifiers":{"ESCROW()":"e681c4aa","GUILD()":"f5d54c77","TOTAL()":"27efc086","a_test_prepare_for_vote()":"c49b1685","cancelProposal(uint256)":"e0a8f6f5","depositToken()":"c89039c5","dilutionBound()":"afe5475f","getCurrentPeriod()":"086146d2","getMemberProposalVoteByMilestone(address,uint256,uint256)":"8b6cb9e5","getPaymentRequested(uint256)":"62312524","getProposalFlags(uint256)":"b2643aab","getStartPeriod(uint256)":"571ed9c5","getUserTokenBalance(address,address)":"73f8fd4b","gracePeriodLength()":"63858f2d","hasVotingPeriodExpired(uint256)":"9425a476","members(address)":"08ae4b0c","periodDuration()":"b470aade","preProcessProposal(uint256)":"87dfc825","processProposal(uint256)":"e63bc62d","proposalCount()":"da35c664","proposalDeposit()":"8b15a605","proposals(uint256)":"013cf08b","proposedToKick(address)":"3fc24bba","ragekick(address)":"dfdd369e","ragequit(uint256,uint256)":"15eb349e","sponsorProposal(uint256)":"9746d940","submitGuildKickProposal(address,string)":"115b2d18","submitJoinProposal(address,uint256,uint256,string)":"4c105631","submitProjectProposal(address,uint256[],uint256[],string)":"878fc813","submitVote(uint256,uint8)":"99653fbe","summoningTime()":"7d5b6c72","totalShares()":"3a98ef39","userTokenBalances(address,address)":"45f2d105","votingPeriodLength()":"8340bbce","withdrawBalance(uint256)":"da76d5cd"}}}}}