{"contracts/Boii.sol":{"Boii":{"abi":[{"inputs":[{"internalType":"address","name":"_summoner","type":"address"},{"internalType":"address","name":"_depositToken","type":"address"},{"internalType":"uint256","name":"_periodDuration","type":"uint256"},{"internalType":"uint256","name":"_votingPeriodLength","type":"uint256"},{"internalType":"uint256","name":"_gracePeriodLength","type":"uint256"},{"internalType":"uint256","name":"_proposalDeposit","type":"uint256"},{"internalType":"uint256","name":"_dilutionBound","type":"uint256"}],"stateMutability":"nonpayable","type":"constructor"},{"inputs":[],"name":"ESCROW","outputs":[{"internalType":"address","name":"","type":"address"}],"stateMutability":"view","type":"function"},{"inputs":[],"name":"GUILD","outputs":[{"internalType":"address","name":"","type":"address"}],"stateMutability":"view","type":"function"},{"inputs":[],"name":"TOTAL","outputs":[{"internalType":"address","name":"","type":"address"}],"stateMutability":"view","type":"function"},{"inputs":[],"name":"a_testme","outputs":[],"stateMutability":"nonpayable","type":"function"},{"inputs":[{"internalType":"uint256","name":"proposalId","type":"uint256"}],"name":"cancelProposal","outputs":[],"stateMutability":"nonpayable","type":"function"},{"inputs":[],"name":"depositToken","outputs":[{"internalType":"address","name":"","type":"address"}],"stateMutability":"view","type":"function"},{"inputs":[],"name":"dilutionBound","outputs":[{"internalType":"uint256","name":"","type":"uint256"}],"stateMutability":"view","type":"function"},{"inputs":[],"name":"getCurrentPeriod","outputs":[{"internalType":"uint256","name":"","type":"uint256"}],"stateMutability":"view","type":"function"},{"inputs":[{"internalType":"address","name":"memberAddress","type":"address"},{"internalType":"uint256","name":"proposalId","type":"uint256"}],"name":"getMemberProposalVote","outputs":[{"internalType":"enum Boii.Vote","name":"","type":"uint8"}],"stateMutability":"view","type":"function"},{"inputs":[{"internalType":"uint256","name":"proposalId","type":"uint256"}],"name":"getPaymentRequested","outputs":[{"internalType":"uint256[]","name":"","type":"uint256[]"}],"stateMutability":"view","type":"function"},{"inputs":[{"internalType":"uint256","name":"proposalId","type":"uint256"}],"name":"getProposalFlags","outputs":[{"internalType":"bool[6]","name":"","type":"bool[6]"}],"stateMutability":"view","type":"function"},{"inputs":[{"internalType":"address","name":"user","type":"address"},{"internalType":"address","name":"token","type":"address"}],"name":"getUserTokenBalance","outputs":[{"internalType":"uint256","name":"","type":"uint256"}],"stateMutability":"view","type":"function"},{"inputs":[],"name":"gracePeriodLength","outputs":[{"internalType":"uint256","name":"","type":"uint256"}],"stateMutability":"view","type":"function"},{"inputs":[{"internalType":"uint256","name":"startingPeriod","type":"uint256"}],"name":"hasVotingPeriodExpired","outputs":[{"internalType":"bool","name":"","type":"bool"}],"stateMutability":"view","type":"function"},{"inputs":[{"internalType":"address","name":"","type":"address"}],"name":"members","outputs":[{"internalType":"uint256","name":"shares","type":"uint256"},{"internalType":"bool","name":"exists","type":"bool"},{"internalType":"uint256","name":"highestIndexVote","type":"uint256"},{"internalType":"bool","name":"jailed","type":"bool"}],"stateMutability":"view","type":"function"},{"inputs":[],"name":"periodDuration","outputs":[{"internalType":"uint256","name":"","type":"uint256"}],"stateMutability":"view","type":"function"},{"inputs":[{"internalType":"uint256","name":"proposalId","type":"uint256"}],"name":"preProcessProposal","outputs":[],"stateMutability":"nonpayable","type":"function"},{"inputs":[{"internalType":"uint256","name":"proposalId","type":"uint256"}],"name":"processProposal","outputs":[],"stateMutability":"nonpayable","type":"function"},{"inputs":[],"name":"proposalCount","outputs":[{"internalType":"uint256","name":"","type":"uint256"}],"stateMutability":"view","type":"function"},{"inputs":[],"name":"proposalDeposit","outputs":[{"internalType":"uint256","name":"","type":"uint256"}],"stateMutability":"view","type":"function"},{"inputs":[{"internalType":"uint256","name":"","type":"uint256"}],"name":"proposals","outputs":[{"internalType":"address","name":"applicant","type":"address"},{"internalType":"address","name":"proposer","type":"address"},{"internalType":"address","name":"sponsor","type":"address"},{"internalType":"uint256","name":"sharesRequested","type":"uint256"},{"internalType":"uint256","name":"tributeOffered","type":"uint256"},{"internalType":"uint256","name":"activePeriod","type":"uint256"},{"internalType":"uint256","name":"milestoneIndex","type":"uint256"},{"internalType":"uint256","name":"yesVoted","type":"uint256"},{"internalType":"uint256","name":"noVoted","type":"uint256"},{"internalType":"string","name":"projectHash","type":"string"},{"internalType":"uint256","name":"maxTotalSharesAtYesVote","type":"uint256"}],"stateMutability":"view","type":"function"},{"inputs":[{"internalType":"address","name":"","type":"address"}],"name":"proposedToKick","outputs":[{"internalType":"bool","name":"","type":"bool"}],"stateMutability":"view","type":"function"},{"inputs":[{"internalType":"address","name":"memberToKick","type":"address"}],"name":"ragekick","outputs":[],"stateMutability":"nonpayable","type":"function"},{"inputs":[{"internalType":"uint256","name":"sharesToBurn","type":"uint256"},{"internalType":"uint256","name":"proposalId","type":"uint256"}],"name":"ragequit","outputs":[],"stateMutability":"nonpayable","type":"function"},{"inputs":[{"internalType":"uint256","name":"proposalId","type":"uint256"}],"name":"sponsorProposal","outputs":[],"stateMutability":"nonpayable","type":"function"},{"inputs":[{"internalType":"address","name":"memberToKick","type":"address"},{"internalType":"string","name":"details","type":"string"}],"name":"submitGuildKickProposal","outputs":[{"internalType":"uint256","name":"proposalId","type":"uint256"}],"stateMutability":"nonpayable","type":"function"},{"inputs":[{"internalType":"address","name":"applicant","type":"address"},{"internalType":"uint256","name":"sharesRequested","type":"uint256"},{"internalType":"uint256","name":"tributeOffered","type":"uint256"},{"internalType":"string","name":"details","type":"string"}],"name":"submitJoinProposal","outputs":[{"internalType":"uint256","name":"proposalId","type":"uint256"}],"stateMutability":"nonpayable","type":"function"},{"inputs":[{"internalType":"address","name":"applicant","type":"address"},{"internalType":"uint256","name":"tributeOffered","type":"uint256"},{"internalType":"uint256[]","name":"paymentRequested","type":"uint256[]"},{"internalType":"string","name":"details","type":"string"}],"name":"submitProjectProposal","outputs":[{"internalType":"uint256","name":"proposalId","type":"uint256"}],"stateMutability":"nonpayable","type":"function"},{"inputs":[{"internalType":"uint256","name":"proposalIndex","type":"uint256"},{"internalType":"uint8","name":"uintVote","type":"uint8"}],"name":"submitVote","outputs":[],"stateMutability":"nonpayable","type":"function"},{"inputs":[],"name":"summoningTime","outputs":[{"internalType":"uint256","name":"","type":"uint256"}],"stateMutability":"view","type":"function"},{"inputs":[],"name":"totalShares","outputs":[{"internalType":"uint256","name":"","type":"uint256"}],"stateMutability":"view","type":"function"},{"inputs":[{"internalType":"address","name":"","type":"address"},{"internalType":"address","name":"","type":"address"}],"name":"userTokenBalances","outputs":[{"internalType":"uint256","name":"","type":"uint256"}],"stateMutability":"view","type":"function"},{"inputs":[],"name":"votingPeriodLength","outputs":[{"internalType":"uint256","name":"","type":"uint256"}],"stateMutability":"view","type":"function"},{"inputs":[{"internalType":"uint256","name":"amount","type":"uint256"}],"name":"withdrawBalance","outputs":[],"stateMutability":"nonpayable","type":"function"}],"evm":{"bytecode":{"linkReferences":{},"object":"60806040523480156200001157600080fd5b506040516200385b3803806200385b83398101604081905262000034916200045a565b6000805460ff191660011790556001600160a01b0387166200009d5760405162461bcd60e51b815260206004820152601460248201527f73756d6d6f6e65722063616e6e6f74206265203000000000000000000000000060448201526064015b60405180910390fd5b60008511620000fa5760405162461bcd60e51b815260206004820152602260248201527f706572696f644475726174696f6e206d7573742067726561746572207468616e604482015261020360f41b606482015260840162000094565b600084116200015b5760405162461bcd60e51b815260206004820152602660248201527f766f74696e67506572696f644c656e677468206d75737420677265617465722060448201526507468616e20360d41b606482015260840162000094565b670de0b6b3a7640000841115620001c15760405162461bcd60e51b8152602060048201526024808201527f766f74696e67506572696f644c656e677468206578636565647320746865206c6044820152631a5b5a5d60e21b606482015260840162000094565b60008311620002215760405162461bcd60e51b815260206004820152602560248201527f6772616365506572696f644c656e677468206d75737420677265617465722074604482015264068616e20360dc1b606482015260840162000094565b670de0b6b3a7640000831115620002875760405162461bcd60e51b815260206004820152602360248201527f6772616365506572696f644c656e677468206578636565647320746865206c696044820152621b5a5d60ea1b606482015260840162000094565b60008111620002e35760405162461bcd60e51b815260206004820152602160248201527f64696c7574696f6e426f756e64206d7573742067726561746572207468616e206044820152600360fc1b606482015260840162000094565b670de0b6b3a76400008111156200033d5760405162461bcd60e51b815260206004820152601f60248201527f64696c7574696f6e426f756e64206578636565647320746865206c696d697400604482015260640162000094565b6001600160a01b038616620003955760405162461bcd60e51b815260206004820152601860248201527f6465706f736974546f6b656e2063616e6e6f7420626520300000000000000000604482015260640162000094565b600780546001600160a01b039788166001600160a01b0319909116179055600194855560029384556003928355600491909155600555426006556040805160808101825284815260208082018681526000838501818152606085018281529a9099168152600c909252929020905181559051818501805491151560ff1992831617905594519281019290925593519301805493151593909216929092179055600955620004c1565b80516001600160a01b03811681146200045557600080fd5b919050565b600080600080600080600060e0888a0312156200047657600080fd5b62000481886200043d565b965062000491602089016200043d565b604089015160608a015160808b015160a08c015160c0909c01519a9d939c50919a90999198509650945092505050565b61338a80620004d16000396000f3fe608060405234801561001057600080fd5b50600436106102065760003560e01c80638340bbce1161011a578063b470aade116100ad578063dfdd369e1161007c578063dfdd369e14610577578063e0a8f6f51461058a578063e63bc62d1461059d578063e681c4aa146105b0578063f5d54c77146105b957600080fd5b8063b470aade1461053f578063c89039c514610548578063da35c6641461055b578063da76d5cd1461056457600080fd5b80639746d940116100e95780639746d940146104f057806399653fbe14610503578063afe5475f14610516578063b2643aab1461051f57600080fd5b80638340bbce146104b857806387dfc825146104c15780638b15a605146104d45780639425a476146104dd57600080fd5b80633fc24bba1161019d578063523a97ca1161016c578063523a97ca1461043a578063623125241461044d57806363858f2d1461046d57806373f8fd4b146104765780637d5b6c72146104af57600080fd5b80633fc24bba1461032457806345f2d10514610357578063464e60fb146103825780634c1056311461042757600080fd5b8063115b2d18116101d9578063115b2d18146102d257806315eb349e146102e557806327efc086146102fa5780633a98ef391461031b57600080fd5b8063013cf08b1461020b578063044a0ca81461023e578063086146d21461025e57806308ae4b0c14610274575b600080fd5b61021e610219366004612b4a565b6105c2565b6040516102359b9a99989796959493929190612b63565b60405180910390f35b61025161024c366004612c2f565b6106b3565b6040516102359190612c6f565b61026661074c565b604051908152602001610235565b6102b0610282366004612c97565b600c602052600090815260409020805460018201546002830154600390930154919260ff9182169290911684565b6040805194855292151560208501529183015215156060820152608001610235565b6102666102e0366004612d69565b61076e565b6102f86102f3366004612db7565b610947565b005b61030361babe81565b6040516001600160a01b039091168152602001610235565b61026660095481565b610347610332366004612c97565b600b6020526000908152604090205460ff1681565b6040519015158152602001610235565b610266610365366004612dd9565b600a60209081526000928352604080842090915290825290205481565b6102f8600780546001600160a01b0390811660009081527f8720d4975b64e8d0bcc09d76f61f68d959dd291071e342d1fe0a7042180089176020908152604080832061271090819055945490931682527fed762ddb65dfeab933eda5256eb347e1bf2b4e76044bdc8baf0a70d22dc0c374815291812092909255818052600d90527f81955a0a11e65eac625c29e8882660bae4e165a75d72780094acae8ece9a29f555565b610266610435366004612e0c565b610993565b610266610448366004612e6d565b610c83565b61046061045b366004612b4a565b610dfb565b6040516102359190612f45565b61026660035481565b610266610484366004612dd9565b6001600160a01b039182166000908152600a6020908152604080832093909416825291909152205490565b61026660065481565b61026660025481565b6102f86104cf366004612b4a565b610e60565b61026660045481565b6103476104eb366004612b4a565b610fea565b6102f86104fe366004612b4a565b61100a565b6102f8610511366004612f89565b611495565b61026660055481565b61053261052d366004612b4a565b61182c565b6040516102359190612fbf565b61026660015481565b600754610303906001600160a01b031681565b61026660085481565b6102f8610572366004612b4a565b611896565b6102f8610585366004612c97565b6118db565b6102f8610598366004612b4a565b6119d1565b6102f86105ab366004612b4a565b611aff565b61030361beef81565b61030361dead81565b600d60205260009081526040902080546001820154600283015460038401546004850154600786015460088701546009880154600a890154600c8a0180546001600160a01b039a8b169b998b169a909816989697959694959394929391929161062a90612ff2565b80601f016020809104026020016040519081016040528092919081815260200182805461065690612ff2565b80156106a35780601f10610678576101008083540402835291602001916106a3565b820191906000526020600020905b81548152906001019060200180831161068657829003601f168201915b50505050509080600d015490508b565b6001600160a01b0382166000908152600c602052604081206001015460ff1661071b5760405162461bcd60e51b81526020600482015260156024820152741b595b58995c88191bd95cc81b9bdd08195e1a5cdd605a1b60448201526064015b60405180910390fd5b506000818152600d602090815260408083206001600160a01b0386168452600e0190915290205460ff165b92915050565b60006001546006544261075f919061303c565b610769919061304f565b905090565b6000805460ff166107915760405162461bcd60e51b815260040161071290613071565b6000805460ff191681556001600160a01b0384168152600c602090815260409182902082516080810184528154808252600183015460ff90811615159483019490945260028301549482019490945260039091015490911615156060820152906108495760405162461bcd60e51b815260206004820152602360248201527f6d656d626572206d7573742068617665206174206c65617374206f6e6520736860448201526261726560e81b6064820152608401610712565b6001600160a01b0384166000908152600c602052604090206003015460ff16156108bf5760405162461bcd60e51b815260206004820152602160248201527f6d656d626572206d757374206e6f7420616c7265616479206265206a61696c656044820152601960fa1b6064820152608401610712565b6108c7612a03565b6001608082018190526040805182815280820190915260009160208083019080368337019050509050600081600081518110610905576109056130a8565b60200260200101818152505061092086600080848987611bb5565b600160085461092f919061303c565b93505050506000805460ff1916600117905592915050565b60005460ff166109695760405162461bcd60e51b815260040161071290613071565b6000805460ff1916815561098290339084908490611c9b565b50506000805460ff19166001179055565b6000805460ff166109b65760405162461bcd60e51b815260040161071290613071565b6000805460ff19169055670de0b6b3a76400006109d385806130be565b1115610a215760405162461bcd60e51b815260206004820152601960248201527f746f6f206d616e792073686172657320726571756573746564000000000000006044820152606401610712565b6001600160a01b038516610a6f5760405162461bcd60e51b815260206004820152601560248201527406170706c6963616e742063616e6e6f74206265203605c1b6044820152606401610712565b6001600160a01b03851661dead14801590610a9557506001600160a01b03851661beef14155b8015610aac57506001600160a01b03851661babe14155b610ac85760405162461bcd60e51b8152600401610712906130d1565b6001600160a01b0385166000908152600c602052604090206003015460ff1615610b045760405162461bcd60e51b815260040161071290613115565b6007546040516323b872dd60e01b8152336004820152306024820152604481018590526001600160a01b03909116906323b872dd906064016020604051808303816000875af1158015610b5b573d6000803e3d6000fd5b505050506040513d601f19601f82011682018060405250810190610b7f919061315a565b610bcb5760405162461bcd60e51b815260206004820152601d60248201527f7472696275746520746f6b656e207472616e73666572206661696c65640000006044820152606401610712565b610bd761beef8461203c565b6040805160c081018252600080825260208201819052818301819052606082018190526080820181905260a08201819052825160018082528185019094529192909190816020016020820280368337019050509050600081600081518110610c4157610c416130a8565b602002602001018181525050610c5b878787848887611bb5565b6001600854610c6a919061303c565b925050506000805460ff19166001179055949350505050565b6000805460ff16610ca65760405162461bcd60e51b815260040161071290613071565b6000805460ff191690556001600160a01b038516610cfe5760405162461bcd60e51b815260206004820152601560248201527406170706c6963616e742063616e6e6f74206265203605c1b6044820152606401610712565b6001600160a01b03851661dead14801590610d2457506001600160a01b03851661beef14155b8015610d3b57506001600160a01b03851661babe14155b610d575760405162461bcd60e51b8152600401610712906130d1565b6001600160a01b0385166000908152600c602052604090206003015460ff1615610d935760405162461bcd60e51b815260040161071290613115565b6040805160c081018252600080825260208201819052918101829052606081018290526080810182905260a0810182905290610dd490879087878786611bb5565b6001600854610de3919061303c565b9150506000805460ff19166001179055949350505050565b6000818152600d6020908152604091829020600501805483518184028101840190945280845260609392830182828015610e5457602002820191906000526020600020905b815481526020019060010190808311610e40575b50505050509050919050565b60005460ff16610e825760405162461bcd60e51b815260040161071290613071565b6000805460ff19169055610e95816120cd565b6000610ea082612206565b6000838152600d60205260409020600b8101805465ff0000000000191665010000000000179081905591925090640100000000900460ff161515600114610fc05780600501600081548110610ef757610ef76130a8565b9060005260206000200154600003610f5b57670de0b6b3a76400008160030154600954610f2491906130be565b1115610f2f57600091505b81600b820160025b602091828204019190066101000a81548160ff021916908315150217905550610fd8565b6007546001600160a01b03166000908152600080516020613335833981519152602052604090205460088201546005830180549091908110610f9f57610f9f6130a8565b90600052602060002001541115610f2f576000915081600b82016002610f37565b600b8101805462ff0000191662010000841515021790555b50506000805460ff1916600117905550565b600060025482610ffa91906130be565b61100261074c565b101592915050565b60005460ff1661102c5760405162461bcd60e51b815260040161071290613071565b6000805460ff19169055600754600480546040516323b872dd60e01b8152339281019290925230602483015260448201526001600160a01b03909116906323b872dd906064016020604051808303816000875af1158015611091573d6000803e3d6000fd5b505050506040513d601f19601f820116820180604052508101906110b5919061315a565b6111105760405162461bcd60e51b815260206004820152602660248201527f70726f706f73616c206465706f73697420746f6b656e207472616e736665722060448201526519985a5b195960d21b6064820152608401610712565b61111e61beef60045461203c565b6000818152600d6020526040902060018101546001600160a01b03166111865760405162461bcd60e51b815260206004820181905260248201527f70726f706f73616c206d7573742068617665206265656e2070726f706f7365646044820152606401610712565b600b81015460ff16156111ab5760405162461bcd60e51b81526004016107129061317c565b600b8101546301000000900460ff16156112075760405162461bcd60e51b815260206004820152601b60248201527f70726f706f73616c20686173206265656e2063616e63656c6c656400000000006044820152606401610712565b600b810154610100900460ff16156112615760405162461bcd60e51b815260206004820152601b60248201527f70726f706f73616c20686173206265656e2070726f63657373656400000000006044820152606401610712565b80546001600160a01b03166000908152600c602052604090206003015460ff161561129e5760405162461bcd60e51b815260040161071290613115565b600b810154640100000000900460ff16156113425780546001600160a01b03166000908152600b602052604090205460ff161561131d5760405162461bcd60e51b815260206004820152601860248201527f616c72656164792070726f706f73656420746f206b69636b00000000000000006044820152606401610712565b80546001600160a01b03166000908152600b60205260409020805460ff191660011790555b806008015460000361141d5761135661074c565b6113619060016130be565b81600601600081548110611377576113776130a8565b60009182526020909120015560015b600682015481101561141b578160060181815481106113a7576113a76130a8565b9060005260206000200154826006016001836113c3919061303c565b815481106113d3576113d36130a8565b90600052602060002001546113e891906130be565b8260060182815481106113fd576113fd6130a8565b60009182526020909120015580611413816131bf565b915050611386565b505b80600601600081548110611433576114336130a8565b600091825260208220015460078301556002820180546001600160a01b03191633179055600190600b8301905b602081049091018054921515601f9092166101000a91820260ff9092021990921617905550506000805460ff19166001179055565b60005460ff166114b75760405162461bcd60e51b815260040161071290613071565b6000805460ff19168155338152600c6020526040902060085483106114ee5760405162461bcd60e51b8152600401610712906131d8565b6000838152600d60205260409020600b81015460ff1615156001146115555760405162461bcd60e51b815260206004820152601960248201527f70726f706f73616c20646f6573206e6f742073706f6e736f72000000000000006044820152606401610712565b60038360ff161061159e5760405162461bcd60e51b81526020600482015260136024820152726d757374206265206c657373207468616e203360681b6044820152606401610712565b60008360ff1660028111156115b5576115b5612c59565b905081600701546115c461074c565b10156116125760405162461bcd60e51b815260206004820152601d60248201527f766f74696e6720706572696f6420686173206e6f7420737461727465640000006044820152606401610712565b61161f8260070154610fea565b156116775760405162461bcd60e51b815260206004820152602260248201527f70726f706f73616c20766f74696e6720706572696f6420686173206578706972604482015261195960f21b6064820152608401610712565b336000908152600e8301602052604081205460ff16600281111561169d5761169d612c59565b146116ea5760405162461bcd60e51b815260206004820152601860248201527f6d656d6265722068617320616c726561647920766f74656400000000000000006044820152606401610712565b60018160028111156116fe576116fe612c59565b148061171b5750600281600281111561171957611719612c59565b145b6117675760405162461bcd60e51b815260206004820152601d60248201527f766f7465206d7573742062652065697468657220596573206f72204e6f0000006044820152606401610712565b336000908152600e830160205260409020805482919060ff1916600183600281111561179557611795612c59565b021790555060018160028111156117ae576117ae612c59565b036117e857825460098301546117c491906130be565b826009018190555081600d015460095411156117e357600954600d8301555b611818565b60028160028111156117fc576117fc612c59565b03611818578254600a83015461181291906130be565b600a8301555b50506000805460ff19166001179055505050565b611834612a03565b6000828152600d6020526040808220815160c081019283905292600b909101916006918390855b825461010083900a900460ff16151581526020600192830181810494850194909303909202910180841161185b575094979650505050505050565b60005460ff166118b85760405162461bcd60e51b815260040161071290613071565b6000805460ff191690556118cb81612276565b506000805460ff19166001179055565b60005460ff166118fd5760405162461bcd60e51b815260040161071290613071565b6000805460ff191681556001600160a01b0382168152600c602052604081206003810154909160ff909116151590036119715760405162461bcd60e51b81526020600482015260166024820152751b595b58995c881b5d5cdd081899481a5b881a985a5b60521b6044820152606401610712565b80546119bf5760405162461bcd60e51b815260206004820152601b60248201527f6d656d626572206d757374206861766520736f6d6520736861726500000000006044820152606401610712565b61098282826000015460006001611c9b565b60005460ff166119f35760405162461bcd60e51b815260040161071290613071565b6000805460ff19168155818152600d60205260409020600b81015460ff1615611a2e5760405162461bcd60e51b81526004016107129061317c565b600b8101546301000000900460ff1615611a965760405162461bcd60e51b815260206004820152602360248201527f70726f706f73616c2068617320616c7265616479206265656e2063616e63656c6044820152621b195960ea1b6064820152608401610712565b60018101546001600160a01b03163314611af25760405162461bcd60e51b815260206004820152601e60248201527f736f6c656c79207468652070726f706f7365722063616e2063616e63656c00006044820152606401610712565b6001600b82016003611460565b60005460ff16611b215760405162461bcd60e51b815260040161071290613071565b6000805460ff19169055611b34816123a2565b6000611b3f82612206565b6000838152600d60205260409020600b81015491925090640100000000900460ff161515600114611bab5780600501600081548110611b8057611b806130a8565b9060005260206000200154600003611ba157611b9c83836124ba565b610fd8565b611b9c8383612665565b610fd883836127cc565b6008546000908152600d6020908152604090912080546001600160a01b0389166001600160a01b031991821617825560018201805490911633179055600381018790556004810186905584519091611c14916005840191870190612a21565b50604080516020810190915260008152611c349060068301906001612a6c565b506000600782018190556008820181905560098201819055600a820155611c60600b8201836006612aac565b50600c8101611c6f848261325d565b50600081600d0181905550600160086000828254611c8d91906130be565b909155505050505050505050565b6009546001600160a01b0385166000908152600c602052604090208054851115611cfd5760405162461bcd60e51b8152602060048201526013602482015272696e73756666696369656e742073686172657360681b6044820152606401610712565b82611f62576000848152600d60205260409020600b015465010000000000900460ff16611d6c5760405162461bcd60e51b815260206004820152601d60248201527f70726f706f73616c206d7573742062652070726570726f6365737365640000006044820152606401610712565b6003546002546000868152600d6020526040902060070154611d8e91906130be565b611d9891906130be565b611da061074c565b10611ded5760405162461bcd60e51b815260206004820181905260248201527f70726f706f73616c206d75737420626520696e20677261636520706572696f646044820152606401610712565b6000848152600d602090815260408083206001600160a01b038a168452600e0190915281205460ff166002811115611e2757611e27612c59565b03611e745760405162461bcd60e51b815260206004820181905260248201527f6d656d626572206469646e277420766f7465206f6e20612070726f706f73616c6044820152606401610712565b6000848152600d60205260409020600b015462010000900460ff16611e9a576002611e9d565b60015b60ff166002811115611eb157611eb1612c59565b6002811115611ec257611ec2612c59565b6000858152600d602090815260408083206001600160a01b038b168452600e0190915290205460ff166002811115611efc57611efc612c59565b03611f625760405162461bcd60e51b815260206004820152603060248201527f6d656d6265722077686f20766f746564207468652073616d6520726573756c7460448201526f0818d85b9b9bdd081c9859d95c5d5a5d60821b6064820152608401610712565b8054611f6f90869061303c565b8155600954611f7f90869061303c565b6009556007546001600160a01b031660009081526000805160206133358339815191526020526040812054611fb59087856128e4565b90508015612033576007546001600160a01b03166000908152600080516020613335833981519152602052604081208054839290611ff490849061303c565b90915550506001600160a01b038088166000908152600a6020908152604080832060075490941683529290529081208054839290611c8d9084906130be565b50505050505050565b6001600160a01b038083166000908152600a60209081526040808320600754909416835292905290812080548392906120769084906130be565b90915550506007546001600160a01b031660009081527fed762ddb65dfeab933eda5256eb347e1bf2b4e76044bdc8baf0a70d22dc0c3746020526040812080548392906120c49084906130be565b90915550505050565b60085481106120ee5760405162461bcd60e51b8152600401610712906131d8565b6000818152600d60205260409020600254600782015461210e91906130be565b61211661074c565b10156121755760405162461bcd60e51b815260206004820152602860248201527f70726f706f73616c206973206e6f7420726561647920746f20626520707265706044820152671c9bd8d95cdcd95960c21b6064820152608401610712565b600b810154610100900460ff1615801561219d5750600b81015465010000000000900460ff16155b6122025760405162461bcd60e51b815260206004820152603060248201527f70726f706f73616c2068617320616c7265616479206265656e2070726570726f60448201526f18d95cdcd9590bdc1c9bd8d95cdcd95960821b6064820152608401610712565b5050565b6000818152600d60208190526040909120600a81015460098083015493830154600554915492909411939161223b919061331d565b101561224657600091505b80546001600160a01b03166000908152600c602052604090206003015460ff161561227057600091505b50919050565b336000908152600a602090815260408083206007546001600160a01b031684529091529020548111156122e25760405162461bcd60e51b8152602060048201526014602482015273696e73756666696369656e742062616c616e636560601b6044820152606401610712565b6122ec3382612953565b60075460405163a9059cbb60e01b8152336004820152602481018390526001600160a01b039091169063a9059cbb906044016020604051808303816000875af115801561233d573d6000803e3d6000fd5b505050506040513d601f19601f82011682018060405250810190612361919061315a565b61239f5760405162461bcd60e51b815260206004820152600f60248201526e1d1c985b9cd9995c8819985a5b1959608a1b6044820152606401610712565b50565b60085481106123c35760405162461bcd60e51b8152600401610712906131d8565b6000818152600d6020526040902060035460025460078301546123e691906130be565b6123f091906130be565b6123f861074c565b10156124545760405162461bcd60e51b815260206004820152602560248201527f70726f706f73616c206973206e6f7420726561647920746f2062652070726f63604482015264195cdcd95960da1b6064820152608401610712565b600b810154610100900460ff16156122025760405162461bcd60e51b815260206004820152602360248201527f70726f706f73616c2068617320616c7265616479206265656e2070726f6365736044820152621cd95960ea1b6064820152608401610712565b6000828152600d60205260409020600b8101805461ff00191661010017905560038101546009548391670de0b6b3a7640000916124f791906130be565b1115612501575060005b801561262557600b8201805462ff000019166201000017905581546001600160a01b03166000908152600c602052604090206001015460ff161561258757600382015482546001600160a01b03166000908152600c602052604090205461256891906130be565b82546001600160a01b03166000908152600c60205260409020556125f5565b604080516080810182526003808501548252600160208084018281526000858701818152606087018281528a546001600160a01b03168352600c9094529690209451855551918401805492151560ff1993841617905593516002840155925191018054911515919092161790555b816003015460095461260791906130be565b60098190555061262061beef61dead84600401546129db565b612648565b600182015460048301546126489161beef916001600160a01b03909116906129db565b600282015461265f906001600160a01b03166129f4565b50505050565b6000828152600d60209081526040808320600b8101805461ff0019166101001790556007546001600160a01b031684526000805160206133358339815191529092529091205460088201546005830180548593929081106126c8576126c86130a8565b906000526020600020015411156126dd575060005b80156127a957600b8201805462ff0000191662010000179055815460088301546005840180546127369361dead936001600160a01b0390911692918110612726576127266130a8565b90600052602060002001546129db565b60088201546127469060016130be565b600683015411156127a957600182600801600082825461276691906130be565b9250508190555081600601826008015481548110612786576127866130a8565b6000918252602090912001546007830155600b8201805465ff000000ff00191690555b816008015460000361265f57600282015461265f906001600160a01b03166129f4565b6000828152600d60205260409020600b8101548290640100000000900460ff166128385760405162461bcd60e51b815260206004820152601d60248201527f6d7573742062652061206775696c64206b69636b2070726f706f73616c0000006044820152606401610712565b600b8201805461ff00191661010017905580156128b257600b8201805462ff000019166201000017905581546001600160a01b03166000908152600c602090815260409182902082516080810184528154815260018281015460ff1615159382019390935260029190910154928101929092526060909101525b81546001600160a01b039081166000908152600b60205260409020805460ff19169055600283015461265f91166129f4565b6000816000036128f357600080fd5b836000036129035750600061294c565b600061290f848661331d565b90508361291c868361304f565b036129335761292b838261304f565b91505061294c565b8361293e848761304f565b612948919061331d565b9150505b9392505050565b6001600160a01b038083166000908152600a602090815260408083206007549094168352929052908120805483929061298d90849061303c565b90915550506007546001600160a01b031660009081527fed762ddb65dfeab933eda5256eb347e1bf2b4e76044bdc8baf0a70d22dc0c3746020526040812080548392906120c490849061303c565b6129e58382612953565b6129ef828261203c565b505050565b61239f61beef826004546129db565b6040518060c001604052806006906020820280368337509192915050565b828054828255906000526020600020908101928215612a5c579160200282015b82811115612a5c578251825591602001919060010190612a41565b50612a68929150612b35565b5090565b828054828255906000526020600020908101928215612a5c579160200282015b82811115612a5c578251829060ff16905591602001919060010190612a8c565b600183019183908215612a5c5791602002820160005b83821115612aff57835183826101000a81548160ff0219169083151502179055509260200192600101602081600001049283019260010302612ac2565b8015612b2c5782816101000a81549060ff0219169055600101602081600001049283019260010302612aff565b5050612a689291505b5b80821115612a685760008155600101612b36565b600060208284031215612b5c57600080fd5b5035919050565b600061016060018060a01b03808f1684526020818f1681860152818e1660408601528c60608601528b60808601528a60a08601528960c08601528860e08601528761010086015282610120860152865191508183860152600092505b81831015612bde57868301810151858401610180015291820191612bbf565b506101809150600082828601015281601f19601f83011685010192505050826101408301529c9b505050505050505050505050565b80356001600160a01b0381168114612c2a57600080fd5b919050565b60008060408385031215612c4257600080fd5b612c4b83612c13565b946020939093013593505050565b634e487b7160e01b600052602160045260246000fd5b6020810160038310612c9157634e487b7160e01b600052602160045260246000fd5b91905290565b600060208284031215612ca957600080fd5b61294c82612c13565b634e487b7160e01b600052604160045260246000fd5b604051601f8201601f1916810167ffffffffffffffff81118282101715612cf157612cf1612cb2565b604052919050565b600082601f830112612d0a57600080fd5b813567ffffffffffffffff811115612d2457612d24612cb2565b612d37601f8201601f1916602001612cc8565b818152846020838601011115612d4c57600080fd5b816020850160208301376000918101602001919091529392505050565b60008060408385031215612d7c57600080fd5b612d8583612c13565b9150602083013567ffffffffffffffff811115612da157600080fd5b612dad85828601612cf9565b9150509250929050565b60008060408385031215612dca57600080fd5b50508035926020909101359150565b60008060408385031215612dec57600080fd5b612df583612c13565b9150612e0360208401612c13565b90509250929050565b60008060008060808587031215612e2257600080fd5b612e2b85612c13565b93506020850135925060408501359150606085013567ffffffffffffffff811115612e5557600080fd5b612e6187828801612cf9565b91505092959194509250565b60008060008060808587031215612e8357600080fd5b612e8c85612c13565b93506020808601359350604086013567ffffffffffffffff80821115612eb157600080fd5b818801915088601f830112612ec557600080fd5b813581811115612ed757612ed7612cb2565b8060051b612ee6858201612cc8565b918252838101850191858101908c841115612f0057600080fd5b948601945b83861015612f1e57853582529486019490860190612f05565b97505050506060880135925080831115612f3757600080fd5b5050612e6187828801612cf9565b6020808252825182820181905260009190848201906040850190845b81811015612f7d57835183529284019291840191600101612f61565b50909695505050505050565b60008060408385031215612f9c57600080fd5b82359150602083013560ff81168114612fb457600080fd5b809150509250929050565b60c08101818360005b6006811015612fe95781511515835260209283019290910190600101612fc8565b50505092915050565b600181811c9082168061300657607f821691505b60208210810361227057634e487b7160e01b600052602260045260246000fd5b634e487b7160e01b600052601160045260246000fd5b8181038181111561074657610746613026565b60008261306c57634e487b7160e01b600052601260045260246000fd5b500490565b6020808252601f908201527f5265656e7472616e637947756172643a207265656e7472616e742063616c6c00604082015260600190565b634e487b7160e01b600052603260045260246000fd5b8082018082111561074657610746613026565b60208082526024908201527f6170706c6963616e7420616464726573732063616e6e6f7420626520726573656040820152631c9d995960e21b606082015260800190565b60208082526025908201527f70726f706f73616c206170706c6963616e74206d757374206e6f74206265206a604082015264185a5b195960da1b606082015260800190565b60006020828403121561316c57600080fd5b8151801515811461294c57600080fd5b60208082526023908201527f70726f706f73616c2068617320616c7265616479206265656e2073706f6e736f6040820152621c995960ea1b606082015260800190565b6000600182016131d1576131d1613026565b5060010190565b60208082526017908201527f70726f706f73616c20646f6573206e6f74206578697374000000000000000000604082015260600190565b601f8211156129ef57600081815260208120601f850160051c810160208610156132365750805b601f850160051c820191505b8181101561325557828155600101613242565b505050505050565b815167ffffffffffffffff81111561327757613277612cb2565b61328b816132858454612ff2565b8461320f565b602080601f8311600181146132c057600084156132a85750858301515b600019600386901b1c1916600185901b178555613255565b600085815260208120601f198616915b828110156132ef578886015182559484019460019091019084016132d0565b508582101561330d5787850151600019600388901b60f8161c191681555b5050505050600190811b01905550565b80820281158282048414176107465761074661302656fe20677881080440a9b3c87e826370bb5d9c2f74efd4dede686d52d77a6a09f8bba26469706673582212209c92c9f6ec64103161db4557676cbb4c1f742a2fc39a1992462efff1eaa25a9764736f6c63430008110033","opcodes":"PUSH1 0x80 PUSH1 0x40 MSTORE CALLVALUE DUP1 ISZERO PUSH3 0x11 JUMPI PUSH1 0x0 DUP1 REVERT JUMPDEST POP PUSH1 0x40 MLOAD PUSH3 0x385B CODESIZE SUB DUP1 PUSH3 0x385B DUP4 CODECOPY DUP2 ADD PUSH1 0x40 DUP2 SWAP1 MSTORE PUSH3 0x34 SWAP2 PUSH3 0x45A JUMP JUMPDEST PUSH1 0x0 DUP1 SLOAD PUSH1 0xFF NOT AND PUSH1 0x1 OR SWAP1 SSTORE PUSH1 0x1 PUSH1 0x1 PUSH1 0xA0 SHL SUB DUP8 AND PUSH3 0x9D JUMPI PUSH1 0x40 MLOAD PUSH3 0x461BCD PUSH1 0xE5 SHL DUP2 MSTORE PUSH1 0x20 PUSH1 0x4 DUP3 ADD MSTORE PUSH1 0x14 PUSH1 0x24 DUP3 ADD MSTORE PUSH32 0x73756D6D6F6E65722063616E6E6F742062652030000000000000000000000000 PUSH1 0x44 DUP3 ADD MSTORE PUSH1 0x64 ADD JUMPDEST PUSH1 0x40 MLOAD DUP1 SWAP2 SUB SWAP1 REVERT JUMPDEST PUSH1 0x0 DUP6 GT PUSH3 0xFA JUMPI PUSH1 0x40 MLOAD PUSH3 0x461BCD PUSH1 0xE5 SHL DUP2 MSTORE PUSH1 0x20 PUSH1 0x4 DUP3 ADD MSTORE PUSH1 0x22 PUSH1 0x24 DUP3 ADD MSTORE PUSH32 0x706572696F644475726174696F6E206D7573742067726561746572207468616E PUSH1 0x44 DUP3 ADD MSTORE PUSH2 0x203 PUSH1 0xF4 SHL PUSH1 0x64 DUP3 ADD MSTORE PUSH1 0x84 ADD PUSH3 0x94 JUMP JUMPDEST PUSH1 0x0 DUP5 GT PUSH3 0x15B JUMPI PUSH1 0x40 MLOAD PUSH3 0x461BCD PUSH1 0xE5 SHL DUP2 MSTORE PUSH1 0x20 PUSH1 0x4 DUP3 ADD MSTORE PUSH1 0x26 PUSH1 0x24 DUP3 ADD MSTORE PUSH32 0x766F74696E67506572696F644C656E677468206D757374206772656174657220 PUSH1 0x44 DUP3 ADD MSTORE PUSH6 0x7468616E203 PUSH1 0xD4 SHL PUSH1 0x64 DUP3 ADD MSTORE PUSH1 0x84 ADD PUSH3 0x94 JUMP JUMPDEST PUSH8 0xDE0B6B3A7640000 DUP5 GT ISZERO PUSH3 0x1C1 JUMPI PUSH1 0x40 MLOAD PUSH3 0x461BCD PUSH1 0xE5 SHL DUP2 MSTORE PUSH1 0x20 PUSH1 0x4 DUP3 ADD MSTORE PUSH1 0x24 DUP1 DUP3 ADD MSTORE PUSH32 0x766F74696E67506572696F644C656E677468206578636565647320746865206C PUSH1 0x44 DUP3 ADD MSTORE PUSH4 0x1A5B5A5D PUSH1 0xE2 SHL PUSH1 0x64 DUP3 ADD MSTORE PUSH1 0x84 ADD PUSH3 0x94 JUMP JUMPDEST PUSH1 0x0 DUP4 GT PUSH3 0x221 JUMPI PUSH1 0x40 MLOAD PUSH3 0x461BCD PUSH1 0xE5 SHL DUP2 MSTORE PUSH1 0x20 PUSH1 0x4 DUP3 ADD MSTORE PUSH1 0x25 PUSH1 0x24 DUP3 ADD MSTORE PUSH32 0x6772616365506572696F644C656E677468206D75737420677265617465722074 PUSH1 0x44 DUP3 ADD MSTORE PUSH5 0x68616E203 PUSH1 0xDC SHL PUSH1 0x64 DUP3 ADD MSTORE PUSH1 0x84 ADD PUSH3 0x94 JUMP JUMPDEST PUSH8 0xDE0B6B3A7640000 DUP4 GT ISZERO PUSH3 0x287 JUMPI PUSH1 0x40 MLOAD PUSH3 0x461BCD PUSH1 0xE5 SHL DUP2 MSTORE PUSH1 0x20 PUSH1 0x4 DUP3 ADD MSTORE PUSH1 0x23 PUSH1 0x24 DUP3 ADD MSTORE PUSH32 0x6772616365506572696F644C656E677468206578636565647320746865206C69 PUSH1 0x44 DUP3 ADD MSTORE PUSH3 0x1B5A5D PUSH1 0xEA SHL PUSH1 0x64 DUP3 ADD MSTORE PUSH1 0x84 ADD PUSH3 0x94 JUMP JUMPDEST PUSH1 0x0 DUP2 GT PUSH3 0x2E3 JUMPI PUSH1 0x40 MLOAD PUSH3 0x461BCD PUSH1 0xE5 SHL DUP2 MSTORE PUSH1 0x20 PUSH1 0x4 DUP3 ADD MSTORE PUSH1 0x21 PUSH1 0x24 DUP3 ADD MSTORE PUSH32 0x64696C7574696F6E426F756E64206D7573742067726561746572207468616E20 PUSH1 0x44 DUP3 ADD MSTORE PUSH1 0x3 PUSH1 0xFC SHL PUSH1 0x64 DUP3 ADD MSTORE PUSH1 0x84 ADD PUSH3 0x94 JUMP JUMPDEST PUSH8 0xDE0B6B3A7640000 DUP2 GT ISZERO PUSH3 0x33D JUMPI PUSH1 0x40 MLOAD PUSH3 0x461BCD PUSH1 0xE5 SHL DUP2 MSTORE PUSH1 0x20 PUSH1 0x4 DUP3 ADD MSTORE PUSH1 0x1F PUSH1 0x24 DUP3 ADD MSTORE PUSH32 0x64696C7574696F6E426F756E64206578636565647320746865206C696D697400 PUSH1 0x44 DUP3 ADD MSTORE PUSH1 0x64 ADD PUSH3 0x94 JUMP JUMPDEST PUSH1 0x1 PUSH1 0x1 PUSH1 0xA0 SHL SUB DUP7 AND PUSH3 0x395 JUMPI PUSH1 0x40 MLOAD PUSH3 0x461BCD PUSH1 0xE5 SHL DUP2 MSTORE PUSH1 0x20 PUSH1 0x4 DUP3 ADD MSTORE PUSH1 0x18 PUSH1 0x24 DUP3 ADD MSTORE PUSH32 0x6465706F736974546F6B656E2063616E6E6F7420626520300000000000000000 PUSH1 0x44 DUP3 ADD MSTORE PUSH1 0x64 ADD PUSH3 0x94 JUMP JUMPDEST PUSH1 0x7 DUP1 SLOAD PUSH1 0x1 PUSH1 0x1 PUSH1 0xA0 SHL SUB SWAP8 DUP9 AND PUSH1 0x1 PUSH1 0x1 PUSH1 0xA0 SHL SUB NOT SWAP1 SWAP2 AND OR SWAP1 SSTORE PUSH1 0x1 SWAP5 DUP6 SSTORE PUSH1 0x2 SWAP4 DUP5 SSTORE PUSH1 0x3 SWAP3 DUP4 SSTORE PUSH1 0x4 SWAP2 SWAP1 SWAP2 SSTORE PUSH1 0x5 SSTORE TIMESTAMP PUSH1 0x6 SSTORE PUSH1 0x40 DUP1 MLOAD PUSH1 0x80 DUP2 ADD DUP3 MSTORE DUP5 DUP2 MSTORE PUSH1 0x20 DUP1 DUP3 ADD DUP7 DUP2 MSTORE PUSH1 0x0 DUP4 DUP6 ADD DUP2 DUP2 MSTORE PUSH1 0x60 DUP6 ADD DUP3 DUP2 MSTORE SWAP11 SWAP1 SWAP10 AND DUP2 MSTORE PUSH1 0xC SWAP1 SWAP3 MSTORE SWAP3 SWAP1 KECCAK256 SWAP1 MLOAD DUP2 SSTORE SWAP1 MLOAD DUP2 DUP6 ADD DUP1 SLOAD SWAP2 ISZERO ISZERO PUSH1 0xFF NOT SWAP3 DUP4 AND OR SWAP1 SSTORE SWAP5 MLOAD SWAP3 DUP2 ADD SWAP3 SWAP1 SWAP3 SSTORE SWAP4 MLOAD SWAP4 ADD DUP1 SLOAD SWAP4 ISZERO ISZERO SWAP4 SWAP1 SWAP3 AND SWAP3 SWAP1 SWAP3 OR SWAP1 SSTORE PUSH1 0x9 SSTORE PUSH3 0x4C1 JUMP JUMPDEST DUP1 MLOAD PUSH1 0x1 PUSH1 0x1 PUSH1 0xA0 SHL SUB DUP2 AND DUP2 EQ PUSH3 0x455 JUMPI PUSH1 0x0 DUP1 REVERT JUMPDEST SWAP2 SWAP1 POP JUMP JUMPDEST PUSH1 0x0 DUP1 PUSH1 0x0 DUP1 PUSH1 0x0 DUP1 PUSH1 0x0 PUSH1 0xE0 DUP9 DUP11 SUB SLT ISZERO PUSH3 0x476 JUMPI PUSH1 0x0 DUP1 REVERT JUMPDEST PUSH3 0x481 DUP9 PUSH3 0x43D JUMP JUMPDEST SWAP7 POP PUSH3 0x491 PUSH1 0x20 DUP10 ADD PUSH3 0x43D JUMP JUMPDEST PUSH1 0x40 DUP10 ADD MLOAD PUSH1 0x60 DUP11 ADD MLOAD PUSH1 0x80 DUP12 ADD MLOAD PUSH1 0xA0 DUP13 ADD MLOAD PUSH1 0xC0 SWAP1 SWAP13 ADD MLOAD SWAP11 SWAP14 SWAP4 SWAP13 POP SWAP2 SWAP11 SWAP1 SWAP10 SWAP2 SWAP9 POP SWAP7 POP SWAP5 POP SWAP3 POP POP POP JUMP JUMPDEST PUSH2 0x338A DUP1 PUSH3 0x4D1 PUSH1 0x0 CODECOPY PUSH1 0x0 RETURN INVALID PUSH1 0x80 PUSH1 0x40 MSTORE CALLVALUE DUP1 ISZERO PUSH2 0x10 JUMPI PUSH1 0x0 DUP1 REVERT JUMPDEST POP PUSH1 0x4 CALLDATASIZE LT PUSH2 0x206 JUMPI PUSH1 0x0 CALLDATALOAD PUSH1 0xE0 SHR DUP1 PUSH4 0x8340BBCE GT PUSH2 0x11A JUMPI DUP1 PUSH4 0xB470AADE GT PUSH2 0xAD JUMPI DUP1 PUSH4 0xDFDD369E GT PUSH2 0x7C JUMPI DUP1 PUSH4 0xDFDD369E EQ PUSH2 0x577 JUMPI DUP1 PUSH4 0xE0A8F6F5 EQ PUSH2 0x58A JUMPI DUP1 PUSH4 0xE63BC62D EQ PUSH2 0x59D JUMPI DUP1 PUSH4 0xE681C4AA EQ PUSH2 0x5B0 JUMPI DUP1 PUSH4 0xF5D54C77 EQ PUSH2 0x5B9 JUMPI PUSH1 0x0 DUP1 REVERT JUMPDEST DUP1 PUSH4 0xB470AADE EQ PUSH2 0x53F JUMPI DUP1 PUSH4 0xC89039C5 EQ PUSH2 0x548 JUMPI DUP1 PUSH4 0xDA35C664 EQ PUSH2 0x55B JUMPI DUP1 PUSH4 0xDA76D5CD EQ PUSH2 0x564 JUMPI PUSH1 0x0 DUP1 REVERT JUMPDEST DUP1 PUSH4 0x9746D940 GT PUSH2 0xE9 JUMPI DUP1 PUSH4 0x9746D940 EQ PUSH2 0x4F0 JUMPI DUP1 PUSH4 0x99653FBE EQ PUSH2 0x503 JUMPI DUP1 PUSH4 0xAFE5475F EQ PUSH2 0x516 JUMPI DUP1 PUSH4 0xB2643AAB EQ PUSH2 0x51F JUMPI PUSH1 0x0 DUP1 REVERT JUMPDEST DUP1 PUSH4 0x8340BBCE EQ PUSH2 0x4B8 JUMPI DUP1 PUSH4 0x87DFC825 EQ PUSH2 0x4C1 JUMPI DUP1 PUSH4 0x8B15A605 EQ PUSH2 0x4D4 JUMPI DUP1 PUSH4 0x9425A476 EQ PUSH2 0x4DD JUMPI PUSH1 0x0 DUP1 REVERT JUMPDEST DUP1 PUSH4 0x3FC24BBA GT PUSH2 0x19D JUMPI DUP1 PUSH4 0x523A97CA GT PUSH2 0x16C JUMPI DUP1 PUSH4 0x523A97CA EQ PUSH2 0x43A JUMPI DUP1 PUSH4 0x62312524 EQ PUSH2 0x44D JUMPI DUP1 PUSH4 0x63858F2D EQ PUSH2 0x46D JUMPI DUP1 PUSH4 0x73F8FD4B EQ PUSH2 0x476 JUMPI DUP1 PUSH4 0x7D5B6C72 EQ PUSH2 0x4AF JUMPI PUSH1 0x0 DUP1 REVERT JUMPDEST DUP1 PUSH4 0x3FC24BBA EQ PUSH2 0x324 JUMPI DUP1 PUSH4 0x45F2D105 EQ PUSH2 0x357 JUMPI DUP1 PUSH4 0x464E60FB EQ PUSH2 0x382 JUMPI DUP1 PUSH4 0x4C105631 EQ PUSH2 0x427 JUMPI PUSH1 0x0 DUP1 REVERT JUMPDEST DUP1 PUSH4 0x115B2D18 GT PUSH2 0x1D9 JUMPI DUP1 PUSH4 0x115B2D18 EQ PUSH2 0x2D2 JUMPI DUP1 PUSH4 0x15EB349E EQ PUSH2 0x2E5 JUMPI DUP1 PUSH4 0x27EFC086 EQ PUSH2 0x2FA JUMPI DUP1 PUSH4 0x3A98EF39 EQ PUSH2 0x31B JUMPI PUSH1 0x0 DUP1 REVERT JUMPDEST DUP1 PUSH4 0x13CF08B EQ PUSH2 0x20B JUMPI DUP1 PUSH4 0x44A0CA8 EQ PUSH2 0x23E JUMPI DUP1 PUSH4 0x86146D2 EQ PUSH2 0x25E JUMPI DUP1 PUSH4 0x8AE4B0C EQ PUSH2 0x274 JUMPI JUMPDEST PUSH1 0x0 DUP1 REVERT JUMPDEST PUSH2 0x21E PUSH2 0x219 CALLDATASIZE PUSH1 0x4 PUSH2 0x2B4A JUMP JUMPDEST PUSH2 0x5C2 JUMP JUMPDEST PUSH1 0x40 MLOAD PUSH2 0x235 SWAP12 SWAP11 SWAP10 SWAP9 SWAP8 SWAP7 SWAP6 SWAP5 SWAP4 SWAP3 SWAP2 SWAP1 PUSH2 0x2B63 JUMP JUMPDEST PUSH1 0x40 MLOAD DUP1 SWAP2 SUB SWAP1 RETURN JUMPDEST PUSH2 0x251 PUSH2 0x24C CALLDATASIZE PUSH1 0x4 PUSH2 0x2C2F JUMP JUMPDEST PUSH2 0x6B3 JUMP JUMPDEST PUSH1 0x40 MLOAD PUSH2 0x235 SWAP2 SWAP1 PUSH2 0x2C6F JUMP JUMPDEST PUSH2 0x266 PUSH2 0x74C JUMP JUMPDEST PUSH1 0x40 MLOAD SWAP1 DUP2 MSTORE PUSH1 0x20 ADD PUSH2 0x235 JUMP JUMPDEST PUSH2 0x2B0 PUSH2 0x282 CALLDATASIZE PUSH1 0x4 PUSH2 0x2C97 JUMP JUMPDEST PUSH1 0xC PUSH1 0x20 MSTORE PUSH1 0x0 SWAP1 DUP2 MSTORE PUSH1 0x40 SWAP1 KECCAK256 DUP1 SLOAD PUSH1 0x1 DUP3 ADD SLOAD PUSH1 0x2 DUP4 ADD SLOAD PUSH1 0x3 SWAP1 SWAP4 ADD SLOAD SWAP2 SWAP3 PUSH1 0xFF SWAP2 DUP3 AND SWAP3 SWAP1 SWAP2 AND DUP5 JUMP JUMPDEST PUSH1 0x40 DUP1 MLOAD SWAP5 DUP6 MSTORE SWAP3 ISZERO ISZERO PUSH1 0x20 DUP6 ADD MSTORE SWAP2 DUP4 ADD MSTORE ISZERO ISZERO PUSH1 0x60 DUP3 ADD MSTORE PUSH1 0x80 ADD PUSH2 0x235 JUMP JUMPDEST PUSH2 0x266 PUSH2 0x2E0 CALLDATASIZE PUSH1 0x4 PUSH2 0x2D69 JUMP JUMPDEST PUSH2 0x76E JUMP JUMPDEST PUSH2 0x2F8 PUSH2 0x2F3 CALLDATASIZE PUSH1 0x4 PUSH2 0x2DB7 JUMP JUMPDEST PUSH2 0x947 JUMP JUMPDEST STOP JUMPDEST PUSH2 0x303 PUSH2 0xBABE DUP2 JUMP JUMPDEST PUSH1 0x40 MLOAD PUSH1 0x1 PUSH1 0x1 PUSH1 0xA0 SHL SUB SWAP1 SWAP2 AND DUP2 MSTORE PUSH1 0x20 ADD PUSH2 0x235 JUMP JUMPDEST PUSH2 0x266 PUSH1 0x9 SLOAD DUP2 JUMP JUMPDEST PUSH2 0x347 PUSH2 0x332 CALLDATASIZE PUSH1 0x4 PUSH2 0x2C97 JUMP JUMPDEST PUSH1 0xB PUSH1 0x20 MSTORE PUSH1 0x0 SWAP1 DUP2 MSTORE PUSH1 0x40 SWAP1 KECCAK256 SLOAD PUSH1 0xFF AND DUP2 JUMP JUMPDEST PUSH1 0x40 MLOAD SWAP1 ISZERO ISZERO DUP2 MSTORE PUSH1 0x20 ADD PUSH2 0x235 JUMP JUMPDEST PUSH2 0x266 PUSH2 0x365 CALLDATASIZE PUSH1 0x4 PUSH2 0x2DD9 JUMP JUMPDEST PUSH1 0xA PUSH1 0x20 SWAP1 DUP2 MSTORE PUSH1 0x0 SWAP3 DUP4 MSTORE PUSH1 0x40 DUP1 DUP5 KECCAK256 SWAP1 SWAP2 MSTORE SWAP1 DUP3 MSTORE SWAP1 KECCAK256 SLOAD DUP2 JUMP JUMPDEST PUSH2 0x2F8 PUSH1 0x7 DUP1 SLOAD PUSH1 0x1 PUSH1 0x1 PUSH1 0xA0 SHL SUB SWAP1 DUP2 AND PUSH1 0x0 SWAP1 DUP2 MSTORE PUSH32 0x8720D4975B64E8D0BCC09D76F61F68D959DD291071E342D1FE0A704218008917 PUSH1 0x20 SWAP1 DUP2 MSTORE PUSH1 0x40 DUP1 DUP4 KECCAK256 PUSH2 0x2710 SWAP1 DUP2 SWAP1 SSTORE SWAP5 SLOAD SWAP1 SWAP4 AND DUP3 MSTORE PUSH32 0xED762DDB65DFEAB933EDA5256EB347E1BF2B4E76044BDC8BAF0A70D22DC0C374 DUP2 MSTORE SWAP2 DUP2 KECCAK256 SWAP3 SWAP1 SWAP3 SSTORE DUP2 DUP1 MSTORE PUSH1 0xD SWAP1 MSTORE PUSH32 0x81955A0A11E65EAC625C29E8882660BAE4E165A75D72780094ACAE8ECE9A29F5 SSTORE JUMP JUMPDEST PUSH2 0x266 PUSH2 0x435 CALLDATASIZE PUSH1 0x4 PUSH2 0x2E0C JUMP JUMPDEST PUSH2 0x993 JUMP JUMPDEST PUSH2 0x266 PUSH2 0x448 CALLDATASIZE PUSH1 0x4 PUSH2 0x2E6D JUMP JUMPDEST PUSH2 0xC83 JUMP JUMPDEST PUSH2 0x460 PUSH2 0x45B CALLDATASIZE PUSH1 0x4 PUSH2 0x2B4A JUMP JUMPDEST PUSH2 0xDFB JUMP JUMPDEST PUSH1 0x40 MLOAD PUSH2 0x235 SWAP2 SWAP1 PUSH2 0x2F45 JUMP JUMPDEST PUSH2 0x266 PUSH1 0x3 SLOAD DUP2 JUMP JUMPDEST PUSH2 0x266 PUSH2 0x484 CALLDATASIZE PUSH1 0x4 PUSH2 0x2DD9 JUMP JUMPDEST PUSH1 0x1 PUSH1 0x1 PUSH1 0xA0 SHL SUB SWAP2 DUP3 AND PUSH1 0x0 SWAP1 DUP2 MSTORE PUSH1 0xA PUSH1 0x20 SWAP1 DUP2 MSTORE PUSH1 0x40 DUP1 DUP4 KECCAK256 SWAP4 SWAP1 SWAP5 AND DUP3 MSTORE SWAP2 SWAP1 SWAP2 MSTORE KECCAK256 SLOAD SWAP1 JUMP JUMPDEST PUSH2 0x266 PUSH1 0x6 SLOAD DUP2 JUMP JUMPDEST PUSH2 0x266 PUSH1 0x2 SLOAD DUP2 JUMP JUMPDEST PUSH2 0x2F8 PUSH2 0x4CF CALLDATASIZE PUSH1 0x4 PUSH2 0x2B4A JUMP JUMPDEST PUSH2 0xE60 JUMP JUMPDEST PUSH2 0x266 PUSH1 0x4 SLOAD DUP2 JUMP JUMPDEST PUSH2 0x347 PUSH2 0x4EB CALLDATASIZE PUSH1 0x4 PUSH2 0x2B4A JUMP JUMPDEST PUSH2 0xFEA JUMP JUMPDEST PUSH2 0x2F8 PUSH2 0x4FE CALLDATASIZE PUSH1 0x4 PUSH2 0x2B4A JUMP JUMPDEST PUSH2 0x100A JUMP JUMPDEST PUSH2 0x2F8 PUSH2 0x511 CALLDATASIZE PUSH1 0x4 PUSH2 0x2F89 JUMP JUMPDEST PUSH2 0x1495 JUMP JUMPDEST PUSH2 0x266 PUSH1 0x5 SLOAD DUP2 JUMP JUMPDEST PUSH2 0x532 PUSH2 0x52D CALLDATASIZE PUSH1 0x4 PUSH2 0x2B4A JUMP JUMPDEST PUSH2 0x182C JUMP JUMPDEST PUSH1 0x40 MLOAD PUSH2 0x235 SWAP2 SWAP1 PUSH2 0x2FBF JUMP JUMPDEST PUSH2 0x266 PUSH1 0x1 SLOAD DUP2 JUMP JUMPDEST PUSH1 0x7 SLOAD PUSH2 0x303 SWAP1 PUSH1 0x1 PUSH1 0x1 PUSH1 0xA0 SHL SUB AND DUP2 JUMP JUMPDEST PUSH2 0x266 PUSH1 0x8 SLOAD DUP2 JUMP JUMPDEST PUSH2 0x2F8 PUSH2 0x572 CALLDATASIZE PUSH1 0x4 PUSH2 0x2B4A JUMP JUMPDEST PUSH2 0x1896 JUMP JUMPDEST PUSH2 0x2F8 PUSH2 0x585 CALLDATASIZE PUSH1 0x4 PUSH2 0x2C97 JUMP JUMPDEST PUSH2 0x18DB JUMP JUMPDEST PUSH2 0x2F8 PUSH2 0x598 CALLDATASIZE PUSH1 0x4 PUSH2 0x2B4A JUMP JUMPDEST PUSH2 0x19D1 JUMP JUMPDEST PUSH2 0x2F8 PUSH2 0x5AB CALLDATASIZE PUSH1 0x4 PUSH2 0x2B4A JUMP JUMPDEST PUSH2 0x1AFF JUMP JUMPDEST PUSH2 0x303 PUSH2 0xBEEF DUP2 JUMP JUMPDEST PUSH2 0x303 PUSH2 0xDEAD DUP2 JUMP JUMPDEST PUSH1 0xD PUSH1 0x20 MSTORE PUSH1 0x0 SWAP1 DUP2 MSTORE PUSH1 0x40 SWAP1 KECCAK256 DUP1 SLOAD PUSH1 0x1 DUP3 ADD SLOAD PUSH1 0x2 DUP4 ADD SLOAD PUSH1 0x3 DUP5 ADD SLOAD PUSH1 0x4 DUP6 ADD SLOAD PUSH1 0x7 DUP7 ADD SLOAD PUSH1 0x8 DUP8 ADD SLOAD PUSH1 0x9 DUP9 ADD SLOAD PUSH1 0xA DUP10 ADD SLOAD PUSH1 0xC DUP11 ADD DUP1 SLOAD PUSH1 0x1 PUSH1 0x1 PUSH1 0xA0 SHL SUB SWAP11 DUP12 AND SWAP12 SWAP10 DUP12 AND SWAP11 SWAP1 SWAP9 AND SWAP9 SWAP7 SWAP8 SWAP6 SWAP7 SWAP5 SWAP6 SWAP4 SWAP5 SWAP3 SWAP4 SWAP2 SWAP3 SWAP2 PUSH2 0x62A SWAP1 PUSH2 0x2FF2 JUMP JUMPDEST DUP1 PUSH1 0x1F ADD PUSH1 0x20 DUP1 SWAP2 DIV MUL PUSH1 0x20 ADD PUSH1 0x40 MLOAD SWAP1 DUP2 ADD PUSH1 0x40 MSTORE DUP1 SWAP3 SWAP2 SWAP1 DUP2 DUP2 MSTORE PUSH1 0x20 ADD DUP3 DUP1 SLOAD PUSH2 0x656 SWAP1 PUSH2 0x2FF2 JUMP JUMPDEST DUP1 ISZERO PUSH2 0x6A3 JUMPI DUP1 PUSH1 0x1F LT PUSH2 0x678 JUMPI PUSH2 0x100 DUP1 DUP4 SLOAD DIV MUL DUP4 MSTORE SWAP2 PUSH1 0x20 ADD SWAP2 PUSH2 0x6A3 JUMP JUMPDEST DUP3 ADD SWAP2 SWAP1 PUSH1 0x0 MSTORE PUSH1 0x20 PUSH1 0x0 KECCAK256 SWAP1 JUMPDEST DUP2 SLOAD DUP2 MSTORE SWAP1 PUSH1 0x1 ADD SWAP1 PUSH1 0x20 ADD DUP1 DUP4 GT PUSH2 0x686 JUMPI DUP3 SWAP1 SUB PUSH1 0x1F AND DUP3 ADD SWAP2 JUMPDEST POP POP POP POP POP SWAP1 DUP1 PUSH1 0xD ADD SLOAD SWAP1 POP DUP12 JUMP JUMPDEST PUSH1 0x1 PUSH1 0x1 PUSH1 0xA0 SHL SUB DUP3 AND PUSH1 0x0 SWAP1 DUP2 MSTORE PUSH1 0xC PUSH1 0x20 MSTORE PUSH1 0x40 DUP2 KECCAK256 PUSH1 0x1 ADD SLOAD PUSH1 0xFF AND PUSH2 0x71B JUMPI PUSH1 0x40 MLOAD PUSH3 0x461BCD PUSH1 0xE5 SHL DUP2 MSTORE PUSH1 0x20 PUSH1 0x4 DUP3 ADD MSTORE PUSH1 0x15 PUSH1 0x24 DUP3 ADD MSTORE PUSH21 0x1B595B58995C88191BD95CC81B9BDD08195E1A5CDD PUSH1 0x5A SHL PUSH1 0x44 DUP3 ADD MSTORE PUSH1 0x64 ADD JUMPDEST PUSH1 0x40 MLOAD DUP1 SWAP2 SUB SWAP1 REVERT JUMPDEST POP PUSH1 0x0 DUP2 DUP2 MSTORE PUSH1 0xD PUSH1 0x20 SWAP1 DUP2 MSTORE PUSH1 0x40 DUP1 DUP4 KECCAK256 PUSH1 0x1 PUSH1 0x1 PUSH1 0xA0 SHL SUB DUP7 AND DUP5 MSTORE PUSH1 0xE ADD SWAP1 SWAP2 MSTORE SWAP1 KECCAK256 SLOAD PUSH1 0xFF AND JUMPDEST SWAP3 SWAP2 POP POP JUMP JUMPDEST PUSH1 0x0 PUSH1 0x1 SLOAD PUSH1 0x6 SLOAD TIMESTAMP PUSH2 0x75F SWAP2 SWAP1 PUSH2 0x303C JUMP JUMPDEST PUSH2 0x769 SWAP2 SWAP1 PUSH2 0x304F JUMP JUMPDEST SWAP1 POP SWAP1 JUMP JUMPDEST PUSH1 0x0 DUP1 SLOAD PUSH1 0xFF AND PUSH2 0x791 JUMPI PUSH1 0x40 MLOAD PUSH3 0x461BCD PUSH1 0xE5 SHL DUP2 MSTORE PUSH1 0x4 ADD PUSH2 0x712 SWAP1 PUSH2 0x3071 JUMP JUMPDEST PUSH1 0x0 DUP1 SLOAD PUSH1 0xFF NOT AND DUP2 SSTORE PUSH1 0x1 PUSH1 0x1 PUSH1 0xA0 SHL SUB DUP5 AND DUP2 MSTORE PUSH1 0xC PUSH1 0x20 SWAP1 DUP2 MSTORE PUSH1 0x40 SWAP2 DUP3 SWAP1 KECCAK256 DUP3 MLOAD PUSH1 0x80 DUP2 ADD DUP5 MSTORE DUP2 SLOAD DUP1 DUP3 MSTORE PUSH1 0x1 DUP4 ADD SLOAD PUSH1 0xFF SWAP1 DUP2 AND ISZERO ISZERO SWAP5 DUP4 ADD SWAP5 SWAP1 SWAP5 MSTORE PUSH1 0x2 DUP4 ADD SLOAD SWAP5 DUP3 ADD SWAP5 SWAP1 SWAP5 MSTORE PUSH1 0x3 SWAP1 SWAP2 ADD SLOAD SWAP1 SWAP2 AND ISZERO ISZERO PUSH1 0x60 DUP3 ADD MSTORE SWAP1 PUSH2 0x849 JUMPI PUSH1 0x40 MLOAD PUSH3 0x461BCD PUSH1 0xE5 SHL DUP2 MSTORE PUSH1 0x20 PUSH1 0x4 DUP3 ADD MSTORE PUSH1 0x23 PUSH1 0x24 DUP3 ADD MSTORE PUSH32 0x6D656D626572206D7573742068617665206174206C65617374206F6E65207368 PUSH1 0x44 DUP3 ADD MSTORE PUSH3 0x617265 PUSH1 0xE8 SHL PUSH1 0x64 DUP3 ADD MSTORE PUSH1 0x84 ADD PUSH2 0x712 JUMP JUMPDEST PUSH1 0x1 PUSH1 0x1 PUSH1 0xA0 SHL SUB DUP5 AND PUSH1 0x0 SWAP1 DUP2 MSTORE PUSH1 0xC PUSH1 0x20 MSTORE PUSH1 0x40 SWAP1 KECCAK256 PUSH1 0x3 ADD SLOAD PUSH1 0xFF AND ISZERO PUSH2 0x8BF JUMPI PUSH1 0x40 MLOAD PUSH3 0x461BCD PUSH1 0xE5 SHL DUP2 MSTORE PUSH1 0x20 PUSH1 0x4 DUP3 ADD MSTORE PUSH1 0x21 PUSH1 0x24 DUP3 ADD MSTORE PUSH32 0x6D656D626572206D757374206E6F7420616C7265616479206265206A61696C65 PUSH1 0x44 DUP3 ADD MSTORE PUSH1 0x19 PUSH1 0xFA SHL PUSH1 0x64 DUP3 ADD MSTORE PUSH1 0x84 ADD PUSH2 0x712 JUMP JUMPDEST PUSH2 0x8C7 PUSH2 0x2A03 JUMP JUMPDEST PUSH1 0x1 PUSH1 0x80 DUP3 ADD DUP2 SWAP1 MSTORE PUSH1 0x40 DUP1 MLOAD DUP3 DUP2 MSTORE DUP1 DUP3 ADD SWAP1 SWAP2 MSTORE PUSH1 0x0 SWAP2 PUSH1 0x20 DUP1 DUP4 ADD SWAP1 DUP1 CALLDATASIZE DUP4 CALLDATACOPY ADD SWAP1 POP POP SWAP1 POP PUSH1 0x0 DUP2 PUSH1 0x0 DUP2 MLOAD DUP2 LT PUSH2 0x905 JUMPI PUSH2 0x905 PUSH2 0x30A8 JUMP JUMPDEST PUSH1 0x20 MUL PUSH1 0x20 ADD ADD DUP2 DUP2 MSTORE POP POP PUSH2 0x920 DUP7 PUSH1 0x0 DUP1 DUP5 DUP10 DUP8 PUSH2 0x1BB5 JUMP JUMPDEST PUSH1 0x1 PUSH1 0x8 SLOAD PUSH2 0x92F SWAP2 SWAP1 PUSH2 0x303C JUMP JUMPDEST SWAP4 POP POP POP POP PUSH1 0x0 DUP1 SLOAD PUSH1 0xFF NOT AND PUSH1 0x1 OR SWAP1 SSTORE SWAP3 SWAP2 POP POP JUMP JUMPDEST PUSH1 0x0 SLOAD PUSH1 0xFF AND PUSH2 0x969 JUMPI PUSH1 0x40 MLOAD PUSH3 0x461BCD PUSH1 0xE5 SHL DUP2 MSTORE PUSH1 0x4 ADD PUSH2 0x712 SWAP1 PUSH2 0x3071 JUMP JUMPDEST PUSH1 0x0 DUP1 SLOAD PUSH1 0xFF NOT AND DUP2 SSTORE PUSH2 0x982 SWAP1 CALLER SWAP1 DUP5 SWAP1 DUP5 SWAP1 PUSH2 0x1C9B JUMP JUMPDEST POP POP PUSH1 0x0 DUP1 SLOAD PUSH1 0xFF NOT AND PUSH1 0x1 OR SWAP1 SSTORE JUMP JUMPDEST PUSH1 0x0 DUP1 SLOAD PUSH1 0xFF AND PUSH2 0x9B6 JUMPI PUSH1 0x40 MLOAD PUSH3 0x461BCD PUSH1 0xE5 SHL DUP2 MSTORE PUSH1 0x4 ADD PUSH2 0x712 SWAP1 PUSH2 0x3071 JUMP JUMPDEST PUSH1 0x0 DUP1 SLOAD PUSH1 0xFF NOT AND SWAP1 SSTORE PUSH8 0xDE0B6B3A7640000 PUSH2 0x9D3 DUP6 DUP1 PUSH2 0x30BE JUMP JUMPDEST GT ISZERO PUSH2 0xA21 JUMPI PUSH1 0x40 MLOAD PUSH3 0x461BCD PUSH1 0xE5 SHL DUP2 MSTORE PUSH1 0x20 PUSH1 0x4 DUP3 ADD MSTORE PUSH1 0x19 PUSH1 0x24 DUP3 ADD MSTORE PUSH32 0x746F6F206D616E79207368617265732072657175657374656400000000000000 PUSH1 0x44 DUP3 ADD MSTORE PUSH1 0x64 ADD PUSH2 0x712 JUMP JUMPDEST PUSH1 0x1 PUSH1 0x1 PUSH1 0xA0 SHL SUB DUP6 AND PUSH2 0xA6F JUMPI PUSH1 0x40 MLOAD PUSH3 0x461BCD PUSH1 0xE5 SHL DUP2 MSTORE PUSH1 0x20 PUSH1 0x4 DUP3 ADD MSTORE PUSH1 0x15 PUSH1 0x24 DUP3 ADD MSTORE PUSH21 0x6170706C6963616E742063616E6E6F74206265203 PUSH1 0x5C SHL PUSH1 0x44 DUP3 ADD MSTORE PUSH1 0x64 ADD PUSH2 0x712 JUMP JUMPDEST PUSH1 0x1 PUSH1 0x1 PUSH1 0xA0 SHL SUB DUP6 AND PUSH2 0xDEAD EQ DUP1 ISZERO SWAP1 PUSH2 0xA95 JUMPI POP PUSH1 0x1 PUSH1 0x1 PUSH1 0xA0 SHL SUB DUP6 AND PUSH2 0xBEEF EQ ISZERO JUMPDEST DUP1 ISZERO PUSH2 0xAAC JUMPI POP PUSH1 0x1 PUSH1 0x1 PUSH1 0xA0 SHL SUB DUP6 AND PUSH2 0xBABE EQ ISZERO JUMPDEST PUSH2 0xAC8 JUMPI PUSH1 0x40 MLOAD PUSH3 0x461BCD PUSH1 0xE5 SHL DUP2 MSTORE PUSH1 0x4 ADD PUSH2 0x712 SWAP1 PUSH2 0x30D1 JUMP JUMPDEST PUSH1 0x1 PUSH1 0x1 PUSH1 0xA0 SHL SUB DUP6 AND PUSH1 0x0 SWAP1 DUP2 MSTORE PUSH1 0xC PUSH1 0x20 MSTORE PUSH1 0x40 SWAP1 KECCAK256 PUSH1 0x3 ADD SLOAD PUSH1 0xFF AND ISZERO PUSH2 0xB04 JUMPI PUSH1 0x40 MLOAD PUSH3 0x461BCD PUSH1 0xE5 SHL DUP2 MSTORE PUSH1 0x4 ADD PUSH2 0x712 SWAP1 PUSH2 0x3115 JUMP JUMPDEST PUSH1 0x7 SLOAD PUSH1 0x40 MLOAD PUSH4 0x23B872DD PUSH1 0xE0 SHL DUP2 MSTORE CALLER PUSH1 0x4 DUP3 ADD MSTORE ADDRESS PUSH1 0x24 DUP3 ADD MSTORE PUSH1 0x44 DUP2 ADD DUP6 SWAP1 MSTORE PUSH1 0x1 PUSH1 0x1 PUSH1 0xA0 SHL SUB SWAP1 SWAP2 AND SWAP1 PUSH4 0x23B872DD SWAP1 PUSH1 0x64 ADD PUSH1 0x20 PUSH1 0x40 MLOAD DUP1 DUP4 SUB DUP2 PUSH1 0x0 DUP8 GAS CALL ISZERO DUP1 ISZERO PUSH2 0xB5B JUMPI RETURNDATASIZE PUSH1 0x0 DUP1 RETURNDATACOPY RETURNDATASIZE PUSH1 0x0 REVERT JUMPDEST POP POP POP POP PUSH1 0x40 MLOAD RETURNDATASIZE PUSH1 0x1F NOT PUSH1 0x1F DUP3 ADD AND DUP3 ADD DUP1 PUSH1 0x40 MSTORE POP DUP2 ADD SWAP1 PUSH2 0xB7F SWAP2 SWAP1 PUSH2 0x315A JUMP JUMPDEST PUSH2 0xBCB JUMPI PUSH1 0x40 MLOAD PUSH3 0x461BCD PUSH1 0xE5 SHL DUP2 MSTORE PUSH1 0x20 PUSH1 0x4 DUP3 ADD MSTORE PUSH1 0x1D PUSH1 0x24 DUP3 ADD MSTORE PUSH32 0x7472696275746520746F6B656E207472616E73666572206661696C6564000000 PUSH1 0x44 DUP3 ADD MSTORE PUSH1 0x64 ADD PUSH2 0x712 JUMP JUMPDEST PUSH2 0xBD7 PUSH2 0xBEEF DUP5 PUSH2 0x203C JUMP JUMPDEST PUSH1 0x40 DUP1 MLOAD PUSH1 0xC0 DUP2 ADD DUP3 MSTORE PUSH1 0x0 DUP1 DUP3 MSTORE PUSH1 0x20 DUP3 ADD DUP2 SWAP1 MSTORE DUP2 DUP4 ADD DUP2 SWAP1 MSTORE PUSH1 0x60 DUP3 ADD DUP2 SWAP1 MSTORE PUSH1 0x80 DUP3 ADD DUP2 SWAP1 MSTORE PUSH1 0xA0 DUP3 ADD DUP2 SWAP1 MSTORE DUP3 MLOAD PUSH1 0x1 DUP1 DUP3 MSTORE DUP2 DUP6 ADD SWAP1 SWAP5 MSTORE SWAP2 SWAP3 SWAP1 SWAP2 SWAP1 DUP2 PUSH1 0x20 ADD PUSH1 0x20 DUP3 MUL DUP1 CALLDATASIZE DUP4 CALLDATACOPY ADD SWAP1 POP POP SWAP1 POP PUSH1 0x0 DUP2 PUSH1 0x0 DUP2 MLOAD DUP2 LT PUSH2 0xC41 JUMPI PUSH2 0xC41 PUSH2 0x30A8 JUMP JUMPDEST PUSH1 0x20 MUL PUSH1 0x20 ADD ADD DUP2 DUP2 MSTORE POP POP PUSH2 0xC5B DUP8 DUP8 DUP8 DUP5 DUP9 DUP8 PUSH2 0x1BB5 JUMP JUMPDEST PUSH1 0x1 PUSH1 0x8 SLOAD PUSH2 0xC6A SWAP2 SWAP1 PUSH2 0x303C JUMP JUMPDEST SWAP3 POP POP POP PUSH1 0x0 DUP1 SLOAD PUSH1 0xFF NOT AND PUSH1 0x1 OR SWAP1 SSTORE SWAP5 SWAP4 POP POP POP POP JUMP JUMPDEST PUSH1 0x0 DUP1 SLOAD PUSH1 0xFF AND PUSH2 0xCA6 JUMPI PUSH1 0x40 MLOAD PUSH3 0x461BCD PUSH1 0xE5 SHL DUP2 MSTORE PUSH1 0x4 ADD PUSH2 0x712 SWAP1 PUSH2 0x3071 JUMP JUMPDEST PUSH1 0x0 DUP1 SLOAD PUSH1 0xFF NOT AND SWAP1 SSTORE PUSH1 0x1 PUSH1 0x1 PUSH1 0xA0 SHL SUB DUP6 AND PUSH2 0xCFE JUMPI PUSH1 0x40 MLOAD PUSH3 0x461BCD PUSH1 0xE5 SHL DUP2 MSTORE PUSH1 0x20 PUSH1 0x4 DUP3 ADD MSTORE PUSH1 0x15 PUSH1 0x24 DUP3 ADD MSTORE PUSH21 0x6170706C6963616E742063616E6E6F74206265203 PUSH1 0x5C SHL PUSH1 0x44 DUP3 ADD MSTORE PUSH1 0x64 ADD PUSH2 0x712 JUMP JUMPDEST PUSH1 0x1 PUSH1 0x1 PUSH1 0xA0 SHL SUB DUP6 AND PUSH2 0xDEAD EQ DUP1 ISZERO SWAP1 PUSH2 0xD24 JUMPI POP PUSH1 0x1 PUSH1 0x1 PUSH1 0xA0 SHL SUB DUP6 AND PUSH2 0xBEEF EQ ISZERO JUMPDEST DUP1 ISZERO PUSH2 0xD3B JUMPI POP PUSH1 0x1 PUSH1 0x1 PUSH1 0xA0 SHL SUB DUP6 AND PUSH2 0xBABE EQ ISZERO JUMPDEST PUSH2 0xD57 JUMPI PUSH1 0x40 MLOAD PUSH3 0x461BCD PUSH1 0xE5 SHL DUP2 MSTORE PUSH1 0x4 ADD PUSH2 0x712 SWAP1 PUSH2 0x30D1 JUMP JUMPDEST PUSH1 0x1 PUSH1 0x1 PUSH1 0xA0 SHL SUB DUP6 AND PUSH1 0x0 SWAP1 DUP2 MSTORE PUSH1 0xC PUSH1 0x20 MSTORE PUSH1 0x40 SWAP1 KECCAK256 PUSH1 0x3 ADD SLOAD PUSH1 0xFF AND ISZERO PUSH2 0xD93 JUMPI PUSH1 0x40 MLOAD PUSH3 0x461BCD PUSH1 0xE5 SHL DUP2 MSTORE PUSH1 0x4 ADD PUSH2 0x712 SWAP1 PUSH2 0x3115 JUMP JUMPDEST PUSH1 0x40 DUP1 MLOAD PUSH1 0xC0 DUP2 ADD DUP3 MSTORE PUSH1 0x0 DUP1 DUP3 MSTORE PUSH1 0x20 DUP3 ADD DUP2 SWAP1 MSTORE SWAP2 DUP2 ADD DUP3 SWAP1 MSTORE PUSH1 0x60 DUP2 ADD DUP3 SWAP1 MSTORE PUSH1 0x80 DUP2 ADD DUP3 SWAP1 MSTORE PUSH1 0xA0 DUP2 ADD DUP3 SWAP1 MSTORE SWAP1 PUSH2 0xDD4 SWAP1 DUP8 SWAP1 DUP8 DUP8 DUP8 DUP7 PUSH2 0x1BB5 JUMP JUMPDEST PUSH1 0x1 PUSH1 0x8 SLOAD PUSH2 0xDE3 SWAP2 SWAP1 PUSH2 0x303C JUMP JUMPDEST SWAP2 POP POP PUSH1 0x0 DUP1 SLOAD PUSH1 0xFF NOT AND PUSH1 0x1 OR SWAP1 SSTORE SWAP5 SWAP4 POP POP POP POP JUMP JUMPDEST PUSH1 0x0 DUP2 DUP2 MSTORE PUSH1 0xD PUSH1 0x20 SWAP1 DUP2 MSTORE PUSH1 0x40 SWAP2 DUP3 SWAP1 KECCAK256 PUSH1 0x5 ADD DUP1 SLOAD DUP4 MLOAD DUP2 DUP5 MUL DUP2 ADD DUP5 ADD SWAP1 SWAP5 MSTORE DUP1 DUP5 MSTORE PUSH1 0x60 SWAP4 SWAP3 DUP4 ADD DUP3 DUP3 DUP1 ISZERO PUSH2 0xE54 JUMPI PUSH1 0x20 MUL DUP3 ADD SWAP2 SWAP1 PUSH1 0x0 MSTORE PUSH1 0x20 PUSH1 0x0 KECCAK256 SWAP1 JUMPDEST DUP2 SLOAD DUP2 MSTORE PUSH1 0x20 ADD SWAP1 PUSH1 0x1 ADD SWAP1 DUP1 DUP4 GT PUSH2 0xE40 JUMPI JUMPDEST POP POP POP POP POP SWAP1 POP SWAP2 SWAP1 POP JUMP JUMPDEST PUSH1 0x0 SLOAD PUSH1 0xFF AND PUSH2 0xE82 JUMPI PUSH1 0x40 MLOAD PUSH3 0x461BCD PUSH1 0xE5 SHL DUP2 MSTORE PUSH1 0x4 ADD PUSH2 0x712 SWAP1 PUSH2 0x3071 JUMP JUMPDEST PUSH1 0x0 DUP1 SLOAD PUSH1 0xFF NOT AND SWAP1 SSTORE PUSH2 0xE95 DUP2 PUSH2 0x20CD JUMP JUMPDEST PUSH1 0x0 PUSH2 0xEA0 DUP3 PUSH2 0x2206 JUMP JUMPDEST PUSH1 0x0 DUP4 DUP2 MSTORE PUSH1 0xD PUSH1 0x20 MSTORE PUSH1 0x40 SWAP1 KECCAK256 PUSH1 0xB DUP2 ADD DUP1 SLOAD PUSH6 0xFF0000000000 NOT AND PUSH6 0x10000000000 OR SWAP1 DUP2 SWAP1 SSTORE SWAP2 SWAP3 POP SWAP1 PUSH5 0x100000000 SWAP1 DIV PUSH1 0xFF AND ISZERO ISZERO PUSH1 0x1 EQ PUSH2 0xFC0 JUMPI DUP1 PUSH1 0x5 ADD PUSH1 0x0 DUP2 SLOAD DUP2 LT PUSH2 0xEF7 JUMPI PUSH2 0xEF7 PUSH2 0x30A8 JUMP JUMPDEST SWAP1 PUSH1 0x0 MSTORE PUSH1 0x20 PUSH1 0x0 KECCAK256 ADD SLOAD PUSH1 0x0 SUB PUSH2 0xF5B JUMPI PUSH8 0xDE0B6B3A7640000 DUP2 PUSH1 0x3 ADD SLOAD PUSH1 0x9 SLOAD PUSH2 0xF24 SWAP2 SWAP1 PUSH2 0x30BE JUMP JUMPDEST GT ISZERO PUSH2 0xF2F JUMPI PUSH1 0x0 SWAP2 POP JUMPDEST DUP2 PUSH1 0xB DUP3 ADD PUSH1 0x2 JUMPDEST PUSH1 0x20 SWAP2 DUP3 DUP3 DIV ADD SWAP2 SWAP1 MOD PUSH2 0x100 EXP DUP2 SLOAD DUP2 PUSH1 0xFF MUL NOT AND SWAP1 DUP4 ISZERO ISZERO MUL OR SWAP1 SSTORE POP PUSH2 0xFD8 JUMP JUMPDEST PUSH1 0x7 SLOAD PUSH1 0x1 PUSH1 0x1 PUSH1 0xA0 SHL SUB AND PUSH1 0x0 SWAP1 DUP2 MSTORE PUSH1 0x0 DUP1 MLOAD PUSH1 0x20 PUSH2 0x3335 DUP4 CODECOPY DUP2 MLOAD SWAP2 MSTORE PUSH1 0x20 MSTORE PUSH1 0x40 SWAP1 KECCAK256 SLOAD PUSH1 0x8 DUP3 ADD SLOAD PUSH1 0x5 DUP4 ADD DUP1 SLOAD SWAP1 SWAP2 SWAP1 DUP2 LT PUSH2 0xF9F JUMPI PUSH2 0xF9F PUSH2 0x30A8 JUMP JUMPDEST SWAP1 PUSH1 0x0 MSTORE PUSH1 0x20 PUSH1 0x0 KECCAK256 ADD SLOAD GT ISZERO PUSH2 0xF2F JUMPI PUSH1 0x0 SWAP2 POP DUP2 PUSH1 0xB DUP3 ADD PUSH1 0x2 PUSH2 0xF37 JUMP JUMPDEST PUSH1 0xB DUP2 ADD DUP1 SLOAD PUSH3 0xFF0000 NOT AND PUSH3 0x10000 DUP5 ISZERO ISZERO MUL OR SWAP1 SSTORE JUMPDEST POP POP PUSH1 0x0 DUP1 SLOAD PUSH1 0xFF NOT AND PUSH1 0x1 OR SWAP1 SSTORE POP JUMP JUMPDEST PUSH1 0x0 PUSH1 0x2 SLOAD DUP3 PUSH2 0xFFA SWAP2 SWAP1 PUSH2 0x30BE JUMP JUMPDEST PUSH2 0x1002 PUSH2 0x74C JUMP JUMPDEST LT ISZERO SWAP3 SWAP2 POP POP JUMP JUMPDEST PUSH1 0x0 SLOAD PUSH1 0xFF AND PUSH2 0x102C JUMPI PUSH1 0x40 MLOAD PUSH3 0x461BCD PUSH1 0xE5 SHL DUP2 MSTORE PUSH1 0x4 ADD PUSH2 0x712 SWAP1 PUSH2 0x3071 JUMP JUMPDEST PUSH1 0x0 DUP1 SLOAD PUSH1 0xFF NOT AND SWAP1 SSTORE PUSH1 0x7 SLOAD PUSH1 0x4 DUP1 SLOAD PUSH1 0x40 MLOAD PUSH4 0x23B872DD PUSH1 0xE0 SHL DUP2 MSTORE CALLER SWAP3 DUP2 ADD SWAP3 SWAP1 SWAP3 MSTORE ADDRESS PUSH1 0x24 DUP4 ADD MSTORE PUSH1 0x44 DUP3 ADD MSTORE PUSH1 0x1 PUSH1 0x1 PUSH1 0xA0 SHL SUB SWAP1 SWAP2 AND SWAP1 PUSH4 0x23B872DD SWAP1 PUSH1 0x64 ADD PUSH1 0x20 PUSH1 0x40 MLOAD DUP1 DUP4 SUB DUP2 PUSH1 0x0 DUP8 GAS CALL ISZERO DUP1 ISZERO PUSH2 0x1091 JUMPI RETURNDATASIZE PUSH1 0x0 DUP1 RETURNDATACOPY RETURNDATASIZE PUSH1 0x0 REVERT JUMPDEST POP POP POP POP PUSH1 0x40 MLOAD RETURNDATASIZE PUSH1 0x1F NOT PUSH1 0x1F DUP3 ADD AND DUP3 ADD DUP1 PUSH1 0x40 MSTORE POP DUP2 ADD SWAP1 PUSH2 0x10B5 SWAP2 SWAP1 PUSH2 0x315A JUMP JUMPDEST PUSH2 0x1110 JUMPI PUSH1 0x40 MLOAD PUSH3 0x461BCD PUSH1 0xE5 SHL DUP2 MSTORE PUSH1 0x20 PUSH1 0x4 DUP3 ADD MSTORE PUSH1 0x26 PUSH1 0x24 DUP3 ADD MSTORE PUSH32 0x70726F706F73616C206465706F73697420746F6B656E207472616E7366657220 PUSH1 0x44 DUP3 ADD MSTORE PUSH6 0x19985A5B1959 PUSH1 0xD2 SHL PUSH1 0x64 DUP3 ADD MSTORE PUSH1 0x84 ADD PUSH2 0x712 JUMP JUMPDEST PUSH2 0x111E PUSH2 0xBEEF PUSH1 0x4 SLOAD PUSH2 0x203C JUMP JUMPDEST PUSH1 0x0 DUP2 DUP2 MSTORE PUSH1 0xD PUSH1 0x20 MSTORE PUSH1 0x40 SWAP1 KECCAK256 PUSH1 0x1 DUP2 ADD SLOAD PUSH1 0x1 PUSH1 0x1 PUSH1 0xA0 SHL SUB AND PUSH2 0x1186 JUMPI PUSH1 0x40 MLOAD PUSH3 0x461BCD PUSH1 0xE5 SHL DUP2 MSTORE PUSH1 0x20 PUSH1 0x4 DUP3 ADD DUP2 SWAP1 MSTORE PUSH1 0x24 DUP3 ADD MSTORE PUSH32 0x70726F706F73616C206D7573742068617665206265656E2070726F706F736564 PUSH1 0x44 DUP3 ADD MSTORE PUSH1 0x64 ADD PUSH2 0x712 JUMP JUMPDEST PUSH1 0xB DUP2 ADD SLOAD PUSH1 0xFF AND ISZERO PUSH2 0x11AB JUMPI PUSH1 0x40 MLOAD PUSH3 0x461BCD PUSH1 0xE5 SHL DUP2 MSTORE PUSH1 0x4 ADD PUSH2 0x712 SWAP1 PUSH2 0x317C JUMP JUMPDEST PUSH1 0xB DUP2 ADD SLOAD PUSH4 0x1000000 SWAP1 DIV PUSH1 0xFF AND ISZERO PUSH2 0x1207 JUMPI PUSH1 0x40 MLOAD PUSH3 0x461BCD PUSH1 0xE5 SHL DUP2 MSTORE PUSH1 0x20 PUSH1 0x4 DUP3 ADD MSTORE PUSH1 0x1B PUSH1 0x24 DUP3 ADD MSTORE PUSH32 0x70726F706F73616C20686173206265656E2063616E63656C6C65640000000000 PUSH1 0x44 DUP3 ADD MSTORE PUSH1 0x64 ADD PUSH2 0x712 JUMP JUMPDEST PUSH1 0xB DUP2 ADD SLOAD PUSH2 0x100 SWAP1 DIV PUSH1 0xFF AND ISZERO PUSH2 0x1261 JUMPI PUSH1 0x40 MLOAD PUSH3 0x461BCD PUSH1 0xE5 SHL DUP2 MSTORE PUSH1 0x20 PUSH1 0x4 DUP3 ADD MSTORE PUSH1 0x1B PUSH1 0x24 DUP3 ADD MSTORE PUSH32 0x70726F706F73616C20686173206265656E2070726F6365737365640000000000 PUSH1 0x44 DUP3 ADD MSTORE PUSH1 0x64 ADD PUSH2 0x712 JUMP JUMPDEST DUP1 SLOAD PUSH1 0x1 PUSH1 0x1 PUSH1 0xA0 SHL SUB AND PUSH1 0x0 SWAP1 DUP2 MSTORE PUSH1 0xC PUSH1 0x20 MSTORE PUSH1 0x40 SWAP1 KECCAK256 PUSH1 0x3 ADD SLOAD PUSH1 0xFF AND ISZERO PUSH2 0x129E JUMPI PUSH1 0x40 MLOAD PUSH3 0x461BCD PUSH1 0xE5 SHL DUP2 MSTORE PUSH1 0x4 ADD PUSH2 0x712 SWAP1 PUSH2 0x3115 JUMP JUMPDEST PUSH1 0xB DUP2 ADD SLOAD PUSH5 0x100000000 SWAP1 DIV PUSH1 0xFF AND ISZERO PUSH2 0x1342 JUMPI DUP1 SLOAD PUSH1 0x1 PUSH1 0x1 PUSH1 0xA0 SHL SUB AND PUSH1 0x0 SWAP1 DUP2 MSTORE PUSH1 0xB PUSH1 0x20 MSTORE PUSH1 0x40 SWAP1 KECCAK256 SLOAD PUSH1 0xFF AND ISZERO PUSH2 0x131D JUMPI PUSH1 0x40 MLOAD PUSH3 0x461BCD PUSH1 0xE5 SHL DUP2 MSTORE PUSH1 0x20 PUSH1 0x4 DUP3 ADD MSTORE PUSH1 0x18 PUSH1 0x24 DUP3 ADD MSTORE PUSH32 0x616C72656164792070726F706F73656420746F206B69636B0000000000000000 PUSH1 0x44 DUP3 ADD MSTORE PUSH1 0x64 ADD PUSH2 0x712 JUMP JUMPDEST DUP1 SLOAD PUSH1 0x1 PUSH1 0x1 PUSH1 0xA0 SHL SUB AND PUSH1 0x0 SWAP1 DUP2 MSTORE PUSH1 0xB PUSH1 0x20 MSTORE PUSH1 0x40 SWAP1 KECCAK256 DUP1 SLOAD PUSH1 0xFF NOT AND PUSH1 0x1 OR SWAP1 SSTORE JUMPDEST DUP1 PUSH1 0x8 ADD SLOAD PUSH1 0x0 SUB PUSH2 0x141D JUMPI PUSH2 0x1356 PUSH2 0x74C JUMP JUMPDEST PUSH2 0x1361 SWAP1 PUSH1 0x1 PUSH2 0x30BE JUMP JUMPDEST DUP2 PUSH1 0x6 ADD PUSH1 0x0 DUP2 SLOAD DUP2 LT PUSH2 0x1377 JUMPI PUSH2 0x1377 PUSH2 0x30A8 JUMP JUMPDEST PUSH1 0x0 SWAP2 DUP3 MSTORE PUSH1 0x20 SWAP1 SWAP2 KECCAK256 ADD SSTORE PUSH1 0x1 JUMPDEST PUSH1 0x6 DUP3 ADD SLOAD DUP2 LT ISZERO PUSH2 0x141B JUMPI DUP2 PUSH1 0x6 ADD DUP2 DUP2 SLOAD DUP2 LT PUSH2 0x13A7 JUMPI PUSH2 0x13A7 PUSH2 0x30A8 JUMP JUMPDEST SWAP1 PUSH1 0x0 MSTORE PUSH1 0x20 PUSH1 0x0 KECCAK256 ADD SLOAD DUP3 PUSH1 0x6 ADD PUSH1 0x1 DUP4 PUSH2 0x13C3 SWAP2 SWAP1 PUSH2 0x303C JUMP JUMPDEST DUP2 SLOAD DUP2 LT PUSH2 0x13D3 JUMPI PUSH2 0x13D3 PUSH2 0x30A8 JUMP JUMPDEST SWAP1 PUSH1 0x0 MSTORE PUSH1 0x20 PUSH1 0x0 KECCAK256 ADD SLOAD PUSH2 0x13E8 SWAP2 SWAP1 PUSH2 0x30BE JUMP JUMPDEST DUP3 PUSH1 0x6 ADD DUP3 DUP2 SLOAD DUP2 LT PUSH2 0x13FD JUMPI PUSH2 0x13FD PUSH2 0x30A8 JUMP JUMPDEST PUSH1 0x0 SWAP2 DUP3 MSTORE PUSH1 0x20 SWAP1 SWAP2 KECCAK256 ADD SSTORE DUP1 PUSH2 0x1413 DUP2 PUSH2 0x31BF JUMP JUMPDEST SWAP2 POP POP PUSH2 0x1386 JUMP JUMPDEST POP JUMPDEST DUP1 PUSH1 0x6 ADD PUSH1 0x0 DUP2 SLOAD DUP2 LT PUSH2 0x1433 JUMPI PUSH2 0x1433 PUSH2 0x30A8 JUMP JUMPDEST PUSH1 0x0 SWAP2 DUP3 MSTORE PUSH1 0x20 DUP3 KECCAK256 ADD SLOAD PUSH1 0x7 DUP4 ADD SSTORE PUSH1 0x2 DUP3 ADD DUP1 SLOAD PUSH1 0x1 PUSH1 0x1 PUSH1 0xA0 SHL SUB NOT AND CALLER OR SWAP1 SSTORE PUSH1 0x1 SWAP1 PUSH1 0xB DUP4 ADD SWAP1 JUMPDEST PUSH1 0x20 DUP2 DIV SWAP1 SWAP2 ADD DUP1 SLOAD SWAP3 ISZERO ISZERO PUSH1 0x1F SWAP1 SWAP3 AND PUSH2 0x100 EXP SWAP2 DUP3 MUL PUSH1 0xFF SWAP1 SWAP3 MUL NOT SWAP1 SWAP3 AND OR SWAP1 SSTORE POP POP PUSH1 0x0 DUP1 SLOAD PUSH1 0xFF NOT AND PUSH1 0x1 OR SWAP1 SSTORE JUMP JUMPDEST PUSH1 0x0 SLOAD PUSH1 0xFF AND PUSH2 0x14B7 JUMPI PUSH1 0x40 MLOAD PUSH3 0x461BCD PUSH1 0xE5 SHL DUP2 MSTORE PUSH1 0x4 ADD PUSH2 0x712 SWAP1 PUSH2 0x3071 JUMP JUMPDEST PUSH1 0x0 DUP1 SLOAD PUSH1 0xFF NOT AND DUP2 SSTORE CALLER DUP2 MSTORE PUSH1 0xC PUSH1 0x20 MSTORE PUSH1 0x40 SWAP1 KECCAK256 PUSH1 0x8 SLOAD DUP4 LT PUSH2 0x14EE JUMPI PUSH1 0x40 MLOAD PUSH3 0x461BCD PUSH1 0xE5 SHL DUP2 MSTORE PUSH1 0x4 ADD PUSH2 0x712 SWAP1 PUSH2 0x31D8 JUMP JUMPDEST PUSH1 0x0 DUP4 DUP2 MSTORE PUSH1 0xD PUSH1 0x20 MSTORE PUSH1 0x40 SWAP1 KECCAK256 PUSH1 0xB DUP2 ADD SLOAD PUSH1 0xFF AND ISZERO ISZERO PUSH1 0x1 EQ PUSH2 0x1555 JUMPI PUSH1 0x40 MLOAD PUSH3 0x461BCD PUSH1 0xE5 SHL DUP2 MSTORE PUSH1 0x20 PUSH1 0x4 DUP3 ADD MSTORE PUSH1 0x19 PUSH1 0x24 DUP3 ADD MSTORE PUSH32 0x70726F706F73616C20646F6573206E6F742073706F6E736F7200000000000000 PUSH1 0x44 DUP3 ADD MSTORE PUSH1 0x64 ADD PUSH2 0x712 JUMP JUMPDEST PUSH1 0x3 DUP4 PUSH1 0xFF AND LT PUSH2 0x159E JUMPI PUSH1 0x40 MLOAD PUSH3 0x461BCD PUSH1 0xE5 SHL DUP2 MSTORE PUSH1 0x20 PUSH1 0x4 DUP3 ADD MSTORE PUSH1 0x13 PUSH1 0x24 DUP3 ADD MSTORE PUSH19 0x6D757374206265206C657373207468616E2033 PUSH1 0x68 SHL PUSH1 0x44 DUP3 ADD MSTORE PUSH1 0x64 ADD PUSH2 0x712 JUMP JUMPDEST PUSH1 0x0 DUP4 PUSH1 0xFF AND PUSH1 0x2 DUP2 GT ISZERO PUSH2 0x15B5 JUMPI PUSH2 0x15B5 PUSH2 0x2C59 JUMP JUMPDEST SWAP1 POP DUP2 PUSH1 0x7 ADD SLOAD PUSH2 0x15C4 PUSH2 0x74C JUMP JUMPDEST LT ISZERO PUSH2 0x1612 JUMPI PUSH1 0x40 MLOAD PUSH3 0x461BCD PUSH1 0xE5 SHL DUP2 MSTORE PUSH1 0x20 PUSH1 0x4 DUP3 ADD MSTORE PUSH1 0x1D PUSH1 0x24 DUP3 ADD MSTORE PUSH32 0x766F74696E6720706572696F6420686173206E6F742073746172746564000000 PUSH1 0x44 DUP3 ADD MSTORE PUSH1 0x64 ADD PUSH2 0x712 JUMP JUMPDEST PUSH2 0x161F DUP3 PUSH1 0x7 ADD SLOAD PUSH2 0xFEA JUMP JUMPDEST ISZERO PUSH2 0x1677 JUMPI PUSH1 0x40 MLOAD PUSH3 0x461BCD PUSH1 0xE5 SHL DUP2 MSTORE PUSH1 0x20 PUSH1 0x4 DUP3 ADD MSTORE PUSH1 0x22 PUSH1 0x24 DUP3 ADD MSTORE PUSH32 0x70726F706F73616C20766F74696E6720706572696F6420686173206578706972 PUSH1 0x44 DUP3 ADD MSTORE PUSH2 0x1959 PUSH1 0xF2 SHL PUSH1 0x64 DUP3 ADD MSTORE PUSH1 0x84 ADD PUSH2 0x712 JUMP JUMPDEST CALLER PUSH1 0x0 SWAP1 DUP2 MSTORE PUSH1 0xE DUP4 ADD PUSH1 0x20 MSTORE PUSH1 0x40 DUP2 KECCAK256 SLOAD PUSH1 0xFF AND PUSH1 0x2 DUP2 GT ISZERO PUSH2 0x169D JUMPI PUSH2 0x169D PUSH2 0x2C59 JUMP JUMPDEST EQ PUSH2 0x16EA JUMPI PUSH1 0x40 MLOAD PUSH3 0x461BCD PUSH1 0xE5 SHL DUP2 MSTORE PUSH1 0x20 PUSH1 0x4 DUP3 ADD MSTORE PUSH1 0x18 PUSH1 0x24 DUP3 ADD MSTORE PUSH32 0x6D656D6265722068617320616C726561647920766F7465640000000000000000 PUSH1 0x44 DUP3 ADD MSTORE PUSH1 0x64 ADD PUSH2 0x712 JUMP JUMPDEST PUSH1 0x1 DUP2 PUSH1 0x2 DUP2 GT ISZERO PUSH2 0x16FE JUMPI PUSH2 0x16FE PUSH2 0x2C59 JUMP JUMPDEST EQ DUP1 PUSH2 0x171B JUMPI POP PUSH1 0x2 DUP2 PUSH1 0x2 DUP2 GT ISZERO PUSH2 0x1719 JUMPI PUSH2 0x1719 PUSH2 0x2C59 JUMP JUMPDEST EQ JUMPDEST PUSH2 0x1767 JUMPI PUSH1 0x40 MLOAD PUSH3 0x461BCD PUSH1 0xE5 SHL DUP2 MSTORE PUSH1 0x20 PUSH1 0x4 DUP3 ADD MSTORE PUSH1 0x1D PUSH1 0x24 DUP3 ADD MSTORE PUSH32 0x766F7465206D7573742062652065697468657220596573206F72204E6F000000 PUSH1 0x44 DUP3 ADD MSTORE PUSH1 0x64 ADD PUSH2 0x712 JUMP JUMPDEST CALLER PUSH1 0x0 SWAP1 DUP2 MSTORE PUSH1 0xE DUP4 ADD PUSH1 0x20 MSTORE PUSH1 0x40 SWAP1 KECCAK256 DUP1 SLOAD DUP3 SWAP2 SWAP1 PUSH1 0xFF NOT AND PUSH1 0x1 DUP4 PUSH1 0x2 DUP2 GT ISZERO PUSH2 0x1795 JUMPI PUSH2 0x1795 PUSH2 0x2C59 JUMP JUMPDEST MUL OR SWAP1 SSTORE POP PUSH1 0x1 DUP2 PUSH1 0x2 DUP2 GT ISZERO PUSH2 0x17AE JUMPI PUSH2 0x17AE PUSH2 0x2C59 JUMP JUMPDEST SUB PUSH2 0x17E8 JUMPI DUP3 SLOAD PUSH1 0x9 DUP4 ADD SLOAD PUSH2 0x17C4 SWAP2 SWAP1 PUSH2 0x30BE JUMP JUMPDEST DUP3 PUSH1 0x9 ADD DUP2 SWAP1 SSTORE POP DUP2 PUSH1 0xD ADD SLOAD PUSH1 0x9 SLOAD GT ISZERO PUSH2 0x17E3 JUMPI PUSH1 0x9 SLOAD PUSH1 0xD DUP4 ADD SSTORE JUMPDEST PUSH2 0x1818 JUMP JUMPDEST PUSH1 0x2 DUP2 PUSH1 0x2 DUP2 GT ISZERO PUSH2 0x17FC JUMPI PUSH2 0x17FC PUSH2 0x2C59 JUMP JUMPDEST SUB PUSH2 0x1818 JUMPI DUP3 SLOAD PUSH1 0xA DUP4 ADD SLOAD PUSH2 0x1812 SWAP2 SWAP1 PUSH2 0x30BE JUMP JUMPDEST PUSH1 0xA DUP4 ADD SSTORE JUMPDEST POP POP PUSH1 0x0 DUP1 SLOAD PUSH1 0xFF NOT AND PUSH1 0x1 OR SWAP1 SSTORE POP POP POP JUMP JUMPDEST PUSH2 0x1834 PUSH2 0x2A03 JUMP JUMPDEST PUSH1 0x0 DUP3 DUP2 MSTORE PUSH1 0xD PUSH1 0x20 MSTORE PUSH1 0x40 DUP1 DUP3 KECCAK256 DUP2 MLOAD PUSH1 0xC0 DUP2 ADD SWAP3 DUP4 SWAP1 MSTORE SWAP3 PUSH1 0xB SWAP1 SWAP2 ADD SWAP2 PUSH1 0x6 SWAP2 DUP4 SWAP1 DUP6 JUMPDEST DUP3 SLOAD PUSH2 0x100 DUP4 SWAP1 EXP SWAP1 DIV PUSH1 0xFF AND ISZERO ISZERO DUP2 MSTORE PUSH1 0x20 PUSH1 0x1 SWAP3 DUP4 ADD DUP2 DUP2 DIV SWAP5 DUP6 ADD SWAP5 SWAP1 SWAP4 SUB SWAP1 SWAP3 MUL SWAP2 ADD DUP1 DUP5 GT PUSH2 0x185B JUMPI POP SWAP5 SWAP8 SWAP7 POP POP POP POP POP POP POP JUMP JUMPDEST PUSH1 0x0 SLOAD PUSH1 0xFF AND PUSH2 0x18B8 JUMPI PUSH1 0x40 MLOAD PUSH3 0x461BCD PUSH1 0xE5 SHL DUP2 MSTORE PUSH1 0x4 ADD PUSH2 0x712 SWAP1 PUSH2 0x3071 JUMP JUMPDEST PUSH1 0x0 DUP1 SLOAD PUSH1 0xFF NOT AND SWAP1 SSTORE PUSH2 0x18CB DUP2 PUSH2 0x2276 JUMP JUMPDEST POP PUSH1 0x0 DUP1 SLOAD PUSH1 0xFF NOT AND PUSH1 0x1 OR SWAP1 SSTORE JUMP JUMPDEST PUSH1 0x0 SLOAD PUSH1 0xFF AND PUSH2 0x18FD JUMPI PUSH1 0x40 MLOAD PUSH3 0x461BCD PUSH1 0xE5 SHL DUP2 MSTORE PUSH1 0x4 ADD PUSH2 0x712 SWAP1 PUSH2 0x3071 JUMP JUMPDEST PUSH1 0x0 DUP1 SLOAD PUSH1 0xFF NOT AND DUP2 SSTORE PUSH1 0x1 PUSH1 0x1 PUSH1 0xA0 SHL SUB DUP3 AND DUP2 MSTORE PUSH1 0xC PUSH1 0x20 MSTORE PUSH1 0x40 DUP2 KECCAK256 PUSH1 0x3 DUP2 ADD SLOAD SWAP1 SWAP2 PUSH1 0xFF SWAP1 SWAP2 AND ISZERO ISZERO SWAP1 SUB PUSH2 0x1971 JUMPI PUSH1 0x40 MLOAD PUSH3 0x461BCD PUSH1 0xE5 SHL DUP2 MSTORE PUSH1 0x20 PUSH1 0x4 DUP3 ADD MSTORE PUSH1 0x16 PUSH1 0x24 DUP3 ADD MSTORE PUSH22 0x1B595B58995C881B5D5CDD081899481A5B881A985A5B PUSH1 0x52 SHL PUSH1 0x44 DUP3 ADD MSTORE PUSH1 0x64 ADD PUSH2 0x712 JUMP JUMPDEST DUP1 SLOAD PUSH2 0x19BF JUMPI PUSH1 0x40 MLOAD PUSH3 0x461BCD PUSH1 0xE5 SHL DUP2 MSTORE PUSH1 0x20 PUSH1 0x4 DUP3 ADD MSTORE PUSH1 0x1B PUSH1 0x24 DUP3 ADD MSTORE PUSH32 0x6D656D626572206D757374206861766520736F6D652073686172650000000000 PUSH1 0x44 DUP3 ADD MSTORE PUSH1 0x64 ADD PUSH2 0x712 JUMP JUMPDEST PUSH2 0x982 DUP3 DUP3 PUSH1 0x0 ADD SLOAD PUSH1 0x0 PUSH1 0x1 PUSH2 0x1C9B JUMP JUMPDEST PUSH1 0x0 SLOAD PUSH1 0xFF AND PUSH2 0x19F3 JUMPI PUSH1 0x40 MLOAD PUSH3 0x461BCD PUSH1 0xE5 SHL DUP2 MSTORE PUSH1 0x4 ADD PUSH2 0x712 SWAP1 PUSH2 0x3071 JUMP JUMPDEST PUSH1 0x0 DUP1 SLOAD PUSH1 0xFF NOT AND DUP2 SSTORE DUP2 DUP2 MSTORE PUSH1 0xD PUSH1 0x20 MSTORE PUSH1 0x40 SWAP1 KECCAK256 PUSH1 0xB DUP2 ADD SLOAD PUSH1 0xFF AND ISZERO PUSH2 0x1A2E JUMPI PUSH1 0x40 MLOAD PUSH3 0x461BCD PUSH1 0xE5 SHL DUP2 MSTORE PUSH1 0x4 ADD PUSH2 0x712 SWAP1 PUSH2 0x317C JUMP JUMPDEST PUSH1 0xB DUP2 ADD SLOAD PUSH4 0x1000000 SWAP1 DIV PUSH1 0xFF AND ISZERO PUSH2 0x1A96 JUMPI PUSH1 0x40 MLOAD PUSH3 0x461BCD PUSH1 0xE5 SHL DUP2 MSTORE PUSH1 0x20 PUSH1 0x4 DUP3 ADD MSTORE PUSH1 0x23 PUSH1 0x24 DUP3 ADD MSTORE PUSH32 0x70726F706F73616C2068617320616C7265616479206265656E2063616E63656C PUSH1 0x44 DUP3 ADD MSTORE PUSH3 0x1B1959 PUSH1 0xEA SHL PUSH1 0x64 DUP3 ADD MSTORE PUSH1 0x84 ADD PUSH2 0x712 JUMP JUMPDEST PUSH1 0x1 DUP2 ADD SLOAD PUSH1 0x1 PUSH1 0x1 PUSH1 0xA0 SHL SUB AND CALLER EQ PUSH2 0x1AF2 JUMPI PUSH1 0x40 MLOAD PUSH3 0x461BCD PUSH1 0xE5 SHL DUP2 MSTORE PUSH1 0x20 PUSH1 0x4 DUP3 ADD MSTORE PUSH1 0x1E PUSH1 0x24 DUP3 ADD MSTORE PUSH32 0x736F6C656C79207468652070726F706F7365722063616E2063616E63656C0000 PUSH1 0x44 DUP3 ADD MSTORE PUSH1 0x64 ADD PUSH2 0x712 JUMP JUMPDEST PUSH1 0x1 PUSH1 0xB DUP3 ADD PUSH1 0x3 PUSH2 0x1460 JUMP JUMPDEST PUSH1 0x0 SLOAD PUSH1 0xFF AND PUSH2 0x1B21 JUMPI PUSH1 0x40 MLOAD PUSH3 0x461BCD PUSH1 0xE5 SHL DUP2 MSTORE PUSH1 0x4 ADD PUSH2 0x712 SWAP1 PUSH2 0x3071 JUMP JUMPDEST PUSH1 0x0 DUP1 SLOAD PUSH1 0xFF NOT AND SWAP1 SSTORE PUSH2 0x1B34 DUP2 PUSH2 0x23A2 JUMP JUMPDEST PUSH1 0x0 PUSH2 0x1B3F DUP3 PUSH2 0x2206 JUMP JUMPDEST PUSH1 0x0 DUP4 DUP2 MSTORE PUSH1 0xD PUSH1 0x20 MSTORE PUSH1 0x40 SWAP1 KECCAK256 PUSH1 0xB DUP2 ADD SLOAD SWAP2 SWAP3 POP SWAP1 PUSH5 0x100000000 SWAP1 DIV PUSH1 0xFF AND ISZERO ISZERO PUSH1 0x1 EQ PUSH2 0x1BAB JUMPI DUP1 PUSH1 0x5 ADD PUSH1 0x0 DUP2 SLOAD DUP2 LT PUSH2 0x1B80 JUMPI PUSH2 0x1B80 PUSH2 0x30A8 JUMP JUMPDEST SWAP1 PUSH1 0x0 MSTORE PUSH1 0x20 PUSH1 0x0 KECCAK256 ADD SLOAD PUSH1 0x0 SUB PUSH2 0x1BA1 JUMPI PUSH2 0x1B9C DUP4 DUP4 PUSH2 0x24BA JUMP JUMPDEST PUSH2 0xFD8 JUMP JUMPDEST PUSH2 0x1B9C DUP4 DUP4 PUSH2 0x2665 JUMP JUMPDEST PUSH2 0xFD8 DUP4 DUP4 PUSH2 0x27CC JUMP JUMPDEST PUSH1 0x8 SLOAD PUSH1 0x0 SWAP1 DUP2 MSTORE PUSH1 0xD PUSH1 0x20 SWAP1 DUP2 MSTORE PUSH1 0x40 SWAP1 SWAP2 KECCAK256 DUP1 SLOAD PUSH1 0x1 PUSH1 0x1 PUSH1 0xA0 SHL SUB DUP10 AND PUSH1 0x1 PUSH1 0x1 PUSH1 0xA0 SHL SUB NOT SWAP2 DUP3 AND OR DUP3 SSTORE PUSH1 0x1 DUP3 ADD DUP1 SLOAD SWAP1 SWAP2 AND CALLER OR SWAP1 SSTORE PUSH1 0x3 DUP2 ADD DUP8 SWAP1 SSTORE PUSH1 0x4 DUP2 ADD DUP7 SWAP1 SSTORE DUP5 MLOAD SWAP1 SWAP2 PUSH2 0x1C14 SWAP2 PUSH1 0x5 DUP5 ADD SWAP2 DUP8 ADD SWAP1 PUSH2 0x2A21 JUMP JUMPDEST POP PUSH1 0x40 DUP1 MLOAD PUSH1 0x20 DUP2 ADD SWAP1 SWAP2 MSTORE PUSH1 0x0 DUP2 MSTORE PUSH2 0x1C34 SWAP1 PUSH1 0x6 DUP4 ADD SWAP1 PUSH1 0x1 PUSH2 0x2A6C JUMP JUMPDEST POP PUSH1 0x0 PUSH1 0x7 DUP3 ADD DUP2 SWAP1 SSTORE PUSH1 0x8 DUP3 ADD DUP2 SWAP1 SSTORE PUSH1 0x9 DUP3 ADD DUP2 SWAP1 SSTORE PUSH1 0xA DUP3 ADD SSTORE PUSH2 0x1C60 PUSH1 0xB DUP3 ADD DUP4 PUSH1 0x6 PUSH2 0x2AAC JUMP JUMPDEST POP PUSH1 0xC DUP2 ADD PUSH2 0x1C6F DUP5 DUP3 PUSH2 0x325D JUMP JUMPDEST POP PUSH1 0x0 DUP2 PUSH1 0xD ADD DUP2 SWAP1 SSTORE POP PUSH1 0x1 PUSH1 0x8 PUSH1 0x0 DUP3 DUP3 SLOAD PUSH2 0x1C8D SWAP2 SWAP1 PUSH2 0x30BE JUMP JUMPDEST SWAP1 SWAP2 SSTORE POP POP POP POP POP POP POP POP POP JUMP JUMPDEST PUSH1 0x9 SLOAD PUSH1 0x1 PUSH1 0x1 PUSH1 0xA0 SHL SUB DUP6 AND PUSH1 0x0 SWAP1 DUP2 MSTORE PUSH1 0xC PUSH1 0x20 MSTORE PUSH1 0x40 SWAP1 KECCAK256 DUP1 SLOAD DUP6 GT ISZERO PUSH2 0x1CFD JUMPI PUSH1 0x40 MLOAD PUSH3 0x461BCD PUSH1 0xE5 SHL DUP2 MSTORE PUSH1 0x20 PUSH1 0x4 DUP3 ADD MSTORE PUSH1 0x13 PUSH1 0x24 DUP3 ADD MSTORE PUSH19 0x696E73756666696369656E7420736861726573 PUSH1 0x68 SHL PUSH1 0x44 DUP3 ADD MSTORE PUSH1 0x64 ADD PUSH2 0x712 JUMP JUMPDEST DUP3 PUSH2 0x1F62 JUMPI PUSH1 0x0 DUP5 DUP2 MSTORE PUSH1 0xD PUSH1 0x20 MSTORE PUSH1 0x40 SWAP1 KECCAK256 PUSH1 0xB ADD SLOAD PUSH6 0x10000000000 SWAP1 DIV PUSH1 0xFF AND PUSH2 0x1D6C JUMPI PUSH1 0x40 MLOAD PUSH3 0x461BCD PUSH1 0xE5 SHL DUP2 MSTORE PUSH1 0x20 PUSH1 0x4 DUP3 ADD MSTORE PUSH1 0x1D PUSH1 0x24 DUP3 ADD MSTORE PUSH32 0x70726F706F73616C206D7573742062652070726570726F636573736564000000 PUSH1 0x44 DUP3 ADD MSTORE PUSH1 0x64 ADD PUSH2 0x712 JUMP JUMPDEST PUSH1 0x3 SLOAD PUSH1 0x2 SLOAD PUSH1 0x0 DUP7 DUP2 MSTORE PUSH1 0xD PUSH1 0x20 MSTORE PUSH1 0x40 SWAP1 KECCAK256 PUSH1 0x7 ADD SLOAD PUSH2 0x1D8E SWAP2 SWAP1 PUSH2 0x30BE JUMP JUMPDEST PUSH2 0x1D98 SWAP2 SWAP1 PUSH2 0x30BE JUMP JUMPDEST PUSH2 0x1DA0 PUSH2 0x74C JUMP JUMPDEST LT PUSH2 0x1DED JUMPI PUSH1 0x40 MLOAD PUSH3 0x461BCD PUSH1 0xE5 SHL DUP2 MSTORE PUSH1 0x20 PUSH1 0x4 DUP3 ADD DUP2 SWAP1 MSTORE PUSH1 0x24 DUP3 ADD MSTORE PUSH32 0x70726F706F73616C206D75737420626520696E20677261636520706572696F64 PUSH1 0x44 DUP3 ADD MSTORE PUSH1 0x64 ADD PUSH2 0x712 JUMP JUMPDEST PUSH1 0x0 DUP5 DUP2 MSTORE PUSH1 0xD PUSH1 0x20 SWAP1 DUP2 MSTORE PUSH1 0x40 DUP1 DUP4 KECCAK256 PUSH1 0x1 PUSH1 0x1 PUSH1 0xA0 SHL SUB DUP11 AND DUP5 MSTORE PUSH1 0xE ADD SWAP1 SWAP2 MSTORE DUP2 KECCAK256 SLOAD PUSH1 0xFF AND PUSH1 0x2 DUP2 GT ISZERO PUSH2 0x1E27 JUMPI PUSH2 0x1E27 PUSH2 0x2C59 JUMP JUMPDEST SUB PUSH2 0x1E74 JUMPI PUSH1 0x40 MLOAD PUSH3 0x461BCD PUSH1 0xE5 SHL DUP2 MSTORE PUSH1 0x20 PUSH1 0x4 DUP3 ADD DUP2 SWAP1 MSTORE PUSH1 0x24 DUP3 ADD MSTORE PUSH32 0x6D656D626572206469646E277420766F7465206F6E20612070726F706F73616C PUSH1 0x44 DUP3 ADD MSTORE PUSH1 0x64 ADD PUSH2 0x712 JUMP JUMPDEST PUSH1 0x0 DUP5 DUP2 MSTORE PUSH1 0xD PUSH1 0x20 MSTORE PUSH1 0x40 SWAP1 KECCAK256 PUSH1 0xB ADD SLOAD PUSH3 0x10000 SWAP1 DIV PUSH1 0xFF AND PUSH2 0x1E9A JUMPI PUSH1 0x2 PUSH2 0x1E9D JUMP JUMPDEST PUSH1 0x1 JUMPDEST PUSH1 0xFF AND PUSH1 0x2 DUP2 GT ISZERO PUSH2 0x1EB1 JUMPI PUSH2 0x1EB1 PUSH2 0x2C59 JUMP JUMPDEST PUSH1 0x2 DUP2 GT ISZERO PUSH2 0x1EC2 JUMPI PUSH2 0x1EC2 PUSH2 0x2C59 JUMP JUMPDEST PUSH1 0x0 DUP6 DUP2 MSTORE PUSH1 0xD PUSH1 0x20 SWAP1 DUP2 MSTORE PUSH1 0x40 DUP1 DUP4 KECCAK256 PUSH1 0x1 PUSH1 0x1 PUSH1 0xA0 SHL SUB DUP12 AND DUP5 MSTORE PUSH1 0xE ADD SWAP1 SWAP2 MSTORE SWAP1 KECCAK256 SLOAD PUSH1 0xFF AND PUSH1 0x2 DUP2 GT ISZERO PUSH2 0x1EFC JUMPI PUSH2 0x1EFC PUSH2 0x2C59 JUMP JUMPDEST SUB PUSH2 0x1F62 JUMPI PUSH1 0x40 MLOAD PUSH3 0x461BCD PUSH1 0xE5 SHL DUP2 MSTORE PUSH1 0x20 PUSH1 0x4 DUP3 ADD MSTORE PUSH1 0x30 PUSH1 0x24 DUP3 ADD MSTORE PUSH32 0x6D656D6265722077686F20766F746564207468652073616D6520726573756C74 PUSH1 0x44 DUP3 ADD MSTORE PUSH16 0x818D85B9B9BDD081C9859D95C5D5A5D PUSH1 0x82 SHL PUSH1 0x64 DUP3 ADD MSTORE PUSH1 0x84 ADD PUSH2 0x712 JUMP JUMPDEST DUP1 SLOAD PUSH2 0x1F6F SWAP1 DUP7 SWAP1 PUSH2 0x303C JUMP JUMPDEST DUP2 SSTORE PUSH1 0x9 SLOAD PUSH2 0x1F7F SWAP1 DUP7 SWAP1 PUSH2 0x303C JUMP JUMPDEST PUSH1 0x9 SSTORE PUSH1 0x7 SLOAD PUSH1 0x1 PUSH1 0x1 PUSH1 0xA0 SHL SUB AND PUSH1 0x0 SWAP1 DUP2 MSTORE PUSH1 0x0 DUP1 MLOAD PUSH1 0x20 PUSH2 0x3335 DUP4 CODECOPY DUP2 MLOAD SWAP2 MSTORE PUSH1 0x20 MSTORE PUSH1 0x40 DUP2 KECCAK256 SLOAD PUSH2 0x1FB5 SWAP1 DUP8 DUP6 PUSH2 0x28E4 JUMP JUMPDEST SWAP1 POP DUP1 ISZERO PUSH2 0x2033 JUMPI PUSH1 0x7 SLOAD PUSH1 0x1 PUSH1 0x1 PUSH1 0xA0 SHL SUB AND PUSH1 0x0 SWAP1 DUP2 MSTORE PUSH1 0x0 DUP1 MLOAD PUSH1 0x20 PUSH2 0x3335 DUP4 CODECOPY DUP2 MLOAD SWAP2 MSTORE PUSH1 0x20 MSTORE PUSH1 0x40 DUP2 KECCAK256 DUP1 SLOAD DUP4 SWAP3 SWAP1 PUSH2 0x1FF4 SWAP1 DUP5 SWAP1 PUSH2 0x303C JUMP JUMPDEST SWAP1 SWAP2 SSTORE POP POP PUSH1 0x1 PUSH1 0x1 PUSH1 0xA0 SHL SUB DUP1 DUP9 AND PUSH1 0x0 SWAP1 DUP2 MSTORE PUSH1 0xA PUSH1 0x20 SWAP1 DUP2 MSTORE PUSH1 0x40 DUP1 DUP4 KECCAK256 PUSH1 0x7 SLOAD SWAP1 SWAP5 AND DUP4 MSTORE SWAP3 SWAP1 MSTORE SWAP1 DUP2 KECCAK256 DUP1 SLOAD DUP4 SWAP3 SWAP1 PUSH2 0x1C8D SWAP1 DUP5 SWAP1 PUSH2 0x30BE JUMP JUMPDEST POP POP POP POP POP POP POP JUMP JUMPDEST PUSH1 0x1 PUSH1 0x1 PUSH1 0xA0 SHL SUB DUP1 DUP4 AND PUSH1 0x0 SWAP1 DUP2 MSTORE PUSH1 0xA PUSH1 0x20 SWAP1 DUP2 MSTORE PUSH1 0x40 DUP1 DUP4 KECCAK256 PUSH1 0x7 SLOAD SWAP1 SWAP5 AND DUP4 MSTORE SWAP3 SWAP1 MSTORE SWAP1 DUP2 KECCAK256 DUP1 SLOAD DUP4 SWAP3 SWAP1 PUSH2 0x2076 SWAP1 DUP5 SWAP1 PUSH2 0x30BE JUMP JUMPDEST SWAP1 SWAP2 SSTORE POP POP PUSH1 0x7 SLOAD PUSH1 0x1 PUSH1 0x1 PUSH1 0xA0 SHL SUB AND PUSH1 0x0 SWAP1 DUP2 MSTORE PUSH32 0xED762DDB65DFEAB933EDA5256EB347E1BF2B4E76044BDC8BAF0A70D22DC0C374 PUSH1 0x20 MSTORE PUSH1 0x40 DUP2 KECCAK256 DUP1 SLOAD DUP4 SWAP3 SWAP1 PUSH2 0x20C4 SWAP1 DUP5 SWAP1 PUSH2 0x30BE JUMP JUMPDEST SWAP1 SWAP2 SSTORE POP POP POP POP JUMP JUMPDEST PUSH1 0x8 SLOAD DUP2 LT PUSH2 0x20EE JUMPI PUSH1 0x40 MLOAD PUSH3 0x461BCD PUSH1 0xE5 SHL DUP2 MSTORE PUSH1 0x4 ADD PUSH2 0x712 SWAP1 PUSH2 0x31D8 JUMP JUMPDEST PUSH1 0x0 DUP2 DUP2 MSTORE PUSH1 0xD PUSH1 0x20 MSTORE PUSH1 0x40 SWAP1 KECCAK256 PUSH1 0x2 SLOAD PUSH1 0x7 DUP3 ADD SLOAD PUSH2 0x210E SWAP2 SWAP1 PUSH2 0x30BE JUMP JUMPDEST PUSH2 0x2116 PUSH2 0x74C JUMP JUMPDEST LT ISZERO PUSH2 0x2175 JUMPI PUSH1 0x40 MLOAD PUSH3 0x461BCD PUSH1 0xE5 SHL DUP2 MSTORE PUSH1 0x20 PUSH1 0x4 DUP3 ADD MSTORE PUSH1 0x28 PUSH1 0x24 DUP3 ADD MSTORE PUSH32 0x70726F706F73616C206973206E6F7420726561647920746F2062652070726570 PUSH1 0x44 DUP3 ADD MSTORE PUSH8 0x1C9BD8D95CDCD959 PUSH1 0xC2 SHL PUSH1 0x64 DUP3 ADD MSTORE PUSH1 0x84 ADD PUSH2 0x712 JUMP JUMPDEST PUSH1 0xB DUP2 ADD SLOAD PUSH2 0x100 SWAP1 DIV PUSH1 0xFF AND ISZERO DUP1 ISZERO PUSH2 0x219D JUMPI POP PUSH1 0xB DUP2 ADD SLOAD PUSH6 0x10000000000 SWAP1 DIV PUSH1 0xFF AND ISZERO JUMPDEST PUSH2 0x2202 JUMPI PUSH1 0x40 MLOAD PUSH3 0x461BCD PUSH1 0xE5 SHL DUP2 MSTORE PUSH1 0x20 PUSH1 0x4 DUP3 ADD MSTORE PUSH1 0x30 PUSH1 0x24 DUP3 ADD MSTORE PUSH32 0x70726F706F73616C2068617320616C7265616479206265656E2070726570726F PUSH1 0x44 DUP3 ADD MSTORE PUSH16 0x18D95CDCD9590BDC1C9BD8D95CDCD959 PUSH1 0x82 SHL PUSH1 0x64 DUP3 ADD MSTORE PUSH1 0x84 ADD PUSH2 0x712 JUMP JUMPDEST POP POP JUMP JUMPDEST PUSH1 0x0 DUP2 DUP2 MSTORE PUSH1 0xD PUSH1 0x20 DUP2 SWAP1 MSTORE PUSH1 0x40 SWAP1 SWAP2 KECCAK256 PUSH1 0xA DUP2 ADD SLOAD PUSH1 0x9 DUP1 DUP4 ADD SLOAD SWAP4 DUP4 ADD SLOAD PUSH1 0x5 SLOAD SWAP2 SLOAD SWAP3 SWAP1 SWAP5 GT SWAP4 SWAP2 PUSH2 0x223B SWAP2 SWAP1 PUSH2 0x331D JUMP JUMPDEST LT ISZERO PUSH2 0x2246 JUMPI PUSH1 0x0 SWAP2 POP JUMPDEST DUP1 SLOAD PUSH1 0x1 PUSH1 0x1 PUSH1 0xA0 SHL SUB AND PUSH1 0x0 SWAP1 DUP2 MSTORE PUSH1 0xC PUSH1 0x20 MSTORE PUSH1 0x40 SWAP1 KECCAK256 PUSH1 0x3 ADD SLOAD PUSH1 0xFF AND ISZERO PUSH2 0x2270 JUMPI PUSH1 0x0 SWAP2 POP JUMPDEST POP SWAP2 SWAP1 POP JUMP JUMPDEST CALLER PUSH1 0x0 SWAP1 DUP2 MSTORE PUSH1 0xA PUSH1 0x20 SWAP1 DUP2 MSTORE PUSH1 0x40 DUP1 DUP4 KECCAK256 PUSH1 0x7 SLOAD PUSH1 0x1 PUSH1 0x1 PUSH1 0xA0 SHL SUB AND DUP5 MSTORE SWAP1 SWAP2 MSTORE SWAP1 KECCAK256 SLOAD DUP2 GT ISZERO PUSH2 0x22E2 JUMPI PUSH1 0x40 MLOAD PUSH3 0x461BCD PUSH1 0xE5 SHL DUP2 MSTORE PUSH1 0x20 PUSH1 0x4 DUP3 ADD MSTORE PUSH1 0x14 PUSH1 0x24 DUP3 ADD MSTORE PUSH20 0x696E73756666696369656E742062616C616E6365 PUSH1 0x60 SHL PUSH1 0x44 DUP3 ADD MSTORE PUSH1 0x64 ADD PUSH2 0x712 JUMP JUMPDEST PUSH2 0x22EC CALLER DUP3 PUSH2 0x2953 JUMP JUMPDEST PUSH1 0x7 SLOAD PUSH1 0x40 MLOAD PUSH4 0xA9059CBB PUSH1 0xE0 SHL DUP2 MSTORE CALLER PUSH1 0x4 DUP3 ADD MSTORE PUSH1 0x24 DUP2 ADD DUP4 SWAP1 MSTORE PUSH1 0x1 PUSH1 0x1 PUSH1 0xA0 SHL SUB SWAP1 SWAP2 AND SWAP1 PUSH4 0xA9059CBB SWAP1 PUSH1 0x44 ADD PUSH1 0x20 PUSH1 0x40 MLOAD DUP1 DUP4 SUB DUP2 PUSH1 0x0 DUP8 GAS CALL ISZERO DUP1 ISZERO PUSH2 0x233D JUMPI RETURNDATASIZE PUSH1 0x0 DUP1 RETURNDATACOPY RETURNDATASIZE PUSH1 0x0 REVERT JUMPDEST POP POP POP POP PUSH1 0x40 MLOAD RETURNDATASIZE PUSH1 0x1F NOT PUSH1 0x1F DUP3 ADD AND DUP3 ADD DUP1 PUSH1 0x40 MSTORE POP DUP2 ADD SWAP1 PUSH2 0x2361 SWAP2 SWAP1 PUSH2 0x315A JUMP JUMPDEST PUSH2 0x239F JUMPI PUSH1 0x40 MLOAD PUSH3 0x461BCD PUSH1 0xE5 SHL DUP2 MSTORE PUSH1 0x20 PUSH1 0x4 DUP3 ADD MSTORE PUSH1 0xF PUSH1 0x24 DUP3 ADD MSTORE PUSH15 0x1D1C985B9CD9995C8819985A5B1959 PUSH1 0x8A SHL PUSH1 0x44 DUP3 ADD MSTORE PUSH1 0x64 ADD PUSH2 0x712 JUMP JUMPDEST POP JUMP JUMPDEST PUSH1 0x8 SLOAD DUP2 LT PUSH2 0x23C3 JUMPI PUSH1 0x40 MLOAD PUSH3 0x461BCD PUSH1 0xE5 SHL DUP2 MSTORE PUSH1 0x4 ADD PUSH2 0x712 SWAP1 PUSH2 0x31D8 JUMP JUMPDEST PUSH1 0x0 DUP2 DUP2 MSTORE PUSH1 0xD PUSH1 0x20 MSTORE PUSH1 0x40 SWAP1 KECCAK256 PUSH1 0x3 SLOAD PUSH1 0x2 SLOAD PUSH1 0x7 DUP4 ADD SLOAD PUSH2 0x23E6 SWAP2 SWAP1 PUSH2 0x30BE JUMP JUMPDEST PUSH2 0x23F0 SWAP2 SWAP1 PUSH2 0x30BE JUMP JUMPDEST PUSH2 0x23F8 PUSH2 0x74C JUMP JUMPDEST LT ISZERO PUSH2 0x2454 JUMPI PUSH1 0x40 MLOAD PUSH3 0x461BCD PUSH1 0xE5 SHL DUP2 MSTORE PUSH1 0x20 PUSH1 0x4 DUP3 ADD MSTORE PUSH1 0x25 PUSH1 0x24 DUP3 ADD MSTORE PUSH32 0x70726F706F73616C206973206E6F7420726561647920746F2062652070726F63 PUSH1 0x44 DUP3 ADD MSTORE PUSH5 0x195CDCD959 PUSH1 0xDA SHL PUSH1 0x64 DUP3 ADD MSTORE PUSH1 0x84 ADD PUSH2 0x712 JUMP JUMPDEST PUSH1 0xB DUP2 ADD SLOAD PUSH2 0x100 SWAP1 DIV PUSH1 0xFF AND ISZERO PUSH2 0x2202 JUMPI PUSH1 0x40 MLOAD PUSH3 0x461BCD PUSH1 0xE5 SHL DUP2 MSTORE PUSH1 0x20 PUSH1 0x4 DUP3 ADD MSTORE PUSH1 0x23 PUSH1 0x24 DUP3 ADD MSTORE PUSH32 0x70726F706F73616C2068617320616C7265616479206265656E2070726F636573 PUSH1 0x44 DUP3 ADD MSTORE PUSH3 0x1CD959 PUSH1 0xEA SHL PUSH1 0x64 DUP3 ADD MSTORE PUSH1 0x84 ADD PUSH2 0x712 JUMP JUMPDEST PUSH1 0x0 DUP3 DUP2 MSTORE PUSH1 0xD PUSH1 0x20 MSTORE PUSH1 0x40 SWAP1 KECCAK256 PUSH1 0xB DUP2 ADD DUP1 SLOAD PUSH2 0xFF00 NOT AND PUSH2 0x100 OR SWAP1 SSTORE PUSH1 0x3 DUP2 ADD SLOAD PUSH1 0x9 SLOAD DUP4 SWAP2 PUSH8 0xDE0B6B3A7640000 SWAP2 PUSH2 0x24F7 SWAP2 SWAP1 PUSH2 0x30BE JUMP JUMPDEST GT ISZERO PUSH2 0x2501 JUMPI POP PUSH1 0x0 JUMPDEST DUP1 ISZERO PUSH2 0x2625 JUMPI PUSH1 0xB DUP3 ADD DUP1 SLOAD PUSH3 0xFF0000 NOT AND PUSH3 0x10000 OR SWAP1 SSTORE DUP2 SLOAD PUSH1 0x1 PUSH1 0x1 PUSH1 0xA0 SHL SUB AND PUSH1 0x0 SWAP1 DUP2 MSTORE PUSH1 0xC PUSH1 0x20 MSTORE PUSH1 0x40 SWAP1 KECCAK256 PUSH1 0x1 ADD SLOAD PUSH1 0xFF AND ISZERO PUSH2 0x2587 JUMPI PUSH1 0x3 DUP3 ADD SLOAD DUP3 SLOAD PUSH1 0x1 PUSH1 0x1 PUSH1 0xA0 SHL SUB AND PUSH1 0x0 SWAP1 DUP2 MSTORE PUSH1 0xC PUSH1 0x20 MSTORE PUSH1 0x40 SWAP1 KECCAK256 SLOAD PUSH2 0x2568 SWAP2 SWAP1 PUSH2 0x30BE JUMP JUMPDEST DUP3 SLOAD PUSH1 0x1 PUSH1 0x1 PUSH1 0xA0 SHL SUB AND PUSH1 0x0 SWAP1 DUP2 MSTORE PUSH1 0xC PUSH1 0x20 MSTORE PUSH1 0x40 SWAP1 KECCAK256 SSTORE PUSH2 0x25F5 JUMP JUMPDEST PUSH1 0x40 DUP1 MLOAD PUSH1 0x80 DUP2 ADD DUP3 MSTORE PUSH1 0x3 DUP1 DUP6 ADD SLOAD DUP3 MSTORE PUSH1 0x1 PUSH1 0x20 DUP1 DUP5 ADD DUP3 DUP2 MSTORE PUSH1 0x0 DUP6 DUP8 ADD DUP2 DUP2 MSTORE PUSH1 0x60 DUP8 ADD DUP3 DUP2 MSTORE DUP11 SLOAD PUSH1 0x1 PUSH1 0x1 PUSH1 0xA0 SHL SUB AND DUP4 MSTORE PUSH1 0xC SWAP1 SWAP5 MSTORE SWAP7 SWAP1 KECCAK256 SWAP5 MLOAD DUP6 SSTORE MLOAD SWAP2 DUP5 ADD DUP1 SLOAD SWAP3 ISZERO ISZERO PUSH1 0xFF NOT SWAP4 DUP5 AND OR SWAP1 SSTORE SWAP4 MLOAD PUSH1 0x2 DUP5 ADD SSTORE SWAP3 MLOAD SWAP2 ADD DUP1 SLOAD SWAP2 ISZERO ISZERO SWAP2 SWAP1 SWAP3 AND OR SWAP1 SSTORE JUMPDEST DUP2 PUSH1 0x3 ADD SLOAD PUSH1 0x9 SLOAD PUSH2 0x2607 SWAP2 SWAP1 PUSH2 0x30BE JUMP JUMPDEST PUSH1 0x9 DUP2 SWAP1 SSTORE POP PUSH2 0x2620 PUSH2 0xBEEF PUSH2 0xDEAD DUP5 PUSH1 0x4 ADD SLOAD PUSH2 0x29DB JUMP JUMPDEST PUSH2 0x2648 JUMP JUMPDEST PUSH1 0x1 DUP3 ADD SLOAD PUSH1 0x4 DUP4 ADD SLOAD PUSH2 0x2648 SWAP2 PUSH2 0xBEEF SWAP2 PUSH1 0x1 PUSH1 0x1 PUSH1 0xA0 SHL SUB SWAP1 SWAP2 AND SWAP1 PUSH2 0x29DB JUMP JUMPDEST PUSH1 0x2 DUP3 ADD SLOAD PUSH2 0x265F SWAP1 PUSH1 0x1 PUSH1 0x1 PUSH1 0xA0 SHL SUB AND PUSH2 0x29F4 JUMP JUMPDEST POP POP POP POP JUMP JUMPDEST PUSH1 0x0 DUP3 DUP2 MSTORE PUSH1 0xD PUSH1 0x20 SWAP1 DUP2 MSTORE PUSH1 0x40 DUP1 DUP4 KECCAK256 PUSH1 0xB DUP2 ADD DUP1 SLOAD PUSH2 0xFF00 NOT AND PUSH2 0x100 OR SWAP1 SSTORE PUSH1 0x7 SLOAD PUSH1 0x1 PUSH1 0x1 PUSH1 0xA0 SHL SUB AND DUP5 MSTORE PUSH1 0x0 DUP1 MLOAD PUSH1 0x20 PUSH2 0x3335 DUP4 CODECOPY DUP2 MLOAD SWAP2 MSTORE SWAP1 SWAP3 MSTORE SWAP1 SWAP2 KECCAK256 SLOAD PUSH1 0x8 DUP3 ADD SLOAD PUSH1 0x5 DUP4 ADD DUP1 SLOAD DUP6 SWAP4 SWAP3 SWAP1 DUP2 LT PUSH2 0x26C8 JUMPI PUSH2 0x26C8 PUSH2 0x30A8 JUMP JUMPDEST SWAP1 PUSH1 0x0 MSTORE PUSH1 0x20 PUSH1 0x0 KECCAK256 ADD SLOAD GT ISZERO PUSH2 0x26DD JUMPI POP PUSH1 0x0 JUMPDEST DUP1 ISZERO PUSH2 0x27A9 JUMPI PUSH1 0xB DUP3 ADD DUP1 SLOAD PUSH3 0xFF0000 NOT AND PUSH3 0x10000 OR SWAP1 SSTORE DUP2 SLOAD PUSH1 0x8 DUP4 ADD SLOAD PUSH1 0x5 DUP5 ADD DUP1 SLOAD PUSH2 0x2736 SWAP4 PUSH2 0xDEAD SWAP4 PUSH1 0x1 PUSH1 0x1 PUSH1 0xA0 SHL SUB SWAP1 SWAP2 AND SWAP3 SWAP2 DUP2 LT PUSH2 0x2726 JUMPI PUSH2 0x2726 PUSH2 0x30A8 JUMP JUMPDEST SWAP1 PUSH1 0x0 MSTORE PUSH1 0x20 PUSH1 0x0 KECCAK256 ADD SLOAD PUSH2 0x29DB JUMP JUMPDEST PUSH1 0x8 DUP3 ADD SLOAD PUSH2 0x2746 SWAP1 PUSH1 0x1 PUSH2 0x30BE JUMP JUMPDEST PUSH1 0x6 DUP4 ADD SLOAD GT ISZERO PUSH2 0x27A9 JUMPI PUSH1 0x1 DUP3 PUSH1 0x8 ADD PUSH1 0x0 DUP3 DUP3 SLOAD PUSH2 0x2766 SWAP2 SWAP1 PUSH2 0x30BE JUMP JUMPDEST SWAP3 POP POP DUP2 SWAP1 SSTORE POP DUP2 PUSH1 0x6 ADD DUP3 PUSH1 0x8 ADD SLOAD DUP2 SLOAD DUP2 LT PUSH2 0x2786 JUMPI PUSH2 0x2786 PUSH2 0x30A8 JUMP JUMPDEST PUSH1 0x0 SWAP2 DUP3 MSTORE PUSH1 0x20 SWAP1 SWAP2 KECCAK256 ADD SLOAD PUSH1 0x7 DUP4 ADD SSTORE PUSH1 0xB DUP3 ADD DUP1 SLOAD PUSH6 0xFF000000FF00 NOT AND SWAP1 SSTORE JUMPDEST DUP2 PUSH1 0x8 ADD SLOAD PUSH1 0x0 SUB PUSH2 0x265F JUMPI PUSH1 0x2 DUP3 ADD SLOAD PUSH2 0x265F SWAP1 PUSH1 0x1 PUSH1 0x1 PUSH1 0xA0 SHL SUB AND PUSH2 0x29F4 JUMP JUMPDEST PUSH1 0x0 DUP3 DUP2 MSTORE PUSH1 0xD PUSH1 0x20 MSTORE PUSH1 0x40 SWAP1 KECCAK256 PUSH1 0xB DUP2 ADD SLOAD DUP3 SWAP1 PUSH5 0x100000000 SWAP1 DIV PUSH1 0xFF AND PUSH2 0x2838 JUMPI PUSH1 0x40 MLOAD PUSH3 0x461BCD PUSH1 0xE5 SHL DUP2 MSTORE PUSH1 0x20 PUSH1 0x4 DUP3 ADD MSTORE PUSH1 0x1D PUSH1 0x24 DUP3 ADD MSTORE PUSH32 0x6D7573742062652061206775696C64206B69636B2070726F706F73616C000000 PUSH1 0x44 DUP3 ADD MSTORE PUSH1 0x64 ADD PUSH2 0x712 JUMP JUMPDEST PUSH1 0xB DUP3 ADD DUP1 SLOAD PUSH2 0xFF00 NOT AND PUSH2 0x100 OR SWAP1 SSTORE DUP1 ISZERO PUSH2 0x28B2 JUMPI PUSH1 0xB DUP3 ADD DUP1 SLOAD PUSH3 0xFF0000 NOT AND PUSH3 0x10000 OR SWAP1 SSTORE DUP2 SLOAD PUSH1 0x1 PUSH1 0x1 PUSH1 0xA0 SHL SUB AND PUSH1 0x0 SWAP1 DUP2 MSTORE PUSH1 0xC PUSH1 0x20 SWAP1 DUP2 MSTORE PUSH1 0x40 SWAP2 DUP3 SWAP1 KECCAK256 DUP3 MLOAD PUSH1 0x80 DUP2 ADD DUP5 MSTORE DUP2 SLOAD DUP2 MSTORE PUSH1 0x1 DUP3 DUP2 ADD SLOAD PUSH1 0xFF AND ISZERO ISZERO SWAP4 DUP3 ADD SWAP4 SWAP1 SWAP4 MSTORE PUSH1 0x2 SWAP2 SWAP1 SWAP2 ADD SLOAD SWAP3 DUP2 ADD SWAP3 SWAP1 SWAP3 MSTORE PUSH1 0x60 SWAP1 SWAP2 ADD MSTORE JUMPDEST DUP2 SLOAD PUSH1 0x1 PUSH1 0x1 PUSH1 0xA0 SHL SUB SWAP1 DUP2 AND PUSH1 0x0 SWAP1 DUP2 MSTORE PUSH1 0xB PUSH1 0x20 MSTORE PUSH1 0x40 SWAP1 KECCAK256 DUP1 SLOAD PUSH1 0xFF NOT AND SWAP1 SSTORE PUSH1 0x2 DUP4 ADD SLOAD PUSH2 0x265F SWAP2 AND PUSH2 0x29F4 JUMP JUMPDEST PUSH1 0x0 DUP2 PUSH1 0x0 SUB PUSH2 0x28F3 JUMPI PUSH1 0x0 DUP1 REVERT JUMPDEST DUP4 PUSH1 0x0 SUB PUSH2 0x2903 JUMPI POP PUSH1 0x0 PUSH2 0x294C JUMP JUMPDEST PUSH1 0x0 PUSH2 0x290F DUP5 DUP7 PUSH2 0x331D JUMP JUMPDEST SWAP1 POP DUP4 PUSH2 0x291C DUP7 DUP4 PUSH2 0x304F JUMP JUMPDEST SUB PUSH2 0x2933 JUMPI PUSH2 0x292B DUP4 DUP3 PUSH2 0x304F JUMP JUMPDEST SWAP2 POP POP PUSH2 0x294C JUMP JUMPDEST DUP4 PUSH2 0x293E DUP5 DUP8 PUSH2 0x304F JUMP JUMPDEST PUSH2 0x2948 SWAP2 SWAP1 PUSH2 0x331D JUMP JUMPDEST SWAP2 POP POP JUMPDEST SWAP4 SWAP3 POP POP POP JUMP JUMPDEST PUSH1 0x1 PUSH1 0x1 PUSH1 0xA0 SHL SUB DUP1 DUP4 AND PUSH1 0x0 SWAP1 DUP2 MSTORE PUSH1 0xA PUSH1 0x20 SWAP1 DUP2 MSTORE PUSH1 0x40 DUP1 DUP4 KECCAK256 PUSH1 0x7 SLOAD SWAP1 SWAP5 AND DUP4 MSTORE SWAP3 SWAP1 MSTORE SWAP1 DUP2 KECCAK256 DUP1 SLOAD DUP4 SWAP3 SWAP1 PUSH2 0x298D SWAP1 DUP5 SWAP1 PUSH2 0x303C JUMP JUMPDEST SWAP1 SWAP2 SSTORE POP POP PUSH1 0x7 SLOAD PUSH1 0x1 PUSH1 0x1 PUSH1 0xA0 SHL SUB AND PUSH1 0x0 SWAP1 DUP2 MSTORE PUSH32 0xED762DDB65DFEAB933EDA5256EB347E1BF2B4E76044BDC8BAF0A70D22DC0C374 PUSH1 0x20 MSTORE PUSH1 0x40 DUP2 KECCAK256 DUP1 SLOAD DUP4 SWAP3 SWAP1 PUSH2 0x20C4 SWAP1 DUP5 SWAP1 PUSH2 0x303C JUMP JUMPDEST PUSH2 0x29E5 DUP4 DUP3 PUSH2 0x2953 JUMP JUMPDEST PUSH2 0x29EF DUP3 DUP3 PUSH2 0x203C JUMP JUMPDEST POP POP POP JUMP JUMPDEST PUSH2 0x239F PUSH2 0xBEEF DUP3 PUSH1 0x4 SLOAD PUSH2 0x29DB JUMP JUMPDEST PUSH1 0x40 MLOAD DUP1 PUSH1 0xC0 ADD PUSH1 0x40 MSTORE DUP1 PUSH1 0x6 SWAP1 PUSH1 0x20 DUP3 MUL DUP1 CALLDATASIZE DUP4 CALLDATACOPY POP SWAP2 SWAP3 SWAP2 POP POP JUMP JUMPDEST DUP3 DUP1 SLOAD DUP3 DUP3 SSTORE SWAP1 PUSH1 0x0 MSTORE PUSH1 0x20 PUSH1 0x0 KECCAK256 SWAP1 DUP2 ADD SWAP3 DUP3 ISZERO PUSH2 0x2A5C JUMPI SWAP2 PUSH1 0x20 MUL DUP3 ADD JUMPDEST DUP3 DUP2 GT ISZERO PUSH2 0x2A5C JUMPI DUP3 MLOAD DUP3 SSTORE SWAP2 PUSH1 0x20 ADD SWAP2 SWAP1 PUSH1 0x1 ADD SWAP1 PUSH2 0x2A41 JUMP JUMPDEST POP PUSH2 0x2A68 SWAP3 SWAP2 POP PUSH2 0x2B35 JUMP JUMPDEST POP SWAP1 JUMP JUMPDEST DUP3 DUP1 SLOAD DUP3 DUP3 SSTORE SWAP1 PUSH1 0x0 MSTORE PUSH1 0x20 PUSH1 0x0 KECCAK256 SWAP1 DUP2 ADD SWAP3 DUP3 ISZERO PUSH2 0x2A5C JUMPI SWAP2 PUSH1 0x20 MUL DUP3 ADD JUMPDEST DUP3 DUP2 GT ISZERO PUSH2 0x2A5C JUMPI DUP3 MLOAD DUP3 SWAP1 PUSH1 0xFF AND SWAP1 SSTORE SWAP2 PUSH1 0x20 ADD SWAP2 SWAP1 PUSH1 0x1 ADD SWAP1 PUSH2 0x2A8C JUMP JUMPDEST PUSH1 0x1 DUP4 ADD SWAP2 DUP4 SWAP1 DUP3 ISZERO PUSH2 0x2A5C JUMPI SWAP2 PUSH1 0x20 MUL DUP3 ADD PUSH1 0x0 JUMPDEST DUP4 DUP3 GT ISZERO PUSH2 0x2AFF JUMPI DUP4 MLOAD DUP4 DUP3 PUSH2 0x100 EXP DUP2 SLOAD DUP2 PUSH1 0xFF MUL NOT AND SWAP1 DUP4 ISZERO ISZERO MUL OR SWAP1 SSTORE POP SWAP3 PUSH1 0x20 ADD SWAP3 PUSH1 0x1 ADD PUSH1 0x20 DUP2 PUSH1 0x0 ADD DIV SWAP3 DUP4 ADD SWAP3 PUSH1 0x1 SUB MUL PUSH2 0x2AC2 JUMP JUMPDEST DUP1 ISZERO PUSH2 0x2B2C JUMPI DUP3 DUP2 PUSH2 0x100 EXP DUP2 SLOAD SWAP1 PUSH1 0xFF MUL NOT AND SWAP1 SSTORE PUSH1 0x1 ADD PUSH1 0x20 DUP2 PUSH1 0x0 ADD DIV SWAP3 DUP4 ADD SWAP3 PUSH1 0x1 SUB MUL PUSH2 0x2AFF JUMP JUMPDEST POP POP PUSH2 0x2A68 SWAP3 SWAP2 POP JUMPDEST JUMPDEST DUP1 DUP3 GT ISZERO PUSH2 0x2A68 JUMPI PUSH1 0x0 DUP2 SSTORE PUSH1 0x1 ADD PUSH2 0x2B36 JUMP JUMPDEST PUSH1 0x0 PUSH1 0x20 DUP3 DUP5 SUB SLT ISZERO PUSH2 0x2B5C JUMPI PUSH1 0x0 DUP1 REVERT JUMPDEST POP CALLDATALOAD SWAP2 SWAP1 POP JUMP JUMPDEST PUSH1 0x0 PUSH2 0x160 PUSH1 0x1 DUP1 PUSH1 0xA0 SHL SUB DUP1 DUP16 AND DUP5 MSTORE PUSH1 0x20 DUP2 DUP16 AND DUP2 DUP7 ADD MSTORE DUP2 DUP15 AND PUSH1 0x40 DUP7 ADD MSTORE DUP13 PUSH1 0x60 DUP7 ADD MSTORE DUP12 PUSH1 0x80 DUP7 ADD MSTORE DUP11 PUSH1 0xA0 DUP7 ADD MSTORE DUP10 PUSH1 0xC0 DUP7 ADD MSTORE DUP9 PUSH1 0xE0 DUP7 ADD MSTORE DUP8 PUSH2 0x100 DUP7 ADD MSTORE DUP3 PUSH2 0x120 DUP7 ADD MSTORE DUP7 MLOAD SWAP2 POP DUP2 DUP4 DUP7 ADD MSTORE PUSH1 0x0 SWAP3 POP JUMPDEST DUP2 DUP4 LT ISZERO PUSH2 0x2BDE JUMPI DUP7 DUP4 ADD DUP2 ADD MLOAD DUP6 DUP5 ADD PUSH2 0x180 ADD MSTORE SWAP2 DUP3 ADD SWAP2 PUSH2 0x2BBF JUMP JUMPDEST POP PUSH2 0x180 SWAP2 POP PUSH1 0x0 DUP3 DUP3 DUP7 ADD ADD MSTORE DUP2 PUSH1 0x1F NOT PUSH1 0x1F DUP4 ADD AND DUP6 ADD ADD SWAP3 POP POP POP DUP3 PUSH2 0x140 DUP4 ADD MSTORE SWAP13 SWAP12 POP POP POP POP POP POP POP POP POP POP POP POP JUMP JUMPDEST DUP1 CALLDATALOAD PUSH1 0x1 PUSH1 0x1 PUSH1 0xA0 SHL SUB DUP2 AND DUP2 EQ PUSH2 0x2C2A JUMPI PUSH1 0x0 DUP1 REVERT JUMPDEST SWAP2 SWAP1 POP JUMP JUMPDEST PUSH1 0x0 DUP1 PUSH1 0x40 DUP4 DUP6 SUB SLT ISZERO PUSH2 0x2C42 JUMPI PUSH1 0x0 DUP1 REVERT JUMPDEST PUSH2 0x2C4B DUP4 PUSH2 0x2C13 JUMP JUMPDEST SWAP5 PUSH1 0x20 SWAP4 SWAP1 SWAP4 ADD CALLDATALOAD SWAP4 POP POP POP JUMP JUMPDEST PUSH4 0x4E487B71 PUSH1 0xE0 SHL PUSH1 0x0 MSTORE PUSH1 0x21 PUSH1 0x4 MSTORE PUSH1 0x24 PUSH1 0x0 REVERT JUMPDEST PUSH1 0x20 DUP2 ADD PUSH1 0x3 DUP4 LT PUSH2 0x2C91 JUMPI PUSH4 0x4E487B71 PUSH1 0xE0 SHL PUSH1 0x0 MSTORE PUSH1 0x21 PUSH1 0x4 MSTORE PUSH1 0x24 PUSH1 0x0 REVERT JUMPDEST SWAP2 SWAP1 MSTORE SWAP1 JUMP JUMPDEST PUSH1 0x0 PUSH1 0x20 DUP3 DUP5 SUB SLT ISZERO PUSH2 0x2CA9 JUMPI PUSH1 0x0 DUP1 REVERT JUMPDEST PUSH2 0x294C DUP3 PUSH2 0x2C13 JUMP JUMPDEST PUSH4 0x4E487B71 PUSH1 0xE0 SHL PUSH1 0x0 MSTORE PUSH1 0x41 PUSH1 0x4 MSTORE PUSH1 0x24 PUSH1 0x0 REVERT JUMPDEST PUSH1 0x40 MLOAD PUSH1 0x1F DUP3 ADD PUSH1 0x1F NOT AND DUP2 ADD PUSH8 0xFFFFFFFFFFFFFFFF DUP2 GT DUP3 DUP3 LT OR ISZERO PUSH2 0x2CF1 JUMPI PUSH2 0x2CF1 PUSH2 0x2CB2 JUMP JUMPDEST PUSH1 0x40 MSTORE SWAP2 SWAP1 POP JUMP JUMPDEST PUSH1 0x0 DUP3 PUSH1 0x1F DUP4 ADD SLT PUSH2 0x2D0A JUMPI PUSH1 0x0 DUP1 REVERT JUMPDEST DUP2 CALLDATALOAD PUSH8 0xFFFFFFFFFFFFFFFF DUP2 GT ISZERO PUSH2 0x2D24 JUMPI PUSH2 0x2D24 PUSH2 0x2CB2 JUMP JUMPDEST PUSH2 0x2D37 PUSH1 0x1F DUP3 ADD PUSH1 0x1F NOT AND PUSH1 0x20 ADD PUSH2 0x2CC8 JUMP JUMPDEST DUP2 DUP2 MSTORE DUP5 PUSH1 0x20 DUP4 DUP7 ADD ADD GT ISZERO PUSH2 0x2D4C JUMPI PUSH1 0x0 DUP1 REVERT JUMPDEST DUP2 PUSH1 0x20 DUP6 ADD PUSH1 0x20 DUP4 ADD CALLDATACOPY PUSH1 0x0 SWAP2 DUP2 ADD PUSH1 0x20 ADD SWAP2 SWAP1 SWAP2 MSTORE SWAP4 SWAP3 POP POP POP JUMP JUMPDEST PUSH1 0x0 DUP1 PUSH1 0x40 DUP4 DUP6 SUB SLT ISZERO PUSH2 0x2D7C JUMPI PUSH1 0x0 DUP1 REVERT JUMPDEST PUSH2 0x2D85 DUP4 PUSH2 0x2C13 JUMP JUMPDEST SWAP2 POP PUSH1 0x20 DUP4 ADD CALLDATALOAD PUSH8 0xFFFFFFFFFFFFFFFF DUP2 GT ISZERO PUSH2 0x2DA1 JUMPI PUSH1 0x0 DUP1 REVERT JUMPDEST PUSH2 0x2DAD DUP6 DUP3 DUP7 ADD PUSH2 0x2CF9 JUMP JUMPDEST SWAP2 POP POP SWAP3 POP SWAP3 SWAP1 POP JUMP JUMPDEST PUSH1 0x0 DUP1 PUSH1 0x40 DUP4 DUP6 SUB SLT ISZERO PUSH2 0x2DCA JUMPI PUSH1 0x0 DUP1 REVERT JUMPDEST POP POP DUP1 CALLDATALOAD SWAP3 PUSH1 0x20 SWAP1 SWAP2 ADD CALLDATALOAD SWAP2 POP JUMP JUMPDEST PUSH1 0x0 DUP1 PUSH1 0x40 DUP4 DUP6 SUB SLT ISZERO PUSH2 0x2DEC JUMPI PUSH1 0x0 DUP1 REVERT JUMPDEST PUSH2 0x2DF5 DUP4 PUSH2 0x2C13 JUMP JUMPDEST SWAP2 POP PUSH2 0x2E03 PUSH1 0x20 DUP5 ADD PUSH2 0x2C13 JUMP JUMPDEST SWAP1 POP SWAP3 POP SWAP3 SWAP1 POP JUMP JUMPDEST PUSH1 0x0 DUP1 PUSH1 0x0 DUP1 PUSH1 0x80 DUP6 DUP8 SUB SLT ISZERO PUSH2 0x2E22 JUMPI PUSH1 0x0 DUP1 REVERT JUMPDEST PUSH2 0x2E2B DUP6 PUSH2 0x2C13 JUMP JUMPDEST SWAP4 POP PUSH1 0x20 DUP6 ADD CALLDATALOAD SWAP3 POP PUSH1 0x40 DUP6 ADD CALLDATALOAD SWAP2 POP PUSH1 0x60 DUP6 ADD CALLDATALOAD PUSH8 0xFFFFFFFFFFFFFFFF DUP2 GT ISZERO PUSH2 0x2E55 JUMPI PUSH1 0x0 DUP1 REVERT JUMPDEST PUSH2 0x2E61 DUP8 DUP3 DUP9 ADD PUSH2 0x2CF9 JUMP JUMPDEST SWAP2 POP POP SWAP3 SWAP6 SWAP2 SWAP5 POP SWAP3 POP JUMP JUMPDEST PUSH1 0x0 DUP1 PUSH1 0x0 DUP1 PUSH1 0x80 DUP6 DUP8 SUB SLT ISZERO PUSH2 0x2E83 JUMPI PUSH1 0x0 DUP1 REVERT JUMPDEST PUSH2 0x2E8C DUP6 PUSH2 0x2C13 JUMP JUMPDEST SWAP4 POP PUSH1 0x20 DUP1 DUP7 ADD CALLDATALOAD SWAP4 POP PUSH1 0x40 DUP7 ADD CALLDATALOAD PUSH8 0xFFFFFFFFFFFFFFFF DUP1 DUP3 GT ISZERO PUSH2 0x2EB1 JUMPI PUSH1 0x0 DUP1 REVERT JUMPDEST DUP2 DUP9 ADD SWAP2 POP DUP9 PUSH1 0x1F DUP4 ADD SLT PUSH2 0x2EC5 JUMPI PUSH1 0x0 DUP1 REVERT JUMPDEST DUP2 CALLDATALOAD DUP2 DUP2 GT ISZERO PUSH2 0x2ED7 JUMPI PUSH2 0x2ED7 PUSH2 0x2CB2 JUMP JUMPDEST DUP1 PUSH1 0x5 SHL PUSH2 0x2EE6 DUP6 DUP3 ADD PUSH2 0x2CC8 JUMP JUMPDEST SWAP2 DUP3 MSTORE DUP4 DUP2 ADD DUP6 ADD SWAP2 DUP6 DUP2 ADD SWAP1 DUP13 DUP5 GT ISZERO PUSH2 0x2F00 JUMPI PUSH1 0x0 DUP1 REVERT JUMPDEST SWAP5 DUP7 ADD SWAP5 JUMPDEST DUP4 DUP7 LT ISZERO PUSH2 0x2F1E JUMPI DUP6 CALLDATALOAD DUP3 MSTORE SWAP5 DUP7 ADD SWAP5 SWAP1 DUP7 ADD SWAP1 PUSH2 0x2F05 JUMP JUMPDEST SWAP8 POP POP POP POP PUSH1 0x60 DUP9 ADD CALLDATALOAD SWAP3 POP DUP1 DUP4 GT ISZERO PUSH2 0x2F37 JUMPI PUSH1 0x0 DUP1 REVERT JUMPDEST POP POP PUSH2 0x2E61 DUP8 DUP3 DUP9 ADD PUSH2 0x2CF9 JUMP JUMPDEST PUSH1 0x20 DUP1 DUP3 MSTORE DUP3 MLOAD DUP3 DUP3 ADD DUP2 SWAP1 MSTORE PUSH1 0x0 SWAP2 SWAP1 DUP5 DUP3 ADD SWAP1 PUSH1 0x40 DUP6 ADD SWAP1 DUP5 JUMPDEST DUP2 DUP2 LT ISZERO PUSH2 0x2F7D JUMPI DUP4 MLOAD DUP4 MSTORE SWAP3 DUP5 ADD SWAP3 SWAP2 DUP5 ADD SWAP2 PUSH1 0x1 ADD PUSH2 0x2F61 JUMP JUMPDEST POP SWAP1 SWAP7 SWAP6 POP POP POP POP POP POP JUMP JUMPDEST PUSH1 0x0 DUP1 PUSH1 0x40 DUP4 DUP6 SUB SLT ISZERO PUSH2 0x2F9C JUMPI PUSH1 0x0 DUP1 REVERT JUMPDEST DUP3 CALLDATALOAD SWAP2 POP PUSH1 0x20 DUP4 ADD CALLDATALOAD PUSH1 0xFF DUP2 AND DUP2 EQ PUSH2 0x2FB4 JUMPI PUSH1 0x0 DUP1 REVERT JUMPDEST DUP1 SWAP2 POP POP SWAP3 POP SWAP3 SWAP1 POP JUMP JUMPDEST PUSH1 0xC0 DUP2 ADD DUP2 DUP4 PUSH1 0x0 JUMPDEST PUSH1 0x6 DUP2 LT ISZERO PUSH2 0x2FE9 JUMPI DUP2 MLOAD ISZERO ISZERO DUP4 MSTORE PUSH1 0x20 SWAP3 DUP4 ADD SWAP3 SWAP1 SWAP2 ADD SWAP1 PUSH1 0x1 ADD PUSH2 0x2FC8 JUMP JUMPDEST POP POP POP SWAP3 SWAP2 POP POP JUMP JUMPDEST PUSH1 0x1 DUP2 DUP2 SHR SWAP1 DUP3 AND DUP1 PUSH2 0x3006 JUMPI PUSH1 0x7F DUP3 AND SWAP2 POP JUMPDEST PUSH1 0x20 DUP3 LT DUP2 SUB PUSH2 0x2270 JUMPI PUSH4 0x4E487B71 PUSH1 0xE0 SHL PUSH1 0x0 MSTORE PUSH1 0x22 PUSH1 0x4 MSTORE PUSH1 0x24 PUSH1 0x0 REVERT JUMPDEST PUSH4 0x4E487B71 PUSH1 0xE0 SHL PUSH1 0x0 MSTORE PUSH1 0x11 PUSH1 0x4 MSTORE PUSH1 0x24 PUSH1 0x0 REVERT JUMPDEST DUP2 DUP2 SUB DUP2 DUP2 GT ISZERO PUSH2 0x746 JUMPI PUSH2 0x746 PUSH2 0x3026 JUMP JUMPDEST PUSH1 0x0 DUP3 PUSH2 0x306C JUMPI PUSH4 0x4E487B71 PUSH1 0xE0 SHL PUSH1 0x0 MSTORE PUSH1 0x12 PUSH1 0x4 MSTORE PUSH1 0x24 PUSH1 0x0 REVERT JUMPDEST POP DIV SWAP1 JUMP JUMPDEST PUSH1 0x20 DUP1 DUP3 MSTORE PUSH1 0x1F SWAP1 DUP3 ADD MSTORE PUSH32 0x5265656E7472616E637947756172643A207265656E7472616E742063616C6C00 PUSH1 0x40 DUP3 ADD MSTORE PUSH1 0x60 ADD SWAP1 JUMP JUMPDEST PUSH4 0x4E487B71 PUSH1 0xE0 SHL PUSH1 0x0 MSTORE PUSH1 0x32 PUSH1 0x4 MSTORE PUSH1 0x24 PUSH1 0x0 REVERT JUMPDEST DUP1 DUP3 ADD DUP1 DUP3 GT ISZERO PUSH2 0x746 JUMPI PUSH2 0x746 PUSH2 0x3026 JUMP JUMPDEST PUSH1 0x20 DUP1 DUP3 MSTORE PUSH1 0x24 SWAP1 DUP3 ADD MSTORE PUSH32 0x6170706C6963616E7420616464726573732063616E6E6F742062652072657365 PUSH1 0x40 DUP3 ADD MSTORE PUSH4 0x1C9D9959 PUSH1 0xE2 SHL PUSH1 0x60 DUP3 ADD MSTORE PUSH1 0x80 ADD SWAP1 JUMP JUMPDEST PUSH1 0x20 DUP1 DUP3 MSTORE PUSH1 0x25 SWAP1 DUP3 ADD MSTORE PUSH32 0x70726F706F73616C206170706C6963616E74206D757374206E6F74206265206A PUSH1 0x40 DUP3 ADD MSTORE PUSH5 0x185A5B1959 PUSH1 0xDA SHL PUSH1 0x60 DUP3 ADD MSTORE PUSH1 0x80 ADD SWAP1 JUMP JUMPDEST PUSH1 0x0 PUSH1 0x20 DUP3 DUP5 SUB SLT ISZERO PUSH2 0x316C JUMPI PUSH1 0x0 DUP1 REVERT JUMPDEST DUP2 MLOAD DUP1 ISZERO ISZERO DUP2 EQ PUSH2 0x294C JUMPI PUSH1 0x0 DUP1 REVERT JUMPDEST PUSH1 0x20 DUP1 DUP3 MSTORE PUSH1 0x23 SWAP1 DUP3 ADD MSTORE PUSH32 0x70726F706F73616C2068617320616C7265616479206265656E2073706F6E736F PUSH1 0x40 DUP3 ADD MSTORE PUSH3 0x1C9959 PUSH1 0xEA SHL PUSH1 0x60 DUP3 ADD MSTORE PUSH1 0x80 ADD SWAP1 JUMP JUMPDEST PUSH1 0x0 PUSH1 0x1 DUP3 ADD PUSH2 0x31D1 JUMPI PUSH2 0x31D1 PUSH2 0x3026 JUMP JUMPDEST POP PUSH1 0x1 ADD SWAP1 JUMP JUMPDEST PUSH1 0x20 DUP1 DUP3 MSTORE PUSH1 0x17 SWAP1 DUP3 ADD MSTORE PUSH32 0x70726F706F73616C20646F6573206E6F74206578697374000000000000000000 PUSH1 0x40 DUP3 ADD MSTORE PUSH1 0x60 ADD SWAP1 JUMP JUMPDEST PUSH1 0x1F DUP3 GT ISZERO PUSH2 0x29EF JUMPI PUSH1 0x0 DUP2 DUP2 MSTORE PUSH1 0x20 DUP2 KECCAK256 PUSH1 0x1F DUP6 ADD PUSH1 0x5 SHR DUP2 ADD PUSH1 0x20 DUP7 LT ISZERO PUSH2 0x3236 JUMPI POP DUP1 JUMPDEST PUSH1 0x1F DUP6 ADD PUSH1 0x5 SHR DUP3 ADD SWAP2 POP JUMPDEST DUP2 DUP2 LT ISZERO PUSH2 0x3255 JUMPI DUP3 DUP2 SSTORE PUSH1 0x1 ADD PUSH2 0x3242 JUMP JUMPDEST POP POP POP POP POP POP JUMP JUMPDEST DUP2 MLOAD PUSH8 0xFFFFFFFFFFFFFFFF DUP2 GT ISZERO PUSH2 0x3277 JUMPI PUSH2 0x3277 PUSH2 0x2CB2 JUMP JUMPDEST PUSH2 0x328B DUP2 PUSH2 0x3285 DUP5 SLOAD PUSH2 0x2FF2 JUMP JUMPDEST DUP5 PUSH2 0x320F JUMP JUMPDEST PUSH1 0x20 DUP1 PUSH1 0x1F DUP4 GT PUSH1 0x1 DUP2 EQ PUSH2 0x32C0 JUMPI PUSH1 0x0 DUP5 ISZERO PUSH2 0x32A8 JUMPI POP DUP6 DUP4 ADD MLOAD JUMPDEST PUSH1 0x0 NOT PUSH1 0x3 DUP7 SWAP1 SHL SHR NOT AND PUSH1 0x1 DUP6 SWAP1 SHL OR DUP6 SSTORE PUSH2 0x3255 JUMP JUMPDEST PUSH1 0x0 DUP6 DUP2 MSTORE PUSH1 0x20 DUP2 KECCAK256 PUSH1 0x1F NOT DUP7 AND SWAP2 JUMPDEST DUP3 DUP2 LT ISZERO PUSH2 0x32EF JUMPI DUP9 DUP7 ADD MLOAD DUP3 SSTORE SWAP5 DUP5 ADD SWAP5 PUSH1 0x1 SWAP1 SWAP2 ADD SWAP1 DUP5 ADD PUSH2 0x32D0 JUMP JUMPDEST POP DUP6 DUP3 LT ISZERO PUSH2 0x330D JUMPI DUP8 DUP6 ADD MLOAD PUSH1 0x0 NOT PUSH1 0x3 DUP9 SWAP1 SHL PUSH1 0xF8 AND SHR NOT AND DUP2 SSTORE JUMPDEST POP POP POP POP POP PUSH1 0x1 SWAP1 DUP2 SHL ADD SWAP1 SSTORE POP JUMP JUMPDEST DUP1 DUP3 MUL DUP2 ISZERO DUP3 DUP3 DIV DUP5 EQ OR PUSH2 0x746 JUMPI PUSH2 0x746 PUSH2 0x3026 JUMP INVALID KECCAK256 PUSH8 0x7881080440A9B3C8 PUSH31 0x826370BB5D9C2F74EFD4DEDE686D52D77A6A09F8BBA2646970667358221220 SWAP13 SWAP3 0xC9 0xF6 0xEC PUSH5 0x103161DB45 JUMPI PUSH8 0x6CBB4C1F742A2FC3 SWAP11 NOT SWAP3 CHAINID 0x2E SELFDESTRUCT CALL 0xEA LOG2 GAS SWAP8 PUSH5 0x736F6C6343 STOP ADDMOD GT STOP CALLER "},"methodIdentifiers":{"ESCROW()":"e681c4aa","GUILD()":"f5d54c77","TOTAL()":"27efc086","a_testme()":"464e60fb","cancelProposal(uint256)":"e0a8f6f5","depositToken()":"c89039c5","dilutionBound()":"afe5475f","getCurrentPeriod()":"086146d2","getMemberProposalVote(address,uint256)":"044a0ca8","getPaymentRequested(uint256)":"62312524","getProposalFlags(uint256)":"b2643aab","getUserTokenBalance(address,address)":"73f8fd4b","gracePeriodLength()":"63858f2d","hasVotingPeriodExpired(uint256)":"9425a476","members(address)":"08ae4b0c","periodDuration()":"b470aade","preProcessProposal(uint256)":"87dfc825","processProposal(uint256)":"e63bc62d","proposalCount()":"da35c664","proposalDeposit()":"8b15a605","proposals(uint256)":"013cf08b","proposedToKick(address)":"3fc24bba","ragekick(address)":"dfdd369e","ragequit(uint256,uint256)":"15eb349e","sponsorProposal(uint256)":"9746d940","submitGuildKickProposal(address,string)":"115b2d18","submitJoinProposal(address,uint256,uint256,string)":"4c105631","submitProjectProposal(address,uint256,uint256[],string)":"523a97ca","submitVote(uint256,uint8)":"99653fbe","summoningTime()":"7d5b6c72","totalShares()":"3a98ef39","userTokenBalances(address,address)":"45f2d105","votingPeriodLength()":"8340bbce","withdrawBalance(uint256)":"da76d5cd"}}}}}